:020000041000EA
:1000000000B5324B212058609868022188439860DF
:10001000D860186158612E4B002199600221596106
:100020000121F02299502B49196001219960352056
:1000300000F044F80222904214D00621196600F024
:1000400034F8196E01211966002018661A6600F04E
:100050002CF8196E196E196E052000F02FF8012189
:100060000842F9D1002199601B49196000215960AB
:100070001A491B48016001219960EB211966A021F2
:10008000196600F012F800219960164914480160C1
:100090000121996001BC002800D000471248134993
:1000A000086003C880F30888084703B5996A0420EC
:1000B0000142FBD001200142F8D103BD02B5186610
:1000C0001866FFF7F2FF186E186E02BD00000240BE
:1000D000000000180000070000035F00212200005C
:1000E000F4000018222000A00001001008ED00E03C
:1000F00000000000000000000000000074B24E7A12
:1001000000200420F7010010C3010010C5010010F9
:10011000C1010010C1010010C1010010C101001097
:10012000C1010010C1010010C1010010C701001081
:10013000C1010010C1010010C9010010CB01001065
:10014000CD010010CD010010CD010010CD01001037
:10015000CD010010CD010010CD010010CD01001027
:10016000CD010010CD010010CD010010CD01001017
:10017000CD010010CD010010CD010010CD01001007
:10018000CD010010CD010010CD010010CD010010F7
:10019000CD010010CD010010CD010010CD010010E7
:1001A000CD010010CD010010CD010010CD010010D7
:1001B000CD010010CD010010CD010010CD010010C7
:1001C00000BE00BE00BE00BE00BE00BEEFF3058054
:1001D000103800BEF2EB887194B40110B4B4011071
:1001E0003402001090A31AE700201F49086006C8D7
:1001F00081F3088810471D48006800282FD10DA4FE
:100200000ECC002902D000F012F8F9E71849194A7B
:10021000002000E001C19142FCD1174988471749ED
:1002200088471749884700BEFDE701C901C29A42C5
:10023000FBD37047B4B40110C00000207425002027
:1002400068D90110000004200000042068D90110C2
:10025000001004200010042000000000704709482E
:1002600007F0A0FA0047000008ED00E0000000D011
:1002700078250020E83B0220895E0010492000100C
:10028000BD5F00105756000006005250ABB36053DC
:10029000CC8D011006005250861C0302DC8D01102B
:1002A000060052505422A29DE88D011005005250C4
:1002B000DE65F46868D90110F8B5C04606480749FC
:1002C000091A8B10C90FC91810B5491003D0044B77
:1002D000002B00D0984710BD742500207425002005
:1002E00000000000054B10B5002B03D00449054861
:1002F00000E000BFFFF7E2FF10BDC04600000000B5
:10030000DC370020B88A0110C02370B50B4EF458BA
:100310000433F558AC4207D0200024340AF034FEF0
:10032000A542F9D1C023F558002D05D0C823F158B6
:100330002800491B08F024FA70BDC046CC290020D3
:10034000F8B54746CE4680B5070084688846150054
:100350000437002C26D0B94666692A00B54200D978
:100360003200002A23D04146206917F0B9F800284E
:100370001DD01EDBA146A468002CEDD14F4511D045
:100380004B465C692A00A54215D8002A06D04B4688
:100390004046196917F0A4F8002800D1281B00284E
:1003A00000DB4F463800C0BCB946B046F8BD701BF4
:1003B000E0D5E468E0E7221EE9D1EFE770B50F4E23
:1003C00034687568AC420CD023002068083398422A
:1003D0000FD0A1681834013108F0D2F9A542F3D149
:1003E0003568002D04D0B1682800491B08F0C8F911
:1003F00070BD1834A542E7D1F2E7C046D02A0020EC
:10040000F0B5C64600B5070090B0081C90461C0029
:100410000E1C08F09FF8050008F07AF8011C301C4B
:1004200008F04FF8124908F066F808F093F84246D1
:10043000631C019006000F49009503A807F068F9B6
:100440003B1998465B79B34202D13B5DAB420AD07F
:10045000094803A901F07EFE084803A901F07AFECD
:1004600043465E713D5510B080BCB846F0BDC046F5
:1004700000002041B88A0110004003400080034082
:10048000F0B5CE46474680B5784D0C0006C899B009
:100490002800FFF755FF04350600A84253D06A46EE
:1004A0002378E56813706368A768019304AB9946E5
:1004B00002930C950F2D4FD8012D00D0AAE06A466B
:1004C0003B7813744B46002703955F55626A236A95
:1004D0000020D11A884600210A97089009919A4273
:1004E00036D04346002B00DAB2E0404608F040F92F
:1004F0004346216A676AC31805007F1A089009906D
:100500000A93012F00DCA5E03A0017F00DF82E2326
:100510002C222D21ED1909956846F35CB25C715CC3
:1005200003F09CF905000898002803D00A99091ADD
:1005300008F026F90298484503D00499013108F0E3
:100540001FF9002D17D119B0C0BCB946B046F0BD97
:10055000434600250A93DAE700220CA902A80DF011
:10056000EBFD0C9B029004932A00390008F0FAF886
:100570000C9D029BA7E76A46302123785218B76A80
:1005800013706368E5680D93A36810AE98460E96E5
:1005900000950F2D4DD8012D46D16A4640211B787C
:1005A00052181370330000220F955A559446236A4F
:1005B000626A0020D11A8846002114901591614684
:1005C00016919A422BD04346002B41DB404608F05F
:1005D000CFF84346216A646AC3180500641A149070
:1005E00015901693012C3BDD220016F09DFF2C196F
:1005F0000CA81594B8471498002803D01699091A26
:1006000008F0BEF80E98B0429DD01099013108F064
:10061000B7F898E7002D00D155E71800A4E7434646
:10062000002400251693E2E73300002DBBD03000F4
:1006300007E0002269460EA80DF07EFD009B0E909B
:1006400010932A00414608F08DF8009D0E9BAAE702
:100650000DF016FC012F00D059E70B78037056E718
:10066000012CC4D10B780370C1E7C046A429002037
:10067000F0B54746CE4680B5AB4D0C0006C8A5B0D8
:100680002800FFF75DFEA16804358846070069462B
:1006900022786368E668A84266D0019304AB994665
:1006A0000A70029318960F2E4BD8012E00D0A5E0A9
:1006B00043461B780B744B46002503969D55626A92
:1006C000236A0020D11A884600210A9508900991D2
:1006D0009A4245D04346002B00DA12E1404608F02A
:1006E00047F84346216A666AC3180500761A0890DF
:1006F00009900A93012E00DC05E1320016F014FF88
:100700002E232C222D21AD1909956846FB5CBA5C7D
:10071000795C03F0A3F805000898002803D00A9933
:10072000091A08F02DF80298484503D004990131C0
:1007300008F026F8002D66D125B0C0BCB946B046F9
:10074000F0BD002218A902A80DF0F6FC189B02903B
:1007500004933200414608F005F8189E029BABE76F
:10076000434600260A93CBE760201CAF09180A70A5
:100770000C9619931A970F2E00D9AEE0012E00D0D7
:100780009EE043466A4670211B78521813703B0066
:100790000025002000211B969D55626A236A209047
:1007A0002191D61A22959A4200D18FE0002E00DACC
:1007B000A7E0300007F0DCFF216A646A86190500B3
:1007C000641A209021902296012C00DCA1E02200E6
:1007D00016F0AAFE18A82D19219502F0F7FC209812
:1007E000002803D02299091A07F0CAFF1A98B842C4
:1007F000A2D01C99013107F0C3FF9DE7002E00D164
:100800005AE71800A5E76A463021BB6A5218994694
:100810002378E7681370636810AEA5680D930E9691
:1008200018970F2F3DD8012F66D16A4640212B78AB
:1008300052181370330000250F97DD55626A236A42
:100840000020D11A884600211695149015919A42DD
:100850003FD04346002B54DB404607F089FF434618
:10086000216A646AC3180500641A149015901693DF
:10087000012C54DD220016F057FE2C190CA81594FB
:10088000C8471498002803D01699091A07F078FF72
:100890000E98B04200D14FE71099013107F070FF78
:1008A0004AE7002218A90EA80DF046FC189B0E90EE
:1008B00010933A00290007F055FF189F0E9BBAE7E6
:1008C0003B00002E00D163E738000EE000242296A2
:1008D00080E7434600241693CFE700220CA91AA80C
:1008E0000DF02AFC0C9B1A901C933200414607F035
:1008F00039FF0C9E1A9B4BE73300002F9BD0300032
:10090000D7E70DF0BDFA012E00D0F9E60B780370A1
:10091000F6E6012C00D05DE70B7803705AE7012C56
:10092000ABD10B780370A8E7A4290020F0B5CE4620
:10093000474680B5784D0C0006C899B02800FFF7EF
:10094000FFFC04350600A84253D06A462378E568C8
:1009500013706368A768019304AB994602930C95E2
:100960000F2D4FD8012D00D0AAE06A463B781374B2
:100970004B46002703955F55626A236A0020D11A0F
:10098000884600210A97089009919A4236D043463A
:10099000002B00DAB2E0404607F0EAFE4346216A47
:1009A000676AC31805007F1A089009900A93012FFF
:1009B00000DCA5E03A0016F0B7FD2E232C222D21F5
:1009C000ED1909956846F35CB25C715C02F046FF74
:1009D00005000898002803D00A99091A07F0D0FEEC
:1009E0000298484503D00499013107F0C9FE002D53
:1009F00017D119B0C0BCB946B046F0BD434600257A
:100A00000A93DAE700220CA902A80DF095FB0C9BD3
:100A1000029004932A00390007F0A4FE0C9D029B6B
:100A2000A7E76A46302123785218B76A13706368C3
:100A3000E5680D93A36810AE98460E9600950F2DAD
:100A40004DD8012D46D16A4640211B7852181370AB
:100A5000330000220F955A559446236A626A00209B
:100A6000D11A8846002114901591614616919A4238
:100A70002BD04346002B41DB404607F079FE43462E
:100A8000216A646AC3180500641A149015901693BD
:100A9000012C3BDD220016F047FD2C190CA8159403
:100AA000B8471498002803D01699091A07F068FE71
:100AB0000E98B0429DD01099013107F061FE98E781
:100AC000002D00D155E71800A4E743460024002577
:100AD0001693E2E73300002DBBD0300007E0002280
:100AE00069460EA80DF028FB009B0E9010932A007B
:100AF000414607F037FE009D0E9BAAE70DF0C0F9B6
:100B0000012F00D059E70B78037056E7012CC4D1B0
:100B10000B780370C1E7C046742900200368F0B564
:100B20004546DE4657464E469A46E0B515005246C3
:100B3000436887B09A1AD210019393009B18884695
:100B400019015B1819025B1819045B185B009B18EC
:100B50006E4A8346934200D1D4E0414650460C1A77
:100B600001998A4500D1ADE059008B4200D990E04F
:100B7000002900D0A9E0182302930023994603938B
:100B80004C4420002E686D680830206005950F2DBC
:100B900000D9A3E0012D00D19DE0002D00D0A5E0FB
:100BA000002365604355C24525D0564655464C4600
:100BB000474608362000083020602B686A68B34238
:100BC00000D172E02360AB681835A360626018360C
:100BD0001834BD42EED13A005346B846183AD21AFC
:100BE0004B4BD2085343DB00DA089B089B18DB0011
:100BF00030334B440293019B434532D04646454631
:100C0000029C083609E02360AB681835A360019B9D
:100C1000676018361834AB4211D020002B680830BA
:100C20006F682060B342EED131007A1C07F09AFD64
:100C3000019B1835676018361834AB42EDD1424637
:100C4000019B9F1A183F324BFF087B43DB00DB08F8
:100C500001335A00D318029ADB0094469C44634641
:100C600002935346002B06D05B4699685346504684
:100C7000C91A07F085FD5B464A461A60029A5A6017
:100C8000039A9A6007B0F0BCBB46B246A946A0469C
:100C9000F0BD204E300007F06BFD330081464B4421
:100CA000039318234B4402936AE73100013207F0A3
:100CB00059FD6B681835636018361834BD4200D092
:100CC00078E788E7591C0133E3D2914215D84E00EA
:100CD0007618F600DEE73378237261E70022200001
:100CE00005A90DF029FA059B2060A3602A003100B8
:100CF00007F038FD059D206852E711004E00761878
:100D0000F600C7E704480DF0FBF8C04655555505F9
:100D1000ABAAAA0AF8FFFF7FC88A0110F8B54546BA
:100D2000DE4657464E460368E0B5934646682F4A6E
:100D3000984605000F00F31A934253D04146791AA2
:100D40008A46002B44D091465900994243D24846E6
:100D500007F00EFD5B4652461B78040083540123C6
:100D600053449B46F61B002A27DC8344002E0DDCEF
:100D700043465E44002B19D12C604C446E60AC603D
:100D8000F0BCBB46B246A946A046F8BD32003900C9
:100D9000584607F0E7FC43465E44002BECD005E0E4
:100DA00032003900584607F0DDFC5E444346A9682E
:100DB000C91A404607F0E4FCDEE7414616F0B4FBF2
:100DC000A344002EECDC4346A9685E44C91AF0E750
:100DD00001239946BBE7802389461B069942B6D377
:100DE0009146B4E702480DF08BF8C046FFFFFF7F45
:100DF000C88A0110F8B54546DE4657464E46036898
:100E0000E0B5934646682F4A984605000F00F31A4E
:100E1000934253D04146791A8A46002B44D09146DA
:100E20005900994243D2484607F0A2FC5B4652461D
:100E30001B7804008354012353449B46F61B002A6D
:100E400027DC8344002E0DDC43465E44002B19D181
:100E50002C604C446E60AC60F0BCBB46B246A94608
:100E6000A046F8BD32003900584607F07BFC4346E7
:100E70005E44002BECD005E032003900584607F004
:100E800071FC5E444346A968C91A404607F078FCE5
:100E9000DEE7414616F048FBA344002EECDC434657
:100EA000A9685E44C91AF0E701239946BBE780238D
:100EB00089461B069942B6D39146B4E702480DF025
:100EC0001FF8C046FFFFFF7FC88A0110F0B5DE465D
:100ED0004E4645465746E0B5BDB009AB9B460BAB09
:100EE0005A46099300235360137211AA04910FAE5E
:100EF0000F923D21002204000290337273600DF0C6
:100F00009DF90500431C17D10F9811AB984203D0EF
:100F1000B168013107F034FC09980BAB984204D05A
:100F20005B469968013107F02BFC3DB0F0BCBB4635
:100F3000B246A946A046F0BD33AA904631926768F2
:100F400022689246874200D9070026970F2F00D9C2
:100F500071E2012F00D061E253461B7831AC23725D
:100F6000424600236760D355319B0998434500D121
:100F7000C0E20BAF3299339AB84200D1A3E25F4688
:100F80000993BF680A910B92002800D19EE231902C
:100F9000A7600023636003703198404503D0A168C7
:100FA000013107F0EDFB029B01355B689D4200D9E2
:100FB000C6E342463192029A17687F195D1B269557
:100FC0000F2D00D953E2012D00D124E2002D00D0D5
:100FD00012E34246002365605355319B0F98434509
:100FE00000D198E211AD3299339AA84200D161E262
:100FF000B5680F9310911192002800D15DE23190F5
:10100000A5600023636003703198404503D0A16858
:10101000013107F0B5FBBD4D28000CF06FFD002835
:1010200000D018E200230027069307930893039348
:1010300001933A002C2130000DF000F90500431C0B
:1010400037D07368EA1B9F4200D971E341462160A3
:1010500031688946B944DF1B974200D917002697AB
:101060000F2F00D9FBE0012F00D1F4E0002F00D0BA
:10107000B9E0424600236760D3556768002F00D06F
:10108000BFE06F1C3A002C2130000DF0D7F8013082
:1010900000D1D7E020684045CBD0A168013107F0EE
:1010A0006FFB3A002C2130000DF0C8F80500431CFE
:1010B000C7D173689F4200D93AE30F9D17AAA9468A
:1010C000DD1B1592B94431950F2D00D9DEE1012DBC
:1010D00000D1A9E1002D00D090E217AA00231695B7
:1010E0005355169D002D00D11CE1002300221599B7
:1010F00005E00133DBB21A009D4200D81EE28A5C93
:10110000303A092AF5D9079B9946019B5A1E93410B
:1011100003225B421A40931C03937D4D28000CF080
:10112000EDFC7C4F002800D006E1029B069D19686B
:101130002A783B7801919A4200D013E10B78432B37
:1011400003D14B784D2B00D17AE2802206AB9B185D
:10115000039A90211A70049B06AA279301232AAFB1
:10116000299352182F33289713804B465C1B00237A
:101170002E932F933093A94500D1B7E1002C00DACC
:1011800052E2200007F0F4FA031998462E902F90AF
:101190003093012C00D1C8E22200290016F0C4F9D6
:1011A0004346584626A92F93FFF76AF92E98002840
:1011B00003D03099091A07F0E3FA2898B84203D00F
:1011C0002A99013107F0DCFA089C159817AB641BCB
:1011D000984203D01799013107F0D2FA2100280074
:1011E00007F0CEFA90E640463A00494607F0BAFAD0
:1011F0000023269F22686760D3556768002F00D1BF
:101200003FE70022216804E00133DBB21A00BB4251
:101210002ED28A5C303A092AF6D9019B5A1E934194
:1012200003225B421A40931C0393019B6F1C013302
:10123000DBB23A002C21300001930CF0FFFF0130AB
:1012400000D027E73198404500D132E7A16801314D
:1012500007F096FA2DE74B461B78237209E7002228
:10126000200026A90CF068FF269B2060A360BBE746
:10127000294B9A465B68994653469B68994500D12D
:101280002AE148464B4608301860236826970593A4
:101290000F2F00D9ADE0012F00D0B4E04A461B78F3
:1012A00013724B465F600023C355534652465B683A
:1012B000183353602368994615F00EFE03689A466A
:1012C00015F00AFE00230A2203601BA9484615F008
:1012D00051FA1B9B0700994500D139E215F0FCFD3E
:1012E0000368222B00D130E215F0F6FD0368002BD5
:1012F00000D1DAE00799089BFFB226AA177099423D
:1013000000D175E10F70013107918EE7542900205B
:1013100050290020CC290020D02A0020220006A835
:10132000FFF768FDC14D079B280099460CF0E6FBCE
:10133000BF4F002800D1F8E60023C022BB50043282
:10134000BB50BC480432BB5016F0C8FA28000CF061
:10135000F1FB029B069D19682A783B7801919A421D
:1013600000D1EBE6039B2370049B636035AB9A4688
:10137000A360029B5F6826970F2F00D929E1012FF8
:1013800000D1D8E0002F00D03AE152460023E760B8
:10139000D3554A462362571B6362A362A94500D115
:1013A000A0E0002F00DA3FE1380007F0E1F9C319AF
:1013B000984620626062A362012F00D1B2E13A0038
:1013C000290016F0B1F84346584621006362FFF742
:1013D0004FF9206A002803D0A16A091A07F0D0F952
:1013E000A068504500D1EFE62169013107F0C8F946
:1013F000EAE60022484626A90CF09EFE4B464A46E5
:101400001860269B93603A00059907F0ABF94B46AC
:10141000269F186845E73B782372DAE531AC002F48
:1014200000D19DE540460FE04B4644211B7806AABB
:101430005218137051E631AC0022200026A90CF09E
:101440007BFE269B3190A3603A00514607F08AF953
:10145000269F319A85E50022774B78481A605A60BA
:101460009A6016F03BFA28000CF064FBDAE50022E3
:10147000200026A90CF060FE269B3190A3602A0074
:10148000390007F06FF9269D319AA3E5002221006B
:1014900015A80CF051FE319B159017932A00494670
:1014A00007F060F9319D159A18E615F015FD5346C1
:1014B00003601FE70F93109111924346319333ABB2
:1014C000984618009DE509930A910B924346319383
:1014D00033AB984618005CE5220049465046FFF7BA
:1014E0001DFBE7E698462762A7626CE798462E94B4
:1014F000309455E66268002A07D0012A00D1F4E052
:10150000414607F02FF9626809985B465A6000234C
:10151000835431983DE56268002A07D0012A00D142
:10152000E8E0414607F01EF962680F9800237260F8
:101530008354319865E50B78237426E73E4B994632
:101540005B689A464B469B689A4500D1C7E0504677
:10155000534608301860159F31950F2D52D8012D34
:101560005AD152463B78137253465D60002343556F
:101570004B464A465B6818335360159B994615F0F5
:10158000ABFC03689A4615F0A7FC00230A2203600F
:1015900026A9484615F0EEF8269B0500994500D18E
:1015A000D6E015F099FC0368222B00D1CDE015F0B0
:1015B00093FC0368002B00D18CE00799089BEDB2E7
:1015C0002570994200D1A9E64B1C99460D700793EE
:1015D000A3E50022404626A90CF0AEFD269BA060A4
:1015E00023613A00019907F0BDF8269FA268CDE675
:1015F00006A8FFF7FFFB18E6404640E717A84DE7AF
:101600005046EEE70022210050460CF095FD53466F
:1016100052461860319B93602A00390007F0A2F807
:101620005346319D18689FE70CF02AFC5029002092
:10163000CC29002009030010D02A0020BD0300108F
:10164000542206AB9B18039A1A70049B1C931FAB81
:1016500098461D93029B5F6831970F2F59D8012F31
:1016600051D0002F2ED1424600231E97D3554A4613
:101670002393541B24932593A94540D0002CD3DBFE
:10168000200007F075F80719239024902597012C66
:1016900053D02200290015F047FF58461BA9249774
:1016A000FFF744F92398002803D02599091A07F079
:1016B00067F81D98404500D186E51F99013107F074
:1016C0005FF881E540463A00019907F04BF8319FF9
:1016D0001D9AC9E715F000FC534603606DE75146BB
:1016E000484615AAFFF71AFA47E7237A037062689B
:1016F00009980AE7237A037062680F9816E70027B3
:1017000023942594C9E70B78642106AA5218137014
:10171000A9E7002221001DA80CF00EFD319B1D90B1
:101720001F93D0E72B7803704DE62B78037037E5D5
:101730003A00094909480CF013FC2B780370ACE718
:101740002A00054905480CF00BFC05480CF0F0FB9D
:1017500003480CF0BDFBC046E48A0110FC8A01106E
:10176000348B0110F8B54546DE4657464E460368B1
:10177000E0B5934646682F4A984605000F00F31AD5
:10178000934253D04146791A8A46002B44D0914661
:101790005900994243D2484606F0EAFF5B4652465A
:1017A0001B7804008354012353449B46F61B002AF4
:1017B00027DC8344002E0DDC43465E44002B19D108
:1017C0002C604C446E60AC60F0BCBB46B246A9468F
:1017D000A046F8BD32003900584606F0C3FF434624
:1017E0005E44002BECD005E032003900584606F08C
:1017F000B9FF5E444346A968C91A404606F0C0FFD7
:10180000DEE7414615F090FEA344002EECDC434693
:10181000A9685E44C91AF0E701239946BBE7802313
:1018200089461B069942B6D39146B4E702480CF0AC
:1018300067FBC046FFFFFF7FC88A0110F0B5454631
:1018400057464E46DE469046E0B500221F00002374
:1018500093B00292039300230A780E001C9D01901E
:101860000493002A00D124E1002400218C4265D099
:101870000A700131039172780136002AF6D13D22B7
:1018800005AE3270A14200D117E10A700131039117
:101890002B78002B17D08C4200D11EE10B70013148
:1018A00003916B78002B0ED0A14200D11DE10B708B
:1018B00001310391AB78002B05D0A14200D11BE18F
:1018C0000B7001310391002F44D02C2333708C42D4
:1018D00000D1DEE00B70013103917B1E9B460A2391
:1018E0009A462233002599460FE0A14200D1B7E085
:1018F0000B70013103914B4633708C4216D00B7044
:10190000013103910135BD422CD243465B5D30333A
:10191000DBB233705D45E8D1A14200D1B1E00B707C
:1019200001310391534633708C42E8D121003200DB
:1019300002A8FFF717FF0399049CE3E73200210098
:1019400002A80136FFF7EAF932780399049C002ACD
:101950008CD194E70A2333708C4200D1A1E00B7044
:101960000131039100233370A14200D1ADE00B702F
:1019700001310391029D491B4B1C67D0052959D9A0
:101980006B1CF31A022B55D9AB0753D12A680131CE
:101990008B080592012B00D1B5E06A680692022BF4
:1019A00025D0AA680792032B21D0EA680892042B5D
:1019B0001DD02A690992052B19D06A690A92062B53
:1019C00015D0AA690B92072B11D0EA690C92082B4B
:1019D0000DD02A6A0D92092B09D06A6A0E920A2B41
:1019E00005D0AA6A0F920B2B01D0EB6A1093032348
:1019F0000B420ED00A009A431300AA5CF2545A1C00
:101A00008A4206D2A85C0233B054994201D9EA5CFA
:101A1000F254019800282BD0310000F09BFB2800E5
:101A2000611B06F0ADFE13B0F0BCBB46B246A94642
:101A3000A046F0BD02AA0B209446012302316F1E7E
:101A40006044FA5CC25401338B42FAD1019B002BF3
:101A50000ED01800310000F07DFB002DE3D0DEE752
:101A60002100320002A8FFF77DFE049C039942E7A3
:101A70003100274800F06EFB3100264800F06AFB79
:101A8000EBE72100320002A8FFF76CFE049C0399EB
:101A900048E72100320002A8FFF764FE0399049C86
:101AA0001BE72100320002A8FFF75CFE0399049CAB
:101AB00058E73D23002405AE33702100320002A810
:101AC000FFF750FE0399049CE2E62100320002A8D1
:101AD000FFF748FE0399049C4CE721002A0002A866
:101AE000FFF71CF90399049CDBE66A1C02A8FFF7C8
:101AF00015F90399049CDDE6AA1C02A8FFF70EF96C
:101B00000399049CDFE62B7905223371042379E7DE
:101B1000008003400040034070B50400054D0A22D8
:101B2000296806F01FFE20002968B6220A3006F058
:101B300019FE70BDEC1E002070B50400EFF3108597
:101B400072B6802636030A21300016F04DFF85F369
:101B500010880A222100300016F00EFF85F310884D
:101B6000064D0A222968200006F0FCFD20002968A5
:101B7000B6220A3006F0F6FD70BDC046EC1E00200D
:101B8000F8B504000D00EFF3108772B68026360317
:101B90000A21300016F028FF87F310882570EFF334
:101BA000108572B60A222100300016F0E5FE85F39A
:101BB0001088064D0A222968200006F0D3FD200077
:101BC0002968B6220A3006F0CDFDF8BDEC1E0020D3
:101BD000C02370B50B4EF4580433F558AC4207D00F
:101BE0002000243409F0D0F9A542F9D1C023F558DA
:101BF000002D05D0C823F1582800491B06F0C0FD70
:101C000070BDC046CC2900200368F0B54E4657464B
:101C100045469A46DE46E0B515005246436883B015
:101C20009A1A92100093D3009B1A0E000C0099018F
:101C30005B18DB009B18D903CB1ADB009B18424AC8
:101C40008146934200D17CE05146711A8846009942
:101C50008A4565D059008B424DD8002963D143464F
:101C600007CD07C307CD07C307CD07C300239B4696
:101C70000193B24562D05F465546A0463B002A001C
:101C800013CA13C313CA13C313CA13C328002435BA
:101C900009F07AF93B002437B542EFD14833444686
:101CA0001D00009BB3420FD01E002B00220083CAF0
:101CB00083C383CA83C383CA83C32000243409F047
:101CC00063F92435A642F0D15346002B06D04B468B
:101CD000996853465046C91A06F052FD4B465A467B
:101CE0001A60019A5D609A6003B0F0BCBB46B246D0
:101CF000A946A046F0BD154F380006F039FD3B005F
:101D000083465B44019343465B4407CD07C307CD3D
:101D100007C307CD07C35D462435B245ABD1C0E745
:101D2000591C0133E7D2914203D8CB005B189F00C6
:101D3000E2E71100CB005B189F00DDE72425009E41
:101D4000B3E703480CF0DCF8E3388E03ECFFFF7FC9
:101D5000C88A0110F0B5D64646464F46C0B50820A1
:101D60008AB002F005FB092002F002FB002002F01D
:101D7000FFFA012002F0FCFA0221082002F0E0FA4A
:101D80000221092002F0DCFA0221002002F0D8FA38
:101D90000221012002F0D4FA96212D48890103F096
:101DA00087FD96212B48890103F082FD2A4C2000F3
:101DB0000BF0A4FE294E00283CD1294D01AC6B1D2F
:101DC0009946C4239A460433984601220023697A2F
:101DD0005242200009F002F8200009F017F853469B
:101DE000F1584346F358994218D00B00220083CA99
:101DF00083C383CA83C383CA83C353465246F358FB
:101E0000200024330135B35009F0BEF84D45DCD134
:101E10000AB0E0BCBA46B146A846F0BD3000220088
:101E2000C030FFF7F1FE0135200009F0ADF84D4557
:101E3000CBD1EDE70023C022B3500432B3500948A0
:101E40000432B35015F04AFD20000BF073FEB4E7E6
:101E5000004003400080034050290020CC2900208E
:101E6000F01E0020D11B0010F0B5D64646464F4666
:101E7000C0B506F05DFE6B4DAB1D9A460123994639
:101E8000D0231B062C002E009846377801363800E8
:101E900002F06EFA4B464246BB405362B245F4D163
:101EA000FFF758FF6B1D9A4601239946D0231B0666
:101EB0002E009846B77B0136380002F059FA4B469F
:101EC0004246BB4093625645F4D1EB1C994607232A
:101ED0009846554B00269A46A7790134380002F0FF
:101EE00047FA0421380002F02BFA43467A081A40D8
:101EF00093009B184D494E4A9B009A18591816603A
:101F00000E604C4959180E604B498C46514663444B
:101F10001960402353603F3B13604C45DCD1474F71
:101F200038000BF0EBFD464C00286ED12000FFF787
:101F3000F3FD01232A7893406278002A34D1D0221D
:101F40001206936101236A789340A278002A34D163
:101F5000D022120693610123AA789340E278002AE6
:101F600034D1D022120693610123EA78934022797A
:101F7000002A34D1D0221206936101232A7993409A
:101F80006279002A34D1D0221206936101236A7942
:101F90009340A279002A34D0D02212065361E0BCCB
:101FA000BA46B146A846F0BDD022120653610123BD
:101FB0006A789340A278002ACAD0D02212065361D0
:101FC0000123AA789340E278002ACAD0D0221206D0
:101FD00053610123EA7893402279002ACAD0D022A3
:101FE0001206536101232A7993406279002ACAD0EC
:101FF000D0221206536101236A799340A279002A04
:10200000CAD1D02212069361C9E7C023E650043337
:10201000E6500C480433E65015F060FC38000BF035
:1020200089FD83E7F01E0020FFFF00000800054047
:10203000000005400C00054010000540502900201C
:10204000CC290020D11B001030B583B0FFF70CFF66
:102050000024022580220023174912011748019409
:1020600000950AF003FD802200231549120115484E
:10207000019400950AF0FAFC8022002312495200D4
:102080001248019400950AF0F1FC802200231049C7
:1020900052001048019400950AF0E8FC03238022C6
:1020A0000D490093120100230C4801940AF0DEFC54
:1020B0000AF05AFEFEE7C0463C8B01109D29001035
:1020C0004C8B01101D2A00105C8B01109D2A001002
:1020D000688B0110AD2A0010748B0110012B0010C9
:1020E000C02370B50B4EF4580433F558AC4207D0FA
:1020F0002000243408F048FFA542F9D1C023F55848
:10210000002D05D0C823F1582800491B06F038FBE4
:1021100070BDC046CC29002070B50D4D32228369B8
:1021200004000021280006F017FB002010221100F7
:10213000A36919401A42FAD12368DBB22B540A2B47
:1021400002D00130C0B2F2E72954280070BDC04669
:102150009C2A0020F0B50C78002C1BD0144D0022D6
:1021600045196F427D410D272023BC46114E6D005D
:10217000002A10D1AA5FA24214D082691342FCD176
:1021800004600A7801310D3A544262410C78D2B2AF
:10219000002CEDD1F0BD82691342F1D08269134267
:1021A000F9D1EDE782691342FCD162460260E4E7AF
:1021B0000080FCBFD43A0020F0B5C64600B52A4CDA
:1021C00086B020000BF09AFC284E00283ED10A224F
:1021D000002103A806F0C0FA0822002101A806F099
:1021E000BBFA234B00250024C027984604E00134A5
:1021F000E4B22435052C25D0F05901A9401908F086
:10220000CDFE6B461B79002BF1D0F0590023012243
:10221000401901A908F0FAFF41463278684605F0F6
:1022200077FAF0590022401901A909F073F9230047
:102230000134011C6A4603A8E4B2FEF7E1F8243534
:10224000052CD9D106B080BCB846F0BD0023C02211
:10225000B3500432B35007480432B35015F03EFB7C
:1022600020000BF067FCB2E750290020CC290020A9
:10227000808B0110E1200010C02370B50B4EF45884
:102280000433F558AC4207D02000243408F07CFE1B
:10229000A542F9D1C023F558002D05D0C823F15827
:1022A0002800491B06F06CFA70BDC046CC290020FE
:1022B000D02370B51B06D64D5B682A785B0584B0C9
:1022C000DB0F934224D1D0231B065B686A781B0581
:1022D000DB0F93424ED1D0231B065B68AA78DB0448
:1022E000DB0F934200D079E0D0231B065B68EA78CD
:1022F0009B04DB0F934200D0A3E0D0231B065B6856
:102300002A795B04DB0F934200D0CCE004B070BDAF
:10231000C04E30000BF0F2FBBF4C002800D0EBE0C9
:10232000D0236E221B065B685B05DB0F2B70A25C63
:10233000002A04D03C22A25C9A4200D130E1492319
:10234000227803ACB54902AE2000338005F0E0F9F5
:1023500005232A00310000200094FFF76FFA1420B3
:102360000AF0B6FED0231B065B686A781B05DB0FFC
:102370009342B0D0A74E30000BF0C0FBA64C002813
:1023800000D0C7E0D02301226F211B065B68DB0A67
:1023900013406B70615C002904D03D21615C99425F
:1023A00000D1EFE04923227803AC9C4902AE200023
:1023B000338005F0ADF905232A0031000020009498
:1023C000FFF73CFA14200AF083FED0231B065B685B
:1023D000AA78DB04DB0F934200D185E78D4E3000F5
:1023E0000BF08CFB8C4C002800D0A1E0D023702295
:1023F0001B065B68DB04DB0FAB70A25C002A04D019
:102400003E22A25C9A4200D1F3E04923227803AC39
:10241000824902AE2000338005F07AF905232A00B4
:10242000310000200094FFF709FA14200AF050FE52
:10243000D0231B065B68EA789B04DB0F934200D134
:102440005BE7744E30000BF059FB734C00287DD1D4
:10245000D02371221B065B689B04DB0FEB70A25C30
:10246000002A04D03F22A25C9A4200D1B3E0492363
:10247000227803AC694902AE2000338005F048F9A8
:1024800005232A00310000200094FFF7D7F914201B
:102490000AF01EFED0231B065B682A795B04DB0F63
:1024A000934200D132E75B4E30000BF027FB5A4CD1
:1024B000002859D1D02372221B065B685B04DB0F16
:1024C0002B71A25C002A03D04022A25C9A4274D0F5
:1024D0004923227803AC02AE20005049338005F036
:1024E00017F905232A00310000200094FFF7A6F910
:1024F00014200AF0EDFD09E70023C022A3500432A6
:10250000A35047480432A35015F0E8F930000BF00F
:1025100011FB05E70023C022A3500432A35040481A
:102520000432A35015F0DAF930000BF003FB29E771
:102530000023C022A3500432A35039480432A350D0
:1025400015F0CCF930000BF0F5FA4FE70023C0226C
:10255000A3500432A35032480432A35015F0BEF900
:1025600030000BF0E7FA73E70023C022A3500432D7
:10257000A3502B480432A35015F0B0F930000BF0F3
:10258000D9FA97E7CD23E254002380220193023346
:10259000009324490023520023480AF067FA01E718
:1025A0000023CD22A3540193023300931D4900233D
:1025B00033321D480AF05AFAC1E6CD230422E25410
:1025C000002301930233009316490023FC3216487E
:1025D0000AF04CFA7CE7CD230322E2540023019356
:1025E000023300930F490023FD320F480AF03EFAF0
:1025F0003DE70223CD22A354002201920132009331
:1026000008490023FF3208480AF030FAFDE6C046C8
:102610001C29002050290020CC290020808B01108B
:1026200079220010848B0110DD3D0010F0B54E467C
:102630004546DE465746E0B5324B87B00393324BF2
:1026400000249946314B324E9846324D02E0013417
:10265000062C41D001221700D021305D09068740A9
:102660000B693B40581E8341285D8342EFD00869C7
:1026700047468008104028700869C00810406870FC
:10268000086900091040A870086940091040E87006
:10269000086980091040287109690398C9090A402E
:1026A0006A710BF02BFA00281DD104AB9B464F2317
:1026B0005A46138005AB9A46494618003A7805F009
:1026C00027F853462A000093594606230020013478
:1026D000FFF7B4F8062CBDD107B0F0BCBB46B2463C
:1026E000A946A046F0BD0023C022084F0A48BB50AF
:1026F0000432BB500432BB5015F0F0F803980BF0D5
:1027000019FAD2E750290020808B0110CC29002033
:10271000CC990110212900207922001030B5144CE9
:1027200085B020000BF0EAF9124D002811D14923A1
:102730002A7803AD02AC28000F49238004F0E8FF9B
:102740000523210000200D4A0095FFF777F805B01A
:1027500030BD0023C022AB500432AB5008480432D5
:10276000AB5015F0BBF820000BF0E4F9DFE7C046F2
:1027700050290020CC290020808B01101C2900202A
:102780007922001030B5144C85B020000BF0B6F95A
:10279000124D002811D14F232A7803AD02AC280036
:1027A0000F49238004F0B4FF0623210000200D4AC6
:1027B0000095FFF743F805B030BD0023C022AB50B1
:1027C0000432AB5008480432AB5015F087F82000B3
:1027D0000BF0B0F9DFE7C04650290020CC290020DB
:1027E000808B01102129002079220010F0B5DE46EF
:1027F00057464E464546E0B54E4C89B020000BF09A
:102800007DF9002800D086E04B4B4C4C98461F00C9
:102810004B4B26000193D0231B069B46494B0125B9
:102820009946C246143F49E04B46B2689B6A464906
:102830009B1A8B420BD94B46FA21986A7B89801AE6
:102840008900009305F008F8009B834253D84B465B
:102850009A6A0023B2602377434623704B46986AF6
:10286000B368FA21984642463B88801A8900009353
:1028700004F0F2FF009B834217D2237F002B14D079
:1028800053461B78984510D0304B31491A7803A82D
:102890002B0004F03DFF2F4803A9FFF75BFC2E48F7
:1028A00003A9FFF757FC0023237701239C4601353A
:1028B0000134E24404360237062D15D05B46019AF6
:1028C0005B68525DD340012211001940237888468D
:1028D0008B42C3D053461B785A4253418B42A3D1FB
:1028E0004B469A6A0123B5E709B0F0BCBB46B24635
:1028F000A946A046F0BD154B18491A7803A82B002D
:1029000004F006FF03A91348FFF724FC124803A9AB
:10291000FFF720FC9BE70022C0210C4B10485A50C7
:1029200004315A5004315A5014F0D8FF20000BF0F3
:1029300001F969E750290020862A0020F8280020A4
:10294000D99901100040054017790000CC290020DA
:102950009C8B01100040034000800340908B0110CD
:1029600079220010C02370B50B4EF4580433F5588B
:10297000AC4207D02000243408F006FBA542F9D170
:10298000C023F558002D05D0C823F1582800491B55
:1029900005F0F6FE70BDC046CC29002070B588B0A9
:1029A00004AE1C48FFF7B8FB0296051E2ED015F0AA
:1029B00001FA0400030001900F2818D8012812D151
:1029C00069462A780A7431000022039302A8CA5487
:1029D0001049FEF77BFA0298B042E2D00499013127
:1029E00005F0CEFEDDE70028EDD0300007E0002244
:1029F00001A902A80BF0A0FB019B029004932900FF
:102A0000220005F0AFFE019B0299DDE702480BF0C2
:102A100047FAC04600400340A88B011070B588B04B
:102A200004AE1C48FFF778FB0296051E2ED015F069
:102A3000C1F90400030001900F2818D8012812D111
:102A400069462A780A7431000022039302A8CA5406
:102A50001049FEF73BFA0298B042E2D004990131E6
:102A600005F08EFEDDE70028EDD0300007E0002203
:102A700001A902A80BF060FB019B029004932900BE
:102A8000220005F06FFE019B0299DDE702480BF082
:102A900007FAC04600800340A88B011010B5FFF76D
:102AA00007FCFFF7A3FEFFF7C1FDF8E770B5104D77
:102AB00028000BF023F80F4C00280AD120780AF0E8
:102AC00007FBFFF75FFEFFF729FE0B480AF000FB4C
:102AD000F7E70023C022A3500432A3500748043272
:102AE000A35014F0FBFE28000BF024F8E6E7C046E4
:102AF00050290020CC2900208813000065290010EF
:102B000010B5FFF759FB02480AF0E2FAF9E7C046B0
:102B10008813000030B5026A3349507883B0013819
:102B200043001B18CB18DD7C90782C07640FA300A2
:102B30001B192E4C9B00A44640436344ED0751D51E
:102B40002B4C00041D686840044080204001034372
:102B50001C605078013843001B18CB181D7DD078BD
:102B60002C07640FA3001B19204C9B00A446404374
:102B70006344ED0734D51E4C00041D6868400440D2
:102B80008020400103431C6053781279013B5800B8
:102B9000C318C918487D52430107490F8B005B18C1
:102BA00012499B008C466344C00717D51049120494
:102BB00018684240114080225201134319600D4BA6
:102BC0006A460093002369460B481371FFF7C2FA67
:102BD00069460A48FFF7BEFA03B030BD0849E7E787
:102BE000074CCAE7064CADE7E09901100C00054020
:102BF0000000FFFF7267620A00400340008003404C
:102C0000FFFF000010B500220020024903F0DAF8AF
:102C100010BDC0460020042010B5036A8EB0040029
:102C20001A780F4901A804F073FD0E4A63689446B0
:102C300063445A1E93415B429B0B98030A4B01A9C4
:102C40009C466044FFF786FA236A1B78002B01D06C
:102C50000EB010BD00220020044903F0B3F8F7E7DE
:102C6000DC8B011000C0FCBF00800340002004206A
:102C700070B5036A04001A785B788EB09A4215D05A
:102C80001849013201A804F043FD174B60689C46C7
:102C90006044431E9841154B40429C46800B800384
:102CA000604401A9FFF756FA0EB070BD104E300017
:102CB0000AF024FF0F4D002805D1236A2800197857
:102CC000FEF75EFFF0E70023C022AB500432AB50AA
:102CD00009480432AB5014F001FE30000AF02AFF1C
:102CE000EBE7C046E88B011000C0FCBF008003404A
:102CF00050290020CC290020FD2C0010C02370B5E5
:102D00000B4EF4580433F558AC4207D0200024345D
:102D100008F03AF9A542F9D1C023F558002D05D0A5
:102D2000C823F1582800491B05F02AFD70BDC04694
:102D3000CC290020F0B50700083704000E0083B04E
:102D40000760002923D0080015F034F80500019031
:102D50000F280DD8012808D1337823720021019B58
:102D600022686360D15403B0F0BD0028F6D008E0BB
:102D70000022200001A90BF0DFF90700019B206071
:102D8000A3602A003100380005F0ECFCE6E70148BA
:102D90000BF086F8A88B011070B5541A82B00500AC
:102DA0000E0001940F2C0FD803681800012C08D1D5
:102DB0000A781A702B680021019A6A60995402B04F
:102DC00070BD002CF7D006E0002201A90BF0B4F989
:102DD000019B2860AB602200310005F0C3FC2B682A
:102DE000E9E7C04610B5174C20000AF087FE00281E
:102DF00018D1154805220021040005F0ADFCFA2287
:102E0000A623BA3CD200E252A822104BA3500432AF
:102E1000A3500F4B0432A3500432A350B823DC322A
:102E2000E25210BD0022C0210A4B0B485A50043117
:102E30005A5004315A5014F051FD20000AF07AFE25
:102E4000D7E7C04650290020862A0020D007D007A7
:102E500090019001CC290020FD2C001070B5154D7B
:102E6000040086B028000AF049FE134E002813D152
:102E7000124B32780493002303AE04AD30001049A6
:102E80002B7104F045FC60680023002229000096A5
:102E9000FEF7D4FC06B070BD0023C022B35004324C
:102EA000B35008480432B35014F018FD28000AF05B
:102EB00041FEDDE750290020CC29002050494E4733
:102EC000808B0110FD2C001070B51C4E05003000E9
:102ED0000AF014FE1A4C002822D1296A8B789A0035
:102EE0009A184B785200013BDBB24B7054335B00B5
:102EF000296AE3181A81CA784B7890005033121867
:102F00005B00E3185200DA804B780A79E318BA3391
:102F100020001A70FEF710FE2000FEF7FDFD70BDC8
:102F20000023C022A3500432A35006480432A35009
:102F300014F0D4FC30000AF0FDFDCEE7502900204B
:102F4000CC290020FD2C0010F8B5026A244B5178E2
:102F500097785B185E79050033075B0F9C00E418D7
:102F6000204B38029C466421C01BA400644404F03A
:102F70004BFC474338026421C01B04F045FC0304AA
:102F80001B0CF6071BD5184A1B042168174E4B4033
:102F90001A4080235B01234330001A600AF0AEFD23
:102FA000134C00280DD12B6A20009A785B78E31827
:102FB0009A71FEF7C1FD2000FEF7AEFDF8BD0D4A87
:102FC000E3E70023C022A3500432A3500A4804328E
:102FD000A35014F083FC30000AF0ACFDE3E7C046D8
:102FE000E09901100C0005400000FFFF502900206F
:102FF000CC290020FFFF0000FD2C001070B5704EA2
:10300000050030000AF07AFD6E4C002800D091E0F7
:103010002B6A5A78022A00D19EE0032A5FD0012A47
:1030200003D1D0220421120651619A78022A60D07D
:10303000032A00D1B8E0012A03D1D02208211206C8
:103040005161DA78022A5BD0032A00D1A3E0012A79
:1030500003D1D0221021120651611A79022A56D0CA
:10306000032A00D18EE0012A03D1D02220211206AA
:1030700051615A79022A51D0032A00D179E0012AFC
:1030800003D1D0224021120651619B79022B4CD0F2
:10309000032B66D0012B03D1D02380221B065A615B
:1030A000D02201231206116920008908194061709D
:1030B0001169C9081940A170116909091940E17025
:1030C0001169490919402171116989091940617112
:1030D0001269D2091340A371FEF72EFD70BDD022F4
:1030E00004211206106901429ED091619A78022A49
:1030F0009ED1D022082112069161DA78022AA3D14A
:10310000D0221021120691611A79022AA8D1D02268
:103110002021120691615A79022AADD1D022402194
:10312000120691619B79022BB2D1D02380221B061B
:103130009A61B5E70023C022A3500432A35022486D
:103140000432A35014F0CAFB30000AF0F3FC2B6ADF
:103150005A78022A00D060E7D02204211206916139
:10316000C4E7D02380221B0619690A4225D15A617F
:1031700096E7D022402112061069014200D183E770
:103180009161CFE7D022202112061069014200D1BF
:103190006EE79161BFE7D02210211206106901424B
:1031A00000D159E79161AFE7D022082112061069DA
:1031B000014200D144E791619FE79A6170E7C04600
:1031C00050290020CC290020FD2C0010F0B54646E7
:1031D0004F46D646C0B590B06A460400C56802AFF7
:1031E0006B1C98460733DB08DB00D31A22009D4690
:1031F0008368103202AE0830934200D19DE022690C
:10320000904500D990E00A225A5543464146002293
:10321000E360A36830005A54A3681900984614F07C
:103220000BFB2378E5683B7263687D60FB601823C5
:103230009946B9444B463B610F2D65D8012D59D1B4
:1032400043461B783B764B4600227D615A55944697
:10325000236A626A0020D11A8A460021B862F962A4
:10326000614639639A4249D05346002B67DB50468A
:1032700005F07EFA216A636A05005B1A9846534698
:10328000C3183B634346B862F862012B59DD4246DE
:1032900014F04AF908204544002300220021381880
:1032A000FD6200F0DBFA0500B86A002803D0396B34
:1032B000091A05F065FA3869484503D0B969013142
:1032C00005F05EFA002D0ED0204B60689C466044ED
:1032D000431E98411E4B40429C46800B80033100A8
:1032E0006044FEF737FFBD460EB0E0BCBA46B146BB
:1032F000A846F0BD002DA7D048460EE053463B63DC
:10330000002300259846C5E710230022F818391D30
:103310000AF012FF7B683861BB612A00414605F064
:1033200021FA7D683B698FE7012300220093290081
:1033300000230AF029FFA36865E70F2260E70AF07F
:103340009FFD012BA6D10B780370A3E700C0FCBF43
:1033500000800340F0B5DE4657464E464546E0B590
:103360008C6883B0824693460091002C42D013684B
:10337000576899462369666998463D00B74200D967
:103380003500002D0DD02A004146484614F0A8F81B
:10339000002806D007DBE3680022002B07D01C00C2
:1033A000E8E7B81BF7D5A3680122002BF7D10194F9
:1033B000002A20D1002D14D02A004946404614F09E
:1033C0008FF800280DD00EDB534652461C600023B8
:1033D0005360504603B0F0BCBB46B246A946A04677
:1033E000F0BDF01BF0D50023524613605346019AFE
:1033F0005A60EEE70C1D009BDB68A34214D020004E
:103400000AF060FC0369466998465B461B6899466A
:103410005B465F683D00B74202D801940400C9E7EB
:10342000019435000400C5E7524600235460136040
:10343000CFE7C046F0B5DE464E4645465746E0B5B6
:1034400089B0039252010C00934602910021031DA2
:10345000A34406000025017181600193C3600361EC
:103460004161A3454DD08046002D14D043461E69CE
:1034700067687369306999461A002168BB4200D9B0
:1034800070E0002A45D014F02BF8002801D14B46FB
:10349000D81B002840DB2200414606A8FFF75AFF50
:1034A000079E002E29D00122069B9146002B33D087
:1034B000302005F05DF905000300226867681830C8
:1034C00092461033286105970F2F3CD8012F37D132
:1034D00013782B7600236F612200C3552B0018321E
:1034E000283303CA03C32900019B320048460AF06F
:1034F00005FC43465D6901355D6120345C45B3D10F
:103500004646300009B0F0BCBB46B246A946A046CC
:10351000F0BD4B46DF1BBED5019BB34227D065688B
:1035200077692A00BD421FD8002A05D0316920687A
:1035300013F0D6FF002800D1E81BC30F9946B7E768
:10354000002FC7D007E01800002205A90AF0F4FDFB
:10355000059B2861AB613A00514605F003F9059FD0
:103560002869B7E73A008CE73A1EDFD1E4E7012388
:1035700099469DE7F0B5DE464E4657464546E0B5CE
:10358000F9B0934908A8FFF7D5FB0899099A38AC18
:103590003AAB8A1820009A463893FFF7FDFB8D4B13
:1035A0008D49A36183235B00A383033BFF3BA37788
:1035B0000EA89846FFF7BEFB0E990F9A42AF8A18E5
:1035C00040A82762FFF7E8FB844BFF25A363002395
:1035D0009946A3873E33E554814914A8FFF7AAFB17
:1035E0001499159A4AAB8A18236448A8FFF7D4FBAC
:1035F0007C4B0222A3655C23E25262320233E25426
:10360000794B1AA819009B46FFF794FB1A991B9A4D
:1036100052AB8A18236650A8FFF7BEFB734B0122FA
:10362000A36703937C2320AEE2520233E5543000BB
:103630006F49FFF77FFB80235AAA2099E2507268F6
:1036400058A88A18FFF7A8FB98226A4B6A49A3502A
:103650004A469C23E2520233E55426A8FFF76AFB50
:10366000A02362AA2699E250279A60A88A18FFF739
:1036700093FBB822614B2CA8A3504246BC23E252D4
:103680000233E5545E4B19000293FFF753FBC0234E
:103690006AAA2C99E2502D9A68A88A18FFF77CFB39
:1036A000D822584B5849A3504A46DC23E2520233F1
:1036B000E55432A8FFF73EFBE02372AA3299E250AC
:1036C000339A70A88A18FFF767FBF8224F4B210046
:1036D000A350FC234246E2520233E554F63B0793E3
:1036E00005AB00934A4804AB04320694FFF7A2FEF0
:1036F00078AD203D2B0028680833984265D0A96832
:10370000013105F03DF8A542F3D132A80AF032FDAF
:103710002CA80AF02FFD26A80AF02CFD30000AF094
:1037200029FD1AA80AF026FD14A80AF023FD0EA808
:103730000AF020FD08A80AF01DFD59462CA8FFF745
:10374000F9FA53462C992D9A20008A183893FFF7DE
:1037500023FB039BFF25A36101230299A38332A8C6
:10376000A577FFF7E7FA3299339A40A88A182762BB
:10377000FFF712FB274B2100A3630023A3873E33EF
:10378000E5543C3B27930222234800961AAB26942B
:10379000FFF750FE206AB84203D0A16A013104F05D
:1037A000EFFF3898504503D0A168013104F0E8FFDD
:1037B00032A80AF0DFFC2CA80AF0DCFC79B0F0BCDF
:1037C000BB46B246A946A046F0BDA54291D19CE7B2
:1037D000FC8B0110FD2F0010088C01105D2E0010D5
:1037E000108C0110492F00101C8C0110712C00103E
:1037F000288C0110E52D0010388C0110C92E001006
:10380000408C0110052C0010488C0110152B001065
:10381000A4290020192C00108C29002010B5FFF7D6
:10382000A9FE10BDC02370B50B4EF4580433F558F3
:10383000AC4207D02000243407F0A6FBA542F9D102
:10384000C023F558002D05D0C823F1582800491B86
:1038500004F096FF70BDC046CC290020F0B5C646E6
:1038600000B51E002B4B04008AB018000F00150095
:1038700098460AF043F900280FD1217800291DD17C
:10388000236A626A691CD21A914221D0002D3DD16F
:1038900001200AB080BCB846F0BD0022C0211E4BFA
:1038A0001E485A5004315A5004315A5014F016F838
:1038B00040460AF03FF921780029E1D0164B184A1A
:1038C0001B7802A8019100971E2103F037FF13E037
:1038D00000200133002D04D1DAE70130C4B2A54243
:1038E000D6D91C5CB442F8D90B4B0E4A1B781E216A
:1038F000009702A803F022FF0B4802A9FEF72AFC5A
:103900000A4802A9FEF726FC0020C2E7024B084A3B
:103910001B78ECE750290020CC2900202538001026
:10392000548C0110748C011000800340004003404F
:10393000648C0110C02370B50B4EF4580433F55855
:10394000AC4207D02000243407F01EFBA542F9D179
:10395000C023F558002D05D0C823F1582800491B75
:1039600004F00EFF70BDC046CC29002070B5541A7B
:1039700082B005000E0001940F2C0FD803681800C8
:10398000012C08D10A781A702B680021019A6A600C
:10399000995402B070BD002CF7D006E0002201A9B6
:1039A0000AF0CAFB019B2860AB602200310004F0E2
:1039B000D9FE2B68E9E7C046F0B5070008370400D8
:1039C0000E0083B00760002923D0080014F0F2F93C
:1039D000050001900F280DD8012808D133782372F3
:1039E0000021019B22686360D15403B0F0BD002820
:1039F000F6D008E00022200001A90AF09DFB070094
:103A0000019B2060A3602A003100380004F0AAFE68
:103A1000E6E701480AF044FAA88B011070B50E4D94
:103A200028000AF06BF80D4C002806D12000FEF7A4
:103A300083F82000FEF770F870BD0023C022A35069
:103A40000432A35006480432A35013F047FF280065
:103A50000AF070F8EAE7C04650290020CC2900207F
:103A60003539001070B5154E050030000AF046F8E3
:103A7000134C002813D12B6A5B78002B0AD1A022AB
:103A8000A3500432A3542000FEF756F82000FEF79E
:103A900043F870BD0022E318A0331A70F3E7002347
:103AA000C022A3500432A35006480432A35013F09E
:103AB00015FF30000AF03EF8DDE7C046502900202F
:103AC000CC2900203539001070B5144D28000AF0BB
:103AD00015F8134C002813D1CC23E05C2218A03237
:103AE00013789900C91864182418210004206E3135
:103AF000087000210133A1723C342170137070BD35
:103B00000023C022A3500432A35006480432A3501D
:103B100013F0E4FE28000AF00DF8DDE7502900203C
:103B2000CC2900203539001070B5164E0500300044
:103B300009F0E4FF144C002816D101222B6A200062
:103B40005B78E3186D331A702B6A5B78E3189F3348
:103B50001A702B6ACB325B78013BA354FDF7ECFF64
:103B60002000FDF7D9FF70BD0023C022A35004320E
:103B7000A35006480432A35013F0B0FE300009F001
:103B8000D9FFDAE750290020CC2900203539001070
:103B900070B5184E0500300009F0B0FF164C002833
:103BA00019D1CC23E05C2218A03213789900C918EF
:103BB00064182418210005206E310870296A013329
:103BC00049785F30A172296A3C348978137021707A
:103BD00009F07EFA70BD0023C022A3500432A35026
:103BE00006480432A35013F079FE300009F0A2FF1A
:103BF000D7E7C04650290020CC29002035390010D5
:103C000070B5184E0500300009F078FF164C0028FA
:103C100019D1CC23E05C2218A03213789900C9187E
:103C200064182418210006206E310870296A0133B7
:103C300049785E30A172296A3C348978137021700A
:103C400009F046FA70BD0023C022A3500432A350ED
:103C500006480432A35013F041FE300009F06AFF19
:103C6000D7E7C04650290020CC2900203539001064
:103C700070B51A4E0500300009F040FF184C0028BE
:103C80001DD1CC23E05C02262118A0310A789300D4
:103C90009B18E3181B1818006E300670286A013252
:103CA000407801389872286A3C3380780A7018701E
:103CB0002000FDF741FF2000FDF72EFF70BD00231F
:103CC000C022A3500432A35006480432A35013F07C
:103CD00005FE300009F02EFFD3E7C0465029002032
:103CE000CC2900203539001070B51A4E050030007F
:103CF00009F004FF184C00281DD1CC23E05C0126FC
:103D00002118A0310A7893009B18E3181B1818009B
:103D10006E300670286A0132407801389872286A3D
:103D20003C3380780A7018702000FDF705FF2000F2
:103D3000FDF7F2FE70BD0023C022A3500432A35051
:103D400006480432A35013F0C9FD300009F0F2FE1A
:103D5000D3E7C04650290020CC2900203539001077
:103D600070B51B4E0500300009F0C8FE194C002844
:103D70001FD1CC23E05C03262118A0310A789300E0
:103D80009B18E3181B1818006E300670286A013261
:103D900040789872286A3C3380780A7018706420E2
:103DA00009F096F92000FDF7C7FE2000FDF7B4FEEC
:103DB00070BD0023C022A3500432A3500648043231
:103DC000A35013F08BFD300009F0B4FED1E7C046DC
:103DD00050290020CC29002035390010F0B5CE46FE
:103DE000474680B5BC4C91B0200009F087FEBB4E21
:103DF000002800D055E1CD23F35CF218A0321278F0
:103E0000012A41D9B64A01249146B64A9046A500F6
:103E10002F19F719F9180A008B7A3C3109786E329C
:103E2000127803A80091494603F072FCAE4803A93A
:103E3000FEF790F9AD4803A9FEF78CF9CD23F35CAA
:103E4000FA186E321278062A00D9DAE0414692005A
:103E50008A5897462D197519ED182A003C321078AA
:103E6000A97AF218A0321278002900D00BE1D021F3
:103E70009F4D090628184968807BC140C90722D494
:103E80000134E4B29442C2D3002008F011FF11B013
:103E9000C0BCB946B046F0BD2D197519ED182A0001
:103EA0003C321078A97AF218A0321278002900D199
:103EB000DEE0D02109060D698D49085C01218140B1
:103EC0000D4200D0B0E0944200D3ADE0651CEDB2ED
:103ED000954200D3FAE0A90049197118C9186E314A
:103EE0000978A01CC0B2042900D1F1E0904200D3AF
:103EF000EEE0810009187118C9186E310978E51CC7
:103F0000EDB2042900D1E1E0954200D3DEE0A90042
:103F100049197118C9186E310978201DC0B20429D9
:103F200000D1D5E0904200D3D2E081000918711889
:103F3000C9186E310978651DEDB2042900D1C5E0BC
:103F4000954200D3C2E0A90049197118C9186E3111
:103F50000978A01DC0B2042900D1B9E0904200D375
:103F6000B6E0810009187118C9186E310978E51D8D
:103F7000EDB2042900D1A9E0954200D3A6E02000CB
:103F8000A90049197118C9186E3109780830C0B2F2
:103F9000042900D19CE0904200D399E025008100E3
:103FA00009187118C9186E3109780935EDB204295C
:103FB00000D18BE0954200D388E00A34E4B233E0CC
:103FC0002D197519ED182A003C321078AA7A002AAA
:103FD00043D0D02212061169454A155C0120A84041
:103FE0000140481E8141C9B2D020D518AD7B0006E2
:103FF0005219927B4068D040012202408A4200D090
:1040000042E7F218A03212780EE02D197519ED185A
:104010002B003C331B78A87A584309F059F8CD237C
:10402000F35CF218A03212780134E4B2944200D268
:10403000EDE629E72D197519ED182B003C331A7898
:10404000A97A2B4B595C01238B40032A37D0012AD4
:1040500023D1D02212065361E1E7D0221206516823
:10406000234A1018807BC140080001210140BBE7B2
:10407000D0211F4D090628184968807BC140C90717
:1040800000D420E7D0E7D02109060D691849085C63
:10409000012181400D42C7D015E7D022120693615D
:1040A000BDE70023C022B3500432B350114804329C
:1040B000B35013F013FC200009F03CFD9BE6D02226
:1040C000120611690B4205D15361A8E72C00ABE73A
:1040D0000400A9E79361A2E750290020CC29002021
:1040E000848C0110F49901100040034000800340CB
:1040F000109A011035390010F0B57B4C0226A5440A
:10410000FF247A4906A8FFF757FC0699079A3CADA9
:104110008A183EAB28003C93FFF728FC744B754986
:104120000CA8AC77AB61AE83FFF746FC0C990D9AF7
:1041300046AB8A1844A82B62FFF718FC6E4B6F49F8
:10414000AB633E2312A8EC54AE87FFF735FC1299FF
:10415000139A4EAB8A184CA82B64FFF707FC684BE8
:104160000027AB655C236749EF5218A80233EC5473
:10417000FFF722FC1899199A56AB8A1854A82B6697
:10418000FFF7F4FB604B6149AB677C231EA8EE523E
:104190000233EC54FFF710FC80235EAA1E99EA500C
:1041A0001F9A5CA88A18FFF7E1FB9822584B5949DF
:1041B000AB509C2324A8EE520233EC54FFF7FCFBD7
:1041C000A02366AA2499EA50259A64A88A18FFF7C2
:1041D000CDFBB822504B5149AB50BC232AA8EE521C
:1041E0000233EC54FFF7E8FBC0236EAA2A99EA5089
:1041F0002B9A6CA88A18FFF7B9FBD822484B49497B
:10420000AB50DC2330A8EE520233EC54FFF7D4FB62
:10421000E02376AA3099EA50319A74A88A18FFF7F9
:10422000A5FBF822404B4149AB50FC23F73AEA5238
:1042300036A80233EC54FFF7BFFB80237EAA5B0055
:104240003699EA50379A7CA88A18FFF78FFB8C22A0
:10425000374B5200AB508E235B00EF520233EC54CD
:10426000163BFF3B0593103A03AB00937CAC02ABCB
:1042700029003048FF3A0495FFF7DCF82300206856
:10428000083398420DD0A168013104F079FA230077
:10429000203BA54209D01C00230020680833984227
:1042A000F1D12300203BA542F5D136A809F062FFE9
:1042B00030A809F05FFF2AA809F05CFF24A809F0E4
:1042C00059FF1EA809F056FF18A809F053FF12A8BD
:1042D00009F050FF0CA809F04DFF06A809F04AFFAD
:1042E00085239B009D44F0BDECFDFFFF908C0110E9
:1042F000293B0010A08C0110E93C0010AC8C01108F
:104300001D3A0010B48C0110713C0010C08C0110DB
:10431000613D0010CC8C0110913B0010DC8C011031
:10432000013C0010EC8C0110653A0010F88C011073
:10433000C93A00107429002010B5FFF7DDFE10BD4A
:10434000094A10B594464024830063441A68C000AB
:104350006240803414408022520113431C60034B9E
:104360009C466044416010BD04C0014000400140D3
:104370000123D0228340120693629361094A4021AF
:104380009446830063441A68C0004A40803111405B
:104390008022520113431960034B9C46052360445D
:1043A0004360704704C0014000400140024B186860
:1043B0008007C00F7047C04600C0064070B5EFF3DD
:1043C000108C72B60D4D2B68002BFCD0BFF35F8FA5
:1043D0000724CB08C618C05C01230C40A3401C0076
:1043E0000440034207D118433070BFF35F8F2C6045
:1043F0008CF3108870BD100001F0E4FD2C0100D09A
:10440000F8B54746CE46884680B5EFF3108C72B6B5
:10441000214D2C68002CFCD0BFF35F8F9A422CD822
:10442000D4080727055D061901241740BC402C421B
:104430001FD007210127894609E0D408055D061928
:104440004C4639001440A1400C00294211D00132E1
:104450009342F2D201204042BFF35F8F00220E4B05
:104460001A608CF3108800280FDBC0BCB946B04638
:10447000F8BD254310003570EEE7BFF35F8F0023D2
:104480002B608CF31088012040424346002BECD077
:10449000089801F097FDC0462C0100D00021044B84
:1044A000044ABFF35F8F02C39342FAD17047C046FC
:1044B000000100D0800100D0044A1078431CDBB218
:1044C000172B00D9102313707047C046031F00201C
:1044D00010B5064B064C82B00100009318221F2332
:1044E0002000FFF78DFF02B010BDC046008D011007
:1044F0004C33002001238340002904D0034A136079
:10450000034A13607047034A1360FBE780E200E050
:1045100000E100E080E100E001238340014A1360F4
:104520007047C04600E200E0084B10309B688000F6
:10453000C358002B07D0064A00209B1A2F229A420C
:104540004041C0B270470020FCE7C04600ED00E0EB
:10455000041F0020024B10309B688000C058704739
:1045600000ED00E070B50D00EFF3108672B60F4A53
:104570001368002BFCD0BFF35F8F0D4B10309B688E
:1045800084001B590B4A934203D09D4201D001F095
:1045900037FD074B9B681D51BFF35F8FBFF35F8FE4
:1045A0000022024B1A6086F3108870BD240100D0EF
:1045B00000ED00E0CD010010F0B557464E46DE4656
:1045C0004546E0B585B0060000911700EFF3108B6B
:1045D00072B66A4A1368002BFCD0BFF35F8F0025C8
:1045E000674B5D579A46002D00DAA9E06B00654CD9
:1045F00001935B199B009846A146C1444B46524625
:104600009B7910361370604BB6009B6899590B1B51
:104610002F2B33D95D4B994200D0ACE0019B424631
:104620009C465B4B6544AD0063535A4B0232A21863
:10463000043B9B1A1B05584A5B0D651913436B809D
:10464000564B0121AB80FF23AB71009BEF71AB6038
:104650004B460B4319004C4B9B689951BFF35F8F3E
:10466000BFF35F8F0022454B1A608BF3108805B0B3
:10467000F0BCBB46B246A946A046F0BD01200A00E8
:104680008243D3798C46BB4231D845461300444916
:104690001B1B5B415943090D3D4B63533D4B023599
:1046A0006519043B5B1B1B053B4D5B0D2B43AA4669
:1046B0004D466B800425AC465546E044131F4444E8
:1046C0001B1B1B055B0D1D434B46997100999D807B
:1046D00099604946DF71334B01431360BBE75800D3
:1046E000C01880002018C179B9422FD902000623D2
:1046F000D356002BF3DA02932B4B61460393131D21
:104700009A4604235B429C46E14450464B461B1AA2
:104710001B055B0D9C46204B9571984663464046B1
:1047200003439380019B5A199200039BA418A38012
:10473000029B1C4AA371009B2260E771A3608AE779
:1047400001F05EFC002553465D574FE790880293C9
:104750004005131D9A46031561469C464046D444C5
:10476000634604302018181AE0230005400D1B0290
:1047700018430390C5E701F043FC4FE7240100D044
:10478000E13B0220041F002000ED00E0CD010010FD
:1047900000A1FFFF341F002000E0FFFF01BDFFFF6D
:1047A000AAAA00000148804701BD0000F0B5DE461E
:1047B00057464E464546E0B50C0083B0EFF31088EF
:1047C00072B65D4A1368002BFCD0BFF35F8F5B4B62
:1047D0005B499A68030010339F00D5598D4239D048
:1047E000A5424AD0574EAA1B2F2A33D801229246FF
:1047F000824091464846544A12681040019048460B
:10480000524A1060BFF35F8FEFF305829346002A90
:1048100035D0934201D001F0F3FB2A0053469A436E
:104820009068844208D175E04B005B189B00F31838
:104830009868A04234D01A00062151560029F3DAB4
:10484000844253D0019B002B26D04A46404B1A602D
:104850003D4B1A60394B9B68DD51BFF35F8FBFF34F
:104860005F8F0022344B1A6088F3108803B0F0BCCD
:10487000BB46B246A946A046F0BD0D00EAE72A00B5
:1048800053469A4390688442D6D1062010561300AE
:10489000002809DA0D0031E04A462C4B1A60D9E7AE
:1048A00006201856002822DB4200111889007418CF
:1048B0008A46A1689960E179D9710621615699719A
:1048C000002925DBA488F11A64052415544409192C
:1048D000E0240905490D24022143998013181D4A3B
:1048E0009B001178F31899711070ABE713005946CB
:1048F000002914D1FF3191711749918015490A7827
:104900009A71164A9B1B5B415A43120D0A7099E734
:104910001349E2E70620105613000028C4DA114AB2
:104920001149D21A083A5002400D014399800F49AB
:1049300052080A43DA8085E7240100D000ED00E048
:10494000CD010010041F002000E100E080E100E044
:1049500080E200E0E13B022001BDFFFFAAAA0000C7
:1049600001BD00003E1F002000F0FFFF00F8FFFF28
:10497000032310B50400074A18409446C0009C4326
:10498000FC3383406444226881409A4313000B4304
:10499000236010BD00E400E070B5EFF30581012451
:1049A0000443EFF3108C72B6214A1368002BFCD03D
:1049B000BFF35F8F1F4B05001F4AED1A6D416A431D
:1049C000120D1E4D8900AE6852B27658A6421CD018
:1049D0000621595691421CD012215956914222D09B
:1049E0001E215956914220D02A2159560324914222
:1049F00010D0134B19781A708171BFF35F8F0022AA
:104A00000B4B1A608CF3108870BDAB680D4C5C507A
:104A1000EFE700246100091989005B18FF219971F3
:104A200009499980E5E70124F4E70224F2E7C0464A
:104A3000240100D0041F0020AAAA000000ED00E01D
:104A4000E13B0220CD01001001BDFFFF054B064AEE
:104A50001360064A136053609360D360136153611F
:104A6000936170478080808000E400E004E400E00F
:104A700010B5084B084C82B00100009300220523BA
:104A80002000FFF7BDFC002801DB1F23181A02B02D
:104A900010BDC0461C8D0110E63B0220024B9C4617
:104AA00061448900016070474000003410B5040083
:104AB000FFF702FD01002000FFF7F0FF01235B423A
:104AC0006360BFF35F8F10BD10B50400FFF7F4FC07
:104AD00001002000FFF7E2FF01235B426360002337
:104AE0002372BFF35F8F10BD10B504000120FFF7E4
:104AF000EFFC034BC3189B002360BFF35F8F10BD17
:104B000040000034034B9C46614489000160BFF3C0
:104B10005F8F70474000003483680B4810B58446AF
:104B2000614462441201090159189B185C684A6883
:104B30000120944201D802D00020C0B210BD1A68F2
:104B40000B689A42F9D8F7E7FFFFFF0F074810B547
:104B50000268EFF3108172B61368002BFCD0BFF32C
:104B60005F8F07F017F90020002110BDB83A002030
:104B7000F8B5574645464E46DE46E0B598460CAB7E
:104B80001C780DAB1B78070091469A460568002CEF
:104B900059D1AC7B002C3BD0660029683619033E06
:104BA00089194B78AB73002B00D1EB7300238B700A
:104BB0004B700B702D4BE218BB6812019B184A46D4
:104BC0001A6042465A600A9A9A600B9ADA60002389
:104BD0008B704B700B706B7B9B46002B26D022009A
:104BE0006B685946A86898475B465B005B442A6837
:104BF000033B002812D058469619B070D118D35CE8
:104C0000002B00D073705B460C706B735C450ED04C
:104C1000F0BCBB46B246A946A046F8BDD3189C706E
:104C20009119925D002A1CD15B460B706C734A4649
:104C30004346387D00F0E8FB051E0AD10E9B002B91
:104C4000E6D01D70E4E7660029683619033E89192D
:104C5000B0E75346002BF1D12100386800F0ECFD9D
:104C6000ECE75A705B460B706C73E0E7FFFFFF0FD9
:104C7000F0B5DE4657464E4645460023E0B58BB0BC
:104C80000893684B8200D45800239B46099000F09B
:104C900027FB02000B006068EFF3108A72B65646DD
:104CA00001680029FCD0B246BFF35F8F21684F7BBB
:104CB0008C46002F2ED0A5685B49A94679180901BA
:104CC000894449460868496805000E00AD1A9E41AE
:104CD000002E5FDD02000B00099800F095FB002319
:104CE00000229946002306920793002398466368A2
:104CF000BFF35F8F5A461A608AF310884346002B31
:104D000012D10028C3D10BB0F0BCBB46B246A946B5
:104D1000A046F0BD00230022994600230692079387
:104D2000002300209846E2E7089B494618023843D2
:104D3000C047626805000E00EFF3108A72B6136870
:104D4000002BFCD0BFF35F8F002E41DB2B003343E1
:104D500002D02369002B56D12368D97B002905D0C6
:104D60001A68480041185218033A57709A7B002A73
:104D700000D19F73DF73E268013FD35D0133D355E8
:104D80005B4623616368BFF35F8F5A461A608AF3FC
:104D900010887CE7002E02D1002D00D09AE7002178
:104DA000604600F0C7FC4B461A685B6806920793A2
:104DB0004B469B6898464B46DB689946E368DB198F
:104DC000013B1B7808931B020343236100208EE7FD
:104DD0002369002BC0D0069A079B8021521BB34148
:104DE00009068B4202D30122104B5242002104914A
:104DF00001310391494601914146200002970091FB
:104E0000FFF7B6FEBCE700F06BFA2A003300121879
:104E10004B41802109068B42E8D30122034B5242C9
:104E2000E4E7C046FC370020FFFFFF0FFFFFFF7FD6
:104E300010B5144C6368002B04D00A211248FFF708
:104E40002DFE10BD2300114A1021206800F08EFBBA
:104E5000032000F039FA032000F03EFB03200C4948
:104E600000F08CFAFFF728FB0A4B9C4603232375BE
:104E7000D0231B061B6860446375074B800060608D
:104E8000DC60DAE74C1F0020B83A0020194B001014
:104E9000714C001040000034FC370020004870477F
:104EA0004C1F0020F0B557464E464546DE46E0B55D
:104EB00085B0019310AB1B780600039300239A463C
:104EC000984600927268EFF3108B72B61368002B4D
:104ED000FCD0BFF35F8F3568AC7B002C00D16EE057
:104EE00067002B683F19033FDB195A78AA73002A21
:104EF00000D1EA73484AA118B26809015218009813
:104F00000199106051600E9991600F99D1604246ED
:104F10009A705A701A706B7B9946002B00D16BE027
:104F200022006B684946A86898474B465B004B4493
:104F30002A68033B002856D04846D719B870D118C4
:104F4000D35C002B00D07B704B460C706B734C45D0
:104F500053D0F3681B19013B18787368BFF35F8F58
:104F600042461A608BF310885346002B08D100028A
:104F7000204305B0F0BCBB46B246A946A046F0BDF2
:104F8000039B002B46D00E9B00200F9998470300EF
:104F90000B433FD004000D1E1ADA009A019B121B2E
:104FA000AB410092019380221206934204D3012365
:104FB0001A4C5B4200930194039B9A4682E7736804
:104FC000BFF35F8F1C608BF3108801204042D0E755
:104FD00000F086F9802200196941120600900191C3
:104FE0009142E9D3E3E7D3189C70D119D25D002A2E
:104FF00000D05A704B460B706C73307D009A019B49
:1050000000F002FA82460028A3D02100306800F0A8
:1050100013FC9EE70020ACE7FFFFFF0FFFFFFF7FC1
:10502000407D7047F0B54746CE46040080B50D0080
:1050300096267642F71736196F4185B08F4215D8FC
:1050400012D000F04DF932003B00121A8B41002BB8
:1050500016DC002B39D02000290000F07FF905B0C4
:10506000C0BCB946B046F0BD8642EAD9002600274A
:1050700000F036F932003B00121A8B41002BE8DDBC
:10508000002302930193124B3200009311483B001E
:10509000FFF708FF0028DEDBB846B1460E4F0F4E83
:1050A0007B6A984504D8BA6A9145D4D99845D2D13B
:1050B0003268EFF3108172B61368002BFCD0BFF397
:1050C0005F8F300006F032FEEAE7002AC3D0D7E750
:1050D0004D4B00104C1F002000400540B83A002006
:1050E00070B504000D0000F0FBF880230019694141
:1050F0001B06994202D3012002494042FFF792FF6A
:1051000070BDC046FFFFFF7F70B5060000F0E8F8F5
:10511000FA2204000D00002330000021920003F069
:10512000B3F98023001969411B06994202D301207B
:1051300002494042FFF776FF70BDC046FFFFFF7F88
:10514000F0B5EFF30583CE46474680B505000C0069
:1051500085B0002B12D02A4A0020536AA34203D301
:10516000926A0130AA4204D305B0C0BCB946B04629
:10517000F0BD1B1B5A1E9341D8B2F5E7214E029396
:105180000193214B0200009330000B00FFF78AFED1
:10519000031EE0DD20BF7168EFF3108772B60A6866
:1051A000002AFCD0BFF35F8FDAB29446FF2230684A
:1051B0001A40417B61450FD00168894651008846FD
:1051C00049469044414403398978002904D1326921
:1051D000934209D1316107E0F1681B0A8A18013A4C
:1051E0001278DBB29A4207D07368BFF35F8F002258
:1051F0001A6087F31088AEE7614600F01DFBF3E705
:10520000004005404C1F00204D4B0010F0B5EFF35F
:105210000582D6464F4646461000C0B51038EFF31B
:10522000108872B6214C2368002BFCD0BFF35F8F2F
:105230000123190081401E4D1F006963AA461D4DC0
:1052400029601D4D2E78AC463500C5402F402B42BD
:1052500015D053465F6A194B8500EB589F4218D30F
:105260006246174B8E43EB581670BFF35F8F0022D8
:10527000226088F31088002B06D0984704E0BFF323
:105280005F8F276088F31088E0BCBA46B146A84615
:10529000F0BD0C4B92009C46624413681360BFF350
:1052A0005F8F0023236088F31088EDE7280100D08A
:1052B000004005403C700540E53B0220C43A002018
:1052C00034320020D03F054010B5034B01001800D8
:1052D000024AFFF773F810BDE03B0220388D011041
:1052E000034B596A0A00986A596A8A42FAD1704790
:1052F0000040054070B504000D00174A536A1900BC
:10530000966A536A8B42FAD13000190024184D4135
:10531000AB4216D813D0104B2A005B6A9D4203D9CA
:105320000D494B6A9342FCD3934207D10A4A02E0EB
:10533000516A994202D1916AA142F9D370BDA64245
:10534000E9D9054B5B6A1C005A1CEFD001220124ED
:105350006442E5175242E3E700400540064A536ABB
:105360009942FCD807D1044B02E05A6A914202D11B
:105370009A6A8242F9D370470040054070B5040034
:105380000D00EFF3108672B61A4A1368002BFCD09A
:10539000BFF35F8F002D1BD02000FFF7DBF816490D
:1053A00081420AD02000FFF7DDF801212000FFF73D
:1053B000A1F80123A340114A1360114BA400E5504A
:1053C000BFF35F8F00220B4B1A6086F3108870BD0D
:1053D0000121A1400A4BA200D5500A4B20001A78A7
:1053E0008A4305491A70FFF7E1F900212000FFF711
:1053F00081F8E5E7280100D00D5200103860054023
:1054000034320020E53B0220F0B54F46D6464646F2
:10541000C0B507002B4C616A0D00A66A616AA942FB
:10542000FAD18B4208D805D00120E0BCBA46B1467B
:10543000A846F0BDB242F7D9EFF3108A72B62248FF
:1054400001680029FCD0BFF35F8F0125BD401F49D3
:105450001C4C8846097889462943C9B28C46414686
:1054600060460870391D890065630A511849B80003
:105470004350216A0020294219D0616A0800A66AB7
:10548000616A8142FAD18B4219D801D1B24216D851
:10549000CC450BD00B4B1F221D625D6301233A40AC
:1054A00093400C4A136043464A461A700120BFF3EA
:1054B0005F8F0022044B1A608AF31088B5E7002042
:1054C000F5E7C04600400540280100D0E53B02203A
:1054D000C43A002080E200E0EFF3108C72B60A4973
:1054E0000B68002BFCD0BFF35F8F01238340074A7A
:1054F0000748136202789A430270BFF35F8F00235C
:105500000B608CF310887047280100D000400540E4
:10551000E53B022070B506000D00140000291DD0E7
:10552000002A12D073688068984762006B001219D5
:105530005B193168033A033B002808D08A1895703C
:10554000C818CB5C002B0BD10470280070BDCB18A1
:105550009C7088188A5C002A05D105702000F5E748
:1055600053700470F1E75A700570F7E710B5836067
:105570000023CCB243730133426004738373C4735A
:105580000068421C012C05D90133DBB213700332D1
:105590009C42F9D1FF230B405A00D318C0180023B6
:1055A0000338437010BDC04670B505000C1E07D00F
:1055B000630001681B19033BCB185A78002A01D1FC
:1055C000200070BD500080180338091800204E7864
:1055D0004870210058702800FFF79CFF310004003C
:1055E0002800FFF7E1FF0600002C20D00028E7D0BC
:1055F000320021006B68A868984772006300921916
:105600001B192968033A033B002808D08A189470B4
:10561000C818CB5C002B00D053700670D0E7CB18B5
:105620009E7088188A5C002A00D05A70047034007A
:10563000C6E7C046F0B557464546DE464E46E0B59D
:105640000D006F0001687F19033F0400C85D83B03F
:105650000192CA19002850D043001B18033BCB18F5
:105660005E78B446002E1AD1019E002E42D0E67B11
:10567000002E04D073009B19CB18033B5D70A37BF5
:10568000002B00D1A573E57300282FD100235370A0
:1056900003B0F0BCBB46B246A946A046F0BD7200BE
:1056A0006244033A8A18517888460021517089462D
:1056B0005970320001002000FFF72CFF434682465C
:1056C000002B07D05B0021684344033BCB185A787A
:1056D000002A16D1424651462000FFF71BFF2168E1
:1056E000019BCA19002BC2D10028CFD043001B1840
:1056F000033BCB1800219970C8E7019B002BB6D162
:10570000C4E7500080180338091848788346484693
:105710004870587041462000FFF7FCFE594680460D
:105720002000FFF741FF414602002000FFF7F2FE94
:105730008046CFE7F0B557464546DE464E46E0B5D3
:1057400083B00191457B04006F0000687F19033F1F
:10575000C15DC219002952D04B005B18033BC3182E
:105760005E78B446002E1CD1019E002E44D0E67B0C
:10577000002E04D073009B19C318033B5D70A37BFC
:10578000002B00D1A573E573002931D10023280037
:105790005370617303B0F0BCBB46B246A946A04645
:1057A000F0BD72006244033A8218507880460020AF
:1057B00050708146587032002000FFF7ABFE434620
:1057C0008246002B07D05B0021684344033BCB1883
:1057D0005A78002A17D1424651462000FFF79AFE18
:1057E000019B01002068C219002BC0D10029CDD037
:1057F0004B005B18033BC31800209870C6E7019B61
:10580000002BB4D1C2E7500080180338091848783B
:10581000834648464870587041462000FFF77AFE9C
:10582000594680462000FFF7BFFE41460200200097
:10583000FFF770FE8046CEE770B5050000292CD03A
:10584000437B8B422ED04C0000686418033C041943
:10585000A278002A21D053009B18033BC25CC618D3
:105860008A4202D11BE0002A08D053009B18033B58
:10587000C3185A788A42F6D162785A7000230122FE
:105880002800A3706370FFF7D5FE697B0200280033
:10589000FFF740FE6873012000E0002070BD6378D0
:1058A0003370EBE701221900FFF7C4FEF2E7C046B0
:1058B000F8B5CE464746040080B506200D0000F03E
:1058C00021FA061E53D0534B5349E3185A1E9341F5
:1058D0008022120494465B429B0D504A9B05634410
:1058E00013604F4A136018008A689043FBD1494BFC
:1058F0004C4AE31859424B4180215B004900062085
:10590000995200F0FFF92900C00001F0A5FFC3097A
:1059100032D14022012190466162A362266BF307D7
:1059200036D427008025E36A00232C376D013D43E0
:105930002B600620266300F0E5F94146800001F067
:105940008BFF236B06009846DB073BD46023E26A9B
:105950005A400E3313402B604346236380231022AA
:105960009B013B431A60304B23630323A364300045
:10597000C0BCB946B046F8BD2C4A93423FD900237B
:105980002B492C4A6162A362266B9046F307C8D567
:105990002200C02330329B011343234A06201A60A1
:1059A000656AA36AAD01ED1800F0ACF9224901F077
:1059B00053FFAD020100280001F04EFF0021FFF768
:1059C00099FCAEE72200C02330329B011343164AF4
:1059D00006201A60636AA26A9B019946914400F00E
:1059E00091F94B4614499B02994601F035FF01009D
:1059F000484601F031FF0021FFF77CFCA6E77F223B
:105A0000990188460240013252081900904413005F
:105A100082E7C0460080FCBF00C0004000E00040BC
:105A200000F00040D43A002001030000FEFF000017
:105A3000FFFF0000C0FF3F004E0E000010B50C201D
:105A400082B000F0B7F9FEF7B1FC002810D08B4B04
:105A50008B488B498B4A186059609860D9601861EF
:105A600059619861D961186259625A6202B010BDD9
:105A7000854CA06700F0F4F90122844B1A60636C36
:105A8000012BFCD10322824B1A607F4A936B012BBE
:105A9000FCD1013301217F4A7F480093043300F099
:105AA00037F905237D4A009301217D4800F030F944
:105AB0007C4B5A68FF2A02D8802252005A6080220A
:105AC000734B6E4C12011A602169002907D060697E
:105AD00001F0C2FE013043001B18033BFDD2E0225F
