:020000041000EA
:1000000000B5324B212058609868022188439860DF
:10001000D860186158612E4B002199600221596106
:100020000121F02299502B49196001219960352056
:1000300000F044F80222904214D00621196600F024
:1000400034F8196E01211966002018661A6600F04E
:100050002CF8196E196E196E052000F02FF8012189
:100060000842F9D1002199601B49196000215960AB
:100070001A491B48016001219960EB211966A021F2
:10008000196600F012F800219960164914480160C1
:100090000121996001BC002800D000471248134993
:1000A000086003C880F30888084703B5996A0420EC
:1000B0000142FBD001200142F8D103BD02B5186610
:1000C0001866FFF7F2FF186E186E02BD00000240BE
:1000D000000000180000070000035F00212200005C
:1000E000F4000018222000A00001001008ED00E03C
:1000F00000000000000000000000000074B24E7A12
:1001000000200420F7010010C3010010C5010010F9
:10011000C1010010C1010010C1010010C101001097
:10012000C1010010C1010010C1010010C701001081
:10013000C1010010C1010010C9010010CB01001065
:10014000CD010010CD010010CD010010CD01001037
:10015000CD010010CD010010CD010010CD01001027
:10016000CD010010CD010010CD010010CD01001017
:10017000CD010010CD010010CD010010CD01001007
:10018000CD010010CD010010CD010010CD010010F7
:10019000CD010010CD010010CD010010CD010010E7
:1001A000CD010010CD010010CD010010CD010010D7
:1001B000CD010010CD010010CD010010CD010010C7
:1001C00000BE00BE00BE00BE00BE00BEEFF3058054
:1001D000103800BEF2EB88719CCE0510B8CE051029
:1001E0003402001090A31AE700201F49086006C8D7
:1001F00081F3088810471D48006800282FD10DA4FE
:100200000ECC002902D000F012F8F9E71849194A7B
:10021000002000E001C19142FCD1174988471749ED
:1002200088471749884700BEFDE701C901C29A42C5
:10023000FBD37047B8CE0510C0000020E02200209C
:10024000D8F005100000042000000420D8F00510AC
:10025000001004200010042000000000704709482E
:1002600002F05EFF0047000008ED00E0000000D053
:10027000E022002018420020A517001055030010AE
:10028000D91800105756000006005250ABB3605307
:10029000C8A1041006005250861C0302D8A1041005
:1002A000060052505422A29DE4A1041005005250B1
:1002B000DE65F468D8F00510F8B5C0460648074971
:1002C000091A8B10C90FC91810B5491003D0044B77
:1002D000002B00D0984710BDE0220020E022002033
:1002E00000000000054B10B5002B03D00449054861
:1002F00000E000BFFFF7E2FF10BDC04600000000B5
:10030000F040002000A1041008007047F0B5C64678
:1003100000B584B004F024F90C4A01ABDA800C4B30
:100320000A24D026039304AB984601276C44360672
:1003300025780134280000F01DF83B00AB407362C3
:100340004445F5D104B080BCB846F0BD02030000BE
:100350000405060700B5054B85B001A8C380044B12
:100360000393FFF7D3FF002005B000BD0203000098
:10037000040506070123D02283401206936293618D
:10038000094A40219446830063441A68C0004A40E9
:10039000803111408022520113431960034B9C4667
:1003A000052360444360704704C0014000400140A1
:1003B000024B18688007C00F7047C04600C0064057
:1003C00070B5EFF3108C72B60D4D2B68002BFCD07E
:1003D000BFF35F8F0724CB08C618C05C01230C4015
:1003E000A3401C000440034207D118433070BFF300
:1003F0005F8F2C608CF3108870BD100001F08CFAB8
:100400002C0100D00021044B044ABFF35F8F02C3CC
:100410009342FAD17047C046000100D0800100D05D
:10042000044A1078431CDBB2172B00D91023137039
:100430007047C0469811002001238340002904D052
:10044000034A1360034A13607047034A1360FBE7D3
:1004500080E200E000E100E080E100E0024B1030CB
:100460009B688000C058704700ED00E070B50D003B
:10047000EFF3108672B60F4A1368002BFCD0BFF35F
:100480005F8F0D4B10309B6884001B590B4A9342C1
:1004900003D09D4201D001F057FA074B9B681D51D4
:1004A000BFF35F8FBFF35F8F0022024B1A6086F3AA
:1004B000108870BD240100D000ED00E0CD010010D7
:1004C000F0B5DE4657464E464546E0B50C0083B0D3
:1004D000EFF3108872B65D4A1368002BFCD0BFF3AF
:1004E0005F8F5B4B5B499A68030010339F00D559BF
:1004F0008D4239D0A5424AD0574EAA1B2F2A33D855
:1005000001229246824091464846544A1268104061
:1005100001904846524A1060BFF35F8FEFF30582A7
:100520009346002A35D0934201D001F00DFA2A00FB
:1005300053469A439068844208D175E04B005B189B
:100540009B00F3189868A04234D01A000621515637
:100550000029F3DA844253D0019B002B26D04A466F
:10056000404B1A603D4B1A60394B9B68DD51BFF31D
:100570005F8FBFF35F8F0022344B1A6088F31088BF
:1005800003B0F0BCBB46B246A946A046F0BD0D0084
:10059000EAE72A0053469A4390688442D6D106205F
:1005A00010561300002809DA0D0031E04A462C4BA2
:1005B0001A60D9E706201856002822DB42001118DD
:1005C000890074188A46A1689960E179D971062179
:1005D00061569971002925DBA488F11A6405241558
:1005E00054440919E0240905490D24022143998046
:1005F00013181D4A9B001178F31899711070ABE71E
:1006000013005946002914D1FF3191711749918087
:1006100015490A789A71164A9B1B5B415A43120D81
:100620000A7099E71349E2E70620105613000028E4
:10063000C4DA114A1149D21A083A5002400D014356
:1006400099800F4952080A43DA8085E7240100D0D7
:1006500000ED00E0CD0100109C11002000E100E061
:1006600080E100E080E200E01642002001BDFFFFD3
:10067000AAAA000001BD0000D611002000F0FFFF73
:1006800000F8FFFF70B5EFF3058101240443EFF399
:10069000108C72B6214A1368002BFCD0BFF35F8F19
:1006A0001F4B05001F4AED1A6D416A43120D1E4D86
:1006B0008900AE6852B27658A6421CD0062159561F
:1006C00091421CD012215956914222D01E215956D6
:1006D000914220D02A2159560324914210D0134B25
:1006E00019781A708171BFF35F8F00220B4B1A606B
:1006F0008CF3108870BDAB680D4C5C50EFE70024A4
:100700006100091989005B18FF21997109499980D5
:10071000E5E70124F4E70224F2E7C046240100D013
:100720009C110020AAAA000000ED00E01642002063
:10073000CD01001001BDFFFF054B064A1360064ABC
:10074000136053609360D36013615361936170478A
:100750008080808000E400E004E400E0024B9C46DE
:1007600061448900016070474000003410B5040006
:10077000FFF756FE01002000FFF7F0FFFF23237173
:10078000BFF35F8F10BDC04610B50400FFF748FEF1
:1007900001002000FFF7E2FFFF23A380BFF35F8F7C
:1007A00010BDC04683680B4810B58446614462445E
:1007B0001201090159189B185C684A68012094428B
:1007C00001D802D00020C0B210BD1A680B689A424E
:1007D000F9D8F7E7FFFFFF0F0A4B1968EFF3108016
:1007E00072B60A68002AFCD0BFF35F8F1B68BFF3A4
:1007F0005F8F00221A6080F3108840BF0020002124
:100800007047C04600420020F8B5574645464E4660
:10081000DE46E0B598460CAB1C780DAB1B780700A4
:1008200091469A460568002C59D1AC7B002C3BD0F0
:10083000660029683619033E89194B78AB73002B83
:1008400000D1EB7300238B704B700B702D4BE218B3
:10085000BB6812019B184A461A6042465A600A9ABF
:100860009A600B9ADA6000238B704B700B706B7B75
:100870009B46002B26D022006B685946A8689847F3
:100880005B465B005B442A68033B002812D0584655
:100890009619B070D118D35C002B00D073705B46F2
:1008A0000C706B735C450ED0F0BCBB46B246A946DB
:1008B000A046F8BDD3189C709119925D002A1CD1F6
:1008C0005B460B706C734A464346387D00F044FB30
:1008D000051E0AD10E9B002BE6D01D70E4E76600D2
:1008E00029683619033E8919B0E75346002BF1D128
:1008F0002100386800F048FDECE75A705B460B7049
:100900006C73E0E7FFFFFF0FF0B5DE4657464E463B
:1009100045460023E0B58BB00893684B8200D4585D
:1009200000239B46099000F093FA02000B006068D8
:10093000EFF3108A72B6564601680029FCD0B24621
:10094000BFF35F8F21684F7B8C46002F2ED0A568A8
:100950005B49A946791809018944494608684968EC
:1009600005000E00AD1A9E41002E5FDD02000B0057
:10097000099800F0F1FA002300229946002306921C
:100980000793002398466368BFF35F8F5A461A6047
:100990008AF310884346002B12D10028C3D10BB034
:1009A000F0BCBB46B246A946A046F0BD00230022DB
:1009B0009946002306920793002300209846E2E719
:1009C000089B494618023843C047626805000E007C
:1009D000EFF3108A72B61368002BFCD0BFF35F8F61
:1009E000002E41DB2B00334302D02369002B56D16C
:1009F0002368D97B002905D01A684800411852188D
:100A0000033A57709A7B002A00D19F73DF73E26824
:100A1000013FD35D0133D3555B4623616368BFF368
:100A20005F8F5A461A608AF310887CE7002E02D145
:100A3000002D00D09AE70021604600F023FC4B46D1
:100A40001A685B68069207934B469B6898464B462C
:100A5000DB689946E368DB19013B1B7808931B02AE
:100A60000343236100208EE72369002BC0D0069A40
:100A7000079B8021521BB34109068B4202D30122FE
:100A8000104B5242002104910131039149460191DA
:100A90004146200002970091FFF7B6FEBCE700F048
:100AA000D7F92A00330012184B41802109068B42E6
:100AB000E8D30122034B5242E4E7C046084100203C
:100AC000FFFFFF0FFFFFFF7F10B5144C6368002B83
:100AD00004D00A211248FFF741FE10BD2300114A3D
:100AE0001021206800F0EAFA032000F0A5F90320A5
:100AF00000F09AFA03200C4900F0E8F9FFF790FCA7
:100B00000A4B9C4603232375D0231B061B686044B5
:100B10006375074B80006060DC60DAE7E411002059
:100B200000420020A5070010090900104000003411
:100B300008410020F0B557464E464546DE46E0B532
:100B400085B0019310AB1B780600039300239A46EF
:100B5000984600927268EFF3108B72B61368002B00
:100B6000FCD0BFF35F8F3568AC7B002C00D16EE00A
:100B700067002B683F19033FDB195A78AA73002AD4
:100B800000D1EA73484AA118B268090152180098C6
:100B90000199106051600E9991600F99D1604246A1
:100BA0009A705A701A706B7B9946002B00D16BE0DB
:100BB00022006B684946A86898474B465B004B4447
:100BC0002A68033B002856D04846D719B870D11878
:100BD000D35C002B00D07B704B460C706B734C4584
:100BE00053D0F3681B19013B18787368BFF35F8F0C
:100BF00042461A608BF310885346002B08D100023E
:100C0000204305B0F0BCBB46B246A946A046F0BDA5
:100C1000039B002B46D00E9B00200F9998470300A2
:100C20000B433FD004000D1E1ADA009A019B121BE1
:100C3000AB410092019380221206934204D3012318
:100C40001A4C5B4200930194039B9A4682E77368B7
:100C5000BFF35F8F1C608BF3108801204042D0E708
:100C600000F0F6F880220019694112060090019107
:100C70009142E9D3E3E7D3189C70D119D25D002AE1
:100C800000D05A704B460B706C73307D009A019BFC
:100C900000F062F982460028A3D02100306800F0FD
:100CA00073FB9EE70020ACE7FFFFFF0FFFFFFF7F16
:100CB000F0B5EFF30583CE46474680B505000C003E
:100CC00085B0002B12D02A4A0020536AA34203D3D6
:100CD000926A0130AA4204D305B0C0BCB946B046FE
:100CE000F0BD1B1B5A1E9341D8B2F5E7214E02936B
:100CF0000193214B0200009330000B00FFF71AFF15
:100D0000031EE0DD20BF7168EFF3108772B60A683A
:100D1000002AFCD0BFF35F8FDAB29446FF2230681E
:100D20001A40417B61450FD00168894651008846D1
:100D300049469044414403398978002904D13269F5
:100D4000934209D1316107E0F1681B0A8A18013A20
:100D50001278DBB29A4207D07368BFF35F8F00222C
:100D60001A6087F31088AEE7614600F00DFBF3E7E9
:100D700000400540E4110020D9070010F0B5EFF362
:100D80000582D6464F4646461000C0B51038EFF3F0
:100D9000108872B6214C2368002BFCD0BFF35F8F04
:100DA0000123190081401E4D1F006963AA461D4D95
:100DB00029601D4D2E78AC463500C5402F402B4292
:100DC00015D053465F6A194B8500EB589F4218D3E4
:100DD0006246174B8E43EB581670BFF35F8F0022AD
:100DE000226088F31088002B06D0984704E0BFF3F8
:100DF0005F8F276088F31088E0BCBA46B146A846EA
:100E0000F0BD0C4B92009C46624413681360BFF324
:100E10005F8F0023236088F31088EDE7280100D05E
:100E2000004005403C70054017420020044200206D
:100E3000A83F0020D03F054010B5034B010018002B
:100E4000024AFFF7BDFA10BD1542002008A10410A8
:100E5000034B596A0A00986A596A8A42FAD1704764
:100E60000040054070B504000D00174A536A190090
:100E7000966A536A8B42FAD13000190024184D410A
:100E8000AB4216D813D0104B2A005B6A9D4203D99F
:100E90000D494B6A9342FCD3934207D10A4A02E0C0
:100EA000516A994202D1916AA142F9D370BDA6421A
:100EB000E9D9054B5B6A1C005A1CEFD001220124C2
:100EC0006442E5175242E3E70040054070B5040074
:100ED0000D00EFF3108672B61A4A1368002BFCD08F
:100EE000BFF35F8F002D1BD02000FFF7B7FA164924
:100EF00081420AD02000FFF7B9FA01212000FFF754
:100F00009BFA0123A340114A1360114BA400E55042
:100F1000BFF35F8F00220B4B1A6086F3108870BD01
:100F20000121A1400A4BA200D5500A4B20001A789B
:100F30008A4305491A70FFF7C3FA00212000FFF722
:100F40007BFAE5E7280100D07D0D001038600540F0
:100F5000A83F002017420020F0B54F46D64646462F
:100F6000C0B507002B4C616A0D00A66A616AA942F0
:100F7000FAD18B4208D805D00120E0BCBA46B14670
:100F8000A846F0BDB242F7D9EFF3108A72B62248F4
:100F900001680029FCD0BFF35F8F0125BD401F49C8
:100FA0001C4C8846097889462943C9B28C4641467B
:100FB00060460870391D890065630A511849B800F8
:100FC0004350216A0020294219D0616A0800A66AAC
:100FD000616A8142FAD18B4219D801D1B24216D846
:100FE000CC450BD00B4B1F221D625D6301233A40A1
:100FF00093400C4A136043464A461A700120BFF3DF
:101000005F8F0022044B1A608AF31088B5E7002036
:10101000F5E7C04600400540280100D017420020F7
:101020000442002080E200E0EFF3108C72B60A491F
:101030000B68002BFCD0BFF35F8F01238340074A6E
:101040000748136202789A430270BFF35F8F002350
:101050000B608CF310887047280100D000400540D9
:101060001742002070B506000D00140000291DD0A5
:10107000002A12D073688068984762006B001219CA
:101080005B193168033A033B002808D08A18957031
:10109000C818CB5C002B0BD10470280070BDCB1896
:1010A0009C7088188A5C002A05D105702000F5E73D
:1010B00053700470F1E75A700570F7E710B583605C
:1010C0000023CCB243730133426004738373C4734F
:1010D0000068421C012C05D90133DBB213700332C6
:1010E0009C42F9D1FF230B405A00D318C0180023AB
:1010F0000338437010BDC04670B505000C1E07D004
:10110000630001681B19033BCB185A78002A01D1F0
:10111000200070BD500080180338091800204E7858
:101120004870210058702800FFF79CFF3100040030
:101130002800FFF7E1FF0600002C20D00028E7D0B0
:10114000320021006B68A86898477200630092190A
:101150001B192968033A033B002808D08A189470A9
:10116000C818CB5C002B00D053700670D0E7CB18AA
:101170009E7088188A5C002A00D05A70047034006F
:10118000C6E7C046F0B557464546DE464E46E0B592
:101190000D006F0001687F19033F0400C85D83B034
:1011A0000192CA19002850D043001B18033BCB18EA
:1011B0005E78B446002E1AD1019E002E42D0E67B06
:1011C000002E04D073009B19CB18033B5D70A37BEA
:1011D000002B00D1A573E57300282FD10023537095
:1011E00003B0F0BCBB46B246A946A046F0BD7200B3
:1011F0006244033A8A185178884600215170894622
:101200005970320001002000FFF72CFF4346824650
:10121000002B07D05B0021684344033BCB185A786E
:10122000002A16D1424651462000FFF71BFF2168D5
:10123000019BCA19002BC2D10028CFD043001B1834
:10124000033BCB1800219970C8E7019B002BB6D156
:10125000C4E7500080180338091848788346484688
:101260004870587041462000FFF7FCFE5946804602
:101270002000FFF741FF414602002000FFF7F2FE89
:101280008046CFE7F0B557464546DE464E46E0B5C8
:1012900083B00191457B04006F0000687F19033F14
:1012A000C15DC219002952D04B005B18033BC31823
:1012B0005E78B446002E1CD1019E002E44D0E67B01
:1012C000002E04D073009B19C318033B5D70A37BF1
:1012D000002B00D1A573E573002931D1002328002C
:1012E0005370617303B0F0BCBB46B246A946A0463A
:1012F000F0BD72006244033A8218507880460020A4
:1013000050708146587032002000FFF7ABFE434614
:101310008246002B07D05B0021684344033BCB1877
:101320005A78002A17D1424651462000FFF79AFE0C
:10133000019B01002068C219002BC0D10029CDD02B
:101340004B005B18033BC31800209870C6E7019B55
:10135000002BB4D1C2E75000801803380918487830
:10136000834648464870587041462000FFF77AFE91
:10137000594680462000FFF7BFFE4146020020008C
:10138000FFF770FE8046CEE770B5050000292CD02F
:10139000437B8B422ED04C0000686418033C041938
:1013A000A278002A21D053009B18033BC25CC618C8
:1013B0008A4202D11BE0002A08D053009B18033B4D
:1013C000C3185A788A42F6D162785A7000230122F3
:1013D0002800A3706370FFF7D5FE697B0200280028
:1013E000FFF740FE6873012000E0002070BD6378C5
:1013F0003370EBE701221900FFF7C4FEF2E7C046A5
:1014000010B50C2082B000F0B1F9FEF7D1FF002832
:1014100010D08B4B8B488B498B4A18605960986071
:10142000D960186159619861D961186259625A622C
:1014300002B010BD854CA06700F0A0F90122844BDA
:101440001A60636C012BFCD10322824B1A607F4A25
:10145000936B012BFCD1013301217F4A7F4800931C
:10146000043300F031F905237D4A009301217D48C2
:1014700000F02AF97C4B5A68FF2A02D880225200D9
:101480005A608022734B6E4C12011A602169002948
:1014900007D0606901F09EFE013043001B18033B3A
:1014A000FDD2E022704B714819680A4002600222A6
:1014B0001968514001320A40042102609A681142C1
:1014C000FCD080216A4A09011160802252005A60D2
:1014D000684B2361684B5968FF2900D85A60032282
:1014E00001215B4B1A60644A93681942FCD0E023E7
:1014F0001068034061480360126803234A400221D8
:1015000013405D4A036093681942FCD080215C4B14
:101510000901196080215B4B4900516063615A4B9E
:101520005A68FF2A00D859608022584B12011A606D
:10153000E169002907D0606901F04CFE01304300E9
:101540001B18033BFDD2E0234F4A11680B40504962
:101550000B6080214F4B090119608021394B4900F4
:101560005160E3614C4B5A68FF2A00D859608022D1
:101570004A4B12011A60216A002907D0606901F004
:1015800029FE013043001B18033BFDD2E023424AF1
:1015900011680B4042490B608021424B09011960E0
:1015A00080235B0053608022264BD20223623E4B95
:1015B0005968914200D25A6080223C4B12011A6055
:1015C000616A002907D0606901F004FE0130430020
:1015D0001B18033BFDD2E023334A11680B4034490A
:1015E0000B608021334B090119608023DB025360BB
:1015F000154B6362304B5A68FF2A02D88022520092
:101600005A6080222D4B12011A60A169002907D06F
:10161000606901F0DFFD013043001B18033BFDD280
:10162000E023254A11680B4025490B608021254B9A
:101630000901196080235B005360124BA361F7E638
:1016400098250020006CDC021BB7000000800040E1
:101650003CB0004030B00040002F6859008002408C
:10166000008C864700C0024030800040309000402F
:1016700030A00040001BB7003C8000403C90004080
:101680003CA00040405973075480004054B00040D3
:101690005490004054A000406080004060B0004082
:1016A0006090004060A000406C8000406CB0004042
:1016B0006C9000406CA000404880004048B0004062
:1016C0004890004048A00040F8B5040022481E00A1
:1016D00017000D0001F07EFD0100380001F07AFDD9
:1016E000069B36041B031E432368002B22DB1B4B87
:1016F0001B49E3185A1E93418022920194465B4293
:101700001B0B184A1B0363441360174A13601F0026
:101710008A689743FBD1C022231D92011A432123DB
:101720002560A06013602368002BFCDA0823E660C4
:101730001360F8BD3F2322681340AB42D7D1A368A2
:101740001B051B0D8342D2D1EE22E368D202134067
:10175000B342CCD1EDE7C046001BB7000040FDBF4F
:1017600000C0004000E0004000F000408023024A3A
:101770009B000343D362704700800540AA23064ABA
:101780001B0113602F230549D360054B1960536873
:10179000002BFCDA7047C0460040024000B0FA005F
:1017A000006002402C4B2D4A70B51A602C4A2D4B1C
:1017B0002D491A6014008B689C43FBD12B4D2C4E95
:1017C000B54208D2013E761BB60808CD98472300E3
:1017D0000134B342F9D1FFF713FE264A214B1A60B8
:1017E000214A9368DB43DB01DD09002BF9D140225C
:1017F000214B224C224E9A675A671A67DA66B44226
:1018000008D223682000002B20D00834FEF7BCFF4C
:10181000B442F6D31B4C1C4EC022B168200002F02B
:10182000C9FCB460FEF7EEFDFEF786FFFFF74CF94A
:10183000164C174EB44208D2013E361BB60808CCEF
:1018400098472B0001359E42F9D170BD0834FEF750
:101850008DFFB442D5D3DDE700E00040BFCDFBFEF5
:10186000FE7F3C0000F0004000C00040A4220020A9
:10187000B4220020FFFFFF0100F00140942200206D
:10188000A42200200000002000ED00E0B42200208F
:10189000E022002000BEFDE7094A0300106800288E
:1018A00005D00849C3188B4207D813607047064813
:1018B0000449C31810608B42F7D901204042F5E774
:1018C000044000200000042018420020002070473F
:1018D000012040427047C04610B5FFF7DBFFC0460D
:1018E00030B50D0083B01900002A0BD0074B084C0F
:1018F0000192009302002B00200001F0D1FB012097
:10190000FFF7C8FF034B1A00F1E7C0462CA10410F3
:101910003CA1041090A404100FB400B5084883B093
:1019200002F0F8FC049B002B07D005A918000191D8
:1019300001F0D6FB034802F0EDFC0120FFF7AAFFFF
:101940006CA10410F4A5041010B50148FFF7E4FFE2
:101950007CA104109A4200D2885470477047C04658
:10196000F8B55746DE464E464546E0B599460A9BD1
:1019700007009A460D9B884693460B9C9B073BD1DC
:101980000C9B9C423DD21E1B0B9415000C005E4428
:101990002A004B46013521002020B847B542F7D137
:1019A000A0460B9C002C20D0454636195346321BCE
:1019B000013C185D29004B46B847002CF6D12B009E
:1019C000350098460D9B9B070FD55B46EC1A0C9B88
:1019D000A3420AD9464698462A004B4631002020A9
:1019E0000134B84701354445F6D32800F0BCBB4666
:1019F000B246A946A046F8BD16001500002CD3D16A
:101A0000E0E71600002CCFD11500EEE7F0B54F4609
:101A10004646D646C0B584B098460EAB1B78944671
:101A20009946129B0D9C109F119E9A0725D4002E5B
:101A300065D1BC4221D201221A409246202C00D10D
:101A4000E9E00C9A551E302202E0202C00D17BE008
:101A500001342A55A742F8D85246002A0DD0B44284
:101A60000BD20C9A551E3022202C02D171E0202C72
:101A70002DD001342A55B442F9D1DA063CD55A05A5
:101A80002ED4002C28D10F9A102A00D1B6E0022AB9
:101A900000D1BCE030220C9C227001244A46002A6E
:101AA00065D15A0700D499E02B220C9D2A550134A8
:101AB00003930C9B62460093029643460194FFF702
:101AC0004FFF04B0E0BCBA46B146A846F0BD2024A2
:101AD000DA06EDD55A0503D4A74266D0B44264D0E5
:101AE0000F9A102A71D0022A57D0202CE0D0220061
:101AF000013430250C9FBD54202CD9D0CEE70122D3
:101B000015001D40AA461A4236D04A46002A4AD13C
:101B10000C321A4247D1BC42A1D2202C91D1202EA6
:101B200017D82024DA06C3D55A051BD4202F01D09C
:101B3000202ED5D11F220F9D102D6FD0022DD8D170
:101B400062250C9FBD54D0E75246002A79D0202E42
:101B5000BDD92024DA06ABD55A0503D4202FE9D00D
:101B6000202EE7D00F9A102AA2D12024A0E72D2200
:101B70000C9D2A5501349BE7BC4200D37DE7202C05
:101B800000D05EE7DA06F0D55A05EED4202F62D0F9
:101B9000202EEAD134001F22CDE7202C00D187E788
:101BA00022000134CCE7013EB5E7621E012CC2D110
:101BB0000F9A102A00D06AE79A063BD558220C9C4F
:101BC0002270283A6270022468E79A060ED4202C0C
:101BD000CBD078220C9D2A55013486E71A0700D411
:101BE00066E720220C9D2A55013461E7202CBCD0E9
:101BF00058250C9A12191570013476E79A0608D503
:101C000058220C9C227030226270022446E7603217
:101C1000F7E77822F5E7002A83D1B3E7A21E013C5B
:101C20009D0603D478250C9FBD5460E758250C9F72
:101C3000BD545CE778220C9C2270483A6270022402
:101C40002CE7DA0600D433E75A058BD4202F00D0D6
:101C500044E71F226FE73C001F226CE710B5002805
:101C600000D110BD02F00AFBFBE7C046F0B55746B5
:101C70004E464546DE46E0B599B0824689469046D6
:101C80000893229A239B1000190001F074FD00288C
:101C900000D0CDE0229823990122D94B524201F085
:101CA00065FD002800D0C3E0229823990122D54B7E
:101CB000524201F045FD002800D0B9E02298239956
:101CC0000022002301F03CFD002800D0F1E1229E1B
:101CD000239F8023269ADB001A400D92269A1A42EF
:101CE00001D1062324938023269A1B011A403B002E
:101CF00093460996334300D0B3E0002A00D0C2E1F6
:101D0000002300240A930B94002304250993259BA8
:101D10000024AB4200D95C1B0223269A1A400C9285
:101D2000269A134203D06B426B415B421C40099BD5
:101D3000002B07D00A9A0B9B3000390001F097FC6A
:101D400006000F00229823990022002301F0F8FCDE
:101D5000002803D0802109067B181F00269AAA4B71
:101D6000009601971340089E0493249B03940293CA
:101D7000424633004946504600F0AAF90400002DBF
:101D800067D02020269A4946024013005A42534108
:101D90005B42621C18400A92330022004530D04753
:101DA000099A6F1ED317D4185C40D30F9B460025A9
:101DB00001E0202D13D008AA94461F23200063447D
:101DC0000A2101355E1901F005FA30313170200029
:101DD0000A2101F0FFF926000400092EE9D80523A5
:101DE0000693002304930A3303935B46089E0293F1
:101DF00010AB0A9A00934946330050460597019567
:101E0000FFF704FE0C9A0400002A22D04246851AED
:101E1000259AAA421DD9B0465746160022004346CD
:101E2000494620200135B8470134AE42F6D810E0CB
:101E3000269B42460493259B49460393249B504688
:101E40000293229B239C00930194089B00F040F98D
:101E50000400200019B0F0BCBB46B246A946A0461B
:101E6000F0BD6A4B78009C46400D604401F096FC42
:101E7000674A684B01F019FC674A684B01F0EEFBBA
:101E8000674A3B031B0B1A4304000D00099811001D
:101E9000644B002201F0D9FB634A644B01F005FC5E
:101EA00002000B002000290001F0D8FB01F08EFC9D
:101EB000099001F073FC5E4A5E4B04000D0001F0D6
:101EC000F4FB00225C4B01F0C9FB01F07FFC5B4A94
:101ED0005B4B29000C90200001F0E7FB04000C98FC
:101EE0000D0001F05BFC574A574B01F0DEFB02008E
:101EF0000B002000290001F0A8FB04000D000200E7
:101F00000B000A940B9501F0D0FB04000D000A9819
:101F10000B9902000B0001F0A1FB00220E900F9123
:101F20004A4B2000290001F0A2FB0022484B01F09F
:101F300095FB02000B002000290001F098FB002215
:101F4000444B01F08BFB02000B002000290001F044
:101F50008EFB0A9A0B9B0D0080210400C90500200E
:101F600001F073FB02000B002000290001F076FB5A
:101F700002000B000E980F9901F079FB0022284B0C
:101F800001F06CFB344B0C9C9C46644423050022FE
:101F900001F08BFB04000D0002000B003000390043
:101FA0000A940B9501F0CCFB00285DD123002A0098
:101FB000C625099963318D42AD4159466D420435BC
:101FC000002900D1A3E6134363D030003900234A2F
:101FD000234B01F0C3FB002807D00022300039005A
:101FE000204B01F0ADFB002853D1249B002B00D1E6
:101FF0008DE60D9B5A1E9341249AD31A249386E6AC
:10200000FFFFEF7FFFFFEFFFFFF7FFFF01FCFFFF89
:10201000FB799F501344D33FB3C8608B288AC63FD7
:102020000000F03F0000F83F61436F63A787D23F95
:1020300071A379094F930A400000E03F1655B5BBE4
:10204000B16B0240EF39FAFE422EE63F00002C4011
:102050000000244000001840FF0300002D431CEB4B
:10206000E2361A3F80842E41099B0022013B0993EE
:102070002000164B290001F0FAFA0A0001000300C3
:102080000A910B9294E7002300240A930B940023F7
:102090000993249A099B9A4214DDD31A013B249395
:1020A0008023269ADB001A430023002526920993F9
:1020B0002DE6802212069446229B1E00239B634439
:1020C0001F0006E600232493EAE7C04600002440F0
:1020D000F0B54546DE464E465746E0B595B08B46D0
:1020E000904699461E9A1F9B0A9019001000209D49
:1020F00001F041FB002800D0B0E11E981F99012299
:10210000C74B524201F01CFB002800D037E11E985B
:102110001F990122C34B524201F028FB002800D036
:10212000A7E01E981F990022BF4B01F01FFB00285B
:1021300000D088E01E981F990022BC4B01F000FBE4
:10214000002800D07FE01E981F990022002301F094
:10215000F7FA002800D0FAE000230B938023229C9A
:10216000229ADB001C401A4200D102E1092D00D85E
:102170007CE106A98C462C00172200233021093C63
:1021800062440133D154EF1A202B00D132E1A34233
:10219000F7D10022A44B069207931E981F9901F0D5
:1021A00015FB050001F0FAFA02000B001E981F99BA
:1021B00001F04BFA069A079B01F077FA0890099113
:1021C00001F028FB060001F0E5FA02000B00089878
:1021D000099901F03AFA0022954B0890099101F013
:1021E000C5FA002800D1D2E00136300001F0D2FA61
:1021F000069A079B01F0B2FA002801D000260135AB
:10220000AA46002F00D098E0280001F0C7FA02008B
:102210000B001E981F9901F018FA854B002206004A
:102220000F0001F08DFA0CAB9A46002845D1002230
:10223000300039007E4B01F099FA00283DD1EB07C0
:102240003BD5013539E0229B42460493219B5946F8
:1022500003930A981E9B1F9C0295009301944B4682
:10226000FFF704FD15B0F0BCBB46B246A946A04638
:10227000F0BD229B5B0767D403226E4B229901922B
:10228000039121990291009342464B4659460A9880
:10229000FFF766FBE6E706AA944617232800634487
:1022A0000A2101341E1900F06DFF30312800317011
:1022B0000A2100F067FF051E76D0202CEBD1032306
:1022C000229A1340012B1DD1219B002B1AD00B9B6E
:1022D000002B00D0BBE0229A0C33134200D0B6E0B2
:1022E000219BA34200D887E006AB9C4617223023EF
:1022F000624404E02199013413558C4259D0202CBA
:10230000F8D12024229B01940393219B02935346EE
:10231000B9E706AA944617230A2163443000013422
:102320001D1900F057FF3031297030000A21013F9C
:1023300000F050FF092E46D90600202CE9D1554661
:102340000CAB20249A46B8E704223B4B96E71E9A32
:102350001F9B0020002101F078F901230B938023BB
:10236000229C229ADB001E901F911C401A4200D032
:10237000FCE60022314B0627069207930DE7229BCD
:102380000393219B0293042301932D4B7BE70022AF
:1023900008980999264B01F0D3F9002800D02FE7BF
:1023A000002E4FD101362BE70323229A1340012B35
:1023B00066D0202CA6D00B9B002B1FD02D2352467D
:1023C000135501349EE75546202CB9D030233A19D5
:1023D000002F08D0172006A9013409180B55202C0E
:1023E000AED09442F6D10CAB9A462E2352461355EA
:1023F000013462E72024CCE6202C83D0229B5B07AB
:1024000008D4229B1B0700D47CE720235246135597
:10241000013477E72B2352461355013472E7C04647
:10242000FFFFEFFFFFFFEF7F65CDCD4165CDCDC154
:102430000000E03F90A1041088A1041080842E4188
:1024400098A10410F30700D4DAE60136D8E6219B00
:10245000013B2193A34200D946E7AAE7229B0393BD
:10246000219B029303230193074B0CE7074BEA00E0
:102470009B185C681B682F000693079400248CE669
:10248000219B002B95D022E794A1041048BD041095
:10249000F0B55746DE464E464546E0B5A5B01F00AE
:1024A0002E9B91460D93CA4ACA4B82468B461A60B0
:1024B000002900D129E2002338789846002800D16D
:1024C0002BE2C54B44460C93C44B55464E460E93E7
:1024D0000AE0631C9846220033005946A847444648
:1024E0003878002800D187E001372528F1D108236A
:1024F0009A46043B9946023B9846013B00229C4683
:102500000B943878791C0300203BDBB2102B03D8E6
:102510000C9C9B00E3589F460300303B0B9C0B92A6
:10252000092B3AD9002398462A2800D1DDE0002360
:102530009A462E284BD00300683BDBB2122B1ED8E4
:102540000E9A9B00D3589F4663460F001A43D8E764
:1025500043460F001A43D4E74B460F001A43D0E717
:1025600010230F001A43CCE753460F001A43C8E765
:1025700080235B000B9A78781A430B9201310F008D
:1025800067284FD82428A4D90300253BDBB2422B6F
:102590009FD893499B00CB589F46002398460B9B9E
:1025A00047469C4600E00131BB00DB195B001F1869
:1025B0000878303F0300303B092BF4D963460B9376
:1025C0000023B8469A460F0001312E28B3D180204F
:1025D0000B9AC00002430B92302252429446787804
:1025E0000B0084446246092A00D8AAE12A2800D1B7
:1025F000B9E10F0001319EE7A046AA46B146C845A1
:1026000003D301235B424B4498464B46424659460E
:102610000020D047200025B0F0BCBB46B246A946FA
:10262000A046F0BD01006939C9B20F2900D950E7B1
:1026300001238B409C466B4B994663464A461340A8
:102640000F9362464B461A4200D068E10A2956D0E1
:10265000072900D03DE70D9B02CB9846002900D00A
:1026600092E10B9B10211A008A431000113108439C
:10267000814680201A00C0000240110003421CD194
:1026800014AB9C461F220F2362440D959C461500F7
:102690000F9B0B9402E0202B0CD0110064460C40E1
:1026A00020003730092C00D807380133E8540A09D4
:1026B0000F29F0D80B9C0D9D0F934B4608220693D3
:1026C0005346059208320392002204930F9B029214
:1026D00001931CAB22000093594633002800FFF7FA
:1026E00095F9434604000D93FAE60D9B04CB904602
:1026F000002A79DB78780D930F00013117E70D9BE5
:1027000002CB14930B789C4618005346002B00D143
:1027100034E1002815D05346013B013399460D940E
:102720000B9C89444A460B00A14601E0934203D02A
:102730005C780133002CF9D14A465B1A0D9C0B9250
:102740000F938023DB0099460B9A13400D934B4661
:102750001A4204D00F9B534501D953460F930223CD
:1027600099460B9A13400B934B46134200D1F5E167
:102770006346002B00D1D6E10D9B002B00D182E1F6
:102780000B1BD14631009A463B00A1442E005F4608
:102790004D4622009B46894609E04B463900541CB1
:1027A000B0475346185D002800D192E122009542BF
:1027B000F3D14B465A46A946BB46350017001E00CA
:1027C0004C460B9B002B00D0ADE1149B0D9387E68C
:1027D000912400100C400020A8BB0410ECBB041096
:1027E00038BC0410419000000B9A283802430B9229
:1027F00042465242787890460F000D93013196E69A
:1028000078786C2800D15DE180230B9A5B001A4335
:102810000B920131B3E680239B00ABE67878682801
:1028200000D148E180230B9A01311A430B92A6E6AE
:10283000672800D1B2E0472800D11AE1452800D12D
:102840001CE10B9A0721049242460D9B0392073329
:1028500052468B43190002920CC928000092019342
:102860000D91220033005946FFF700FA040037E6C5
:10287000462800D18DE00B9A0721049242460D9B19
:102880000392073352468B43190002920CC9280069
:10289000009201930D91220033005946FFF718FC76
:1028A00004001DE6631C984622003300594625208B
:1028B000A847444614E60D9B04330F93631C9946C6
:1028C0000B9B9A0700D40AE10D9B22001878594609
:1028D0003300A84743464444012B00D86FE1B0467B
:1028E0002E0025004C46B9465F462200434601347F
:1028F00039002020B047AC42F7D12C00BB46350050
:102900004F4646460F9B0D93EAE5D64B38789A46DC
:1029100000239846002800D0D3E500246FE66F28F6
:1029200042D000D8FDE11023782800D19BE00B9A1B
:102930009A430B920A239C46002314930A330F9365
:1029400038E057460B9AB900C919490001330F18EE
:102950001878303F010030390929F4D9BA460B9272
:102960001F00591CE7E50D9BB87804CB0237D14313
:10297000C9170A4092460D93791CDCE5002800D166
:10298000DFE602235B42C8E621200B9A0243914610
:1029900076E620230B9A1A430B926CE780230B9A5E
:1029A0001B011A430B924CE708239C460023149307
:1029B00008330F930B9880230200DB001A401100AC
:1029C0000200184200D080E00C239A4310008023BC
:1029D00002009B001A400B92184200D0F1E08023C5
:1029E00002005B001A4091460D9A0432149218427C
:1029F00000D0C3E2430600D5D7E0030600D421E3AC
:102A00000D9B1B880993002B00D02DE110339843B8
:102A1000002900D128E100239946434605935346F7
:102A200004930F9B06900393002302934B4601935C
:102A30001CAB22000093594633002800FEF7E6FF46
:102A40000400C2E6582809D0622800D0E3E202233D
:102A50009C460023149302330F93ABE720230B9A79
:102A60001A430B92103B9C460023149310330F9390
:102A7000A0E780230B9A1B011A430B9220230B9A89
:102A80001A430B92DDE60B1B9A460F9B99463B00BF
:102A900037005E469B4622003B003100A847534664
:102AA0000134185D0028F6D14B460F935B46B346C0
:102AB0003E001F0085E6C0230B9AB8781A430B929C
:102AC000F91C5CE5C0239B00F6E70D239A43100038
:102AD0007DE75B463500BB464E461F0071E6434628
:102AE000012B66D9631E434432002E001D003B00BB
:102AF000A2465F4691469B4622004B460134390070
:102B00002020B047AC42F7D15B463500BB464E466D
:102B1000A14654461F000D9B4A461878594633007B
:102B20004444A847EEE60F9BA146984500D84CE6E2
:102B30004444E41AB0462E0025004C46B9465F4690
:102B400022004346013439002020B047AC42F7D17F
:102B50002C00BB4635004F46464636E60F9880456A
:102B600000D873E24346E218131A32002E001D000B
:102B70003B0091465F469B460F9122004B46013435
:102B800039002020B047AC42F7D15B46BB461F005E
:102B900043460F9901330F930B7835009C464E4600
:102BA0006046002800D0E7E50FE60D9B1B780993EF
:102BB00029E70D9B2200187859463300A8474C4658
:102BC000A0E60D9AFA3BFF3B07329A430133994640
:102BD00091444B460D931368526815921A4306D1DF
:102BE0001032904300220992002900D083E0612234
:102BF000810600D54122D2B20A9214AA91460A9ABD
:102C000000210A3A0B9242461792524618925A46AF
:102C1000B24609911E001F31149B4944BB461694CD
:102C20001A950024674698468946159D19901B926F
:102C30000AE03032D2B24B4601341A55A8454CD086
:102C4000202C4CD006000D003A0000233000290053
:102C500000F0FEFAD2B2092AEBD90B9B9C466244E3
:102C6000D2B2E8E75D1900106123820600D5412346
:102C7000DBB20A3B0B93434614A91F228C461593E3
:102C800053466244B2460D9417974C468046A94677
:102C90001700099D0F9E169308E03033DBB2013414
:102CA0003B55B5420ED3202C0CD005003100280036
:102CB00000F090FACBB20929EFD90B9A94466344FD
:102CC000DBB2ECE7159B40469846169B4D465646B0
:102CD000A1469A460D9C179F9FE6B742B0D9179B15
:102CE00056469846189B5F469A461B9B09949B46FE
:102CF000169C19981A9D43460593534604930F9BBF
:102D00000690039300230293099B01931CAB2200BE
:102D10000093594633002800FEF778FE0400FFF7C1
:102D2000DFFB10230B9A9A430F92692800D091E1A0
:102D30000B9980230A00DB001A4010000A00194298
:102D400003D0112118008A430F920F9A802311009B
:102D50009B0019408C461A425BD1802311005B0016
:102D6000194089460D9904310B911A4200D0B2E006
:102D700013005B0600D4EDE00D9B1B781A00D90F01
:102D80000D91002B00D1A3E0100014AA94464246F6
:102D90001F23159252466344A846BA464D461494E2
:102DA000B14604001F00169201E0202D0FD0200034
:102DB0000A2100F00FFA01357E1930313170200000
:102DC0000A2100F007FA26000400092EEDD8159B11
:102DD0004E46A94645469846169B57469A46149C29
:102DE0000F9B069343460593534604930A2303938C
:102DF0000D9B02934B4601931CAB22000093594656
:102E000033002800FEF702FE0B9B04000D93FFF732
:102E100067FB07220D9B07339343013294469C4482
:102E200062460D920CCBD90F0B911100194300D1C2
:102E30009BE0D91713911291514010911399594069
:102E4000119110981199129A139B801A9941109020
:102E5000119114AA9446424600231592524699466F
:102E6000169232001F336344A8464E46BA46149465
:102E70001F00109C119D914601E0202E10D02000D3
:102E800029000A22002300F0E3F9013630322B003A
:102E9000BA550D0022000400002BEED1092AECD80F
:102EA000159B10941195454698464B46169AB14687
:102EB00057461E009246149C0F9B0693434605936B
:102EC000534604930A2303930B9B02934B461CE740
:102ED000002885D159E70D9B1B68DA0F1100002BE4
:102EE00000D1A6E0DA179818504014AA91461F2383
:102EF00042464B44A8460D94169704006546B146D9
:102F00001F001491159201E0202D0FD020000A21FE
:102F100000F060F901357E193031317020000A214E
:102F200000F058F926000400092EEDD8159BAC4698
:102F300045469846149B4E4619000D9C169F0F9BC4
:102F40000291069343460593534604930A23039341
:102F5000634650E713001B066ED50D9B00229B5E57
:102F6000D9175A184A4092B209E700239946002817
:102F7000A2D100220023109211936AE70D9B1B68D7
:102F80009946002B03D110339843002938D161238F
:102F9000820600D54123DBB20A3B0D9343461693CC
:102FA000534614A91F228C4617932B0062444D46AA
:102FB000B246159418978046170099460B9C0F9EB1
:102FC00008E03033DBB201343B55B5420ED3202C40
:102FD0000CD005003100280000F0FCF8CBB2092924
:102FE000EFD90D9A94466344DBB2ECE7169B40465A
:102FF0009846179B56464D469A460B94189F159C2B
:1030000043460593534604930F9B06900393002376
:1030100002930B9B0BE50B9980230A00DB001A40FF
:1030200010000A00194200D08BE610239A430F9239
:103030008BE6002883D158E70D9B1B68D9175A18D7
:103040004A409CE60D9B1B680993DCE403000133B6
:103050000F93A5E50B926DE40EB4012230B584B058
:1030600007AC08CC064D010000942800524203949E
:10307000FFF70EFA04B030BC08BC03B01847C046D6
:103080005519001010B5054C82B0009313000A00CA
:1030900001002000FFF7FCF902B010BD5519001027
:1030A0000FB430B50C4985B008AA08CA0D68039260
:1030B000002D0CD000920122084C5242200002A99F
:1030C000A847012005B030BC08BC04B01847180060
:1030D00001F020F90020F5E70C4000205D1C0010F5
:1030E00010B5094A0300146884B0002C08D00122EE
:1030F00000910648524203A9A047012004B010BD28
:1031000001F008F90020F9E70C4000205D1C0010D8
:1031100001480421014B18471012002041310010D2
:10312000142310B50100188804331B88984710BD7C
:10313000162310B50100188802331B88984710BD6C
:10314000F8B54746CE4680B50F1E19D014239946D0
:10315000043304000025012698464B461888434650
:1031600021681B88984701C4431E9841013540429D
:103170000640AF42F1D13000C0BCB946B046F8BD00
:103180000126F8E7124A936F9B0815D29066D16624
:10319000002905D0FFE7FFE7FFE7516F106F704789
:1031A00004B580210906C2175140002800D0C84349
:1031B00046F056FF002104BDF0B5146E556E576FF2
:1031C000166FFFF7E3FF1466556657671667F0BD85
:1031D000000000D0114A936F9B0813D2106651660D
:1031E000002905D0FFE7FFE7FFE7516F106F704739
:1031F00004B5002801D00020C04346F031FF002173
:1032000004BDC046F0B5146E556E576F166FFFF7CC
:10321000E5FF1466556657671667F0BD000000D0DD
:1032200094464A4A926F9208624601D228E0C0460C
:10323000F0B5464E346E756E776F366F00F020F83D
:103240009446424A14665566576716676246F0BD53
:1032500094463E4A926F9208624601D254E0C046BC
:10326000F0B53A4E346E756E776F366F00F04CF8ED
:103270009446364A14665566576716676246F0BD2F
:10328000002B24DB11D000293EDA00B5C9434042AF
:1032900000D1013100F038F8C943404200D101317A
:1032A000DB43524200D1013300BD002AEBD100289C
:1032B00001D1002905D00020C90FC90701D1C043A1
:1032C000410800B546F0A4FE0022002300BD00B571
:1032D00000290ADBDB43524200D1013300F014F82D
:1032E000C943404200D1013100BDC943404200D131
:1032F0000131DB43524200D1013300F005F8DB43DA
:10330000524200D1013300BD002923D1002B18D136
:10331000002A0CD0BC460D4F38667A660021002387
:10332000FFE7FFE7FFE77A6F386F674670470028CF
:1033300001D00748010000B546F06AFE00220023D4
:1033400000BD02000B00002000217047000000D0EB
:10335000FFFFFFFF002B00D0BFE0130C28D1002A95
:10336000E7D080B4114F39667A66FFE7FFE730B4E3
:10337000040C7B6F396F1B0423433B667A66FFE7BF
:10338000FFE7FFE7C04684B27B6F3D6F1B0423431A
:103390003B667A66FFE7FFE7C04600232C042D0C4E
:1033A0007A6F386F00196941B0BC7047000000D0D7
:1033B000F0B594460025140E01D112020835140F01
:1033C00001D112010435940F01D192000235D40FBE
:1033D00001D152000135D40B0134254F7C66254CB8
:1033E0003C660E0C93B2FFE7FFE7FFE73C6F6643D6
:1033F000360C7703BE467343DF0B5B04C01AB9413A
:10340000130C7343DB18C91ACE086643360CB64456
:1034100093B273431F0F1B01C01AB941130C7343BE
:103420001F0B1B05C01AB941860D8F023E43664330
:10343000360C092D24DB520A7243801A7703460AA0
:103440006643360C16235B1BDE40DF40BF19644623
:103450006643821B7046043506330100D940A840FC
:10346000C01900D30131A24206D20023F0BD0000F2
:10347000000000D0FFFFFFFF121B0130F3D3F1E784
:1034800009277F1BFE406446A2B27243801A00D215
:103490000139220C7243130C1204821A99410B0059
:1034A0007046043513370100F940A840801900D355
:1034B0000131002B02D1A2420AD2F0BD013000D36B
:1034C0000131121BFAD2013BF8D1A24200D2F0BD69
:1034D000013000D30131121BF7E7F0B51C0C00D00E
:1034E00080E00CB400251C0A04D11B02160E3343E5
:1034F000120208351C0B04D11B01160F33431201B5
:1035000004359C0B04D19B00960F33439200023587
:10351000DC0B02D192185B4101351C009718644105
:103520000134464F7C66464C3C660E0CFFE7FFE7D5
:10353000FFE7C0463C6F6643360C7703BE4697B242
:103540007743C01B00D20139C01B00D201399FB2A2
:103550007743C91BC91B170C77437E04FF0B801BE5
:10356000B941CE086643360C0C2D33DBB644120B42
:103570001F053A431B0B97B27743C01B00D201399A
:103580009FB27743C91B170C77433E043F0C801B47
:10359000B941860D8F023E43664329277F1BFE40BB
:1035A0000C3D7746AF40BF1930BCA2B2ABB27243FC
:1035B0007343801A9941220C7243130C1204801A2F
:1035C000994102000B000137001BA941F9D2781E76
:1035D0000021F0BD0C277F1BFE4077467F0BAF40DC
:1035E000FF19E0E700245D1C07D0144F7D663966A3
:1035F000FFE7FFE7FFE7FFE73C6F95B29EB2654349
:103600006643401BB141150C1E0C654366433604EE
:103610002F0C3E432D04401BB141994204D20200BD
:103620000B0020000021F0BD01D19042F7D3801A99
:10363000994101349942F2D3F6E70000000000D02E
:10364000FFFFFFFF48404140484018B41B4B5B68F8
:10365000FC46019308BD04DF7F39001018B4174BF6
:103660001B68FC46019308BD00DF893900109446B1
:10367000134A926F920809D2624618B40F4BDB6866
:10368000FC46019308BD0CDF413C00100C4AF0B52C
:10369000146E556E576F166F6246FFF7EEFF084ABD
:1036A0001466556657671667F0BD18B4034B9B68E0
:1036B000FC46019308BD08DFE53A0010D026002043
:1036C000000000D0FFB550404240504059404B40B0
:1036D000594000E0FFB5154F4C00640D03D0BC42CB
:1036E00004D10C0314D80020090D09055C00640DF9
:1036F00003D0BC4204D11C030AD800221B0D1B05B9
:1037000001264B4009D44B4003D58B4200D1824265
:10371000FFBD9942FCD19042FFBD0B43DB18034330
:103720001343F5D0C9434918FFBD0000FF0700004F
:1037300000B5FFF7CFFF01D0002000BD012000BD84
:1037400000B5FFF7C7FF804100BDC04600B5FFF7D9
:10375000C1FF01D9002000BD012000BD00B5FFF769
:10376000B1FF01D9002000BD012000BD00B5FFF769
:10377000A9FF804100BD012040054A00121804D86D
:103780005A00121801D8002070470120704700200D
:10379000704700000021002805D17047C11748403C
:1037A000401AFAD0C90713B5064B1B6898470CBCE2
:1037B000441CA2401005120B0349091B09051943BB
:1037C000114310BDFC4100201F04000010B54C0047
:1037D000620D8023D218DB00D21A5B057E2A10DD31
:1037E0009E3A13DACC170903490819435242D140D3
:1037F000640001341532202A05DAD04008436043C2
:1038000010BD002010BD0846604310BDC80FC01891
:10381000013810BD18B4044B5B6AFC46019308BD27
:1038200024DFF13D00100000D026002018B4044B26
:10383000DB6DFC46019308BD5CDFFD3E001000001F
:10384000D0260020C94211D300B549004908002202
:1038500000F018F8002904D4002240428A411146A1
:1038600000BD80210906002000BD000018B4044BF3
:10387000DB6EFC46019308BD6CDFFF3D00100000CD
:10388000D026002018B4044B9B6FFC46019308BD62
:1038900078DF1B3E00100000D026002018B4044B37
:1038A000DB6FFC46019308BD7CDF893E0010000001
:1038B000D0260020132370B51D78012D15D010DD02
:1038C0001D48FFF735FC1D4C01008022200000F050
:1038D00071FC022D2DD01A48FFF722FC194B1860FD
:1038E00070BD194B154CA364F5E7174B134C2360BF
:1038F0006360A360E36023616361A361E3612362AA
:103900006362A362E36223636363A363E363236489
:103910006364A364E36423656365A365E365236669
:103920006366A366E36623676367A367E367A364CD
:10393000D1E7054BA364CEE753440000D026002016
:103940004C330000FC4100204D39001007B56046A3
:1039500001880A0A0230DF2AFAD1C9B2820804D3E8
:10396000028840880004104300E00068014A50507B
:10397000039007BDD02600200FB403BC0CBCF0B5EB
:103980000124E407634000E0F0B50C0DCF0F661E84
:103990003605891B640503D3C943404200D3013176
:1039A000640D03D0661CF60A07D0E41B00207F00DC
:1039B000791C89078912803C24031D0DDF0F6E1EC0
:1039C00036059B1B6D0503D3DB43524200D3013305
:1039D0006D0D03D06E1CF60A07D0ED1B00227F0090
:1039E0007B1C9B079B12803D2D032F1B661B58D40D
:1039F000A446202E46DA20371400BC401D00BD40EE
:103A0000F24033412A4380185941CB0F05D0C943B6
:103A1000C043002264425041514162464D0D28D1BD
:103A20000D0D07D100281FD0241940414941013A0A
:103A30000D0DF9D0640006D3013000D30131002C04
:103A400001D140084000013A0BD4941CE40A04D18F
:103A500012051144DB071944F0BDD907204B194367
:103A600000E0D9070020F0BD0029DDD1002CDBD11A
:103A7000F0BD0132C6074008CD0728434908002E93
:103A8000E1D0D9E73C2E29DA203E40371400BC4073
:103A900000D00124F24014431A00BB401C43D3174A
:103AA000ACE7AC46202F08DA20360400B4400D0005
:103AB000B540F84039412843A5E73C2F0CDA203FB8
:103AC00040360400B44000D00124F840044308000C
:103AD000B1400C43C117EAE710001900002494E735
:103AE0000000F07FF0B50C0D661E3605891BE60A56
:103AF0006405640D02D0651CED0A04D0002001218C
:103B00000905803C2403A4461C0D671E3F05DB1BF2
:103B1000E70A6405640D02D0651CED0A04D000229A
:103B200001231B05803C24037740644497B484B28E
:103B300096B27443070C7E43150C6F4380B2684302
:103B4000361802D3012000043F183004350C001948
:103B50007D41844688B29AB250430C0C62431F0CDC
:103B60007C438EB27E43921902D301263604A419F7
:103B70001604170C3618674101BC81B29AB2514342
:103B8000040C62431B0C5C4380B25843121802D3EE
:103B90000120000424181004130C401863412D1850
:103BA0005E410020474106BC88B293B258430C0CDA
:103BB0006343120C544389B251435B1802D3012171
:103BC0000904641819041A0C091862416D18564149
:103BD0000020474118BCF902720D1143F0026A0D32
:103BE0001043ED020A0D03D16D1940414941013BDB
:103BF000124E9B1B7600B3420ED26D0007D30130EC
:103C0000002671416646354301D1400840001B053E
:103C1000C918E4072144F0BD0BDA013306D10130A5
:103C200004D101314F0D01D04908F2E7E10700202E
:103C3000F0BD013631050020EBE70000FF03000076
:103C4000F0B51C0D671E3F05DB1BE70A6405640D1C
:103C500002D0661CF60A04D0002201231B05803C1A
:103C60002403D0252D060026F6432E661E096E6617
:103C7000CE0FF619B44649004F0D02D07E1CF60A4D
:103C800003D000200021403F3F033E1BB600B44458
:103C9000013F7F05C91B49082E6F013676089C023B
:103CA000950D25437543ED137543AD1301356D1027
:103CB000F603761B0CB4CC02450D2C43A2B2B3B272
:103CC0005A43270C7B43350C6F43A4B26C431B193A
:103CD00002D3012424043F191C041D0CA4187D41A7
:103CE00024196D41009A91B2ACB26143170C7C4328
:103CF0002B0C5F4392B25A43A41802D30122120440
:103D0000BF182204230C52187B41019C6C431B19E1
:103D1000520ED9010A434401A01A81B2B2B25143F2
:103D200003145A43360C734387B27743D617D2191C
:103D300000277E4136049B191704160C7F185E413C
:103D40007316ED18F301002680337541A90F06D1D3
:103D50006400690AE8055B0A184309D22FE00422CF
:103D6000944480337541A90AA8059B0A184326D3B9
:103D7000404149412404009A019B0D005543641BB6
:103D80004343E41A95B286B27543170C7E43030C85
:103D90005F4392B25A43B61802D301221204BF18ED
:103DA0003204330C52197B4152429C41002C02D404
:103DB0000022013051414008CA071043490802B0AF
:103DC0006246D7079210084BD218084B9A4203D28A
:103DD00012058918C919F0BD0020002A01DC39003C
:103DE000F0BD01331905F5E7FD030000FE070000F3
:103DF000002200B5203200F010F8080000BD0022BB
:103E000000B500F00CF8CA179A4200D100BDD843A3
:103E10000121C907414000BD00220B150AD410B58D
:103E2000944600F0A7F81414013400DA0021CB17EF
:103E3000144C20470020002170476244343A0CD4CF
:103E40000C2A07DA04009140904052422032D440BC
:103E5000214310BDD843D94310BD203207D40C46AE
:103E60009440524220321141D040204310BD0800FE
:103E7000C917203203D452422032104110BD18001D
:103E8000190010BD3B3E00104A00520D144BD21ACF
:103E900013DDFF2A1EDAD205CB0FDB071A43C3005E
:103EA000400F0903490A084310435B0001D301D0C6
:103EB000013070474308FBD2704702D0C80FC007DB
:103EC00070470A0312130132F8D1420F072AF5D1C5
:103ED000012200E0FF22C80F00028018C0057047D1
:103EE0008003000000210A00002104E000210A00F4
:103EF000C11704E00022002306E0C0460022CB17D1
:103F000058405940C01A994130B5184CA21A00299E
:103F100003D1010010D00020203A4C1512D104D258
:103F2000013A001849414C0DFAD3114CA24204D277
:103F300012058918DB07C91830BDD243520D002085
:103F40000021F5E703D4013A00184941FBD50B32B3
:103F50004405C00A4D052843C90A640003D0002463
:103F600060416141E1E7E0D34408F8E73204000032
:103F7000FE0700000A0DCC0F531E1B05C91A52057F
:103F800003D3C943404200D30131520D03D0531C27
:103F9000DB0A07D0121B00206400611C890789120C
:103FA000803A1203014BD21A70470000FF03000051
:103FB00051434343C9188C46110C83B24B4310B490
:103FC000040C614392B280B2504362431C041B0C48
:103FD000001910BC59411304120CC018514161441E
:103FE0007047000007B548404140484001E0C046E6
:103FF00007B54200120E03D0FF2A03D1420218D89F
:10400000C00DC0054A00120E03D0FF2A03D14A0298
:104010000FD8C90DC9050122414005D4414001D541
:10402000814207BD884207BD0143491801D0C04302
:10403000001807BD00B5FFF7DBFF01D0002000BD71
:10404000012000BD00B5FFF7D3FF01D9002000BD5E
:10405000012000BD01231B064200D21804D84A00EB
:10406000D21801D80020704701207047132310B5E3
:1040700012481C78FFF75CF80100012C0AD003DD20
:1040800080220F4800F096F80E48FFF749F80E4BD3
:10409000186010BD0A4C5422200000F08BF80B4B26
:1040A0006365A365E36523666366A366E3662367CA
:1040B0006367A367E3672362E361E5E753460000B4
:1040C000D02700204C330000FC410020D1400010DC
:1040D00007B5604601880A0A0230DF2AFAD1C9B260
:1040E000820804D3028840880004104300E000687E
:1040F000014A5050039007BDD027002070B504003E
:104100000A4E300045F0ECFF20003BF0A9F8050016
:10411000300045F075FF002D05D0054B2C199C4251
:1041200001D8280070BD0348FDF7F6FB942200205B
:1041300000000420A0A1041070B505000C000B4E77
:10414000300045F0CDFF280021003EF0CBFD0500FA
:10415000300045F055FF002D05D0054B2C199C4231
:1041600001D8280070BD0348FDF7D6FB942200203B
:1041700000000420A0A1041070B50400054D280023
:1041800045F0AEFF20003BF075F8280045F038FF01
:1041900070BDC0469422002001480421014B1847FD
:1041A0002012002041310010014B1B68184700000D
:1041B00020120020014B5B681847000020120020ED
:1041C00010B5FFF79BFF10BD10B5FFF797FF10BDAF
:1041D00010B5FFF7D1FF10BD10B5FFF7CDFF10BD33
:1041E00010B5FFF7C9FF10BDF0B5C64600B5437D59
:1041F00007000D001600002B38D0002A2EDD00210C
:104200006A1E90466A5C037D4C1C00200A2A0CD072
:10421000A64216D043461B5D21000D3B5A42534136
:104220006A5CDBB24C1C0A2AF2D1002BF0D1884226
:1042300017DB022110483B689847A64207D02000B0
:10424000E8E7864203DD311A3B6828189847AD1924
:10425000013D2B780D3B5A4253413B7580BCB8461B
:10426000F0BD091A3B6828189847E2E70368110077
:1042700028009847F2E7C046BCBD0410F0B5CE4612
:10428000474680B583B06B460600DD1D2870FCF7FD
:10429000DFFD00231A4A12184B41802109068B4288
:1042A00002D30122174B524217490800884645F0B5
:1042B000F7FE164B81461C68002C14D0144F02E008
:1042C0002469002C0FD02368002BF9D03B68002B09
:1042D00001D0A342F4D1200001222900FFF784FF7E
:1042E0002469002CEFD14B46002B05D1300003B0E0
:1042F000C0BCB946B046F0BD404645F081FEF5E78A
:1043000040420F00FFFFFF7F9C220020F83F00206B
:1043100000400020F0B5DE4657464E464546E0B523
:1043200085B007003FF0D6F90600FCF791FD0023A9
:104330002B4A12184B41802109068B4202D30122DD
:10434000284B5242284908008B4645F0A9FE274BCE
:1043500001901C689A46002C3BD0254B984602AB36
:10436000DD1D0A23994602E02469002C17D023683A
:10437000002BF9D043461B68002B01D09C42F3D19F
:10438000200032003900FFF72FFF4B4620000122AA
:1043900029002B70FFF728FF2469002CE7D1019B2F
:1043A000002B18D153461C68002C06D06368002BE4
:1043B0000BD098472469002CF8D1300005B0F0BC30
:1043C000BB46B246A946A046F0BD2469002CEDD1FB
:1043D000F3E70028F1D0584645F012FEE2E7C04668
:1043E00040420F00FFFFFF7F9C220020F83F00208B
:1043F00000400020F8B557464E46DE464546E0B53B
:104400000E00170000282CD11B4B1C4D1A685B684E
:1044100093469A461A4B99461A4B98464B461C6847
:10442000002C03D115E02469002C12D02B68002B3E
:1044300001D0A342F7D1A368002BF4D0390030009B
:1044400098470028EFDDF0BCBB46B246A946A0461F
:10445000F8BD43465B6A9A4508D84246926A5A4577
:1044600002D301204042EEE79A45FAD10120002113
:10447000FCF7F8FCD2E7C04600A104100040002081
:10448000F83F002000400540F0B54646D6464F466E
:1044900001380D009046C0B5012841D8FCF7D8FC82
:1044A0000023214A12184B41802109068B422FD24A
:1044B0001E49474608008A4645F0F2FD43468146BC
:1044C000013303D128003FF005F90700184B1C68A1
:1044D000002C14D0174E02E02469002C0FD0236862
:1044E000002BF9D03368002B01D0A342F4D1200077
:1044F0003A002900FFF778FE2469002CEFD14B46E3
:10450000002B09D14046E0BCBA46B146A846F0BDF2
:104510000122094B5242CBE7504645F071FDF1E7CD
:1045200001204042EFE7C04640420F009C2200209D
:10453000F83F002000400020FFFFFF7F01204042A5
:104540007047C046012040427047C04601204042AB
:104550007047C0460300022200209A424041704743
:1045600000207047002000210022024B1860596093
:104570009A607047C026002010B5054C200000F05E
:1045800019FA2000034A04492AF02AFD10BDC0464A
:104590006C3C002094110020D5490010F0B5DE4697
:1045A00057464E4645460122E0B5DF4D002428001F
:1045B000DE4B83B01A70DE4B1C3098461B686C6073
:1045C0009E68DC4BAC609B462B60EC602C616C61A0
:1045D000AC6101F019F9D84BD84F9A462B600123F2
:1045E0005B4299466B6243461B682E6238005E68E8
:1045F0005B461C303B607C60BC60FC603C617C6165
:10460000BC6101F001F953463B604B467B62434677
:104610003E62CB4E5A4630001B681C30DB6832606D
:1046200001937460B460F46034617461B46101F04A
:10463000EBF8019B524633624B467362C14B3260CA
:104640009946180015F02AF84B4678221C67043B5F
:104650009C5208329C5004329C5004329C50DC67BF
:10466000B94C29002200484614321C605A6014F0EC
:10467000A9FFB64D280015F011F82B0000227C216F
:10468000083B5A5204315A5004315A5004315A509E
:1046900004315A50AE49280019601431996039002C
:1046A0002A675A6014F08EFFAA4D280014F0F6FF16
:1046B000002278212B1F5A5208315A5004315A5087
:1046C00004315A502A67AA672200310014322800A8
:1046D0001C602A6014F076FF9F4D280014F0DEFF66
:1046E000002278212B1F5A5208315A5004315A5057
:1046F00004315A501C603100143428002A67AA671C
:104700002C6014F05FFF80229449954B92019967C9
:10471000944B954D1869596702431A614346280026
:1047200000241B681C309E68904B6C609B462B607D
:10473000AC60EC602C616C61AC6101F065F88C4B95
:104740008C4F9A462B6001235B4299466B6243462D
:104750001B682E6238005E685B461C303B607C60E4
:10476000BC60FC603C617C61BC6101F04DF853466B
:104770003B604B467B6243461B683E627E4EDB6875
:10478000300098465B461C3033607460B460F4605F
:1047900034617461B46101F037F8534633604346C5
:1047A00033624B467362754B9846180014F076FFDF
:1047B00043467C221C675C67043B9C5404329C503B
:1047C00004329C5004329C5004329C506C4C2900A2
:1047D0002200404614321C605A6014F049FF694DB3
:1047E000280014F05BFF2B0000228021083B5A5464
:1047F00004315A5004315A5004315A5004315A503D
:104800006149280019601431996039002A676A6784
:104810005A6014F02DFF5D4D280014F03FFF002278
:104820007C212B1F5A5404315A5004315A50043100
:104830005A5004315A502A676A67220031001432F4
:1048400028001C602A6014F013FF514D280014F05A
:1048500025FF00227C212B1F5A5404315A50043169
:104860005A5004315A5004315A501C6031001434EB
:1048700028002A676A672C6014F0FAFE8022454BF4
:10488000454992019967454B1869596702431A6176
:10489000434A13680133136003B0F0BCBB46B24611
:1048A000A946A046F0BD2D4B3E4A48465A6014F03A
:1048B00031FF2AF0E5FD3C4B3C4A28005A6014F0D9
:1048C00029FF2AF0DDFD354B384A28005A6014F0E4
:1048D00021FF2AF0D5FD2F4B344A28009A6014F0AE
:1048E00019FF2AF0CDFD2C4B304A40465A6014F097
:1048F00011FF2AF0C5FD2E4B2A4A28005A6014F0F9
:1049000009FF2AF0BDFD174B264A28005A6014F013
:1049100001FF2AF0B5FD124B224A28009A6014F0DC
:10492000F9FE2AF0ADFDC046B0350020301200205F
:104930005419002058F104101CE7041060350020C1
:1049400088350020A03900209CF00410FC3700209E
:10495000A8E8041088380020143900209C39002071
:10496000F4370020843800202836002098F1041005
:104970005CE70410D835002000360020E03B002022
:10498000CCF00410303A0020D8E80410C03A0020DF
:10499000503B0020283A0020DC3B0020BC3A00209D
:1049A000C0370020FCE704104C3B00200CE804104A
:1049B00010390020064A10B513680400591C116014
:1049C000002B01D0200010BDFFF7E8FDFAE7C0463C
:1049D000C0370020104A10B513680400591E11603A
:1049E000022B01D0200010BD0C481FF0A9F90C4883
:1049F0001FF0A6F90B481FF0A3F90B481FF058FA57
:104A00000A481FF055FA0A481FF052FAEAE72AF05E
:104A1000C1FE2AF0F9FEE5E7C03700209C390020EE
:104A20008438002010390020DC3B0020BC3A0020F4
:104A30004C3B00207047C04610B50400FFF7C8FB90
:104A4000200010BD044A0B6812680360934202D034
:104A50001A6801321A6070474037002001607047C1
:104A600010B5064C2068002800D010BD20000022A0
:104A700003492CF0C1F82068F7E7C046483700200A
:104A8000DCBD041000487047DCBD0410416870B5FF
:104A90000500002916D08368002B10D00024354E65
:104AA000A2005058002805D043685A1E4260012BCE
:104AB00036D0AB680134A342F2D8002902D00800F6
:104AC000FFF78AFBE968002916D0AB68002B10D0ED
:104AD0000024284EA2005058002805D043685A1ED2
:104AE0004260012B24D0AB680134A342F2D80029E4
:104AF00002D00800FFF770FB2B690024002B0DD0BB
:104B00001859002802D0FFF767FB2B690434182CD2
:104B1000F6D1002B02D01800FFF75EFB280070BD15
:104B200003685B68B3420BD1FFF752FB6968C0E7CB
:104B300003685B68B34206D1FFF74AFBE968D2E736
:104B400098476968B5E79847E968CCE72AF022FEFC
:104B50002AF05AFE6968ACE72AF01CFE2AF054FEDF
:104B6000E968C0E7013102D12AF096FDFAE72AF0A0
:104B700087FCC046394A00100A4B70B51B680568AF
:104B800004009D4204D02B685A1E2A60012B01D0DC
:104B9000200070BD2800FFF779FF2800FFF718FB01
:104BA000F6E7C046403700200E4A0B68126870B521
:104BB00004000D00934202D0196801311960266883
:104BC000B24204D03268511E3160012A02D0200066
:104BD000236070BD3000FFF759FF3000FFF7F8FA8F
:104BE0002B68F4E740370020F0B54E464546DE46D8
:104BF0005746E0B50500160083B0002A00D1EEE06C
:104C00000C68002C04D1B94B1C6801341C600C608A
:104C10006B68671E9A46AB68013BBB4267D2E31CD8
:104C20009B46B34B9B4500D8E4E001204042FFF790
:104C3000CBFA01238146A8685B429846002813D02E
:104C40006B6822009C4681000C000023614684466C
:104C500048469146CA58C2500433A342FAD14C4642
:104C600081466046584507D2221A0332800000214F
:104C700092004844FFF798FAEB6840460193FFF72B
:104C8000A3FA8046A868002813D0EB6881009C46F0
:104C900002004046884600236146A44644469046AA
:104CA000CA58C2500433A342FAD1434664468046F0
:104CB0001800834507D9221A033280000021920090
:104CC0004044FFF771FA5B46AB604B466B6043466E
:104CD000EB605346002B02D05046FFF77DFA019B54
:104CE000002B02D00198FFF777FA6B689A46BF0055
:104CF0007368574438680133B9467360002849D057
:104D00007C490F68002F40D0784B8446A846180095
:104D10000DE0002A03D10268013202602A60944249
:104D200000D17BE08F680831002F00D199E03B680B
:104D3000002B03D10368013303603B604D682A6890
:104D40009C42E6D1130060462A004546002B04D160
:104D500066490B6801330B601360013B9C005444AF
:104D60002368002B11D0110030000EF00DFC4368B9
:104D7000070001334360206843685A1E4260012BDC
:104D800000D178E04B462760186843685A1E42609D
:104D9000012B3BD04B46AA681E60002A1FD000237F
:104DA0009946554B00249846E96805E04A461A6042
:104DB000AA680134A24212D9A6008B1918680028EB
:104DC000F7D04268571E4760012AEFD103685B683D
:104DD00043450BD1FFF7FCF9E9688B19E6E703B00F
:104DE000F0BCBB46B246A946A046F0BD9847E9686C
:104DF0008B19DBE75B469B0018009846FFF7E4F948
:104E00008146A868002800D01AE72BE703683A4AD1
:104E10005B6893422DD1FFF7DBF9BBE73B68604647
:104E20004546002B04D1314A1368013313603B60BF
:104E3000013B9C0054442368002BA6D0390030006D
:104E400004F042FF436880460133436020684368B2
:104E50005A1E4260012B16D0434623604B46186809
:104E600093E76046436845465A1E4260012B91D144
:104E7000CCE798478EE703681F4A5B6893420AD1E4
:104E8000FFF7A6F97EE703681B4A5B68934204D1EB
:104E9000FFF79EF9E0E7984774E79847DCE72AF0C8
:104EA00079FC4846FFF798F92BF0E2F82AF072FCFB
:104EB0002AF0AAFC6EE72AF06DFC2AF0A5FC96E722
:104EC0002AF068FC2AF0A0FC5CE72AF063FC2AF0D8
:104ED0009BFCC1E72AF098FC2AF0D2FA0131FBD101
:104EE0002AF0DAFBFAE7F9E7F8E7C0464437002092
:104EF000FEFFFF1FE0BD0410394A0010F8B53C4E1C
:104F0000070030000C0015002BF0EAF8002833D120
:104F10003848FB6806689C46002E5FD036490CE096
:104F2000002B03D10B6801330B603B60013B9D42BA
:104F300026D086680830002E3DD03268002A03D182
:104F40000A6801320A6032604768013A3B6895425C
:104F5000E6D1002B3AD0AD0065442A68013B002A17
:104F60001DD0002C07D02368244A5B6820009342A0
:104F700032D1FFF72DF9F8BD30002BF0CDF8C7E79F
:104F80003268002A04D11C4B1A6801321A60326060
:104F90002B00551EAD0065442A68002AE1D16268E5
:104FA000501C60602C60581CE5D002326260624682
:104FB0009B009C50DFE7AD00290061440B68002B8B
:104FC000CFD16368013363600C60D4E70A4A136889
:104FD000013313603B60BEE79847CCE7AD00654402
:104FE0002B68002BBDD16368013363602C60C2E77E
:104FF00074290020E0BD041044370020394A001015
:1050000003000068002804D1034A106801301060D2
:10501000186001387047C04644370020F0B5DE46BE
:105020004E46454657463023E0B50600FE4C8360A9
:1050300091B00160C02200212000FFF7B5F8746034
:10504000FA4CC02200212000FFF7AEF8F460F84CC3
:10505000142200212000FFF7A7F8043CF54D34612D
:105060002560FFF70FFD022201002800FFF7A2F8DC
:10507000F14C012300220021200005F0D3FF220083
:105080003000EE49FFF7B0FDED4C012120002BF080
:1050900053FE22003000EB49FFF7A6FDEA49EB4B37
:1050A00001220B60002308008B60CB600B744B6106
:1050B0008B61CB610B628B8400914A600021E44CD0
:1050C0006433C154E34BA060002120006260236080
:1050D00001F0B8F8E04B2200190030000993FFF707
:1050E00083FD0123DD4A30005360DD4BDD49136051
:1050F000FFF77AFD0123DC4A30005360DB4BDC49CB
:105100001360FFF771FD0123DA4C6360DA4B236013
:10511000FFF7A6FCA06022003000D849FFF764FD2D
:10512000D74B01229A4651465A60D64B50460B60E7
:1051300000238B60CB600021D34C038243618361E9
:10514000C361036243628362C362036343634333A5
:10515000C154CE4B81746260A06000220021200007
:10516000236000F0D7FBCA4B2200190030000593E2
:10517000FFF73AFDC74B0122994649465A60C64B94
:1051800048460B6000238B60CB600021C34C038238
:1051900043618361C361036243628362C3620363E9
:1051A00043634333C154BE4B81746260A0600022EC
:1051B00000212000236000F05DFBBA4B22001900A3
:1051C00030000893FFF710FD0123B74A3000536009
:1051D000B64BB7491360FFF707FD0123B54A30000E
:1051E0005360B54BB5491360FFF7FEFC0123B44D86
:1051F00080226B60B34B00202B600023AB60EB6020
:105200002B616B61AB61EB612B626B62AB62EB623A
:105210002B636B63AB63EB632B646B64AB64EB641A
:105220002B656B65AB65EB652B666B66AB66EB66FA
:105230002B676B67AB67AB500432AB500432AB509B
:105240000432AB500432AB500432AB500432AB509A
:105250000432AB500432AB500432AB500432AB508A
:105260000432AB500432AB500432AB502A00002160
:10527000B83210605160C022934CAB500432AB5432
:1052800029002000C33AEB6715F050FE8F4B220037
:10529000190030000293FFF7A7FC01238C4A30006D
:1052A00053608C4B8C491360FFF79EFC01238B4AA3
:1052B000300053608A4B8B491360FFF795FC8A4C92
:1052C000012120000AF004FB220030008749FFF78B
:1052D0008BFC874C0121200005F078FE2200300075
:1052E0008449FFF781FC844C012120002BF03CFD18
:1052F000220030008149FFF777FC814B01229B4659
:1053000059465A607F4B5C460B60002300208B603F
:10531000CB600B744B618B61CB61002120626162B9
:105320009221584649006354A362774C774BA060A2
:10533000002120006260236001F00AF8744B220013
:10534000190030000693FFF74FFC0123714A30002B
:105350005360714B71491360FFF746FC0123704A9B
:10536000300053606F4B70491360FFF73DFC012321
:105370006E4C63606E4B2360FFF772FBA0602200EF
:1053800030006C49FFF730FC6B4B012298464146D8
:105390005A606A4B40460B6000238B60CB600B74F5
:1053A0004B618B61CB610B624B628B62CB620B6397
:1053B0004B638B63CB636C21614C4354614B6260E4
:1053C000A060002200212000236000F0ABFB5E4BB8
:1053D0002200190030000393FFF706FC5B4F5C4B83
:1053E0006C213B60002301225A4C7B54BB60FB6064
:1053F0003B747B61BB61FB613B627B62BB62FB62B6
:105400003B637B63BB63FB63534B7A606260002149
:10541000002220002360A76000F034FB4F4B2200E5
:10542000190030009CE0C0468034002090330020FA
:105430007C330020682C0020742C0020383700209A
:1054400050340020A0370020982A002020C60410E5
:10545000A42900203CD804107037002040350020DB
:105460008CEE0410B037002050350020C8EE041038
:10547000B83700206834002020D80410603700209E
:10548000002B0020F0C50410482A002094D80410F6
:1054900050370020442B0020E0C50410542A00207F
:1054A00060D8041054370020EC290020E4D8041000
:1054B00080370020FC290020FCD804108837002009
:1054C00008240020F8EE04100C2A0020803600206A
:1054D000BC29002014D9041078370020CC290020E2
:1054E000F8EF0410DC370020842900206837002002
:1054F000942E00203C3700205C340020A43700208C
:10550000E022002030C60410B029002090E50410ED
:105510007437002048350020E8F70410B437002025
:105520005835002024F80410BC37002074340020C3
:1055300074E5041064370020882B002010C6041086
:10554000602A0020E8E5041058370020F82B0020DE
:1055500000C604106C2A0020B4E504105C3700205B
:105560000493FFF741FB0123894A30005360894BC4
:1055700089491360FFF738FB0123884A30005360E4
:10558000874B88491360FFF72FFB0123864C80224D
:105590006360864B002023600023A360E3602361E7
:1055A0006361A361E36123626362A362E3622363D5
:1055B0006363A363E36323646364A364E3642365B5
:1055C0006365A365E36523666366A366E366236795
:1055D0006367A367A3500432A3500432A35004327C
:1055E000A3500432A3500432A3500432A350043217
:1055F000A3500432A3500432A3500432A350043207
:10560000A3500432A3500432A35022000021B83228
:1056100010605160C022A3500432A354E367644B6E
:1056200021001800C33A019320F028FE614B30009E
:105630001900019A0793FFF7D7FA01235E4A300059
:1056400053605E4B5E491360FFF7CEFA01235D4A5B
:10565000300053605C4B5D491360FFF7C5FA5C4B4B
:1056600001211800019313F0BDFC30005949019A43
:10567000FFF7BAFA0123584A30005360574B584994
:105680001360FFF7B1FA0123564A30005360564BBE
:1056900056491360FFF7A8FA0123554A30005360BA
:1056A000544B55491360FFF79FFA0123534A3000CA
:1056B0005360534B53491360FFF796FA52460B92CF
:1056C0004A460C925A460D924246009B30000AA967
:1056D0000A930E920F9701F06FFDF26809980192FC
:1056E000FFF78EFC009B019A80008350F3680598B9
:1056F0000093FFF785FC5246009B8000C250F36880
:1057000008989A46FFF77CFC4A4653468000C250F0
:10571000F36802989946FFF773FC4B468000C5502A
:105720000698F568FFF76CFC5B46800043510398D0
:10573000F568FFF765FC4346800043510498F5681F
:10574000FFF75EFC800047510798F568FFF758FCAB
:1057500080004451300011B0F0BCBB46B246A946AF
:10576000A046F0BD06000D0001350FD1300029F034
:1057700093FF060020000D00FFF75CF9F4E7F8E75F
:10578000F7E7F6E7F5E7F4E7F3E7F2E729F078FE65
:10579000F429002038E6041084370020042A002071
:1057A00050E604108C370020D024002054F8041058
:1057B000202A002084360020C429002068E6041036
:1057C0007C370020D429002054F90410E037002051
:1057D000942900206C370020DC29002070C80410B8
:1057E0009C370020E4290020C8C80410943700200A
:1057F000782A002020C9041098370020802A002031
:1058000078C9041090370020F8B50023144E0360C7
:1058100033680400002B15D0124D2A6822609A428A
:105820000AD0114E30002AF05BFC002806D12B680C
:105830001A68236001321A602000F8BD30002AF097
:105840006BFCF4E7094F02213800FFF7E7FB054D39
:105850003900074837602F60FFF700F93368DCE74D
:10586000403700204C37002070290020342A0020C7
:105870007433002070B504008068002828D02E23DF
:105880002C224374A3681F4D9A740023A0681E4AFB
:10589000C360836103628362C36282604261C261EA
:1058A0004262290004223030FEF784FCA068042202
:1058B00029003430FEF77EFC0022144B1868A368E0
:1058C000815C9B183833013219700B2AF7D170BDF7
:1058D0004430FEF775FC0E4B00220360002343604A
:1058E0008360C360038243618361C3610362436277
:1058F0008362C3620363436343338274A060C25410
:10590000BDE7C0464CFD041090A4041040120020D6
:10591000E0C5041070B504008068002828D02E234C
:105920002C224374A3681F4D9A740023A0681E4A5A
:10593000C360836103628362C36282604261C26149
:105940004262290004223030FEF734FCA0680422B1
:1059500029003430FEF72EFC0022144B1868A3688F
:10596000815C9B183833013219700B2AF7D170BD56
:105970004430FEF725FC0E4B0022036000234360F9
:105980008360C360038243618361C36103624362D6
:105990008362C3620363436343338274A060C2546F
:1059A000BDE7C0464CFD041090A404104012002036
:1059B000F0C50410094B10B504000360806800288E
:1059C00002D003685B6898472000FFF733F8200097
:1059D00010BD2000FFF72EF829F052FD60D804100A
:1059E0000D4B10B5040003608068002802D00368E6
:1059F0005B6898472000FFF71DF82000FEF7E8FBE2
:105A0000200010BD2000FFF715F82000FEF7E0FB96
:105A100029F036FDF9E7C04660D80410094B10B5EF
:105A2000040003608068002802D003685B68984720
:105A30002000FEF7FFFF200010BD2000FEF7FAFF58
:105A400029F01EFD94D804100D4B10B5040003601E
:105A50008068002802D003685B6898472000FEF742
:105A6000E9FF2000FEF7B4FB200010BD2000FEF788
:105A7000E1FF2000FEF7ACFB29F002FDF9E7C0468C
:105A800094D8041070B504008068002827D02E2315
:105A90004361023B83611E4B1E4A836000231E4DFF
:105AA000C3600362836203634363C2614262C26292
:105AB000290004223830FEF77DFBA068042229006B
:105AC0003C30FEF777FBA068144B1A6803006C307B
:105AD00040331178013202C38342FAD170BD703075
