:020000041000EA
:1000000000B5324B212058609868022188439860DF
:10001000D860186158612E4B002199600221596106
:100020000121F02299502B49196001219960352056
:1000300000F044F80222904214D00621196600F024
:1000400034F8196E01211966002018661A6600F04E
:100050002CF8196E196E196E052000F02FF8012189
:100060000842F9D1002199601B49196000215960AB
:100070001A491B48016001219960EB211966A021F2
:10008000196600F012F800219960164914480160C1
:100090000121996001BC002800D000471248134993
:1000A000086003C880F30888084703B5996A0420EC
:1000B0000142FBD001200142F8D103BD02B5186610
:1000C0001866FFF7F2FF186E186E02BD00000240BE
:1000D000000000180000070000035F00212200005C
:1000E000F4000018222000A00001001008ED00E03C
:1000F00000000000000000000000000074B24E7A12
:1001000000200420F7010010C3010010C5010010F9
:10011000C1010010C1010010C1010010C101001097
:10012000C1010010C1010010C1010010C701001081
:10013000C1010010C1010010C9010010CB01001065
:10014000CD010010CD010010CD010010CD01001037
:10015000CD010010CD010010CD010010CD01001027
:10016000CD010010CD010010CD010010CD01001017
:10017000CD010010CD010010CD010010CD01001007
:10018000CD010010CD010010CD010010CD010010F7
:10019000CD010010CD010010CD010010CD010010E7
:1001A000CD010010CD010010CD010010CD010010D7
:1001B000CD010010CD010010CD010010CD010010C7
:1001C00000BE00BE00BE00BE00BE00BEEFF3058054
:1001D000103800BEF2EB88719C8E0110BC8E0110AD
:1001E0003402001090A31AE700201F49086006C8D7
:1001F00081F3088810471D48006800282FD10DA4FE
:100200000ECC002902D000F012F8F9E71849194A7B
:10021000002000E001C19142FCD1174988471749ED
:1002200088471749884700BEFDE701C901C29A42C5
:10023000FBD37047BC8E0110C00000206824002052
:1002400064B20110000004200000042064B2011018
:10025000001004200010042000000000704709482E
:1002600005F05CF90047000008ED00E0000000D058
:1002700068240020F8380220F93B0010A10F00107C
:100280002D3D00105756000006005250ABB360538E
:100290008868011006005250861C030298680110FD
:1002A000060052505422A29DA4680110050052502D
:1002B000DE65F46864B20110F8B5C0460648074927
:1002C000091A8B10C90FC91810B5491003D0044B77
:1002D000002B00D0984710BD68240020682400201F
:1002E00000000000054B10B5002B03D00449054861
:1002F00000E000BFFFF7E2FF10BDC04600000000B5
:10030000EC34002058660110F0B5C64600B5070071
:1003100090B0081C90461C000E1C05F0D7FF05008D
:1003200005F0B2FF011C301C05F087FF124905F0F3
:100330009EFF05F0CBFF4246631C019006000F496B
:10034000009503A805F0A4F83B1998465B79B342E1
:1003500002D13B5DAB420AD0094803A900F08EFEF2
:10036000084803A900F08AFE43465E713D5510B06F
:1003700080BCB846F0BDC046000020415866011060
:100380000040034000800340F8B54546DE4657462E
:100390004E460368E0B5934646682F4A98460500E6
:1003A0000F00F31A934253D04146791A8A46002B24
:1003B00044D091465900994243D2484606F094F8F9
:1003C0005B4652461B7804008354012353449B46EA
:1003D000F61B002A27DC8344002E0DDC43465E44D6
:1003E000002B19D12C604C446E60AC60F0BCBB4655
:1003F000B246A946A046F8BD32003900584606F07C
:100400006DF843465E44002BECD005E03200390025
:10041000584606F063F85E444346A968C91A404648
:1004200006F06AF8DEE7414614F0DAFEA344002E37
:10043000ECDC4346A9685E44C91AF0E701239946FB
:10044000BBE7802389461B069942B6D39146B4E7A1
:1004500002480BF069FBC046FFFFFF7F6866011092
:10046000F8B54546DE4657464E460368E0B5934626
:1004700046682F4A984605000F00F31A934253D05E
:100480004146791A8A46002B44D091465900994238
:1004900043D2484606F028F85B4652461B780400D3
:1004A0008354012353449B46F61B002A27DC8344D4
:1004B000002E0DDC43465E44002B19D12C604C44C9
:1004C0006E60AC60F0BCBB46B246A946A046F8BD23
:1004D00032003900584606F001F843465E44002BCE
:1004E000ECD005E032003900584605F0F7FF5E44D5
:1004F0004346A968C91A404605F0FEFFDEE74146BB
:1005000014F06EFEA344002EECDC4346A9685E4462
:10051000C91AF0E701239946BBE7802389461B06E9
:100520009942B6D39146B4E702480BF0FDFAC046B3
:10053000FFFFFF7F68660110F0B54546DE4657466F
:100540004E46E0B5ADB008AB0693002302AA137681
:100550000CAA90460EAA0C92424601915360137267
:100560003D210022824607930BF022FC0500431C2C
:1005700017D10C980EAB984204D0434699680131CC
:1005800005F0BAFF069808AB984203D008990131EC
:1005900005F0B2FF2DB0F0BCBB46B246A946A0465E
:1005A000F0BD24AB9946229353465E681F6886428D
:1005B00000D9060018960F2E00D9CCE1012E00D0EC
:1005C00086E13B7822AC23724A460023666093554D
:1005D000229B06984B4500D12AE208AE2399249A23
:1005E000B04200D1EEE1089E0693079108920028E0
:1005F00000D1EAE12290A660002363600370229894
:10060000484503D0A168013105F076FF53465B6889
:1006100001359D4200D94DE24A4622925246166863
:1006200076195D1B18950F2D00D9A4E1012D00D17D
:100630004BE1002D00D014E24A460023656053557B
:10064000229B0C984B4500D1E2E10EAD2399249AF0
:10065000A84200D1BFE145460C93AD680D910E92C2
:10066000002800D1BAE12290A560002363600370E6
:100670002298484503D0A168013105F03DFF0023D1
:1006800000274E460393049305933A002C214046DD
:100690000BF08EFB0500431C5AD043465B68EA1BF7
:1006A0009F4200D9F8E14146096826608946B9446D
:1006B000DF1B974200D9170018970F2F00D9F1E0E0
:1006C000012F00D1EAE0002F00D0DFE0330000224C
:1006D0006760DA559146276814F05AFA03689B461A
:1006E00014F056FA4B460A22036002A9380013F0B0
:1006F0009DFE029B81469F4200D1CAE114F048FA58
:100700000368222B00D1CCE114F042FA0368002BDD
:1007100000D1D0E04B465822D8B202AB9B181870DB
:100720000499059B994200D1CAE0087001310491F7
:1007300020686F1CB042A8D0A168013105F0DCFE32
:100740003A002C2140460BF033FB0500431CA4D19A
:1007500043465D68AF4200D9A6E10C9B14AE9946B2
:10076000ED1B1296B94422950F2D00D912E1012DEF
:1007700000D1B3E0002D00D075E1330000271395C0
:100780005F55129D14F004FA0368994614F000FABC
:100790000A22076018A9280013F048FE189B0700DA
:1007A0009D4200D175E114F0F3F90368222B00D1CA
:1007B00077E114F0EDF90368002B00D1F9E004991A
:1007C000059BFFB22770994200D140E10F700131C3
:1007D0000491039DBA4B2A781B784F1B9A4200D193
:1007E00083E0002322936360A3608D4200D1E5E0A3
:1007F000002F00DA3BE1380005F076FEC3192290A5
:1008000099466060A360012F00D13CE13A002900C5
:1008100014F0E6FC4B466360019B28AFE36053464F
:100820001B682761994653465B689A4618930F2BBD
:1008300000D9DDE0012B00D1D6E0002B00D014E17F
:100840003A00534651466361002306A853542100E1
:1008500001F0E0F92069B84203D0A169013105F047
:100860004BFE2298002803D0A168091A05F044FE27
:10087000059C1298641BB04203D01499013105F015
:100880003BFE2100280005F037FE72E630003A00FA
:10089000494605F023FE189F236818E74B461B784E
:1008A000237213E70022200018A90BF059FA189BB5
:1008B0002060A360EBE714F06BF95B46036029E767
:1008C00018AA03A8FFF7CCFD32E733782372B3E60A
:1008D00022AC002E00D177E6484645E04B46482141
:1008E0001B7802AA5218137047E700231893199334
:1008F0001A93002F00D1B0E000DAB8E0380005F01C
:10090000F3FDC419189019901A94012F00D1BDE07D
:100910003A00290014F064FC019B70211B93012311
:1009200002AA19941D9352182F331EAC1C9406A8CA
:10093000138018A901F0F6F81C98A04203D01E9964
:10094000013105F0D9FD1898002891D01A99091A9B
:1009500005F0D2FD8CE722AC0022200018A90BF094
:10096000FFF9189B2290A3603200390005F0B6FD14
:10097000189E229A29E60022200018A90BF0F0F90F
:10098000189B2290A3602A00310005F0A7FD189D56
:10099000229A52E60022210012A80BF0E1F9229BD4
:1009A000129014932A00494605F098FD229D129B4F
:1009B000E4E614F0EDF84B46036000E72293994615
:1009C000A36027E70693079108924B46229324AB36
:1009D0009946180010E60C930D910E924B46229307
:1009E00024AB9946180040E64B461B78237627E750
:1009F000002218A926A80BF0B3F9189B2061A36167
:100A00005246494605F06AFD189B22699A4618E746
:100A10006268002A06D0012A30D0494605F05EFD02
:100A200062680C9843465A600023835422981CE65F
:100A30006268002A06D0012A1BD0494605F04EFD07
:100A4000626806980023079283542298D4E5220016
:100A500003A8FFF705FD0499BBE6002418971A9731
:100A60005AE748468FE730009CE73800C8E70BF0AC
:100A70001BF8237A037062680698E3E7237A037011
:100A800062680C98CEE72B780370C3E62B7803706E
:100A900042E70C480BF030F83A000B490B480BF0DA
:100AA00073F808480BF058F82B003A00064907483D
:100AB0000BF06AF82A00044904480BF065F8C046B8
:100AC00050280020D4660110846601109C66011035
:100AD000F8B54546DE4657464E460368E0B59346B0
:100AE00046682F4A984605000F00F31A934253D0E8
:100AF0004146791A8A46002B44D0914659009942C2
:100B000043D2484605F0F0FC5B4652461B78040091
:100B10008354012353449B46F61B002A27DC83445D
:100B2000002E0DDC43465E44002B19D12C604C4452
:100B30006E60AC60F0BCBB46B246A946A046F8BDAC
:100B400032003900584605F0C9FC43465E44002B8C
:100B5000ECD005E032003900584605F0BFFC5E4499
:100B60004346A968C91A404605F0C6FCDEE741467F
:100B700014F036FBA344002EECDC4346A9685E4427
:100B8000C91AF0E701239946BBE7802389461B0673
:100B90009942B6D39146B4E702480AF0C5FFC04671
:100BA000FFFFFF7F68660110F0B5454657464E4689
:100BB000DE469046E0B500221F00002393B002926B
:100BC000039300230A780E001C9D01900493002AD1
:100BD00000D124E1002400218C4265D00A7001314B
:100BE000039172780136002AF6D13D2205AE3270AB
:100BF000A14200D117E10A70013103912B78002B3B
:100C000017D08C4200D11EE10B70013103916B783B
:100C1000002B0ED0A14200D11DE10B7001310391D8
:100C2000AB78002B05D0A14200D11BE10B70013144
:100C30000391002F44D02C2333708C4200D1DEE08E
:100C40000B70013103917B1E9B460A239A46223387
:100C5000002599460FE0A14200D1B7E00B700131A9
:100C600003914B4633708C4216D00B7001310391C7
:100C70000135BD422CD243465B5D3033DBB233706D
:100C80005D45E8D1A14200D1B1E00B700131039183
:100C9000534633708C42E8D12100320002A8FFF79E
:100CA00017FF0399049CE3E73200210002A80136F4
:100CB000FFF76AFB32780399049C002A8CD194E7F1
:100CC0000A2333708C4200D1A1E00B7001310391F3
:100CD00000233370A14200D1ADE00B7001310391CC
:100CE000029D491B4B1C67D0052959D96B1CF31A6F
:100CF000022B55D9AB0753D12A6801318B080592D5
:100D0000012B00D1B5E06A680692022B25D0AA68B3
:100D10000792032B21D0EA680892042B1DD02A6980
:100D20000992052B19D06A690A92062B15D0AA6977
:100D30000B92072B11D0EA690C92082B0DD02A6A6E
:100D40000D92092B09D06A6A0E920A2B05D0AA6A65
:100D50000F920B2B01D0EB6A109303230B420ED0A2
:100D60000A009A431300AA5CF2545A1C8A4206D223
:100D7000A85C0233B054994201D9EA5CF25401985C
:100D800000282BD0310000F079F92800611B05F014
:100D9000B3FB13B0F0BCBB46B246A946A046F0BDBB
:100DA00002AA0B209446012302316F1E6044FA5CB4
:100DB000C25401338B42FAD1019B002B0ED0180094
:100DC000310000F05BF9002DE3D0DEE721003200B6
:100DD00002A8FFF77DFE049C039942E731002748F3
:100DE00000F04CF93100264800F048F9EBE721000B
:100DF000320002A8FFF76CFE049C039948E721002B
:100E0000320002A8FFF764FE0399049C1BE721004F
:100E1000320002A8FFF75CFE0399049C58E73D23CB
:100E2000002405AE33702100320002A8FFF750FE07
:100E30000399049CE2E62100320002A8FFF748FE75
:100E40000399049C4CE721002A0002A8FFF79CFAB2
:100E50000399049CDBE66A1C02A8FFF795FA039944
:100E6000049CDDE6AA1C02A8FFF78EFA0399049CF5
:100E7000DFE62B7905223371042379E700800340F4
:100E80000040034001707047F8B5CE46474680B534
:100E900005F0B2FD3A4CD027A31D99460123250049
:100EA00098463F062E780135300001F019F9434687
:100EB000B3407B624D45F5D1082001F011F90920BE
:100EC00001F00EF9002001F00BF9012001F008F902
:100ED0000221082001F0ECF80221092001F0E8F8D5
:100EE0000221002001F0E4F80221012001F0E0F8E5
:100EF00096212448890102F093FB9621224889011A
:100F000002F08EFB631D99460123D02725009846E9
:100F10003F06AE7B0135300001F0E2F84346B340B6
:100F2000BB624D45F5D1E31C9846184B07270025B9
:100F30009946A6790134300001F0D2F8042130003E
:100F400001F0B6F872083A4093009B181049114A14
:100F50009B009A18591815600D600F4959180D60BB
:100F60000E498C46494663441960402353603F3B19
:100F70001360A045DDD1C0BCB946B046F8BDC0463F
:100F8000DC1D00200040034000800340FFFF000004
:100F900008000540000005400C0005401000054019
:100FA00030B5142083B005F09FFA0024FFF76CFFE2
:100FB000012505F021FD8022002317495200174822
:100FC0000194009509F0A6FC8022002314495200E8
:100FD00014480194009509F09DFC802200231249D9
:100FE000520012480194009509F094FC80220023DD
:100FF0000F4952000F480194009509F08BFC022321
:1010000080220D490093120100230C48019409F03D
:1010100081FC09F0A1FDFEE7DC660110F914001067
:10102000EC66011079150010FC660110F91500102E
:1010300008670110011600101467011065170010F1
:1010400070B50D4D3222836904000021280005F09F
:101050003FFA002010221100A36919401A42FAD168
:101060002368DBB22B540A2B02D00130C0B2F2E766
:101070002954280070BDC04650290020F0B50C78D6
:10108000002C1BD0144D002245196F427D410D27C5
:101090002023BC46114E6D00002A10D1AA5FA24247
:1010A00014D082691342FCD104600A7801310D3AF0
:1010B000544262410C78D2B2002CEDD1F0BD82696D
:1010C0001342F1D082691342F9D1EDE782691342EC
:1010D000FCD162460260E4E70080FCBFE4370020F8
:1010E000D021012270B50906E44C4B6820789B0A98
:1010F00084B01340834214D04B6802AD9B0A1A405F
:1011000049232B80DE4B03AEDE49227030001A7873
:1011100004F0BEF905232200290000200096FFF705
:1011200043FDD021012209064B686078DB0A134099
:10113000834214D04B6802ADDB0A1A4049232B804E
:10114000CF4B03AECF49627030001A7804F0A0F99B
:1011500005232200290000200096FFF725FDD0215D
:10116000012209064B68A0781B0B1340834214D060
:101170004B6802AD1B0B1A4049232B80C04B03AEBA
:10118000C049A27030001A7804F082F905232200C9
:10119000290000200096FFF707FDD0210122090653
:1011A0004B68E0785B0B1340834214D04B6802AD70
:1011B0005B0B1A4049232B80B14B03AEB149E2705F
:1011C00030001A7804F064F9052322002900002079
:1011D0000096FFF7E9FCD021012209064B6820792F
:1011E0009B0B1340834214D04B6802AD9B0B1A40FB
:1011F00049232B80A24B03AEA249227130001A78FA
:1012000004F046F905232200290000200096FFF78C
:10121000CBFCD021012209060B6960799B081340A1
:10122000984228D00B6902AD9B08134063710B698B
:1012300003AEDB081340A3710B6930001B09134098
:10124000E3710B695B09134023720B699B0913401F
:1012500063720B698B49DB091A404F232B80884B43
:10126000A2721A7804F014F9062329000020621DE6
:101270000096FFF799FCD021012209060B69A0799D
:10128000DB081340834200D0CEE0D02101220906C2
:101290000B69E0791B091340834200D09AE0D0210A
:1012A000012209060B69207A5B091340834267D14A
:1012B000D021012209060B69607A9B091340834201
:1012C00034D1D021012209060B69A07ADB09134031
:1012D000834201D104B070BD0B6902AD9B0813407D
:1012E00063710B6903AEDB081340A3710B69300017
:1012F0001B091340E3710B695B09134023720B69EF
:101300009B09134063720B695E49DB091A404F2346
:101310002B805B4BA2721A7804F0BAF806232900DE
:101320000020621D0096FFF73FFCD3E70B6902AD7A
:101330009B08134063710B6903AEDB081340A37174
:101340000B6930001B091340E3710B695B09134003
:1013500023720B699B09134063720B694949DB09CE
:101360001A404F232B80464BA2721A7804F090F853
:10137000062329000020621D0096FFF715FCA0E758
:101380000B6902AD9B08134063710B6903AEDB0868
:101390001340A3710B6930001B091340E3710B6903
:1013A0005B09134023720B699B09134063720B693D
:1013B0003449DB091A404F232B80314BA2721A7833
:1013C00004F066F8062329000020621D0096FFF74E
:1013D000EBFB6DE70B6902AD9B08134063710B6972
:1013E00003AEDB081340A3710B6930001B091340E7
:1013F000E3710B695B09134023720B699B0913406E
:1014000063720B691F49DB091A404F232B801C4B69
:10141000A2721A7804F03CF8062329000020621D0D
:101420000096FFF7C1FB3AE70B6902AD9B0813403A
:1014300063710B6903AEDB081340A3710B693000C5
:101440001B091340E3710B695B09134023720B699D
:101450009B09134063720B690A49DB091A404F2349
:101460002B80074BA2721A7804F012F80623290089
:101470000020621D0096FFF797FB06E7E827002093
:101480005028002020670110492330B585B002ACF8
:101490002380084B03AD1A782800074903F0F8FFB2
:1014A000052321000020054A0095FFF77DFB05B0CC
:1014B00030BDC0465028002020670110E8270020DA
:1014C0004F2330B585B002AC2380084B03AD1A78AA
:1014D0002800074903F0DCFF062321000020054A0D
:1014E0000095FFF761FB05B030BDC04650280020D5
:1014F00020670110ED27002070B588B004AE1C48AD
:10150000FFF79EFD0296051E2ED014F0A7FA0400E8
:10151000030001900F2818D8012812D169462A78B3
:101520000A7431000022039302A8CA541049FFF73D
:1015300003F80298B042E2D00499013104F0DCFFD4
:10154000DDE70028EDD0300007E0002201A902A865
:101550000AF006FC019B029004932900220004F08B
:10156000BDFF019B0299DDE702480AF0ADFAC046D3
:10157000004003402467011070B588B004AE1C48D9
:10158000FFF75EFD0296051E2ED014F067FA0400E8
:10159000030001900F2818D8012812D169462A7833
:1015A0000A7431000022039302A8CA541049FEF7BE
:1015B000C3FF0298B042E2D00499013104F09CFFCD
:1015C000DDE70028EDD0300007E0002201A902A8E5
:1015D0000AF0C6FB019B029004932900220004F04C
:1015E0007DFF019B0299DDE702480AF06DFAC046D3
:1015F000008003402467011010B5FFF771FDFCE780
:1016000010B5FFF75DFFFFF73FFF024809F058FCF8
:10161000F7E7C046881300000368F0B54E4657460A
:1016200045469A46DE46E0B515005246436883B00B
:101630009A1A92100093D3009B1A0E000C00990185
:101640005B18DB009B18D903CB1ADB009B18424ABE
:101650008146934200D17CE05146711A8846009938
:101660008A4565D059008B424DD8002963D1434645
:1016700007CD07C307CD07C307CD07C300239B468C
:101680000193B24562D05F465546A0463B002A0012
:1016900013CA13C313CA13C313CA13C328002435B0
:1016A00007F0D6FB3B002437B542EFD14833444620
:1016B0001D00009BB3420FD01E002B00220083CAE6
:1016C00083C383CA83C383CA83C32000243407F03F
:1016D000BFFB2435A642F0D15346002B06D04B4623
:1016E000996853465046C91A04F006FF4B465A46BD
:1016F0001A60019A5D609A6003B0F0BCBB46B246C6
:10170000A946A046F0BD154F380004F0EDFE3B00A1
:1017100083465B44019343465B4407CD07C307CD33
:1017200007C307CD07C35D462435B245ABD1C0E73B
:10173000591C0133E7D2914203D8CB005B189F00BC
:10174000E2E71100CB005B189F00DDE72425009E37
:10175000B3E703480AF0E8F9E3388E03ECFFFF7FB4
:1017600068660110F0B5D64646464F46C0B590B003
:101770000A22002101A804F0ABFEFFF785FB00233D
:1017800000220492059300233B4D06936B1D98465F
:101790000027002407AE11E02300320083CA83C370
:1017A00083CA83C3243483CA83C3013530000594BC
:1017B00007F04EFB454518D0059C069F01220023EB
:1017C0003000697A524207F06DFA300007F082FA71
:1017D000BC42E1D13200210004A8FFF71DFF013512
:1017E000300007F035FB4545E6D1082200213000E6
:1017F00004F06EFE049B214F9A46214B9946214BE3
:1018000098465546002404E00134E4B22435052C02
:101810002DD03100280007F025FB3378002BF3D0C2
:10182000002301223100280007F054FC4B464146BA
:101830001A78684603F02CFE00223100280007F0D9
:10184000CDFD2300011C6A4601A8FEF75DFD0022C4
:101850003100280007F0C2FD04F06AFD0134C1B276
:10186000E4B2380005F0BCF82435052CD1D1064887
:1018700009F026FBC5E7C046F01D0020586701109F
:101880005028002020670110B80B000003685A7828
:10189000032A41D0002A32D0D022042112065161FD
:1018A0009A78032A32D1D022082112061069014207
:1018B0005FD09161DA78032A50D0002A6AD1D02211
:1018C0001021120691611A79032A3FD0002A5CD1B7
:1018D000D0222021120691615A79032A24D0002AAD
:1018E0004ED1D0224021120691619B79032B25D045
:1018F000002B40D0D02380221B065A617047D02293
:101900000421120691619A78032ACCD0002A2DD1A5
:10191000D02208211206CCE7D02204211206106939
:101920000142EFD15161BBE7D0224021120610697C
:101930000142D9D151619B79032BD9D1D023802287
:101940001B0619690A422AD15A61D7E7D022202101
:10195000120610690142BED15161BDE7D0221021AB
:10196000120610690142ADD15161ACE7D0220821C5
:10197000120651619EE7D02380221B069A61BDE7C3
:10198000D022402112065161D5E7D0222021120633
:101990005161A1E7D02210211206516193E79A61AB
:1019A000ACE7C04670B50268134B517895785B1868
:1019B0005E79280233075B0F9C00E4180F4B64210B
:1019C0009C46401BA400644403F0DAFD4543280212
:1019D0006421401B03F0D4FD0004000CF60709D578
:1019E000074A0004236843401A4080235B012343D5
:1019F0001A6070BD034AF5E7787401100C000540C9
:101A00000000FFFFFFFF000070B50B4B86B0049392
:101A10000023040004AD2B71084B03AE1A7830008C
:101A2000074903F035FDE0680023002229000096F5
:101A3000FFF7BAF806B070BD504F4E47502800204F
:101A40002067011010B50368040019785A788EB029
:101A500091421AD00F4804F0C3FF22680E49537810
:101A600001A8127803F014FD0C4BE0689C4660441A
:101A7000431E98410A4B40429C46800B80036044C1
:101A800001A9FFF7FBFA0EB010BD0648FFF7FAF9FF
:101A9000F9E7C0466C6701107C67011000C0FCBF0D
:101AA0000080034050280020F8B54746CE4680B558
:101AB00007008468884615000437002C26D0B946F4
:101AC00066692A00B54200D93200002A23D0414677
:101AD000206913F061FB00281DD01EDBA146A4681D
:101AE000002CEDD14F4511D04B465C692A00A54230
:101AF00015D8002A06D04B464046196913F04CFB16
:101B0000002800D1281B002800DB4F463800C0BC4D
:101B1000B946B046F8BD701BE0D5E468E0E7221E88
:101B2000E9D1EFE7F0B5C64600B5394C0D0006C85F
:101B30008CB02000FFF7B8FF0434A04244D0836A81
:101B40000021002002900391002198466A682B68CA
:101B50000491D71A9A423BD0002F51DB380004F091
:101B6000C3FC29686E68C7190400761A02900390B6
:101B70000497012E46DD320013F032FBA419EB6806
:101B80002E696D69039408AC0593069401950F2D99
:101B900027D8012D20D16A4620213378521813709E
:101BA00022000023079502A85355C0470698A0427B
:101BB00003D00899013104F09FFC0298002803D05B
:101BC0000499091A04F098FC0CB080BCB846F0BD2A
:101BD000002600240497D1E72200002DE1D0200048
:101BE00007E0002201A906A80AF0BAF8019B0690B6
:101BF00008932A00310004F071FC019D069AD0E799
:101C000009F052FF012EB9D10B780370B6E7C04638
:101C100028280020F0B5CE46474680B54B4D8DB004
:101C20000C0006C800AF2800FFF73EFF0435A842AD
:101C300054D0836A6268994623680020D11A884686
:101C40000021B860F960002139619A4241D04346D1
:101C5000002B00DA73E0404604F046FC434621685E
:101C60006668C3180500761AB860F8603B61012EFB
:101C700067DD320013F0B4FAE368AD197B6120230D
:101C800026696469FD60FD18BD617C600F2C46D833
:101C9000012C3FD120223378BA1813702B00002278
:101CA000FC611A550823F818C847B869A84203D040
:101CB000396A013104F020FCB868002803D0396982
:101CC000091A04F019FCBD460DB0C0BCB946B046B7
:101CD000F0BD4346002600253B61CDE76D466369B4
:101CE00021690833DB08DB00EB1A9D46684613F0D8
:101CF000FFFB174BE0689C466044431E9841154B20
:101D000040429C46800B800369466044FFF7B6F969
:101D1000AD46D8E72B00002CC1D0280008E0083BD6
:101D2000F8180022391D0AF01BF87B68B8613B6285
:101D30002200310004F0D2FB7C68BB69AFE709F0F8
:101D4000B3FE012E98D10B78037095E71028002080
:101D500000C0FCBF00800340F0B507000837040056
:101D60000E0083B00760002925D0080013F076FE2E
:101D70000500030001900F280CD8012807D1327804
:101D80002272002220006360FA5403B0F0BD0028E4
:101D9000F7D008E00022200001A909F0E1FF0700C8
:101DA000019B2060A36038002A00310004F096FBFC
:101DB000019B2768E5E7014809F086FE24670110CA
:101DC000F0B5DE4657464E464546E0B58C6883B0D2
:101DD000824693460091002C42D01368576899467A
:101DE0002369666998463D00B74200D93500002D49
:101DF0000DD02A004146484613F0CEF9002806D0FF
:101E000007DBE3680022002B07D01C00E8E7B81BC3
:101E1000F7D5A3680122002BF7D10194002A20D125
:101E2000002D14D02A004946404613F0B5F9002889
:101E30000DD00EDB534652461C60002353605046C3
:101E400003B0F0BCBB46B246A946A046F0BDF01BAD
:101E5000F0D50023524613605346019A5A60EEE7CC
:101E60000C1D009BDB68A34214D0200009F03EFD4E
:101E70000369466998465B461B6899465B465F68FE
:101E80003D00B74202D801940400C9E7019435002F
:101E90000400C5E75246002354601360CFE7C046F4
:101EA000F0B5DE464E4645465746E0B589B00C00D3
:101EB00002910021017181604161D100891A89007C
:101EC0008B46031DA3440600002503920193C360C3
:101ED0000361A34548D08046002D13D043461E69B8
:101EE00067687369306999461A002168BB426CD8EB
:101EF000002A41D013F050F9002801D14B46D81BDD
:101F000000283CDB2200414606A8FFF759FF079E48
:101F1000002E25D00122069B9146002B2FD02C208D
:101F200004F0E2FA05000300226867681830924660
:101F30001033286105970F2F38D8012F33D113782C
:101F40002B7600236F61C355A3692900AB62320071
:101F5000019B484609F0E6FC43465D6901355D6139
:101F60001C345C45B8D14646300009B0F0BCBB46D5
:101F7000B246A946A046F0BD4B46DF1BC2D5019B29
:101F8000B34227D0656877692A00BD421FD8002A6E
:101F900005D03169206813F0FFF8002800D1E81B54
:101FA000C30F9946BBE7002FCBD007E018000022F3
:101FB00005A909F0D5FE059B2861AB613A005146A1
:101FC00004F08CFA059F2869BBE73A0090E73A1EB7
:101FD000DFD1E4E701239946A1E7C046F0B5C64644
:101FE00000B5A4B008AD284906AA2800FFF7B4FE42
:101FF000264B2749AB6106AA0FA8FFF7ADFE254B7C
:1020000025496B6306AA16A8FFF7A6FE234B06AA6E
:102010002B65234B1DA819009846FFF79DFE04234E
:10202000204F03AEEF660793290004221E48009656
:1020300004AB0695FFF734FF24AC1C3C230020685A
:10204000083398421DD0A168013104F055FAAC4222
:10205000F3D1414604AA2800FFF77EFE0123059331
:1020600002AB29000122AF611048009333000495B0
:10207000FFF716FF280009F091FE24B080BCB84697
:10208000F0BDAC42D9D1E4E7906701108D18001083
:102090009C670110091A0010A4670110A51900100F
:1020A000B0670110451A00102828002010280020D1
:1020B000094A10B594464024830063441A68C0005E
:1020C0006240803414408022520113431C60034B51
:1020D0009C466044416010BD04C001400040014086
:1020E0000123D0228340120693629361094A402162
:1020F0009446830063441A68C0004A40803111400E
:102100008022520113431960034B9C46052360440F
:102110004360704704C0014000400140024B186812
:102120008007C00F7047C04600C0064070B5EFF38F
:10213000108C72B60D4D2B68002BFCD0BFF35F8F57
:102140000724CB08C618C05C01230C40A3401C0028
:102150000440034207D118433070BFF35F8F2C60F7
:102160008CF3108870BD100001F0E4FD2C0100D04C
:10217000F8B54746CE46884680B5EFF3108C72B668
:10218000214D2C68002CFCD0BFF35F8F9A422CD8D5
:10219000D4080727055D061901241740BC402C42CE
:1021A0001FD007210127894609E0D408055D0619DB
:1021B0004C4639001440A1400C00294211D0013294
:1021C0009342F2D201204042BFF35F8F00220E4BB8
:1021D0001A608CF3108800280FDBC0BCB946B046EB
:1021E000F8BD254310003570EEE7BFF35F8F002385
:1021F0002B608CF31088012040424346002BECD02A
:10220000089801F097FDC0462C0100D00021044B36
:10221000044ABFF35F8F02C39342FAD17047C046AE
:10222000000100D0800100D0044A1078431CDBB2CA
:10223000172B00D9102313707047C046031E0020CF
:1022400010B5064B064C82B00100009318221F23E4
:102250002000FFF78DFF02B010BDC046BC67011023
:102260005C30002001238340002904D0034A13601E
:10227000034A13607047034A1360FBE780E200E003
:1022800000E100E080E100E001238340014A1360A7
:102290007047C04600E200E0084B10309B688000A9
:1022A000C358002B07D0064A00209B1A2F229A42BF
:1022B0004041C0B270470020FCE7C04600ED00E09E
:1022C000041E0020024B10309B688000C0587047ED
:1022D00000ED00E070B50D00EFF3108672B60F4A06
:1022E0001368002BFCD0BFF35F8F0D4B10309B6841
:1022F00084001B590B4A934203D09D4201D001F048
:1023000037FD074B9B681D51BFF35F8FBFF35F8F96
:102310000022024B1A6086F3108870BD240100D0A1
:1023200000ED00E0CD010010F0B557464E46DE4608
:102330004546E0B585B0060000911700EFF3108B1D
:1023400072B66A4A1368002BFCD0BFF35F8F00257A
:10235000674B5D579A46002D00DAA9E06B00654C8B
:1023600001935B199B009846A146C1444B465246D7
:102370009B7910361370604BB6009B6899590B1B04
:102380002F2B33D95D4B994200D0ACE0019B4246E4
:102390009C465B4B6544AD0063535A4B0232A21816
:1023A000043B9B1A1B05584A5B0D651913436B8050
:1023B000564B0121AB80FF23AB71009BEF71AB60EB
:1023C0004B460B4319004C4B9B689951BFF35F8FF1
:1023D000BFF35F8F0022454B1A608BF3108805B066
:1023E000F0BCBB46B246A946A046F0BD01200A009B
:1023F0008243D3798C46BB4231D8454613004449C9
:102400001B1B5B415943090D3D4B63533D4B02354B
:102410006519043B5B1B1B053B4D5B0D2B43AA461B
:102420004D466B800425AC465546E044131F44449A
:102430001B1B1B055B0D1D434B46997100999D802D
:1024400099604946DF71334B01431360BBE7580085
:10245000C01880002018C179B9422FD90200062384
:10246000D356002BF3DA02932B4B61460393131DD3
:102470009A4604235B429C46E14450464B461B1A55
:102480001B055B0D9C46204B957198466346404664
:1024900003439380019B5A199200039BA418A380C5
:1024A000029B1C4AA371009B2260E771A3608AE72C
:1024B00001F05EFC002553465D574FE7908802937C
:1024C0004005131D9A46031561469C464046D44478
:1024D000634604302018181AE0230005400D1B0243
:1024E00018430390C5E701F043FC4FE7240100D0F7
:1024F000F1380220041E002000ED00E0CD010010A4
:1025000000A1FFFF341E002000E0FFFF01BDFFFF20
:10251000AAAA00000148804701BD0000F0B5DE46D0
:1025200057464E464546E0B50C0083B0EFF31088A1
:1025300072B65D4A1368002BFCD0BFF35F8F5B4B14
:102540005B499A68030010339F00D5598D4239D0FA
:10255000A5424AD0574EAA1B2F2A33D801229246B1
:10256000824091464846544A1268104001904846BD
:10257000524A1060BFF35F8FEFF305829346002A43
:1025800035D0934201D001F0F3FB2A0053469A4321
:102590009068844208D175E04B005B189B00F318EB
:1025A0009868A04234D01A00062151560029F3DA67
:1025B000844253D0019B002B26D04A46404B1A60E0
:1025C0003D4B1A60394B9B68DD51BFF35F8FBFF302
:1025D0005F8F0022344B1A6088F3108803B0F0BC80
:1025E000BB46B246A946A046F0BD0D00EAE72A0068
:1025F00053469A4390688442D6D106201056130061
:10260000002809DA0D0031E04A462C4B1A60D9E760
:1026100006201856002822DB420011188900741881
:102620008A46A1689960E179D9710621615699714C
:10263000002925DBA488F11A6405241554440919DE
:10264000E0240905490D24022143998013181D4AED
:102650009B001178F31899711070ABE7130059467D
:10266000002914D1FF3191711749918015490A78D9
:102670009A71164A9B1B5B415A43120D0A7099E7E7
:102680001349E2E70620105613000028C4DA114A65
:102690001149D21A083A5002400D014399800F495E
:1026A00052080A43DA8085E7240100D000ED00E0FB
:1026B000CD010010041E002000E100E080E100E0F8
:1026C00080E200E0F138022001BDFFFFAAAA00006D
:1026D00001BD00003E1E002000F0FFFF00F8FFFFDC
:1026E000032310B50400074A18409446C0009C43D9
:1026F000FC3383406444226881409A4313000B43B7
:10270000236010BD00E400E070B5EFF30581012403
:102710000443EFF3108C72B6214A1368002BFCD0EF
:10272000BFF35F8F1F4B05001F4AED1A6D416A43CF
:10273000120D1E4D8900AE6852B27658A6421CD0CA
:102740000621595691421CD012215956914222D04D
:102750001E215956914220D02A21595603249142D4
:1027600010D0134B19781A708171BFF35F8F00225C
:102770000B4B1A608CF3108870BDAB680D4C5C502D
:10278000EFE700246100091989005B18FF219971A6
:1027900009499980E5E70124F4E70224F2E7C046FD
:1027A000240100D0041E0020AAAA000000ED00E0D1
:1027B000F1380220CD01001001BDFFFF054B064A94
:1027C0001360064A136053609360D36013615361D2
:1027D000936170478080808000E400E004E400E0C2
:1027E00010B5084B084C82B001000093002205236D
:1027F0002000FFF7BDFC002801DB1F23181A02B0E0
:1028000010BDC046D8670110F6380220024B9C4626
:1028100061448900016070474000003410B5040035
:10282000FFF702FD01002000FFF7F0FF01235B42EC
:102830006360BFF35F8F10BD10B50400FFF7F4FCB9
:1028400001002000FFF7E2FF01235B4263600023E9
:102850002372BFF35F8F10BD10B504000120FFF796
:10286000EFFC034BC3189B002360BFF35F8F10BDC9
:1028700040000034034B9C46614489000160BFF373
:102880005F8F70474000003483680B4810B5844662
:10289000614462441201090159189B185C684A6836
:1028A0000120944201D802D00020C0B210BD1A68A5
:1028B0000B689A42F9D8F7E7FFFFFF0F074810B5FA
:1028C0000268EFF3108172B61368002BFCD0BFF3DF
:1028D0005F8F07F0BFF90020002110BDC83700202E
:1028E000F8B5574645464E46DE46E0B598460CAB31
:1028F0001C780DAB1B78070091469A460568002CA2
:1029000059D1AC7B002C3BD0660029683619033EB8
:1029100089194B78AB73002B00D1EB7300238B70BC
:102920004B700B702D4BE218BB6812019B184A4686
:102930001A6042465A600A9A9A600B9ADA6000233B
:102940008B704B700B706B7B9B46002B26D022004C
:102950006B685946A86898475B465B005B442A68E9
:10296000033B002812D058469619B070D118D35C9A
:10297000002B00D073705B460C706B735C450ED0FF
:10298000F0BCBB46B246A946A046F8BDD3189C7021
:102990009119925D002A1CD15B460B706C734A46FC
:1029A0004346387D00F0E8FB051E0AD10E9B002B44
:1029B000E6D01D70E4E7660029683619033E8919E0
:1029C000B0E75346002BF1D12100386800F0ECFD50
:1029D000ECE75A705B460B706C73E0E7FFFFFF0F8C
:1029E000F0B5DE4657464E4645460023E0B58BB06F
:1029F0000893684B8200D45800239B46099000F04E
:102A000027FB02000B006068EFF3108A72B656468F
:102A100001680029FCD0B246BFF35F8F21684F7B6D
:102A20008C46002F2ED0A5685B49A946791809016C
:102A3000894449460868496805000E00AD1A9E4160
:102A4000002E5FDD02000B00099800F095FB0023CB
:102A50000022994600230692079300239846636854
:102A6000BFF35F8F5A461A608AF310884346002BE3
:102A700012D10028C3D10BB0F0BCBB46B246A94668
:102A8000A046F0BD0023002299460023069207933A
:102A9000002300209846E2E7089B49461802384385
:102AA000C047626805000E00EFF3108A72B6136823
:102AB000002BFCD0BFF35F8F002E41DB2B00334394
:102AC00002D02369002B56D12368D97B002905D079
:102AD0001A68480041185218033A57709A7B002A26
:102AE00000D19F73DF73E268013FD35D0133D3559B
:102AF0005B4623616368BFF35F8F5A461A608AF3AF
:102B000010887CE7002E02D1002D00D09AE700212A
:102B1000604600F0C7FC4B461A685B680692079354
:102B20004B469B6898464B46DB689946E368DB1941
:102B3000013B1B7808931B020343236100208EE7AF
:102B40002369002BC0D0069A079B8021521BB341FA
:102B500009068B4202D30122104B524200210491FC
:102B600001310391494601914146200002970091AD
:102B7000FFF7B6FEBCE700F06BFA2A00330012182C
:102B80004B41802109068B42E8D30122034B52427C
:102B9000E4E7C0460C350020FFFFFF0FFFFFFF7F7B
:102BA00010B5144C6368002B04D00A211248FFF7BB
:102BB0002DFE10BD2300114A1021206800F08EFB6D
:102BC000032000F039FA032000F03EFB03200C49FB
:102BD00000F08CFAFFF728FB0A4B9C460323237571
:102BE000D0231B061B6860446375074B8000606040
:102BF000DC60DAE74C1E0020C8370020892800106E
:102C0000E1290010400000340C35002000487047D6
:102C10004C1E0020F0B557464E464546DE46E0B510
:102C200085B0019310AB1B780600039300239A46EE
:102C3000984600927268EFF3108B72B61368002BFF
:102C4000FCD0BFF35F8F3568AC7B002C00D16EE009
:102C500067002B683F19033FDB195A78AA73002AD3
:102C600000D1EA73484AA118B268090152180098C5
:102C70000199106051600E9991600F99D1604246A0
:102C80009A705A701A706B7B9946002B00D16BE0DA
:102C900022006B684946A86898474B465B004B4446
:102CA0002A68033B002856D04846D719B870D11877
:102CB000D35C002B00D07B704B460C706B734C4583
:102CC00053D0F3681B19013B18787368BFF35F8F0B
:102CD00042461A608BF310885346002B08D100023D
:102CE000204305B0F0BCBB46B246A946A046F0BDA5
:102CF000039B002B46D00E9B00200F9998470300A2
:102D00000B433FD004000D1E1ADA009A019B121BE0
:102D1000AB410092019380221206934204D3012317
:102D20001A4C5B4200930194039B9A4682E77368B6
:102D3000BFF35F8F1C608BF3108801204042D0E707
:102D400000F086F980220019694112060090019175
:102D50009142E9D3E3E7D3189C70D119D25D002AE0
:102D600000D05A704B460B706C73307D009A019BFB
:102D700000F002FA82460028A3D02100306800F05B
:102D800013FC9EE70020ACE7FFFFFF0FFFFFFF7F74
:102D9000407D7047F0B54746CE46040080B50D0033
:102DA00096267642F71736196F4185B08F4215D8AF
:102DB00012D000F04DF932003B00121A8B41002B6B
:102DC00016DC002B39D02000290000F07FF905B077
:102DD000C0BCB946B046F0BD8642EAD900260027FD
:102DE00000F036F932003B00121A8B41002BE8DD6F
:102DF000002302930193124B3200009311483B00D1
:102E0000FFF708FF0028DEDBB846B1460E4F0F4E35
:102E10007B6A984504D8BA6A9145D4D99845D2D1ED
:102E20003268EFF3108172B61368002BFCD0BFF349
:102E30005F8F300006F0DAFEEAE7002AC3D0D7E75A
:102E4000BD2800104C1E002000400540C83700205F
:102E500070B504000D0000F0FBF8802300196941F3
:102E60001B06994202D3012002494042FFF792FF1C
:102E700070BDC046FFFFFF7F70B5060000F0E8F8A8
:102E8000FA2204000D00002330000021920003F01C
:102E9000B7F98023001969411B06994202D301202A
:102EA00002494042FFF776FF70BDC046FFFFFF7F3B
:102EB000F0B5EFF30583CE46474680B505000C001C
:102EC00085B0002B12D02A4A0020536AA34203D3B4
:102ED000926A0130AA4204D305B0C0BCB946B046DC
:102EE000F0BD1B1B5A1E9341D8B2F5E7214E029349
:102EF0000193214B0200009330000B00FFF78AFE84
:102F0000031EE0DD20BF7168EFF3108772B60A6818
:102F1000002AFCD0BFF35F8FDAB29446FF223068FC
:102F20001A40417B61450FD00168894651008846AF
:102F300049469044414403398978002904D13269D3
:102F4000934209D1316107E0F1681B0A8A18013AFE
:102F50001278DBB29A4207D07368BFF35F8F00220A
:102F60001A6087F31088AEE7614600F01DFBF3E7B7
:102F7000004005404C1E0020BD280010F0B5EFF3C6
:102F80000582D6464F4646461000C0B51038EFF3CE
:102F9000108872B6214C2368002BFCD0BFF35F8FE2
:102FA0000123190081401E4D1F006963AA461D4D73
:102FB00029601D4D2E78AC463500C5402F402B4270
:102FC00015D053465F6A194B8500EB589F4218D3C2
:102FD0006246174B8E43EB581670BFF35F8F00228B
:102FE000226088F31088002B06D0984704E0BFF3D6
:102FF0005F8F276088F31088E0BCBA46B146A846C8
:10300000F0BD0C4B92009C46624413681360BFF302
:103010005F8F0023236088F31088EDE7280100D03C
:10302000004005403C700540F5380220D4370020B0
:10303000442F0020D03F054010B5034B010018007D
:10304000024AFFF773F810BDF0380220F467011050
:10305000034B596A0A00986A596A8A42FAD1704742
:103060000040054070B504000D00174A536A19006E
:10307000966A536A8B42FAD13000190024184D41E8
:10308000AB4216D813D0104B2A005B6A9D4203D97D
:103090000D494B6A9342FCD3934207D10A4A02E09E
:1030A000516A994202D1916AA142F9D370BDA642F8
:1030B000E9D9054B5B6A1C005A1CEFD001220124A0
:1030C0006442E5175242E3E700400540064A536A6E
:1030D0009942FCD807D1044B02E05A6A914202D1CE
:1030E0009A6A8242F9D370470040054070B50400E7
:1030F0000D00EFF3108672B61A4A1368002BFCD04D
:10310000BFF35F8F002D1BD02000FFF7DBF81649BF
:1031100081420AD02000FFF7DDF801212000FFF7EF
:10312000A1F80123A340114A1360114BA400E550FC
:10313000BFF35F8F00220B4B1A6086F3108870BDBF
:103140000121A1400A4BA200D5500A4B20001A7859
:103150008A4305491A70FFF7E1F900212000FFF7C3
:1031600081F8E5E7280100D07D2F00103860054088
:10317000442F0020F5380220F0B54F46D64646468B
:10318000C0B507002B4C616A0D00A66A616AA942AE
:10319000FAD18B4208D805D00120E0BCBA46B1462E
:1031A000A846F0BDB242F7D9EFF3108A72B62248B2
:1031B00001680029FCD0BFF35F8F0125BD401F4986
:1031C0001C4C8846097889462943C9B28C46414639
:1031D00060460870391D890065630A511849B800B6
:1031E0004350216A0020294219D0616A0800A66A6A
:1031F000616A8142FAD18B4219D801D1B24216D804
:10320000CC450BD00B4B1F221D625D6301233A405E
:1032100093400C4A136043464A461A700120BFF39C
:103220005F8F0022044B1A608AF31088B5E70020F4
:10323000F5E7C04600400540280100D0F5380220DF
:10324000D437002080E200E0EFF3108C72B60A4918
:103250000B68002BFCD0BFF35F8F01238340074A2C
:103260000748136202789A430270BFF35F8F00230E
:103270000B608CF310887047280100D00040054097
:10328000F538022070B506000D00140000291DD08D
:10329000002A12D073688068984762006B00121988
:1032A0005B193168033A033B002808D08A189570EF
:1032B000C818CB5C002B0BD10470280070BDCB1854
:1032C0009C7088188A5C002A05D105702000F5E7FB
:1032D00053700470F1E75A700570F7E710B583601A
:1032E0000023CCB243730133426004738373C4730D
:1032F0000068421C012C05D90133DBB21370033284
:103300009C42F9D1FF230B405A00D318C018002368
:103310000338437010BDC04670B505000C1E07D0C1
:10332000630001681B19033BCB185A78002A01D1AE
:10333000200070BD500080180338091800204E7816
:103340004870210058702800FFF79CFF31000400EE
:103350002800FFF7E1FF0600002C20D00028E7D06E
:10336000320021006B68A8689847720063009219C8
:103370001B192968033A033B002808D08A18947067
:10338000C818CB5C002B00D053700670D0E7CB1868
:103390009E7088188A5C002A00D05A70047034002D
:1033A000C6E7C046F0B557464546DE464E46E0B550
:1033B0000D006F0001687F19033F0400C85D83B0F2
:1033C0000192CA19002850D043001B18033BCB18A8
:1033D0005E78B446002E1AD1019E002E42D0E67BC4
:1033E000002E04D073009B19CB18033B5D70A37BA8
:1033F000002B00D1A573E57300282FD10023537053
:1034000003B0F0BCBB46B246A946A046F0BD720070
:103410006244033A8A1851788846002151708946DF
:103420005970320001002000FFF72CFF434682460E
:10343000002B07D05B0021684344033BCB185A782C
:10344000002A16D1424651462000FFF71BFF216893
:10345000019BCA19002BC2D10028CFD043001B18F2
:10346000033BCB1800219970C8E7019B002BB6D114
:10347000C4E7500080180338091848788346484646
:103480004870587041462000FFF7FCFE59468046C0
:103490002000FFF741FF414602002000FFF7F2FE47
:1034A0008046CFE7F0B557464546DE464E46E0B586
:1034B00083B00191457B04006F0000687F19033FD2
:1034C000C15DC219002952D04B005B18033BC318E1
:1034D0005E78B446002E1CD1019E002E44D0E67BBF
:1034E000002E04D073009B19C318033B5D70A37BAF
:1034F000002B00D1A573E573002931D100232800EA
:103500005370617303B0F0BCBB46B246A946A046F7
:10351000F0BD72006244033A821850788046002061
:1035200050708146587032002000FFF7ABFE4346D2
:103530008246002B07D05B0021684344033BCB1835
:103540005A78002A17D1424651462000FFF79AFECA
:10355000019B01002068C219002BC0D10029CDD0E9
:103560004B005B18033BC31800209870C6E7019B13
:10357000002BB4D1C2E750008018033809184878EE
:10358000834648464870587041462000FFF77AFE4F
:10359000594680462000FFF7BFFE4146020020004A
:1035A000FFF770FE8046CEE770B5050000292CD0ED
:1035B000437B8B422ED04C0000686418033C0419F6
:1035C000A278002A21D053009B18033BC25CC61886
:1035D0008A4202D11BE0002A08D053009B18033B0B
:1035E000C3185A788A42F6D162785A7000230122B1
:1035F0002800A3706370FFF7D5FE697B02002800E6
:10360000FFF740FE6873012000E0002070BD637882
:103610003370EBE701221900FFF7C4FEF2E7C04662
:10362000F8B5CE464746040080B506200D0000F0F0
:1036300021FA061E53D0534B5349E3185A1E9341A7
:103640008022120494465B429B0D504A9B056344C2
:1036500013604F4A136018008A689043FBD1494BAE
:103660004C4AE31859424B4180215B004900062037
:10367000995200F0FFF92900C00001F0A9FFC30929
:1036800032D14022012190466162A362266BF3078A
:1036900036D427008025E36A00232C376D013D4393
:1036A0002B600620266300F0E5F94146800001F01A
:1036B0008FFF236B06009846DB073BD46023E26A4A
:1036C0005A400E3313402B6043462363802310225D
:1036D0009B013B431A60304B23630323A3643000F8
:1036E000C0BCB946B046F8BD2C4A93423FD900232E
:1036F0002B492C4A6162A362266B9046F307C8D51A
:103700002200C02330329B011343234A06201A6053
:10371000656AA36AAD01ED1800F0ACF9224901F029
:1037200057FFAD020100280001F052FF0021FFF712
:1037300099FCAEE72200C02330329B011343164AA6
:1037400006201A60636AA26A9B019946914400F0C0
:1037500091F94B4614499B02994601F039FF01004B
:10376000484601F035FF0021FFF77CFCA6E77F22E9
:103770009901884602400132520819009044130012
:1037800082E7C0460080FCBF00C0004000E000406F
:1037900000F00040E437002001030000FEFF0000BD
:1037A000FFFF0000C0FF3F004E0E000010B50C20D0
:1037B00082B000F0B7F9FEF7B1FC002810D08B4BB7
:1037C0008B488B498B4A186059609860D9601861A2
:1037D00059619861D961186259625A6202B010BD8C
:1037E000854CA06700F0F4F90122844B1A60636CE9
:1037F000012BFCD10322824B1A607F4A936B012B71
:10380000FCD1013301217F4A7F480093043300F04B
:1038100037F905237D4A009301217D4800F030F9F6
:103820007C4B5A68FF2A02D8802252005A608022BC
:10383000734B6E4C12011A602169002907D0606930
:1038400001F0C6FE013043001B18033BFDD2E0220D
:10385000704B714819680A40026002221968514091
:1038600001320A40042102609A681142FCD0802192
:103870006A4A09011160802252005A60684B236134
:10388000684B5968FF2900D85A60032201215B4B1D
:103890001A60644A93681942FCD0E0231068034020
:1038A00061480360126803234A40022113405D4AC5
:1038B000036093681942FCD080215C4B09011960B8
:1038C00080215B4B4900516063615A4B5A68FF2A63
:1038D00000D859608022584B12011A60E169002912
:1038E00007D0606901F074FE013043001B18033BF0
:1038F000FDD2E0234F4A11680B4050490B608021F4
:103900004F4B090119608021394B49005160E36137
:103910004C4B5A68FF2A00D8596080224A4B12014A
:103920001A60216A002907D0606901F051FE013058
:1039300043001B18033BFDD2E023424A11680B40B1
:1039400042490B608021424B0901196080235B00D2
:1039500053608022264BD20223623E4B596891422B
:1039600000D25A6080223C4B12011A60616A002921
:1039700007D0606901F02CFE013043001B18033BA7
:10398000FDD2E023334A11680B4034490B6080219B
:10399000334B090119608023DB025360154B6362CE
:1039A000304B5A68FF2A02D8802252005A60802287
:1039B0002D4B12011A60A169002907D0606901F03E
:1039C00007FE013043001B18033BFDD2E023254ACC
:1039D00011680B4025490B608021254B09011960B6
:1039E00080235B005360124BA361F7E6682400203C
:1039F000006CDC021BB70000008000403CB00040BF
:103A000030B00040002F685900800240008C86478B
:103A100000C00240308000403090004030A00040A4
:103A2000001BB7003C8000403C9000403CA00040A0
:103A3000405973075480004054B0004054900040F7
:103A400054A000406080004060B0004060900040A2
:103A500060A000406C8000406CB000406C90004062
:103A60006CA000404880004048B0004048900040B2
:103A700048A00040014B8000C058704768240020D7
:103A8000F8B5040022481E0017000D0001F0A0FD4B
:103A90000100380001F09CFD069B36041B031E4309
:103AA0002368002B22DB1B4B1B49E3185A1E934152
:103AB0008022920194465B421B0B184A1B0363440D
:103AC0001360174A13601F008A689743FBD1C02216
:103AD000231D92011A4321232560A06013602368EF
:103AE000002BFCDA0823E6601360F8BD3F23226850
:103AF0001340AB42D7D1A3681B051B0D8342D2D123
:103B0000EE22E368D2021340B342CCD1EDE7C046C7
:103B1000001BB7000040FDBF00C0004000E00040B7
:103B200000F000408023024A9B000343D3627047A9
:103B30000080054010B580241C4BE4051C60002863
:103B40001AD001231A4C18431A4BDC611A4C44401A
:103B50001C62596298628021144BC905196017488C
:103B600017490860E021C9041960002A07D18022A2
:103B7000144B12061A6010BD0E4BD861EBE75301CF
:103B80009B1A9B009A18802312015B049A4209D267
:103B900013000D490B60074B5A608022094BD20578
:103BA0001A60E8E7094B1A00F3E7C04600B0054089
:103BB000D3C007B0008005402D3FF84FFCFF010047
:103BC0000820014000A00540E4340020FFFFFF0072
:103BD000AA23064A1B0113602F230549D360054B16
:103BE00019605368002BFCDA7047C0460040024061
:103BF00000B0FA00006002402C4B2D4A70B51A60EC
:103C00002C4A2D4B2D491A6014008B689C43FBD124
:103C10002B4D2C4EB54208D2013E761BB60808CD7E
:103C2000984723000134B342F9D1FFF7BFFD264A7C
:103C3000214B1A60214A9368DB43DB01DD09002B2D
:103C4000F9D14022214B224C224E9A675A671A67BB
:103C5000DA66B44208D223682000002B20D00C344E
:103C6000FEF7EAFDB442F6D31B4C1C4EC022B168ED
:103C7000200002F033FCB460FEF7C8FAFEF79EFDA8
:103C8000FEF78EFF164C174EB44208D2013E361B8B
:103C9000B60808CC98472B0001359E42F9D170BD7B
:103CA0000834FEF7BBFDB442D5D3DDE700E00040A9
:103CB000BFCDFBFEFE7F3C0000F0004000C0004096
:103CC0004024002050240020FFFFFF0100F00140AD
:103CD00030240020402400200000002000ED00E0FF
:103CE000502400206824002000BEFDE7094A03009C
:103CF0001068002805D00849C3188B4207D8136004
:103D0000704706480449C31810608B42F7D9012058
:103D10004042F5E7D830002000000420F8380220A7
:103D200000207047012040427047C04610B5FFF7A1
:103D3000DBFFC0460FB400B5084883B002F0A8FC12
:103D4000049B002B07D005A91800019101F0C6FBC8
:103D5000034802F09DFC0120FFF7C6FF1868011020
:103D60002868011010B50148FFF7E4FF2C68011026
:103D700010B50148FFF7DEFF3C6801109A4200D2FF
:103D8000885470477047C046F8B55746DE464E46E1
:103D90004546E0B599460A9B07009A460D9B884622
:103DA00093460B9C9B073BD10C9B9C423DD21E1B18
:103DB0000B9415000C005E442A004B46013521008F
:103DC0002020B847B542F7D1A0460B9C002C20D04C
:103DD000454636195346321B013C185D29004B46B7
:103DE000B847002CF6D12B00350098460D9B9B0759
:103DF0000FD55B46EC1A0C9BA3420AD9464698465F
:103E00002A004B46310020200134B8470135444593
:103E1000F6D32800F0BCBB46B246A946A046F8BD82
:103E200016001500002CD3D1E0E71600002CCFD1EE
:103E30001500EEE7F0B54F464646D646C0B584B00D
:103E400098460EAB1B7894469946129B0D9C109F8A
:103E5000119E9A0725D4002E65D1BC4221D20122A1
:103E60001A409246202C00D1E9E00C9A551E3022CF
:103E700002E0202C00D17BE001342A55A742F8D87B
:103E80005246002A0DD0B4420BD20C9A551E302255
:103E9000202C02D171E0202C2DD001342A55B442BF
:103EA000F9D1DA063CD55A052ED4002C28D10F9A28
:103EB000102A00D1B6E0022A00D1BCE030220C9CCE
:103EC000227001244A46002A65D15A0700D499E09D
:103ED0002B220C9D2A55013403930C9B62460093C0
:103EE000029643460194FFF74FFF04B0E0BCBA4688
:103EF000B146A846F0BD2024DA06EDD55A0503D414
:103F0000A74266D0B44264D00F9A102A71D0022A18
:103F100057D0202CE0D02200013430250C9FBD5416
:103F2000202CD9D0CEE7012215001D40AA461A4206
:103F300036D04A46002A4AD10C321A4247D1BC42F6
:103F4000A1D2202C91D1202E17D82024DA06C3D557
:103F50005A051BD4202F01D0202ED5D11F220F9D12
:103F6000102D6FD0022DD8D162250C9FBD54D0E703
:103F70005246002A79D0202EBDD92024DA06ABD5AE
:103F80005A0503D4202FE9D0202EE7D00F9A102A0B
:103F9000A2D12024A0E72D220C9D2A5501349BE7B5
:103FA000BC4200D37DE7202C00D05EE7DA06F0D5D6
:103FB0005A05EED4202F62D0202EEAD134001F22E1
:103FC000CDE7202C00D187E722000134CCE7013E69
:103FD000B5E7621E012CC2D10F9A102A00D06AE701
:103FE0009A063BD558220C9C2270283A6270022413
:103FF00068E79A060ED4202CCBD078220C9D2A5547
:10400000013486E71A0700D466E720220C9D2A5562
:10401000013461E7202CBCD058250C9A1219157078
:10402000013476E79A0608D558220C9C227030227B
:104030006270022446E76032F7E77822F5E7002A4B
:1040400083D1B3E7A21E013C9D0603D478250C9FC3
:10405000BD5460E758250C9FBD545CE778220C9C4A
:104060002270483A627002242CE7DA0600D433E763
:104070005A058BD4202F00D044E71F226FE73C0065
:104080001F226CE710B5002800D110BD02F0B4FA71
:10409000FBE7C0460B0010B5002802D049681B683A
:1040A000984710BDF0B557464E464546DE46E0B54A
:1040B00099B08246894690460893229A239B100025
:1040C000190001F046FD002800D0CDE02298239988
:1040D0000122D94B524201F037FD002800D0C3E045
:1040E000229823990122D54B524201F01FFD00284E
:1040F00000D0B9E0229823990022002301F016FD98
:10410000002800D0F1E1229E239F8023269ADB0025
:104110001A400D92269A1A4201D106232493802335
:10412000269A1B011A403B0093460996334300D060
:10413000B3E0002A00D0C2E1002300240A930B94CC
:10414000002304250993259B0024AB4200D95C1B66
:104150000223269A1A400C92269A134203D06B42ED
:104160006B415B421C40099B002B07D00A9A0B9BBA
:104170003000390001F079FC06000F0022982399E5
:104180000022002301F0D2FC002803D08021090680
:104190007B181F00269AAA4B009601971340089E91
:1041A0000493249B039402934246330049465046AD
:1041B00000F0AAF90400002D67D02020269A494675
:1041C000024013005A4253415B42621C18400A925B
:1041D000330022004530D047099A6F1ED317D418F8
:1041E0005C40D30F9B46002501E0202D13D008AA88
:1041F00094461F23200063440A2101355E1901F013
:10420000E7F93031317020000A2101F0E1F9260090
:104210000400092EE9D805230693002304930A33EA
:1042200003935B46089E029310AB0A9A009349469B
:104230003300504605970195FFF7FCFD0C9A0400EA
:10424000002A22D04246851A259AAA421DD9B04694
:104250005746160022004346494620200135B847FC
:104260000134AE42F6D810E0269B42460493259BCB
:1042700049460393249B50460293229B239C009320
:104280000194089B00F040F90400200019B0F0BC34
:10429000BB46B246A946A046F0BD6A4B78009C4694
:1042A000400D604401F068FC674A684B01F0FBFB7D
:1042B000674A684B01F0D0FB674A3B031B0B1A436C
:1042C00004000D0009981100644B002201F0BBFBB3
:1042D000634A644B01F0E7FB02000B002000290059
:1042E00001F0BAFB01F060FC099001F045FC5E4A68
:1042F0005E4B04000D0001F0D6FB00225C4B01F088
:10430000ABFB01F051FC5B4A5B4B29000C90200099
:1043100001F0C9FB04000C980D0001F02DFC574A78
:10432000574B01F0C0FB02000B002000290001F0F8
:104330008AFB04000D0002000B000A940B9501F0AB
:10434000B2FB04000D000A980B9902000B0001F06B
:1043500083FB00220E900F914A4B2000290001F0B0
:1043600084FB0022484B01F077FB02000B00200089
:10437000290001F07AFB0022444B01F06DFB0200A2
:104380000B002000290001F070FB0A9A0B9B0D0026
:1043900080210400C905002001F055FB02000B003C
:1043A0002000290001F058FB02000B000E980F9925
:1043B00001F05BFB0022284B01F04EFB344B0C9CC0
:1043C0009C4664442305002201F06DFB04000D00AF
:1043D00002000B00300039000A940B9501F0A6FB97
:1043E00000285DD123002A00C625099963318D423A
:1043F000AD4159466D420435002900D1A3E613436F
:1044000063D030003900234A234B01F095FB00288C
:1044100007D0002230003900204B01F087FB002834
:1044200053D1249B002B00D18DE60D9B5A1E934146
:10443000249AD31A249386E6FFFFEF7FFFFFEFFF56
:10444000FFF7FFFF01FCFFFFFB799F501344D33FB1
:10445000B3C8608B288AC63F0000F03F0000F83FD9
:1044600061436F63A787D23F71A379094F930A40D5
:104470000000E03F1655B5BBB16B0240EF39FAFEC4
:10448000422EE63F00002C4000002440000018406F
:10449000FF0300002D431CEBE2361A3F80842E41BF
:1044A000099B0022013B09932000164B290001F0D3
:1044B000DCFA0A00010003000A910B9294E7002342
:1044C00000240A930B9400230993249A099B9A428F
:1044D00014DDD31A013B24938023269ADB001A4370
:1044E00000230025269209932DE680221206944689
:1044F000229B1E00239B63441F0006E60023249397
:10450000EAE7C04600002440F0B54546DE464E4688
:104510005746E0B595B08B46904699461E9A1F9B2C
:104520000A9019001000209D01F013FB002800D014
:10453000B0E11E981F990122C74B524201F0F6FAD2
:10454000002800D037E11E981F990122C34B524228
:1045500001F0FAFA002800D0A7E01E981F99002267
:10456000BF4B01F0F1FA002800D088E01E981F9997
:104570000022BC4B01F0DAFA002800D07FE01E9840
:104580001F990022002301F0D1FA002800D0FAE0A0
:1045900000230B938023229C229ADB001C401A42AA
:1045A00000D102E1092D00D87CE106A98C462C003F
:1045B000172200233021093C62440133D154EF1A01
:1045C000202B00D132E1A342F7D10022A44B069266
:1045D00007931E981F9901F0E7FA050001F0CCFA45
:1045E00002000B001E981F9901F02DFA069A079BF6
:1045F00001F059FA0890099101F0FAFA060001F069
:10460000B7FA02000B000898099901F01CFA002281
:10461000954B0890099101F097FA002800D1D2E05B
:104620000136300001F0A4FA069A079B01F084FAE3
:10463000002801D000260135AA46002F00D098E0BE
:10464000280001F099FA02000B001E981F9901F052
:10465000FAF9854B002206000F0001F067FA0CAB57
:104660009A46002845D10022300039007E4B01F0E7
:104670006BFA00283DD1EB073BD5013539E0229B91
:1046800042460493219B594603930A981E9B1F9C04
:104690000295009301944B46FFF704FD15B0F0BC62
:1046A000BB46B246A946A046F0BD229B5B0767D435
:1046B00003226E4B2299019203912199029100935A
:1046C00042464B4659460A98FFF75EFBE6E706AAC4
:1046D00094461723280063440A2101341E1900F070
:1046E0004FFF3031280031700A2100F049FF051ECC
:1046F00076D0202CEBD10323229A1340012B1DD11D
:10470000219B002B1AD00B9B002B00D0BBE0229AE0
:104710000C33134200D0B6E0219BA34200D887E0BF
:1047200006AB9C4617223023624404E021990134F1
:1047300013558C4259D0202CF8D12024229B01946F
:104740000393219B02935346B9E706AA9446172385
:104750000A216344300001341D1900F039FF303163
:10476000297030000A21013F00F032FF092E46D99E
:104770000600202CE9D155460CAB20249A46B8E718
:1047800004223B4B96E71E9A1F9B0020002101F05C
:104790005AF901230B938023229C229ADB001E905E
:1047A0001F911C401A4200D0FCE60022314B062724
:1047B000069207930DE7229B0393219B0293042308
:1047C00001932D4B7BE7002208980999264B01F0B5
:1047D000ADF9002800D02FE7002E4FD101362BE78E
:1047E0000323229A1340012B66D0202CA6D00B9BCA
:1047F000002B1FD02D235246135501349EE75546FA
:10480000202CB9D030233A19002F08D0172006A940
:10481000013409180B55202CAED09442F6D10CABC4
:104820009A462E2352461355013462E72024CCE6E3
:10483000202C83D0229B5B0708D4229B1B0700D42B
:104840007CE7202352461355013477E72B23524649
:104850001355013472E7C046FFFFEFFFFFFFEF7F04
:1048600065CDCD4165CDCDC10000E03F5068011060
:104870004868011080842E4158680110F30700D465
:10488000DAE60136D8E6219B013B2193A34200D909
:1048900046E7AAE7229B0393219B029303230193FC
:1048A000074B0CE7074BEA009B185C681B682F005E
:1048B0000693079400248CE6219B002B95D022E7D9
:1048C0005468011038760110F0B55746DE464E4662
:1048D0004546E0B5A5B01F002E9B91460D93CA4AF0
:1048E000CA4B82468B461A60002900D129E2002378
:1048F00038789846002800D12BE2C54B44460C93EB
:10490000C44B55464E460E930AE0631C984622005F
:1049100033005946A84744463878002800D187E03C
:1049200001372528F1D108239A46043B9946023BDA
:104930009846013B00229C460B943878791C030072
:10494000203BDBB2102B03D80C9C9B00E3589F4606
:104950000300303B0B9C0B92092B3AD9002398465D
:104960002A2800D1DDE000239A462E284BD00300F0
:10497000683BDBB2122B1ED80E9A9B00D3589F4681
:1049800063460F001A43D8E743460F001A43D4E7A3
:104990004B460F001A43D0E710230F001A43CCE711
:1049A00053460F001A43C8E780235B000B9A7878C0
:1049B0001A430B9201310F0067284FD82428A4D93D
:1049C0000300253BDBB2422B9FD893499B00CB5879
:1049D0009F46002398460B9B47469C4600E00131CA
:1049E000BB00DB195B001F180878303F0300303B29
:1049F000092BF4D963460B930023B8469A460F005F
:104A000001312E28B3D180200B9AC00002430B92B3
:104A100030225242944678780B0084446246092A38
:104A200000D8AAE12A2800D1B9E10F0001319EE7A0
:104A3000A046AA46B146C84503D301235B424B4476
:104A400098464B46424659460020D047200025B0A4
:104A5000F0BCBB46B246A946A046F0BD010069398C
:104A6000C9B20F2900D950E701238B409C466B4BFC
:104A7000994663464A4613400F9362464B461A4294
:104A800000D068E10A2956D0072900D03DE70D9BE8
:104A900002CB9846002900D092E10B9B10211A000E
:104AA0008A43100011310843814680201A00C0005B
:104AB0000240110003421CD114AB9C461F220F235D
:104AC00062440D959C4615000F9B0B9402E0202B31
:104AD0000CD0110064460C4020003730092C00D85F
:104AE00007380133E8540A090F29F0D80B9C0D9DB3
:104AF0000F934B46082206935346059208320392C1
:104B0000002204930F9B029201931CAB220000939E
:104B1000594633002800FFF78DF9434604000D93F2
:104B2000FAE60D9B04CB9046002A79DB78780D934A
:104B30000F00013117E70D9B02CB14930B789C46B5
:104B400018005346002B00D134E1002815D05346FD
:104B5000013B013399460D940B9C89444A460B0056
:104B6000A14601E0934203D05C780133002CF9D1D7
:104B70004A465B1A0D9C0B920F938023DB009946EB
:104B80000B9A13400D934B461A4204D00F9B53458A
:104B900001D953460F93022399460B9A13400B9366
:104BA0004B46134200D1F5E16346002B00D1D6E11C
:104BB0000D9B002B00D182E10B1BD14631009A46A0
:104BC0003B00A1442E005F464D4622009B4689468D
:104BD00009E04B463900541CB0475346185D002885
:104BE00000D192E122009542F3D14B465A46A946A4
:104BF000BB46350017001E004C460B9B002B00D017
:104C0000ADE1149B0D9387E6C9480010E034002005
:104C100098740110DC740110287501104190000097
:104C20000B9A283802430B924246524278789046BB
:104C30000F000D93013196E678786C2800D15DE184
:104C400080230B9A5B001A430B920131B3E6802359
:104C50009B00ABE67878682800D148E180230B9A66
:104C600001311A430B92A6E6672800D1B2E047282B
:104C700000D11AE1452800D11CE10B9A07210492CA
:104C800042460D9B0392073352468B431900029212
:104C90000CC92800009201930D912200330059465F
:104CA000FFF700FA040037E6462800D18DE00B9AA2
:104CB0000721049242460D9B0392073352468B43D1
:104CC000190002920CC92800009201930D91220054
:104CD00033005946FFF718FC04001DE6631C984694
:104CE0002200330059462520A847444614E60D9B70
:104CF00004330F93631C99460B9B9A0700D40AE177
:104D00000D9B2200187859463300A8474346444477
:104D1000012B00D86FE1B0462E0025004C46B94665
:104D20005F4622004346013439002020B047AC42A0
:104D3000F7D12C00BB4635004F4646460F9B0D93DE
:104D4000EAE5D64B38789A4600239846002800D0EA
:104D5000D3E500246FE66F2842D000D8FDE1102390
:104D6000782800D19BE00B9A9A430B920A239C4629
:104D7000002314930A330F9338E057460B9AB90077
:104D8000C919490001330F181878303F0100303934
:104D90000929F4D9BA460B921F00591CE7E50D9B6F
:104DA000B87804CB0237D143C9170A4092460D9315
:104DB000791CDCE5002800D1DFE602235B42C8E66F
:104DC00021200B9A0243914676E620230B9A1A4340
:104DD0000B926CE780230B9A1B011A430B924CE752
:104DE00008239C460023149308330F930B988023C9
:104DF0000200DB001A4011000200184200D080E0DF
:104E00000C239A431000802302009B001A400B924F
:104E1000184200D0F1E0802302005B001A40914666
:104E20000D9A04321492184200D0C3E2430600D512
:104E3000D7E0030600D421E30D9B1B880993002BC8
:104E400000D02DE110339843002900D128E1002340
:104E5000994643460593534604930F9B069003934C
:104E6000002302934B4601931CAB2200009359464A
:104E700033002800FEF7DEFF0400C2E6582809D000
:104E8000622800D0E3E202239C46002314930233FD
:104E90000F93ABE720230B9A1A430B92103B9C46CF
:104EA0000023149310330F93A0E780230B9A1B0168
:104EB0001A430B9220230B9A1A430B92DDE60B1B2D
:104EC0009A460F9B99463B0037005E469B46220060
:104ED0003B003100A84753460134185D0028F6D145
:104EE0004B460F935B46B3463E001F0085E6C0234A
:104EF0000B9AB8781A430B92F91C5CE5C0239B000F
:104F0000F6E70D239A4310007DE75B463500BB466C
:104F10004E461F0071E64346012B66D9631E43448B
:104F200032002E001D003B00A2465F4691469B4684
:104F300022004B46013439002020B047AC42F7D163
:104F40005B463500BB464E46A14654461F000D9BAE
:104F50004A461878594633004444A847EEE60F9B6A
:104F6000A146984500D84CE64444E41AB0462E00C9
:104F700025004C46B9465F462200434601343900BD
:104F80002020B047AC42F7D12C00BB4635004F463D
:104F9000464636E60F98804500D873E24346E2184D
:104FA000131A32002E001D003B0091465F469B46BF
:104FB0000F9122004B46013439002020B047AC420B
:104FC000F7D15B46BB461F0043460F9901330F9351
:104FD0000B7835009C464E466046002800D0E7E539
:104FE0000FE60D9B1B78099329E70D9B220018788B
:104FF00059463300A8474C46A0E60D9AFA3BFF3BC2
:1050000007329A430133994691444B460D931368F6
:10501000526815921A4306D1103290430022099229
:10502000002900D083E06122810600D54122D2B25E
:105030000A9214AA91460A9A00210A3A0B92424611
:105040001792524618925A46B24609911E001F31D5
:10505000149B4944BB4616941A950024674698460B
:105060008946159D19901B920AE03032D2B24B4608
:1050700001341A55A8454CD0202C4CD006000D0008
:105080003A0000233000290000F0E0FAD2B2092AE9
:10509000EBD90B9B9C466244D2B2E8E7853D0010F9
:1050A0006123820600D54123DBB20A3B0B934346C2
:1050B00014A91F228C46159353466244B2460D94A0
:1050C00017974C468046A9461700099D0F9E1693D8
:1050D00008E03033DBB201343B55B5420ED3202C0F
:1050E0000CD005003100280000F072FACBB209297B
:1050F000EFD90B9A94466344DBB2ECE7159B40462C
:105100009846169B4D465646A1469A460D9C179FBB
:105110009FE6B742B0D9179B56469846189B5F4604
:105120009A461B9B09949B46169C19981A9D4346C8
:105130000593534604930F9B069003930023029319
:10514000099B01931CAB22000093594633002800B1
:10515000FEF770FE0400FFF7DFFB10230B9A9A4363
:105160000F92692800D091E10B9980230A00DB009F
:105170001A4010000A00194203D0112118008A4376
:105180000F920F9A802311009B0019408C461A42FF
:105190005BD1802311005B00194089460D990431D1
:1051A0000B911A4200D0B2E013005B0600D4EDE090
:1051B0000D9B1B781A00D90F0D91002B00D1A3E095
:1051C000100014AA944642461F2315925246634487
:1051D000A846BA464D461494B14604001F001692E4
:1051E00001E0202D0FD020000A2100F0F1F9013557
:1051F0007E193031317020000A2100F0E9F92600D3
:105200000400092EEDD8159B4E46A9464546984602
:10521000169B57469A46149C0F9B0693434605934C
:10522000534604930A2303930D9B02934B46019329
:105230001CAB22000093594633002800FEF7FAFD0C
:105240000B9B04000D93FFF767FB07220D9B0733B1
:105250009343013294469C4462460D920CCBD90F85
:105260000B911100194300D19BE0D91713911291B2
:105270005140109113995940119110981199129A17
:10528000139B801A99411090119114AA944642469A
:105290000023159252469946169232001F336344FA
:1052A000A8464E46BA4614941F00109C119D914684
:1052B00001E0202E10D0200029000A22002300F057
:1052C000C5F9013630322B00BA550D00220004001A
:1052D000002BEED1092AECD8159B10941195454668
:1052E00098464B46169AB14657461E009246149C65
:1052F0000F9B069343460593534604930A23039357
:105300000B9B02934B461CE7002885D159E70D9B68
:105310001B68DA0F1100002B00D1A6E0DA179818ED
:10532000504014AA91461F2342464B44A8460D9470
:10533000169704006546B1461F001491159201E0CE
:10534000202D0FD020000A2100F042F901357E19EE
:105350003031317020000A2100F03AF926000400B3
:10536000092EEDD8159BAC4645469846149B4E46F3
:1053700019000D9C169F0F9B0291069343460593BF
:10538000534604930A230393634650E713001B0616
:105390006ED50D9B00229B5ED9175A184A4092B2D7
:1053A00009E7002399460028A2D100220023109289
:1053B00011936AE70D9B1B689946002B03D11033AC
:1053C0009843002938D16123820600D54123DBB2FE
:1053D0000A3B0D9343461693534614A91F228C464D
:1053E00017932B0062444D46B24615941897804699
:1053F000170099460B9C0F9E08E03033DBB2013456
:105400003B55B5420ED3202C0CD0050031002800AE
:1054100000F0DEF8CBB20929EFD90D9A9446634427
:10542000DBB2ECE7169B40469846179B56464D4626
:105430009A460B94189F159C434605935346049334
:105440000F9B06900393002302930B9B0BE50B9994
:1054500080230A00DB001A4010000A00194200D025
:105460008BE610239A430F928BE6002883D158E7EE
:105470000D9B1B68D9175A184A409CE60D9B1B6868
:105480000993DCE4030001330F93A5E50B926DE46F
:105490000EB4012230B584B007AC08CC064D010033
:1054A0000094280052420394FFF70EFA04B030BC77
:1054B00008BC03B01847C0467D3D001000B585B05C
:1054C0000391012102900093034813004A4202A96C
:1054D000FFF7FAF905B000BD9540001010B5094A74
:1054E0000300146884B0002C08D001220091064803
:1054F000524203A9A047012004B010BD01F0C8F832
:105500000020F9E7E0340020854000100148042124
:10551000014B1847801E00203D550010142310B584
:105520000100188804331B88984710BD162310B556
:105530000100188802331B88984710BDF8B547460C
:10554000CE4680B50F1E19D01423994604330400AB
:105550000025012698464B461888434621681B883B
:10556000984701C4431E9841013540420640AF426E
:10557000F1D13000C0BCB946B046F8BD0126F8E70D
:10558000124A936F9B0815D29066D166002905D008
:10559000FFE7FFE7FFE7516F106F704704B5802109
:1055A0000906C2175140002800D0C84310F0DCFFA4
:1055B000002104BDF0B5146E556E576F166FFFF7DE
:1055C000E3FF1466556657671667F0BD000000D00C
:1055D000114A936F9B0813D210665166002905D0BB
:1055E000FFE7FFE7FFE7516F106F704704B5002832
:1055F00001D00020C04310F0B7FF002104BDC04619
:10560000F0B5146E556E576F166FFFF7E5FF146611
:10561000556657671667F0BD000000D094464A4AA9
:10562000926F9208624601D228E0C046F0B5464E1D
:10563000346E756E776F366F00F020F89446424AEC
:1056400014665566576716676246F0BD94463E4A33
:10565000926F9208624601D254E0C046F0B53A4ECD
:10566000346E756E776F366F00F04CF89446364A9C
:1056700014665566576716676246F0BD002B24DB3B
:1056800011D000293EDA00B5C943404200D10131B2
:1056900000F038F8C943404200D10131DB435242A7
:1056A00000D1013300BD002AEBD1002801D100292F
:1056B00005D00020C90FC90701D1C043410800B57A
:1056C00010F01AFF0022002300BD00B500290ADBFC
:1056D000DB43524200D1013300F014F8C943404289
:1056E00000D1013100BDC943404200D10131DB434B
:1056F000524200D1013300F005F8DB43524200D1A1
:10570000013300BD002923D1002B18D1002A0CD071
:10571000BC460D4F38667A6600210023FFE7FFE79D
:10572000FFE77A6F386F67467047002801D0074857
:10573000010000B510F0E0FE0022002300BD0200D1
:105740000B00002000217047000000D0FFFFFFFF8A
:10575000002B00D0BFE0130C28D1002AE7D080B482
:10576000114F39667A66FFE7FFE730B4040C7B6FB0
:10577000396F1B0423433B667A66FFE7FFE7FFE7C9
:10578000C04684B27B6F3D6F1B0423433B667A6641
:10579000FFE7FFE7C04600232C042D0C7A6F386F1B
:1057A00000196941B0BC7047000000D0F0B59446C4
:1057B0000025140E01D112020835140F01D1120177
:1057C0000435940F01D192000235D40F01D152005B
:1057D0000135D40B0134254F7C66254C3C660E0CFC
:1057E00093B2FFE7FFE7FFE73C6F6643360C7703B2
:1057F000BE467343DF0B5B04C01AB941130C7343FD
:10580000DB18C91ACE086643360CB64493B273430C
:105810001F0F1B01C01AB941130C73431F0B1B054B
:10582000C01AB941860D8F023E436643360C092DDE
:1058300024DB520A7243801A7703460A6643360C09
:1058400016235B1BDE40DF40BF1964466643821BA4
:105850007046043506330100D940A840C01900D372
:105860000131A24206D20023F0BD0000000000D0AA
:10587000FFFFFFFF121B0130F3D3F1E709277F1B66
:10588000FE406446A2B27243801A00D20139220C53
:105890007243130C1204821A99410B0070460435AE
:1058A00013370100F940A840801900D30131002BC3
:1058B00002D1A2420AD2F0BD013000D30131121B45
:1058C000FAD2013BF8D1A24200D2F0BD013000D3A0
:1058D0000131121BF7E7F0B51C0C00D080E00CB4CE
:1058E00000251C0A04D11B02160E33431202083590
:1058F0001C0B04D11B01160F3343120104359C0B02
:1059000004D19B00960F334392000235DC0B02D189
:1059100092185B4101351C00971864410134464FD1
:105920007C66464C3C660E0CFFE7FFE7FFE7C0468F
:105930003C6F6643360C7703BE4697B27743C01B75
:1059400000D20139C01B00D201399FB27743C91B75
:10595000C91B170C77437E04FF0B801BB941CE088F
:105960006643360C0C2D33DBB644120B1F053A434D
:105970001B0B97B27743C01B00D201399FB277430C
:10598000C91B170C77433E043F0C801BB941860DA1
:105990008F023E43664329277F1BFE400C3D77461E
:1059A000AF40BF1930BCA2B2ABB272437343801A8E
:1059B0009941220C7243130C1204801A994102007F
:1059C0000B000137001BA941F9D2781E0021F0BD60
:1059D0000C277F1BFE4077467F0BAF40FF19E0E7A7
:1059E00000245D1C07D0144F7D663966FFE7FFE792
:1059F000FFE7FFE73C6F95B29EB265436643401BED
:105A0000B141150C1E0C6543664336042F0C3E4312
:105A10002D04401BB141994204D202000B0020002A
:105A20000021F0BD01D19042F7D3801A9941013491
:105A30009942F2D3F6E70000000000D0FFFFFFFF1D
:105A400048404140484018B41B4B5B68FC460193FA
:105A500008BD04DFD35C001018B4174B1B68FC466C
:105A6000019308BD00DFDD5C00109446134A926F7D
:105A7000920809D2624618B40F4BDB68FC460193CA
:105A800008BD0CDF955F00100C4AF0B5146E556E22
:105A9000576F166F6246FFF7EEFF084A14665566A9
:105AA00057671667F0BD18B4034B9B68FC4601931B
:105AB00008BD08DF395E0010A8250020000000D0D6
:105AC000FFB550404240504059404B40594000E0E3
:105AD000FFB5154F4C00640D03D0BC4204D10C033C
