:020000041000EA
:1000000000B5324B212058609868022188439860DF
:10001000D860186158612E4B002199600221596106
:100020000121F02299502B49196001219960352056
:1000300000F044F80222904214D00621196600F024
:1000400034F8196E01211966002018661A6600F04E
:100050002CF8196E196E196E052000F02FF8012189
:100060000842F9D1002199601B49196000215960AB
:100070001A491B48016001219960EB211966A021F2
:10008000196600F012F800219960164914480160C1
:100090000121996001BC002800D000471248134993
:1000A000086003C880F30888084703B5996A0420EC
:1000B0000142FBD001200142F8D103BD02B5186610
:1000C0001866FFF7F2FF186E186E02BD00000240BE
:1000D000000000180000070000035F00212200005C
:1000E000F4000018222000A00001001008ED00E03C
:1000F00000000000000000000000000074B24E7A12
:1001000000200420F7010010C3010010C5010010F9
:10011000C1010010C1010010C1010010C101001097
:10012000C1010010C1010010C1010010C701001081
:10013000C1010010C1010010C9010010CB01001065
:10014000CD010010CD010010CD010010CD01001037
:10015000CD010010CD010010CD010010CD01001027
:10016000CD010010CD010010CD010010CD01001017
:10017000CD010010CD010010CD010010CD01001007
:10018000CD010010CD010010CD010010CD010010F7
:10019000CD010010CD010010CD010010CD010010E7
:1001A000CD010010CD010010CD010010CD010010D7
:1001B000CD010010CD010010CD010010CD010010C7
:1001C00000BE00BE00BE00BE00BE00BEEFF3058054
:1001D000103800BEF2EB8871ECA201100CA30110E4
:1001E0003402001090A31AE700201F49086006C8D7
:1001F00081F3088810471D48006800282FD10DA4FE
:100200000ECC002902D000F012F8F9E71849194A7B
:10021000002000E001C19142FCD1174988471749ED
:1002200088471749884700BEFDE701C901C29A42C5
:10023000FBD370470CA30110C000002070250020E4
:10024000BCC701100000042000000420BCC701103E
:10025000001004200010042000000000704709482E
:1002600006F096FA0047000008ED00E0000000D01C
:10027000702500202C3B0220754E0010551D0010EB
:10028000A94F00105756000006005250ABB3605300
:10029000547C011006005250861C0302647C01103D
:1002A000060052505422A29D707C0110050052504D
:1002B000DE65F468BCC70110F8B5C04606480749BA
:1002C000091A8B10C90FC91810B5491003D0044B77
:1002D000002B00D0984710BD70250020702500200D
:1002E00000000000054B10B5002B03D00449054861
:1002F00000E000BFFFF7E2FF10BDC04600000000B5
:1003000020370020C879011070B50A4EB46AF56A2A
:10031000AC4206D02000243409F02CFEA542F9D1CD
:10032000B56A002D04D0316B2800491B07F01EFA76
:1003300070BDC046AC290020F8B54746CE4680B512
:1003400007008468884615000437002C26D0B9467B
:1003500066692A00B54200D93200002A23D04146FE
:10036000206916F045F800281DD01EDBA146A468C0
:10037000002CEDD14F4511D04B465C692A00A542B7
:1003800015D8002A06D04B464046196916F030F8B9
:10039000002800D1281B002800DB4F463800C0BCD5
:1003A000B946B046F8BD701BE0D5E468E0E7221E10
:1003B000E9D1EFE770B50F4E34687568AC420CD0E8
:1003C00023002068083398420FD0A1681834013107
:1003D00007F0CCF9A542F3D13568002D04D0B168FF
:1003E0002800491B07F0C2F970BD1834A542E7D1B7
:1003F000F2E7C046142A0020F0B5C64600B5070053
:1004000090B0081C90461C000E1C07F099F80500DF
:1004100007F074F8011C301C07F049F8124907F086
:1004200060F807F08DF84246631C019006000F4902
:10043000009503A806F062F93B1998465B79B34230
:1004400002D13B5DAB420AD0094803A901F004FD8B
:10045000084803A901F000FD43465E713D5510B008
:1004600080BCB846F0BDC04600002041C8790110EC
:100470000040034000800340F0B5CE46474680B5BB
:10048000784D0C0006C899B02800FFF755FF0435D9
:100490000600A84253D06A462378E5681370636863
:1004A000A768019304AB994602930C950F2D4FD882
:1004B000012D00D0AAE06A463B7813744B46002712
:1004C00003955F55626A236A0020D11A884600218D
:1004D0000A97089009919A4236D04346002B00DAD9
:1004E000B2E0404607F03AF94346216A676AC3180A
:1004F00005007F1A089009900A93012F00DCA5E0FF
:100500003A0015F099FF2E232C222D21ED19099583
:100510006846F35CB25C715C02F09EFE05000898D0
:10052000002803D00A99091A07F020F902984845D3
:1005300003D00499013107F019F9002D17D119B032
:10054000C0BCB946B046F0BD434600250A93DAE781
:1005500000220CA902A80CF077FD0C9B02900493DA
:100560002A00390007F0F4F80C9D029BA7E76A46C1
:10057000302123785218B76A13706368E5680D93C9
:10058000A36810AE98460E9600950F2D4DD8012DFC
:1005900046D16A4640211B7852181370330000225E
:1005A0000F955A559446236A626A0020D11A8846EC
:1005B000002114901591614616919A422BD0434622
:1005C000002B41DB404607F0C9F84346216A646AC4
:1005D000C3180500641A149015901693012C3BDD86
:1005E000220015F029FF2C190CA81594B84714986F
:1005F000002803D01699091A07F0B8F80E98B042EF
:100600009DD01099013107F0B1F898E7002D00D185
:1006100055E71800A4E74346002400251693E2E7B7
:100620003300002DBBD0300007E0002269460EA841
:100630000CF00AFD009B0E9010932A00414607F033
:1006400087F8009D0E9BAAE70CF0A2FB012F00D0BB
:1006500059E70B78037056E7012CC4D10B7803706F
:10066000C1E7C04684290020F0B54746CE4680B594
:10067000AB4D0C0006C8A5B02800FFF75DFEA168D1
:10068000043588460700694622786368E668A84210
:1006900066D0019304AB99460A70029318960F2E08
:1006A0004BD8012E00D0A5E043461B780B744B4677
:1006B000002503969D55626A236A0020D11A884658
:1006C00000210A95089009919A4245D04346002B93
:1006D00000DA12E1404607F041F84346216A666AB3
:1006E000C3180500761A089009900A93012E00DCC1
:1006F00005E1320015F0A0FE2E232C222D21AD198C
:1007000009956846FB5CBA5C795C02F0A5FD0500C2
:100710000898002803D00A99091A07F027F80298C8
:10072000484503D00499013107F020F8002D66D127
:1007300025B0C0BCB946B046F0BD002218A902A839
:100740000CF082FC189B029004933200414606F0A4
:10075000FFFF189E029BABE7434600260A93CBE7B8
:1007600060201CAF09180A700C9619931A970F2E67
:1007700000D9AEE0012E00D09EE043466A467021CB
:100780001B78521813703B000025002000211B9697
:100790009D55626A236A20902191D61A22959A4229
:1007A00000D18FE0002E00DAA7E0300006F0D6FF7F
:1007B000216A646A86190500641A209021902296A5
:1007C000012C00DCA1E0220015F036FE18A82D193E
:1007D000219502F019FA2098002803D02299091ACD
:1007E00006F0C4FF1A98B842A2D01C99013106F055
:1007F000BDFF9DE7002E00D15AE71800A5E76A4625
:100800003021BB6A521899462378E76813706368F1
:1008100010AEA5680D930E9618970F2F3DD8012F97
:1008200066D16A4640212B78521813703300002598
:100830000F97DD55626A236A0020D11A884600218D
:100840001695149015919A423FD04346002B54DBE5
:10085000404606F083FF4346216A646AC3180500D8
:10086000641A149015901693012C54DD220015F093
:10087000E3FD2C190CA81594C8471498002803D040
:100880001699091A06F072FF0E98B04200D14FE790
:100890001099013106F06AFF4AE7002218A90EA854
:1008A0000CF0D2FB189B0E9010933A00290006F032
:1008B0004FFF189F0E9BBAE73B00002E00D163E765
:1008C00038000EE00024229680E743460024169369
:1008D000CFE700220CA91AA80CF0B6FB0C9B1A90CB
:1008E0001C933200414606F033FF0C9E1A9B4BE7E7
:1008F0003300002F9BD03000D7E70CF049FA012ECF
:1009000000D0F9E60B780370F6E6012C00D05DE725
:100910000B7803705AE7012CABD10B780370A8E772
:10092000842900200368F0B54546DE4657464E460A
:100930009A46E0B515005246436887B09A1AD2101D
:10094000019393009B18884619015B1819025B18E4
:1009500019045B185B009B186E4A8346934200D1D2
:10096000D4E0414650460C1A01998A4500D1ADE0C9
:1009700059008B4200D990E0002900D0A9E018234B
:1009800002930023994603934C4420002E686D681F
:100990000830206005950F2D00D9A3E0012D00D16E
:1009A0009DE0002D00D0A5E0002365604355C245C1
:1009B00025D0564655464C46474608362000083056
:1009C00020602B686A68B34200D172E02360AB6894
:1009D0001835A360626018361834BD42EED13A0073
:1009E0005346B846183AD21A4B4BD2085343DB0051
:1009F000DA089B089B18DB0030334B440293019BC1
:100A0000434532D046464546029C083609E02360FD
:100A1000AB681835A360019B676018361834AB4289
:100A200011D020002B6808306F682060B342EED1EF
:100A300031007A1C06F08CFE019B18356760183671
:100A40001834AB42EDD14246019B9F1A183F324BFE
:100A5000FF087B43DB00DB0801335A00D318029AFE
:100A6000DB0094469C44634602935346002B06D019
:100A70005B46996853465046C91A06F077FE5B46B6
:100A80004A461A60029A5A60039A9A6007B0F0BC0C
:100A9000BB46B246A946A046F0BD204E300006F047
:100AA0005DFE330081464B44039318234B4402936D
:100AB0006AE73100013206F04BFE6B68183563605F
:100AC00018361834BD4200D078E788E7591C013346
:100AD000E3D2914215D84E007618F600DEE733785F
:100AE000237261E70022200005A90CF0ADFA059BF6
:100AF0002060A3602A00310006F02AFE059D2068D0
:100B000052E711004E007618F600C7E704480CF0D3
:100B10007FF9C04655555505ABAAAA0AF8FFFF7FD5
:100B2000D8790110F8B54546DE4657464E4603686B
:100B3000E0B5934646682F4A984605000F00F31A21
:100B4000934253D04146791A8A46002B44D09146AD
:100B50005900994243D2484606F000FE5B46524691
:100B60001B7804008354012353449B46F61B002A40
:100B700027DC8344002E0DDC43465E44002B19D154
:100B80002C604C446E60AC60F0BCBB46B246A946DB
:100B9000A046F8BD32003900584606F0D9FD43465C
:100BA0005E44002BECD005E032003900584606F0D8
:100BB000CFFD5E444346A968C91A404606F0D6FDFB
:100BC000DEE7414615F038FCA344002EECDC43463A
:100BD000A9685E44C91AF0E701239946BBE7802360
:100BE00089461B069942B6D39146B4E702480CF0F9
:100BF0000FF9C046FFFFFF7FD8790110F8B54546D1
:100C0000DE4657464E460368E0B5934646682F4A8F
:100C1000984605000F00F31A934253D04146791AC3
:100C20008A46002B44D091465900994243D2484607
:100C300006F094FD5B4652461B7804008354012362
:100C400053449B46F61B002A27DC8344002E0DDC10
:100C500043465E44002B19D12C604C446E60AC605E
:100C6000F0BCBB46B246A946A046F8BD32003900EA
:100C7000584606F06DFD43465E44002BECD005E07F
:100C800032003900584606F063FD5E444346A968C9
:100C9000C91A404606F06AFDDEE7414615F0CCFB76
:100CA000A344002EECDC4346A9685E44C91AF0E771
:100CB00001239946BBE7802389461B069942B6D398
:100CC0009146B4E702480CF0A3F8C046FFFFFF7F4F
:100CD000D8790110F0B54546DE464E465746E0B598
:100CE000B3B00AAB9B460CAB5A460A930023536041
:100CF000137212AA039110AD10923D21002280467A
:100D00002B726B600CF022FA0600431C17D110986E
:100D100012AB984203D0A968013106F027FD0A986A
:100D20000CAB984204D05B469968013106F01EFD79
:100D300033B0F0BCBB46B246A946A046F0BD29ABD5
:100D40009A46279343461B68994643465F68874205
:100D500000D907001C970F2F00D968E2012F00D09F
:100D600059E24B461B7827AC23725246002367603A
:100D7000D355279B0A98534500D1D7E20CAF289949
:100D8000299AB84200D19EE25F460A93BF680B9150
:100D90000C92002800D199E22790A760002363609D
:100DA00003702798504503D0A168013106F0DEFC9E
:100DB00043465B6801369E4200D94CE35246279277
:100DC00042461768BF199E1B1C960F2E00D94AE297
:100DD000012E00D11CE2002E00D002E35246002377
:100DE00066609355279B1098534500D18EE212AE52
:100DF0002899299AB04200D15CE2AE681093119113
:100E00001292002800D158E22790A6600023636068
:100E100003702798504503D0A168013106F0A6FC65
:100E2000BE4E30000BF0F2FD002800D00FE2002390
:100E30000027079308930993029301933A002C210A
:100E400028000CF083F90600431C37D06B68F21BB6
:100E50009F4200D9FAE25146216029688946B94487
:100E6000DF1B974200D917001C970F2F00D9FFE016
:100E7000012F00D1F8E0002F00D0BDE05246002342
:100E80006760D3556768002F00D0C3E0771C3A0035
:100E90002C2128000CF05AF9013000D1DBE0206849
:100EA0005045CBD0A168013106F060FC3A002C21FE
:100EB00028000CF04BF90600431CC7D16B689F4219
:100EC00000D9C3E2109E18AAF619DF1B16922797C5
:100ED0000F2F00D9D6E1012F00D1A2E1002F00D0C1
:100EE00081E218AA00231797D355179E002E00D130
:100EF00020E100230022169905E00133DBB21A003D
:100F00009E4200D822E28A5C303A092AF5D9089B31
:100F10000493019B5A1E934103225B421A40931C87
:100F200002937F4E30000BF071FD7E4B99460028F6
:100F300000D00AE1079E049B32789F1B4B461B782A
:100F40009A4200D115E1029B2370039B63602BAB97
:100F5000A36043461B68994643465B6898461C93CA
:100F60000F2B00D9C2E1012B00D1BBE1002B00D037
:100F70003BE22BAA43464146E36000235354049AC4
:100F800023626362A362964200D18AE1002F00DAF5
:100F90003FE2380006F0E2FBC31998462062606227
:100FA000A362012F00D14BE23A00310015F044FA60
:100FB0004346584621006362FFF756FB206A00282B
:100FC00003D0A16A091A06F0D1FBA0682BAB9842A6
:100FD00003D02169013106F0C9FB099C169818ABB2
:100FE000A41B984203D01899013106F0BFFB2100E1
:100FF000300006F0BBFB8AE650463A00494606F050
:10100000A7FB00231C9F22686760D3556768002FE9
:1010100000D13BE70022216804E00133DBB21A0073
:10102000BB422ED28A5C303A092AF6D9019B5A1E5D
:10103000934103225B421A40931C0293019B771C4D
:101040000133DBB23A002C21280001930CF07EF82A
:10105000013000D023E72798504500D12EE7A16842
:10106000013106F083FB29E74B461B78237205E725
:10107000002220001CA90BF0E7FF1C9B2060A3604E
:10108000BBE7294B5A6899469B6804929A4200D163
:1010900022E110000830106023681C9705930F2F81
:1010A00000D9A4E0012F00D0AAE01B78049A1372A3
:1010B00013005F600023C3554B464A465B681833F4
:1010C00053602368994614F08FFE0368049314F06C
:1010D0008BFE00230A22036006A9484614F0D2FAC8
:1010E000069B0700994500D1BDE114F07DFE036821
:1010F000222B00D1B4E114F077FE0368002B00D15D
:10110000D3E00899099BFFB21CAA1770994200D13D
:1011100063E10F700131089190E7C0464C2900202F
:1011200048290020AC290020142A0020220007A80A
:10113000FFF764FDCD4E089B300004930BF066FC76
:10114000CB4B9946002800D1F4E600234A46C94813
:101150009362D362136315F049FB30000BF072FC0D
:10116000079E049B32789F1B4B461B789A4200D007
:10117000E9E6582206AB9B18029A68211A70039B75
:1011800006AA1D93012320AC1F9352182F331E94DF
:1011900013800023249325932693002F00D118E178
:1011A00000DA36E1380006F0D9FAC31998462490DF
:1011B00025902693012F00D145E13A00310015F02A
:1011C0003BF9434658461CA92593FFF755F9249847
:1011D000002803D02699091A06F0C8FA1E98A042E2
:1011E00000D1FAE62099013106F0C0FAF5E60022B6
:1011F00004981CA90BF028FF049A1C9B10609360B4
:101200003A00059906F0A4FA049B1C9F186850E761
:101210003B782372E2E527AC002F00D1A5E55046CC
:101220000EE04821337806AA5218137059E627AC0D
:10123000002220001CA90BF007FF1C9B2790A36035
:101240003A00494606F084FA1C9F279A8EE5002250
:10125000894B8A481A605A609A6015F0C7FA3000C4
:101260000BF0F0FBE3E5002220001CA90BF0ECFEE4
:101270001C9B2790A3603200390006F069FA1C9E7F
:10128000279AACE50022210016A80BF0DDFE279B73
:10129000169018933A00310006F05AFA279F169AD2
:1012A00020E698462362A36282E614F09DFD049B2B
:1012B000036026E71093119112925346279329ABAE
:1012C0009A461800A2E50A930B910C925346279375
:1012D00029AB9A46180061E5110048462200FFF745
:1012E00021FBEEE64B461B78237442E60022504673
:1012F0001CA90BF0A9FE1C9BA06023614246494635
:1013000006F026FA1C9BA268984633E66268002A1B
:1013100007D0012A00D189E0514606F019FA626827
:10132000109800236A60835427986FE56268002A4A
:1013300006D0012A7FD0514606F00AFA62680A9860
:101340005B465A6000238354279827E54A4F7B6801
:101350009946BB68994563D048464B4608301860AB
:10136000169B279601930F2E41D8012E49D14A464C
:101370001B7813724B465E60002383557B681833DD
:101380007B60169F14F030FD0368994614F02CFD25
:1013900000230A2203601CA9380014F073F91C9B77
:1013A00006009F425FD014F01FFD0368222B57D028
:1013B00014F01AFD0368002B2DD00899099BF6B292
:1013C0002670994200D1B1E64B1C0E70049308932D
:1013D000A7E5984624972697F3E607A8FFF70EFCA3
:1013E0002CE6504647E718A854E72BA886E70022CA
:1013F000210048460BF028FE4B464A461860279BC2
:1014000093603200019906F0A3F94B46279E1868B5
:10141000B0E70BF0BDFC14F0E7FC4B460360CCE7F3
:101420004946380016AAFFF77DFAAAE7237A037027
:101430006268109875E7237A037062680A987FE7FC
:1014400033780370B4E533780370BAE63A000C4998
:101450000C480BF00DFD320009490A480BF008FD5D
:1014600009480BF0EDFC08480BF0BAFC48290020B5
:10147000AC29002009030010142A0020B503001035
:10148000F47901100C7A0110447A0110F8B5454640
:10149000DE4657464E460368E0B5934646682F4AF7
:1014A000984605000F00F31A934253D04146791A2B
:1014B0008A46002B44D091465900994243D248466F
:1014C00006F04CF95B4652461B7804008354012316
:1014D00053449B46F61B002A27DC8344002E0DDC78
:1014E00043465E44002B19D12C604C446E60AC60C6
:1014F000F0BCBB46B246A946A046F8BD3200390052
:10150000584606F025F943465E44002BECD005E032
:1015100032003900584606F01BF95E444346A9687C
:10152000C91A404606F022F9DEE7414614F084FF6E
:10153000A344002EECDC4346A9685E44C91AF0E7D8
:1015400001239946BBE7802389461B069942B6D3FF
:101550009146B4E702480BF05BFCC046FFFFFF7FFB
:10156000D8790110F0B5454657464E46DE469046BE
:10157000E0B500221F00002393B0029203930023E2
:101580000A780E001C9D01900493002A00D124E1EA
:10159000002400218C4265D00A70013103917278D9
:1015A0000136002AF6D13D2205AE3270A14200D1AB
:1015B00017E10A70013103912B78002B17D08C4270
:1015C00000D11EE10B70013103916B78002B0ED01E
:1015D000A14200D11DE10B7001310391AB78002BCA
:1015E00005D0A14200D11BE10B7001310391002F06
:1015F00044D02C2333708C4200D1DEE00B700131DB
:1016000003917B1E9B460A239A4622330025994666
:101610000FE0A14200D1B7E00B70013103914B46BE
:1016200033708C4216D00B70013103910135BD42ED
:101630002CD243465B5D3033DBB233705D45E8D17D
:10164000A14200D1B1E00B700131039153463370D8
:101650008C42E8D12100320002A8FFF717FF03995E
:10166000049CE3E73200210002A80136FFF75AFA92
:1016700032780399049C002A8CD194E70A233370B2
:101680008C4200D1A1E00B70013103910023337033
:10169000A14200D1ADE00B7001310391029D491BC5
:1016A0004B1C67D0052959D96B1CF31A022B55D94D
:1016B000AB0753D12A6801318B080592012B00D169
:1016C000B5E06A680692022B25D0AA680792032B20
:1016D00021D0EA680892042B1DD02A690992052BB3
:1016E00019D06A690A92062B15D0AA690B92072BAA
:1016F00011D0EA690C92082B0DD02A6A0D92092BA1
:1017000009D06A6A0E920A2B05D0AA6A0F920B2B97
:1017100001D0EB6A109303230B420ED00A009A43C8
:101720001300AA5CF2545A1C8A4206D2A85C023307
:10173000B054994201D9EA5CF254019800282BD0A8
:10174000310000F089FB2800611B06F00FF813B090
:10175000F0BCBB46B246A946A046F0BD02AA0B208B
:101760009446012302316F1E6044FA5CC254013377
:101770008B42FAD1019B002B0ED01800310000F0F3
:101780006BFB002DE3D0DEE72100320002A8FFF75B
:101790007DFE049C039942E73100274800F05CFB82
:1017A0003100264800F058FBEBE72100320002A888
:1017B000FFF76CFE049C039948E72100320002A861
:1017C000FFF764FE0399049C1BE72100320002A886
:1017D000FFF75CFE0399049C58E73D23002405AE07
:1017E00033702100320002A8FFF750FE0399049CD9
:1017F000E2E62100320002A8FFF748FE0399049CAC
:101800004CE721002A0002A8FFF78CF90399049CF9
:10181000DBE66A1C02A8FFF785F90399049CDDE664
:10182000AA1C02A8FFF77EF90399049CDFE62B7936
:1018300005223371042379E7008003400040034010
:1018400010B5034B2622196805F082FF10BDC04673
:10185000EC1E002070B50400EFF3108572B68026F0
:1018600036030121300016F047F885F31088262250
:101870002100300016F008F885F31088034B26226B
:101880002000196805F064FF70BDC046EC1E002002
:10189000F0B504008FB00D00EFF3108772B680260C
:1018A00036030121300016F027F887F310882570E1
:1018B000EFF3108572B626222100300015F0E4FF08
:1018C00085F310880A4B26221968200005F040FF96
:1018D0002278084901A804F011FF01A9064800F088
:1018E000BBFA064801A900F0B7FA0FB0F0BDC04638
:1018F000EC1E00204C7A01100080034000400340A1
:1019000070B50A4EB46AF56AAC4206D020002434A1
:1019100008F030FBA542F9D1B56A002D04D0316B37
:101920002800491B05F022FF70BDC046AC290020ED
:101930000368F0B54E46574645469A46DE46E0B542
:1019400015005246436883B09A1A92100093D30050
:101950009B1A0E000C0099015B18DB009B18D90341
:10196000CB1ADB009B18424A8146934200D17CE0AF
:101970005146711A884600998A4565D059008B42B4
:101980004DD8002963D1434607CD07C307CD07C310
:1019900007CD07C300239B460193B24562D05F4643
:1019A0005546A0463B002A0013CA13C313CA13C3EB
:1019B00013CA13C32800243508F0DCFA3B0024378F
:1019C000B542EFD1483344461D00009BB3420FD0CF
:1019D0001E002B00220083CA83C383CA83C383CA29
:1019E00083C32000243408F0C5FA2435A642F0D180
:1019F0005346002B06D04B46996853465046C91AA9
:101A000005F0B4FE4B465A461A60019A5D609A6032
:101A100003B0F0BCBB46B246A946A046F0BD154F88
:101A2000380005F09BFE3B0083465B440193434630
:101A30005B4407CD07C307CD07C307CD07C35D468A
:101A40002435B245ABD1C0E7591C0133E7D29142EE
:101A500003D8CB005B189F00E2E71100CB005B18B6
:101A60009F00DDE72425009EB3E703480BF0D0F983
:101A7000E3388E03ECFFFF7FD8790110F0B5C6463E
:101A800000B508208AB001F069FC092001F066FC6D
:101A9000002001F063FC012001F060FC022108201D
:101AA00001F044FC0221092001F040FC0221002049
:101AB00001F03CFC0221012001F038FC962127486E
:101AC000890102F0EBFE96212548890102F0E6FE2D
:101AD000244C20000AF09AFF234E002832D1234DD7
:101AE00001AC6B1D984601220023A97A52422000C6
:101AF00008F06AF9200008F07FF9F16A336B994227
:101B000014D00B00220083CA83C383CA83C383CA51
:101B100083C3F36A200024330135F36208F02AFA04
:101B20004545E0D10AB080BCB846F0BD3000220087
:101B30002830FFF7FDFE0135200008F01BFA45456F
:101B4000D1D1EFE700230A48B362F362336314F0A4
:101B50004DFE20000AF076FFC1E7C046004003407A
:101B60000080034048290020AC290020F01E0020FE
:101B700001190010F0B5D64646464F46C0B505F0EF
:101B8000CDFF6B4EB31D9A4601239946D0231B0609
:101B90003400350098462F780135380001F0DEFB1F
:101BA0004B464246BB405362AA45F4D1FFF766FF5D
:101BB000731D9A4601239946D0231B06350098468B
:101BC000EF7B0135380001F0C9FB4B464246BB4074
:101BD00093625545F4D1331D994607239846554BDA
:101BE00000259A46A7790134380001F0B7FB04219B
:101BF000380001F09BFB43467A081A4093009B187B
:101C00004D494E4A9B009A18591815600D604C4971
:101C100059180D604B498C46514663441960402366
:101C200053603F3B13604C45DCD1474F38000AF00E
:101C3000EDFE464C002800D070E02000FFF700FECB
:101C4000012332789340E27E002A35D1D022120659
:101C50009361012372789340227F002A35D1D022EC
:101C6000120693610123B2789340627F002A35D136
:101C7000D022120693610123F2789340A27F002ABA
:101C800035D1D02212069361012332799340E27F4D
:101C9000002A35D1D0221206936101237279934034
:101CA0002022A25C002A35D0D02212065361E0BC6B
:101CB000BA46B146A846F0BDD022120653610123B0
:101CC00072789340227F002AC9D0D0221206536135
:101CD0000123B2789340627F002AC9D0D022120635
:101CE00053610123F2789340A27F002AC9D0D02209
:101CF00012065361012332799340E27F002AC9D052
:101D0000D022120653610123727993402022A25CF3
:101D1000002AC9D1D02212069361C8E70C48A562F7
:101D2000E562256314F062FD38000AF08BFE84E75B
:101D3000F01E0020FFFF00000800054000000540E5
:101D40000C0005401000054048290020AC29002067
:101D50000119001030B583B0FFF70CFF00240225F5
:101D6000802200231749520017480194009509F07A
:101D700061FE802200231549520015480194009508
:101D800009F058FE802200231249520012480194A3
:101D9000009509F04FFE80220023104952001048A0
:101DA0000194009509F046FE032380220D4900931B
:101DB000120100230C48019409F03CFE09F05CFF7D
:101DC000FEE7C046547A011025250010647A011000
:101DD000A5250010747A011025260010807A0110C4
:101DE000352600108C7A01104D26001070B50A4E71
:101DF000B46AF56AAC4206D02000243408F0BAF880
:101E0000A542F9D1B56A002D04D0316B2800491BD9
:101E100005F0ACFC70BDC046AC29002070B50D4D7E
:101E20003222836904000021280005F08BFC002089
:101E300010221100A36919401A42FAD12368DBB2BB
:101E40002B540A2B02D00130C0B2F2E729542800EB
:101E500070BDC046E0290020F0B50C78002C1BD0E6
:101E6000144D002245196F427D410D272023BC46A9
:101E7000114E6D00002A10D1AA5FA24214D08269CF
:101E80001342FCD104600A7801310D3A5442624198
:101E90000C78D2B2002CEDD1F0BD82691342F1D0A2
:101EA00082691342F9D1EDE782691342FCD162469F
:101EB0000260E4E70080FCBF183A0020F0B5274C30
:101EC00087B020000AF0A2FD254E00283AD10A2250
:101ED000002103A805F036FC0822002101A805F026
:101EE00031FC002500241F4F04E00134E4B2243506
:101EF000052C25D0B06A01A9401908F045F86B46B9
:101F00001B79002BF1D0B06A00230122401901A9EE
:101F100008F072F939003278684604F0EFFBB06AD5
:101F20000022401901A908F0EBFA23000134011C3A
:101F30006A4603A8E4B2FEF75FFA2435052CD9D12E
:101F400007B0F0BD00230848B362F362336314F0B6
:101F50004DFC20000AF076FDB9E7C0464829002074
:101F6000AC290020987A0110ED1D001070B50A4EC2
:101F7000B46AF56AAC4206D02000243407F0FAFFB8
:101F8000A542F9D1B56A002D04D0316B2800491B58
:101F900005F0ECFB70BDC046AC290020D02370B525
:101FA0001B06944C5B6822785B0584B0DB0F934280
:101FB00023D1D0231B065B6862781B05DB0F93429D
:101FC00044D1D0231B065B68A278DB04DB0F93426D
:101FD00065D1D0231B065B68E2789B04DB0F93423C
:101FE00000D086E0D0231B065B6822795B04DB0F00
:101FF000934200D0A6E004B070BD7F4E30000AF0DE
:1020000005FD7E4D002800D0BDE0D0231B065B6897
:102010002A785B05DB0F2370492303AD784902AEB4
:102020002800338004F06AFB0523220031000020E1
:102030000095FFF797FA142009F0D2FFD0231B0672
:102040005B6862781B05DB0F9342BAD06A4E3000A2
:102050000AF0DCFC694D002800D09FE0D0231B066D
:102060005B682A781B05DB0F6370492303AD644965
:1020700002AE2800338004F041FB0523220031002A
:1020800000200095FFF76EFA142009F0A9FFD02375
:102090001B065B68A278DB04DB0F934299D0564E97
:1020A00030000AF0B3FC554D002800D081E0D02369
:1020B0001B065B682A78DB04DB0FA370492303ADA2
:1020C0004F4902AE2800338004F018FB052322009C
:1020D000310000200095FFF745FA142009F080FF39
:1020E000D0231B065B68E2789B04DB0F934200D190
:1020F00078E7414E30000AF089FC404D002863D15A
:10210000D0231B065B682A789B04DB0FE37049230E
:1021100003AD3B4902AE2800338004F0EFFA0523FB
:102120002200310000200095FFF71CFA142009F06E
:1021300057FFD0231B065B6822795B04DB0F9342B9
:1021400000D158E72C4E30000AF060FC2B4D0028DF
:1021500045D1D0231B065B682A785B04DB0F237113
:10216000492303AD02AE28002549338004F0C6FAA6
:1021700005232200310000200095FFF7F3F9142019
:1021800009F02EFF37E700231E48AB62EB622B639A
:1021900014F02CFB30000AF055FC36E700231948F8
:1021A000AB62EB622B6314F021FB30000AF04AFCB7
:1021B00054E700231348AB62EB622B6314F016FB69
:1021C00030000AF03FFC72E700230E48AB62EB627E
:1021D0002B6314F00BFB30000AF034FC90E7002373
:1021E0000848AB62EB622B6314F000FB30000AF08E
:1021F00029FCAEE71429002048290020AC29002042
:10220000987A01106D1F0010F0B54E464546DE4627
:102210005746E0B5314B87B00393314B00249946C4
:10222000304B314E9846314D02E00134062C41D0FE
:1022300001221700D021305D090687400B693B4021
:10224000581E8341285D8342EFD0086947468008C5
:10225000104028700869C0081040687008690009BB
:102260001040A870086940091040E87008698009AA
:102270001040287109690398C9090A406A710AF077
:10228000C5FB00281DD104AB9B464F235A46138043
:1022900005AB9A46494618003A7804F02FFA53469F
:1022A0002A0000935946062300200134FFF75AF90B
:1022B000062CBDD107B0F0BCBB46B246A946A0462D
:1022C000F0BD0023074F0A48BB62FB623B6314F07A
:1022D0008DFA03980AF0B6FBD5E7C04648290020DE
:1022E000987A0110AC290020548801101929002087
:1022F0006D1F001030B5124C85B020000AF086FB2F
:10230000104D002811D149232A7803AD02AC2800D2
:102310000D49238004F0F2F90523210000200B4A27
:102320000095FFF71FF905B030BD00230848AB62E8
:10233000EB622B6314F05AFA20000AF083FBE2E709
:1023400048290020AC290020987A01101429002087
:102350006D1F001030B5124C85B020000AF056FBFE
:10236000104D002811D14F232A7803AD02AC28006C
:102370000D49238004F0C2F90623210000200B4AF6
:102380000095FFF7EFF805B030BD00230848AB62B9
:10239000EB622B6314F02AFA20000AF053FBE2E709
:1023A00048290020AC290020987A01101929002022
:1023B0006D1F0010F0B5DE4657464E464546E0B567
:1023C0004D4C8BB020000AF021FB4C4B002800D074
:1023D00085E00393039B4A4D99464A4B2F00029395
:1023E000D0231B069B46484B01269A464C4649E0A3
:1023F0005346BA689B6A45499B1A8B420BD9534690
:10240000FA21986AA389801A8900019304F01AFAC4
:10241000019B834253D853469A6A0023BA602B77B4
:1024200043462B705346986ABB68FA219846424649
:102430006388801A8900019304F004FA019B8342A7
:1024400017D22B7F002B14D04B469B7D984510D084
:10245000039B2F491A7805A8330004F04FF92D4843
:1024600005A9FFF7F9FC2C4805A9FFF7F5FC0023A7
:102470002B7701239C4601360135E14404370234B1
:10248000062E15D05B46029A5B68925DD34001220E
:10249000110019402B7888468B42C3D04B469B7D58
:1024A0005A4253418B42A3D153469A6A0123B5E75E
:1024B0000BB0F0BCBB46B246A946A046F0BD039B9C
:1024C00016491A7805A8330004F018F905A911482F
:1024D000FFF7C2FC104805A9FFF7BEFC9BE71A00F6
:1024E000039300230E489362D362136314F07EF9C2
:1024F00020000AF0A7FA6DE748290020AC29002047
:10250000F028002062880110004005401779000083
:10251000A87A011000400340008003409C7A01101B
:102520006D1F001070B588B004AE1C48FFF776FC34
:102530000296051E2ED014F0C5FB04000300019086
:102540000F2818D8012812D169462A780A74310058
:102550000022039302A8CA541049FEF7BBFB02985D
:10256000B042E2D00499013105F000F9DDE700281E
:10257000EDD0300007E0002201A902A80AF064FDB6
:10258000019B029004932900220005F0E1F8019BD1
:102590000299DDE702480AF00BFCC0460040034008
:1025A000B47A011070B588B004AE1C48FFF736FC51
:1025B0000296051E2ED014F085FB04000300019046
:1025C0000F2818D8012812D169462A780A743100D8
:1025D0000022039302A8CA541049FEF77BFB02981D
:1025E000B042E2D00499013105F0C0F8DDE70028DF
:1025F000EDD0300007E0002201A902A80AF024FD76
:10260000019B029004932900220005F0A1F8019B90
:102610000299DDE702480AF0CBFBC0460080034088
:10262000B47A011010B5FFF7B9FCFFF7C3FEFFF74E
:10263000EBFDF8E710B5FFF78DFEFFF75BFE0248F4
:1026400009F0CEFCF7E7C0468813000010B5FFF78D
:1026500035FC024809F0C4FCF9E7C04688130000C5
:1026600010B500220020024902F0A2FB10BDC046B6
:102670000020042010B5036A8EB004001A780F49B8
:1026800001A804F03BF80E4A6368944663445A1E5E
:1026900093415B429B0B98030A4B01A99C46604403
:1026A000FFF7DAFB236A1B78002B01D00EB010BDB8
:1026B00000220020044902F07BFBF7E7E87A0110D2
:1026C00000C0FCBF008003400020042070B5036AF6
:1026D00004001A785B788EB09A4215D01649013200
:1026E00001A804F00BF8154B60689C466044431E3B
:1026F0009841134B40429C46800B8003604401A9E3
:10270000FFF7AAFB0EB070BD0E4E30000AF07EF946
:102710000D4D002805D1236A28001978FFF7B8F875
:10272000F0E700230948AB62EB622B6314F05EF81C
:1027300030000AF087F9EEE7F47A011000C0FCBF20
:102740000080034048290020AC29002051270010B8
:1027500070B50A4EB46AF56AAC4206D02000243443
:1027600007F008FCA542F9D1B56A002D04D0316B01
:102770002800491B04F0FAFF70BDC046AC290020B8
:10278000F0B50700083704000E0083B00760002989
:1027900023D0080014F096FA050001900F280DD8F8
:1027A000012808D1337823720021019B22686360DD
:1027B000D15403B0F0BD0028F6D008E0002220007C
:1027C00001A90AF041FC0700019B2060A3602A00D8
:1027D0003100380004F0BCFFE6E701480AF0E8FAEF
:1027E000B47A011070B5541A82B005000E0001943D
:1027F0000F2C0FD803681800012C08D10A781A7022
:102800002B680021019A6A60995402B070BD002CB7
:10281000F7D006E0002201A90AF016FC019B28600F
:10282000AB602200310004F093FF2B68E9E7C0465B
:1028300070B5144D040086B028000AF0E7F8124E77
:10284000002813D1114B32780493002303AE04AD5A
:1028500030000F492B7103F051FF60680023002204
:1028600029000096FEF77EFE06B070BD00230948E1
:10287000B362F362336313F0B9FF28000AF0E2F8A1
:10288000E0E7C04648290020AC29002050494E47C7
:10289000987A01105127001070B5194D28000AF0E0
:1028A000B5F8184C00281FD1FA23DB006380164BC3
:1028B00020006360A360154B0021E3602361C823FF
:1028C00005225B001630A38204F03CFF0023202287
:1028D0002000E376E361A354FEF7BCFF2000FEF77F
:1028E000AFFFFFF747F970BD00230948A362E36219
:1028F000236313F07BFF28000AF0A4F8D4E7C04656
:1029000048290020AC290020D007D0079001900171
:102910005127001070B51A4E050030000AF076F805
:10292000184C002820D1296A8B789A009A184B7885
:102930005200013BDBB24B7004335B00296AE318A1
:102940009A80CB784A7898001B185200A2185B0036
:1029500053804B780A79E31820009A75FEF77AFFC6
:102960002000FEF76DFF70BD00230748A362E362FD
:10297000236313F03BFF30000AF064F8D3E7C0464E
:1029800048290020AC29002051270010F8B5026A20
:10299000234B517897785B185E79050033075B0FFE
:1029A0009C00E4181F4B38029C466421C01BA40005
:1029B000644403F01FFF474338026421C01B03F047
:1029C00019FF03041B0CF6071CD5174A1B042168CA
:1029D000164E4B401A4080235B01234330001A609F
:1029E0000AF014F8124C00280ED12B6A20009A78B5
:1029F0005B78E31820331A70FEF72CFF2000FEF7F7
:102A00001FFFF8BD0B4AE2E700230B48A362E36215
:102A1000236313F0EBFE30000AF014F8E5E7C0463C
:102A2000688801100C0005400000FFFF48290020C5
:102A3000AC290020FFFF00005127001070B56F4E39
:102A40000500300009F0E2FF6D4C002800D092E054
:102A50002B6A5A78022A00D19CE0032A60D0012A0E
:102A600003D1D0220421120651619A78022A61D042
:102A7000032A00D1B6E0012A03D1D0220821120690
:102A80005161DA78022A5CD0032A00D1A1E0012A40
:102A900003D1D0221021120651611A79022A57D08F
:102AA000032A00D18CE0012A03D1D0222021120672
:102AB00051615A79022A52D0032A00D177E0012AC3
:102AC00003D1D0224021120651619B79022B4DD0B7
:102AD000032B64D0012B03D1D02380221B065A6123
:102AE000D022012312061169200089081940E176DD
:102AF0001169C908194021771169090919406177DD
:102B0000116949091940A177116989091940E177CB
:102B10001269D20913402022A354FEF79BFE70BD18
:102B2000D02204211206106901429DD091619A7849
:102B3000022A9DD1D022082112069161DA78022A58
:102B4000A2D1D0221021120691611A79022AA7D1AE
:102B5000D0222021120691615A79022AACD1D022CA
:102B60004021120691619B79022BB1D1D0238022A2
:102B70001B069A61B4E700232248A362E362236341
:102B800013F034FE300009F05DFF2B6A5A78022AF8
:102B900000D062E7D022042112069161C7E7D0235A
:102BA00080221B0619690A4225D15A6198E7D02272
:102BB000402112061069014200D185E79161D2E7F8
:102BC000D022202112061069014200D170E79161E4
:102BD000C2E7D022102112061069014200D15BE742
:102BE0009161B2E7D022082112061069014200D19A
:102BF00046E79161A2E79A6172E7C0464829002042
:102C0000AC29002051270010F0B546464F46D64665
:102C1000C0B590B06A460400C56802AF6B1C984608
:102C20000733DB08DB00D31A22009D46836810328D
:102C300002AE0830934200D19DE02269904500D950
:102C400090E00A225A55434641460022E360A368B9
:102C500030005A54A3681900984613F075FD237884
:102C6000E5683B7263687D60FB6018239946B94450
:102C70004B463B610F2D65D8012D59D143461B783A
:102C80003B764B4600227D615A559446236A626A20
:102C90000020D11A8A460021B862F9626146396380
:102CA0009A4249D05346002B67DB504604F056FD4C
:102CB000216A636A05005B1A98465346C3183B6352
:102CC0004346B862F862012B59DD424613F0B4FB6B
:102CD000082045440023002200213818FD6200F03E
:102CE000BBFA0500B86A002803D0396B091A04F052
:102CF0003DFD3869484503D0B969013104F036FD1E
:102D0000002D0ED0204B60689C466044431E9841C5
:102D10001E4B40429C46800B800331006044FFF70D
:102D20009BF8BD460EB0E0BCBA46B146A846F0BD21
:102D3000002DA7D048460EE053463B6300230025F4
:102D40009846C5E710230022F818391D0AF07CF9CF
:102D50007B683861BB612A00414604F0F9FC7D685C
:102D60003B698FE7012300220093290000230AF02A
:102D700093F9A36865E70F2260E70AF009F8012BD1
:102D8000A6D10B780370A3E700C0FCBF008003400E
:102D9000F0B5DE4657464E464546E0B58C6883B0F2
:102DA000824693460091002C42D01368576899469A
:102DB0002369666998463D00B74200D93500002D69
:102DC0000DD02A004146484613F012FB002806D0D9
:102DD00007DBE3680022002B07D01C00E8E7B81BE4
:102DE000F7D5A3680122002BF7D10194002A20D146
:102DF000002D14D02A004946404613F0F9FA002865
:102E00000DD00EDB534652461C60002353605046E3
:102E100003B0F0BCBB46B246A946A046F0BDF01BCD
:102E2000F0D50023524613605346019A5A60EEE7EC
:102E30000C1D009BDB68A34214D0200009F0CAFEE1
:102E40000369466998465B461B6899465B465F681E
:102E50003D00B74202D801940400C9E7019435004F
:102E60000400C5E75246002354601360CFE7C04614
:102E7000F0B5DE464E4645465746E0B589B003926A
:102E800052010C00934602910021031DA344060049
:102E90000025017181600193C36003614161A34515
:102EA0004DD08046002D14D043461E696768736973
:102EB000306999461A002168BB4200D970E0002AA7
:102EC00045D013F095FA002801D14B46D81B0028B5
:102ED00040DB2200414606A8FFF75AFF079E002E5E
:102EE00029D00122069B9146002B33D0302004F0DC
:102EF00035FC0500030022686768183092461033DD
:102F0000286105970F2F3CD8012F37D113782B76E6
:102F100000236F612200C3552B001832283303CAE7
:102F200003C32900019B3200484609F06FFE434667
:102F30005D6901355D6120345C45B3D146463000A2
:102F400009B0F0BCBB46B246A946A046F0BD4B4610
:102F5000DF1BBED5019BB34227D0656877692A0085
:102F6000BD421FD8002A05D03169206813F040FA0D
:102F7000002800D1E81BC30F9946B7E7002FC7D040
:102F800007E01800002205A90AF05EF8059B2861F9
:102F9000AB613A00514604F0DBFB059F2869B7E7B7
:102FA0003A008CE73A1EDFD1E4E7012399469DE71A
:102FB000F0B5DE464E4657464546E0B5EBB087498C
:102FC00008A8FFF7DDFB0899099A32AC8A1820009F
:102FD00034AF3297FFF706FC814B8249A36183230C
:102FE0005B00A383033BFF3BA3770EA89A46FFF742
:102FF000C7FB0E990F9A3CAB8A1823623AA89846F1
:10300000FFF7F0FB784BFF25A36300239946A387C6
:103010003E33E554754914A8FFF7B2FB1499159A8D
:1030200044AB8A18236442A8FFF7DCFB704B0222F2
:10303000A3655C23E25262320233E2546D4B1AAE56
:10304000190030009B46FFF79BFB1A9972684CAB46
:103050008A1823664AA8FFF7C5FB674B0122A367BE
:1030600003937C23E2520233E554644920A8FFF71E
:1030700087FB802354AA2099E250219A52A88A18EB
:10308000FFF7B0FB98225E4B5E49A3504A469C2353
:10309000E2520233E55426A8FFF772FBA0235CAA94
:1030A0002699E250279A5AA88A18FFF79BFBB82264
:1030B000554B2CA8A3505246BC23E2520233E55490
:1030C000524B19009A46FFF75BFBC02364AA2C9968
:1030D000E2502D9A62A88A18FFF784FBD8224C4B45
:1030E0002100A350DC234A46E2520233E554D73B89
:1030F000079305AB0093474804AB07320694FFF7EC
:10310000B7FE6AAD203D2B0028680833984262D094
:10311000A968013104F02AFBA542F3D12CA809F0DB
:10312000B1FF26A809F0AEFF20A809F0ABFF3000E0
:1031300009F0A8FF14A809F0A5FF0EA809F0A2FF46
:1031400008A809F09FFF594626A8FFF719FB269902
:10315000279A20008A183297FFF744FB039BFF252C
:10316000A36101235146A3832CA8A577FFF708FB91
:1031700043462C992D9A23628A183AA8FFF732FB0E
:10318000254B2100A3630023A3873E33E5543C3B3A
:10319000219302222148009614AB2094FFF768FE89
:1031A000206A404503D0A16A013104F0DFFA329869
:1031B000B84203D0A168013104F0D8FA2CA809F074
:1031C00061FF26A809F05EFF6BB0F0BCBB46B246BB
:1031D000A946A046F0BDA54294D19FE7087B011007
:1031E0003D2A0010147B0110312800101C7B0110B7
:1031F0008D290010287B0110CD260010347B011092
:1032000099280010447B011015290010507B0110F3
:103210006126001084290020752600106C290020EA
:1032200010B5FFF7C5FE10BD70B50A4EB46AF56A59
:10323000AC4206D02000243406F09CFEA542F9D111
:10324000B56A002D04D0316B2800491B04F08EFABA
:1032500070BDC046AC290020F0B5C64600B51E00C2
:103260002A4B04008AB018000F001500984609F098
:10327000CDFB00280FD1217800291AD1236A626A78
:10328000691CD21A91421ED0002D3AD101200AB0F9
:1032900080BCB846F0BD00221D4B1E489A62DA621F
:1032A0001A6313F0A3FA404609F0CCFB21780029F9
:1032B000E4D0174B184A1B7802A8019100971E21F1
:1032C00003F032FA13E000200133002D04D1DDE7D2
:1032D0000130C4B2A542D9D91C5CB442F8D90C4B18
:1032E0000E4A1B781E21009702A803F01DFA0C4815
:1032F00002A9FEF7B1FD0B4802A9FEF7ADFD0020C3
:10330000C5E7034B084A1B78ECE7C0464829002074
:10331000AC29002029320010587B0110787B011065
:103320000080034000400340687B0110094A10B54B
:1033300094464024830063441A68C000624080348D
:1033400014408022520113431C60034B9C4660448E
:10335000416010BD04C00140004001400123D02263
:103360008340120693629361094A40219446830088
:1033700063441A68C0004A408031114080225201E3
:1033800013431960034B9C46052360444360704718
:1033900004C0014000400140024B18688007C00F84
:1033A0007047C04600C0064070B5EFF3108C72B68F
:1033B0000D4D2B68002BFCD0BFF35F8F0724CB088B
:1033C000C618C05C01230C40A3401C00044003420B
:1033D00007D118433070BFF35F8F2C608CF31088D7
:1033E00070BD100001F0E4FD2C0100D0F8B5474697
:1033F000CE46884680B5EFF3108C72B6214D2C680E
:10340000002CFCD0BFF35F8F9A422CD8D40807273A
:10341000055D061901241740BC402C421FD007212E
:103420000127894609E0D408055D06194C46390094
:103430001440A1400C00294211D001329342F2D233
:1034400001204042BFF35F8F00220E4B1A608CF3C5
:10345000108800280FDBC0BCB946B046F8BD254334
:1034600010003570EEE7BFF35F8F00232B608CF305
:103470001088012040424346002BECD0089801F010
:1034800097FDC0462C0100D00021044B044ABFF335
:103490005F8F02C39342FAD17047C046000100D04B
:1034A000800100D0044A1078431CDBB2172B00D9EE
:1034B000102313707047C046041F002010B5064B40
:1034C000064C82B00100009318221F232000FFF752
:1034D0008DFF02B010BDC046887B011090320020E5
:1034E00001238340002904D0034A1360034A136078
:1034F0007047034A1360FBE780E200E000E100E070
:1035000080E100E001238340014A13607047C04618
:1035100000E200E0084B10309B688000C358002B8D
:1035200007D0064A00209B1A2F229A424041C0B27F
:1035300070470020FCE7C04600ED00E0081F0020B7
:10354000024B10309B688000C058704700ED00E0CF
:1035500070B50D00EFF3108672B60F4A1368002B9A
:10356000FCD0BFF35F8F0D4B10309B6884001B595C
:103570000B4A934203D09D4201D001F037FD074B27
:103580009B681D51BFF35F8FBFF35F8F0022024B1B
:103590001A6086F3108870BD240100D000ED00E0B1
:1035A000CD010010F0B557464E46DE464546E0B523
:1035B00085B0060000911700EFF3108B72B66A4ACF
:1035C0001368002BFCD0BFF35F8F0025674B5D575E
:1035D0009A46002D00DAA9E06B00654C01935B1957
:1035E0009B009846A146C1444B4652469B791036F3
:1035F0001370604BB6009B6899590B1B2F2B33D966
:103600005D4B994200D0ACE0019B42469C465B4B2F
:103610006544AD0063535A4B0232A218043B9B1A17
:103620001B05584A5B0D651913436B80564B0121EE
:10363000AB80FF23AB71009BEF71AB604B460B433C
:1036400019004C4B9B689951BFF35F8FBFF35F8F9D
:103650000022454B1A608BF3108805B0F0BCBB46C6
:10366000B246A946A046F0BD01200A008243D379A4
:103670008C46BB4231D84546130044491B1B5B4175
:103680005943090D3D4B63533D4B02356519043BCE
:103690005B1B1B053B4D5B0D2B43AA464D466B80C8
:1036A0000425AC465546E044131F44441B1B1B0530
:1036B0005B0D1D434B46997100999D809960494669
:1036C000DF71334B01431360BBE75800C018800023
:1036D0002018C179B9422FD902000623D356002BF6
:1036E000F3DA02932B4B61460393131D9A4604238E
:1036F0005B429C46E14450464B461B1A1B055B0D42
:103700009C46204B95719846634640460343938000
:10371000019B5A199200039BA418A380029B1C4A88
:10372000A371009B2260E771A3608AE701F05EFC51
:10373000002553465D574FE7908802934005131DBF
:103740009A46031561469C464046D444634604307D
:103750002018181AE0230005400D1B02184303909F
:10376000C5E701F043FC4FE7240100D0253B0220D0
:10377000081F002000ED00E0CD01001000A1FFFFB8
:10378000381F002000E0FFFF01BDFFFFAAAA0000D4
:103790000148804701BD0000F0B5DE4657464E4661
:1037A0004546E0B50C0083B0EFF3108872B65D4A71
:1037B0001368002BFCD0BFF35F8F5B4B5B499A68AB
:1037C000030010339F00D5598D4239D0A5424AD00D
:1037D000574EAA1B2F2A33D8012292468240914687
:1037E0004846544A1268104001904846524A1060B8
:1037F000BFF35F8FEFF305829346002A35D09342E3
:1038000001D001F0F3FB2A0053469A4390688442AA
:1038100008D175E04B005B189B00F3189868A04234
:1038200034D01A00062151560029F3DA844253D0CD
:10383000019B002B26D04A46404B1A603D4B1A6034
:10384000394B9B68DD51BFF35F8FBFF35F8F002261
:10385000344B1A6088F3108803B0F0BCBB46B24604
:10386000A946A046F0BD0D00EAE72A0053469A4358
:1038700090688442D6D1062010561300002809DA39
:103880000D0031E04A462C4B1A60D9E70620185645
:10389000002822DB42001118890074188A46A168AA
:1038A0009960E179D971062161569971002925DB6A
:1038B000A488F11A6405241554440919E024090563
:1038C000490D24022143998013181D4A9B00117849
:1038D000F31899711070ABE713005946002914D101
:1038E000FF3191711749918015490A789A71164AEA
:1038F0009B1B5B415A43120D0A7099E71349E2E79B
:103900000620105613000028C4DA114A1149D21AB1
:10391000083A5002400D014399800F4952080A436A
:10392000DA8085E7240100D000ED00E0CD01001031
:10393000081F002000E100E080E100E080E200E0FC
:10394000253B022001BDFFFFAAAA000001BD000027
:10395000421F002000F0FFFF00F8FFFF032310B517
:103960000400074A18409446C0009C43FC3383403F
:103970006444226881409A4313000B43236010BDC6
:1039800000E400E070B5EFF3058101240443EFF398
:10399000108C72B6214A1368002BFCD0BFF35F8FE6
:1039A0001F4B05001F4AED1A6D416A43120D1E4D53
:1039B0008900AE6852B27658A6421CD006215956EC
:1039C00091421CD012215956914222D01E215956A3
:1039D000914220D02A2159560324914210D0134BF2
:1039E00019781A708171BFF35F8F00220B4B1A6038
:1039F0008CF3108870BDAB680D4C5C50EFE7002471
:103A00006100091989005B18FF21997109499980A2
:103A1000E5E70124F4E70224F2E7C046240100D0E0
:103A2000081F0020AAAA000000ED00E0253B0220AC
:103A3000CD01001001BDFFFF054B064A1360064A89
:103A4000136053609360D360136153619361704757
:103A50008080808000E400E004E400E010B5084BC2
:103A6000084C82B001000093002205232000FFF7DC
:103A7000BDFC002801DB1F23181A02B010BDC04690
:103A8000A47B01102A3B0220024B9C466144890022
:103A9000016070474000003410B50400FFF702FDDC
:103AA00001002000FFF7F0FF01235B426360BFF3DA
:103AB0005F8F10BD10B50400FFF7F4FC010020007B
:103AC000FFF7E2FF01235B42636000232372BFF331
:103AD0005F8F10BD10B504000120FFF7EFFC034B12
:103AE000C3189B002360BFF35F8F10BD40000034FC
:103AF000034B9C46614489000160BFF35F8F7047B0
:103B00004000003483680B4810B584466144624429
:103B10001201090159189B185C684A6801209442F7
:103B200001D802D00020C0B210BD1A680B689A42BA
:103B3000F9D8F7E7FFFFFF0F074810B50268EFF36A
:103B4000108172B61368002BFCD0BFF35F8F07F0B3
:103B500011F90020002110BDFC390020F8B55746AE
:103B600045464E46DE46E0B598460CAB1C780DAB9C
:103B70001B78070091469A460568002C59D1AC7B0A
:103B8000002C3BD0660029683619033E89194B7812
:103B9000AB73002B00D1EB7300238B704B700B7059
:103BA0002D4BE218BB6812019B184A461A60424628
:103BB0005A600A9A9A600B9ADA6000238B704B70F5
:103BC0000B706B7B9B46002B26D022006B685946FE
:103BD000A86898475B465B005B442A68033B002863
:103BE00012D058469619B070D118D35C002B00D073
:103BF00073705B460C706B735C450ED0F0BCBB46BB
:103C0000B246A946A046F8BDD3189C709119925DA2
:103C1000002A1CD15B460B706C734A464346387DC4
:103C200000F0E8FB051E0AD10E9B002BE6D01D70AC
:103C3000E4E7660029683619033E8919B0E7534660
:103C4000002BF1D12100386800F0ECFDECE75A7050
:103C50005B460B706C73E0E7FFFFFF0FF0B5DE46CD
:103C600057464E4645460023E0B58BB00893684B57
:103C70008200D45800239B46099000F027FB0200E5
:103C80000B006068EFF3108A72B65646016800298F
:103C9000FCD0B246BFF35F8F21684F7B8C46002F6C
:103CA0002ED0A5685B49A94679180901894449467F
:103CB0000868496805000E00AD1A9E41002E5FDDC0
:103CC00002000B00099800F095FB002300229946A2
:103CD000002306920793002398466368BFF35F8F23
:103CE0005A461A608AF310884346002B12D10028E6
:103CF000C3D10BB0F0BCBB46B246A946A046F0BD4E
:103D000000230022994600230692079300230020F7
:103D10009846E2E7089B494618023843C047626864
:103D200005000E00EFF3108A72B61368002BFCD06A
:103D3000BFF35F8F002E41DB2B00334302D023699A
:103D4000002B56D12368D97B002905D01A6848007A
:103D500041185218033A57709A7B002A00D19F737A
:103D6000DF73E268013FD35D0133D3555B462361C6
:103D70006368BFF35F8F5A461A608AF310887CE746
:103D8000002E02D1002D00D09AE70021604600F0FD
:103D9000C7FC4B461A685B68069207934B469B68C4
:103DA00098464B46DB689946E368DB19013B1B7874
:103DB00008931B020343236100208EE72369002B35
:103DC000C0D0069A079B8021521BB34109068B4243
:103DD00002D30122104B5242002104910131039180
:103DE000494601914146200002970091FFF7B6FE37
:103DF000BCE700F06BFA2A00330012184B41802117
:103E000009068B42E8D30122034B5242E4E7C04645
:103E100040370020FFFFFF0FFFFFFF7F10B5144C5E
:103E20006368002B04D00A211248FFF72DFE10BD55
:103E30002300114A1021206800F08EFB032000F0BF
:103E400039FA032000F03EFB03200C4900F08CFA05
:103E5000FFF728FB0A4B9C4603232375D0231B0640
:103E60001B6860446375074B80006060DC60DAE7C4
:103E7000501F0020FC390020053B00105D3C001065
:103E8000400000344037002000487047501F002099
:103E9000F0B557464E464546DE46E0B585B001933F
:103EA00010AB1B780600039300239A4698460092B5
:103EB0007268EFF3108B72B61368002BFCD0BFF35F
:103EC0005F8F3568AC7B002C00D16EE067002B68FB
:103ED0003F19033FDB195A78AA73002A00D1EA730D
:103EE000484AA118B2680901521800980199106057
:103EF00051600E9991600F99D16042469A705A7044
:103F00001A706B7B9946002B00D16BE022006B6826
:103F10004946A86898474B465B004B442A68033BD8
:103F2000002856D04846D719B870D118D35C002B5A
:103F300000D07B704B460C706B734C4553D0F368CC
:103F40001B19013B18787368BFF35F8F42461A60F4
:103F50008BF310885346002B08D10002204305B094
:103F6000F0BCBB46B246A946A046F0BD039B002B61
:103F700046D00E9B00200F99984703000B433FD07B
:103F800004000D1E1ADA009A019B121BAB4100922D
:103F9000019380221206934204D301231A4C5B4200
:103FA00000930194039B9A4682E77368BFF35F8F87
:103FB0001C608BF3108801204042D0E700F086F9A6
:103FC0008022001969411206009001919142E9D3C3
:103FD000E3E7D3189C70D119D25D002A00D05A7043
:103FE0004B460B706C73307D009A019B00F002FA17
:103FF00082460028A3D02100306800F013FC9EE721
:104000000020ACE7FFFFFF0FFFFFFF7F407D704701
:10401000F0B54746CE46040080B50D0096267642A0
:10402000F71736196F4185B08F4215D812D000F0BE
:104030004DF932003B00121A8B41002B16DC002B8D
:1040400039D02000290000F07FF905B0C0BCB94686
:10405000B046F0BD8642EAD90026002700F036F9C6
:1040600032003B00121A8B41002BE8DD0023029343
:104070000193124B3200009311483B00FFF708FFF9
:104080000028DEDBB846B1460E4F0F4E7B6A9845DE
:1040900004D8BA6A9145D4D99845D2D13268EFF3A1
:1040A000108172B61368002BFCD0BFF35F8F300015
:1040B00006F02CFEEAE7002AC3D0D7E7393B001010
:1040C000501F002000400540FC39002070B504005E
:1040D0000D0000F0FBF88023001969411B0699428E
:1040E00002D3012002494042FFF792FF70BDC04653
:1040F000FFFFFF7F70B5060000F0E8F8FA22040029
:104100000D00002330000021920003F0B3F980235A
:10411000001969411B06994202D30120024940421D
:10412000FFF776FF70BDC046FFFFFF7FF0B5EFF3EE
:104130000583CE46474680B505000C0085B0002BB0
:1041400012D02A4A0020536AA34203D3926A013054
:10415000AA4204D305B0C0BCB946B046F0BD1B1B93
:104160005A1E9341D8B2F5E7214E02930193214B99
:104170000200009330000B00FFF78AFE031EE0DD13
:1041800020BF7168EFF3108772B60A68002AFCD06E
:10419000BFF35F8FDAB29446FF2230681A40417B4A
:1041A00061450FD0016889465100884649469044D0
:1041B000414403398978002904D13269934209D1F5
:1041C000316107E0F1681B0A8A18013A1278DBB204
:1041D0009A4207D07368BFF35F8F00221A6087F39B
:1041E0001088AEE7614600F01DFBF3E70040054094
:1041F000501F0020393B0010F0B5EFF30582D64682
:104200004F4646461000C0B51038EFF3108872B61E
:10421000214C2368002BFCD0BFF35F8F01231900D2
:1042200081401E4D1F006963AA461D4D29601D4D2A
:104230002E78AC463500C5402F402B4215D0534652
:104240005F6A194B8500EB589F4218D36246174BA3
:104250008E43EB581670BFF35F8F0022226088F305
:104260001088002B06D0984704E0BFF35F8F2760CB
:1042700088F31088E0BCBA46B146A846F0BD0C4BA6
:1042800092009C46624413681360BFF35F8F002363
:10429000236088F31088EDE7280100D00040054036
:1042A0003C700540293B0220083A0020783100206C
:1042B000D03F054010B5034B01001800024AFFF73C
:1042C00073F810BD243B0220C07B0110034B596AD8
:1042D0000A00986A596A8A42FAD17047004005403C
:1042E00070B504000D00174A536A1900966A536AA4
:1042F0008B42FAD13000190024184D41AB4216D838
:1043000013D0104B2A005B6A9D4203D90D494B6ABA
:104310009342FCD3934207D10A4A02E0516A994280
:1043200002D1916AA142F9D370BDA642E9D9054BE9
:104330005B6A1C005A1CEFD0012201246442E5177D
:104340005242E3E700400540064A536A9942FCD8CE
:1043500007D1044B02E05A6A914202D19A6A824222
:10436000F9D370470040054070B504000D00EFF32D
:10437000108672B61A4A1368002BFCD0BFF35F8F09
:10438000002D1BD02000FFF7DBF8164981420AD030
:104390002000FFF7DDF801212000FFF7A1F801233D
:1043A000A340114A1360114BA400E550BFF35F8F87
:1043B00000220B4B1A6086F3108870BD0121A140CA
:1043C0000A4BA200D5500A4B20001A788A430549AF
:1043D0001A70FFF7E1F900212000FFF781F8E5E707
:1043E000280100D0F94100103860054078310020E4
:1043F000293B0220F0B54F46D6464646C0B50700D9
:104400002B4C616A0D00A66A616AA942FAD18B42FF
:1044100008D805D00120E0BCBA46B146A846F0BD98
:10442000B242F7D9EFF3108A72B622480168002928
:10443000FCD0BFF35F8F0125BD401F491C4C88464F
:10444000097889462943C9B28C46414660460870BE
:10445000391D890065630A511849B8004350216A23
:104460000020294219D0616A0800A66A616A814267
:10447000FAD18B4219D801D1B24216D8CC450BD013
:104480000B4B1F221D625D6301233A4093400C4A8F
:10449000136043464A461A700120BFF35F8F002223
:1044A000044B1A608AF31088B5E70020F5E7C04690
:1044B00000400540280100D0293B0220083A002096
:1044C00080E200E0EFF3108C72B60A490B68002B13
:1044D000FCD0BFF35F8F01238340074A0748136274
:1044E00002789A430270BFF35F8F00230B608CF356
:1044F00010887047280100D000400540293B022069
:1045000070B506000D00140000291DD0002A12D03D
:1045100073688068984762006B0012195B193168F4
:10452000033A033B002808D08A189570C818CB5C62
:10453000002B0BD10470280070BDCB189C7088181C
:104540008A5C002A05D105702000F5E753700470DD
:10455000F1E75A700570F7E710B583600023CCB21D
:1045600043730133426004738373C4730068421C55
:10457000012C05D90133DBB2137003329C42F9D10F
:10458000FF230B405A00D318C01800230338437090
:1045900010BDC04670B505000C1E07D06300016851
:1045A0001B19033BCB185A78002A01D1200070BD9B
:1045B000500080180338091800204E7848702100F8
:1045C00058702800FFF79CFF310004002800FFF717
:1045D000E1FF0600002C20D00028E7D032002100A7
:1045E0006B68A86898477200630092191B192968C4
:1045F000033A033B002808D08A189470C818CB5C93
:10460000002B00D053700670D0E7CB189E7088182E
:104610008A5C002A00D05A7004703400C6E7C04695
:10462000F0B557464546DE464E46E0B50D006F00F4
:1046300001687F19033F0400C85D83B00192CA1965
:10464000002850D043001B18033BCB185E78B446BB
:10465000002E1AD1019E002E42D0E67B002E04D0FF
:1046600073009B19CB18033B5D70A37B002B00D11B
:10467000A573E57300282FD10023537003B0F0BC5D
:10468000BB46B246A946A046F0BD72006244033A5A
:104690008A18517888460021517089465970320035
:1046A00001002000FFF72CFF43468246002B07D075
:1046B0005B0021684344033BCB185A78002A16D18B
:1046C000424651462000FFF71BFF2168019BCA1993
:1046D000002BC2D10028CFD043001B18033BCB18BE
:1046E00000219970C8E7019B002BB6D1C4E75000A8
:1046F000801803380918487883464846487058702F
:1047000041462000FFF7FCFE594680462000FFF797
:1047100041FF414602002000FFF7F2FE8046CFE74E
:10472000F0B557464546DE464E46E0B583B00191AA
:10473000457B04006F0000687F19033FC15DC2190B
:10474000002952D04B005B18033BC3185E78B44677
:10475000002E1CD1019E002E44D0E67B002E04D0FA
:1047600073009B19C318033B5D70A37B002B00D122
:10477000A573E573002931D10023280053706173BC
:1047800003B0F0BCBB46B246A946A046F0BD7200DD
:104790006244033A82185078804600205070814667
:1047A000587032002000FFF7ABFE43468246002BD4
:1047B00007D05B0021684344033BCB185A78002A9A
:1047C00017D1424651462000FFF79AFE019B010097
:1047D0002068C219002BC0D10029CDD04B005B1836
:1047E000033BC31800209870C6E7019B002BB4D18F
:1047F000C2E75000801803380918487883464846B5
:104800004870587041462000FFF77AFE59468046AE
:104810002000FFF7BFFE414602002000FFF770FEB8
:104820008046CEE770B5050000292CD0437B8B4233
:104830002ED04C0000686418033C0419A278002AAA
:1048400021D053009B18033BC25CC6188A4202D198
:104850001BE0002A08D053009B18033BC3185A786A
:104860008A42F6D162785A70002301222800A37090
:104870006370FFF7D5FE697B02002800FFF740FE5A
:104880006873012000E0002070BD63783370EBE7AF
:1048900001221900FFF7C4FEF2E7C046F8B5CE4684
:1048A0004746040080B506200D0000F021FA061EE0
:1048B00053D0534B5349E3185A1E9341802212049C
:1048C00094465B429B0D504A9B05634413604F4ADC
:1048D000136018008A689043FBD1494B4C4AE31897
:1048E00059424B4180215B0049000620995200F05B
:1048F000FFF92900C00001F0A5FFC30932D1402211
:10490000012190466162A362266BF30736D427002B
:104910008025E36A00232C376D013D432B60062080
:10492000266300F0E5F94146800001F08BFF236B20
:1049300006009846DB073BD46023E26A5A400E33F8
:1049400013402B6043462363802310229B013B438B
:104950001A60304B23630323A3643000C0BCB94604
:10496000B046F8BD2C4A93423FD900232B492C4A2C
:104970006162A362266B9046F307C8D52200C0236C
:1049800030329B011343234A06201A60656AA36AEA
:10499000AD01ED1800F0ACF9224901F053FFAD0272
:1049A0000100280001F04EFF0021FFF799FCAEE75F
:1049B0002200C02330329B011343164A06201A609E
:1049C000636AA26A9B019946914400F091F94B46B3
:1049D00014499B02994601F035FF0100484601F059
:1049E00031FF0021FFF77CFCA6E77F229901884672
:1049F00002400132520819009044130082E7C04679
:104A00000080FCBF00C0004000E0004000F000401B
:104A1000183A002001030000FEFF0000FFFF000025
:104A2000C0FF3F004E0E000010B50C2082B000F019
:104A3000B7F9FEF7B1FC002810D08B4B8B488B499F
:104A40008B4A186059609860D96018615961986103
:104A5000D961186259625A6202B010BD854CA067D4
:104A600000F0F4F90122844B1A60636C012BFCD135
:104A70000322824B1A607F4A936B012BFCD10133D6
:104A800001217F4A7F480093043300F037F9052362
:104A90007D4A009301217D4800F030F97C4B5A6833
:104AA000FF2A02D8802252005A608022734B6E4C3B
:104AB00012011A602169002907D0606901F0C2FE65
:104AC000013043001B18033BFDD2E022704B7148BC
:104AD00019680A40026002221968514001320A40F6
:104AE000042102609A681142FCD080216A4A0901BF
:104AF0001160802252005A60684B2361684B5968EC
:104B0000FF2900D85A60032201215B4B1A60644AD6
:104B100093681942FCD0E0231068034061480360A9
:104B2000126803234A40022113405D4A03609368E0
:104B30001942FCD080215C4B0901196080215B4B3C
:104B40004900516063615A4B5A68FF2A00D8596086
:104B50008022584B12011A60E169002907D0606970
:104B600001F070FE013043001B18033BFDD2E0232F
:104B70004F4A11680B4050490B6080214F4B09018F
:104B800019608021394B49005160E3614C4B5A68F0
:104B9000FF2A00D8596080224A4B12011A60216A0C
:104BA000002907D0606901F04DFE013043001B1859
:104BB000033BFDD2E023424A11680B4042490B609F
:104BC0008021424B0901196080235B0053608022E1
:104BD000264BD20223623E4B5968914200D25A6062
:104BE00080223C4B12011A60616A002907D060697B
:104BF00001F028FE013043001B18033BFDD2E023E7
:104C0000334A11680B4034490B608021334B090152
:104C100019608023DB025360154B6362304B5A6886
:104C2000FF2A02D8802252005A6080222D4B1201A6
:104C30001A60A169002907D0606901F003FE013004
:104C400043001B18033BFDD2E023254A11680B40AB
:104C500025490B608021254B0901196080235B00E9
:104C60005360124BA361F7E670250020006CDC0254
:104C70001BB70000008000403CB0004030B0004056
:104C8000002F685900800240008C864700C0024017
:104C9000308000403090004030A00040001BB70042
:104CA0003C8000403C9000403CA0004040597307CD
:104CB0005480004054B000405490004054A0004044
:104CC0006080004060B000406090004060A0004004
:104CD0006C8000406CB000406C9000406CA00040C4
:104CE0004880004048B000404890004048A0004044
:104CF000014B8000C058704770250020F8B50400B3
:104D000022481E0017000D0001F09CFD0100380034
:104D100001F098FD069B36041B031E432368002BFD
:104D200022DB1B4B1B49E3185A1E93418022920140
:104D300094465B421B0B184A1B0363441360174ADB
:104D400013601F008A689743FBD1C022231D920184
:104D50001A4321232560A06013602368002BFCDA2E
:104D60000823E6601360F8BD3F2322681340AB427E
:104D7000D7D1A3681B051B0D8342D2D1EE22E36875
:104D8000D2021340B342CCD1EDE7C046001BB700BE
:104D90000040FDBF00C0004000E0004000F00040C7
:104DA0008023024A9B000343D36270470080054082
:104DB00010B580241C4BE4051C6000281AD0012388
:104DC0001A4C18431A4BDC611A4C44401C6259625D
:104DD00098628021144BC90519601748174908606B
:104DE000E021C9041960002A07D18022144B120661
:104DF0001A6010BD0E4BD861EBE753019B1A9B0064
:104E00009A18802312015B049A4209D213000D49BB
:104E10000B60074B5A608022094BD2051A60E8E705
:104E2000094B1A00F3E7C04600B00540D3C007B0F5
:104E3000008005402D3FF84FFCFF01000820014095
:104E400000A0054018370020FFFFFF00AA23064AF4
:104E50001B0113602F230549D360054B196053686C
:104E6000002BFCDA7047C0460040024000B0FA0058
:104E7000006002402C4B2D4A70B51A602C4A2D4B15
:104E80002D491A6014008B689C43FBD12B4D2C4E8E
:104E9000B54208D2013E761BB60808CD98472300DC
:104EA0000134B342F9D1FFF7BFFD264A214B1A6006
:104EB000214A9368DB43DB01DD09002BF9D1402255
:104EC000214B224C224E9A675A671A67DA66B4421F
:104ED00008D223682000002B20D00C34FEF7EAFD16
:104EE000B442F6D31B4C1C4EC022B168200002F025
:104EF0002FFCB460FEF7C8FAFEF79EFDFEF78EFFAA
:104F0000164C174EB44208D2013E361BB60808CCE8
:104F100098472B0001359E42F9D170BD0834FEF749
:104F2000BBFDB442D5D3DDE700E00040BFCDFBFEC2
:104F3000FE7F3C0000F0004000C0004044250020FF
:104F400054250020FFFFFF0100F001403425002020
:104F5000442500200000002000ED00E05425002042
:104F60007025002000BEFDE7094A030010680028F4
:104F700005D00849C3188B4207D81360704706480C
:104F80000449C31810608B42F7D901204042F5E76D
:104F90000C330020000004202C3B0220002070472E
:104FA000012040427047C04610B5FFF7DBFFC04606
:104FB0000FB400B5084883B002F072FC049B002BCC
:104FC00007D005A91800019101F0C2FB034802F0C7
:104FD00067FC0120FFF7C6FFE47B0110F47B0110A2
:104FE00010B50148FFF7E4FFF87B011010B5014848
:104FF000FFF7DEFF087C01109A4200D28854704708
:105000007047C046F8B55746DE464E464546E0B5C1
:1050100099460A9B07009A460D9B884693460B9C2F
:105020009B073BD10C9B9C423DD21E1B0B94150051
:105030000C005E442A004B46013521002020B84771
:10504000B542F7D1A0460B9C002C20D0454636191E
:105050005346321B013C185D29004B46B847002CD3
:10506000F6D12B00350098460D9B9B070FD55B466C
:10507000EC1A0C9BA3420AD9464698462A004B4696
:10508000310020200134B84701354445F6D32800CB
:10509000F0BCBB46B246A946A046F8BD16001500B6
:1050A000002CD3D1E0E71600002CCFD11500EEE79D
:1050B000F0B54F464646D646C0B584B098460EABCE
:1050C0001B7894469946129B0D9C109F119E9A073F
:1050D00025D4002E65D1BC4221D201221A4092462D
:1050E000202C00D1E9E00C9A551E302202E0202C41
:1050F00000D17BE001342A55A742F8D85246002A55
:105100000DD0B4420BD20C9A551E3022202C02D165
:1051100071E0202C2DD001342A55B442F9D1DA06A1
:105120003CD55A052ED4002C28D10F9A102A00D134
:10513000B6E0022A00D1BCE030220C9C227001248F
:105140004A46002A65D15A0700D499E02B220C9DCB
:105150002A55013403930C9B624600930296434602
:105160000194FFF74FFF04B0E0BCBA46B146A84631
:10517000F0BD2024DA06EDD55A0503D4A74266D047
:10518000B44264D00F9A102A71D0022A57D0202C32
:10519000E0D02200013430250C9FBD54202CD9D002
:1051A000CEE7012215001D40AA461A4236D04A46D3
:1051B000002A4AD10C321A4247D1BC42A1D2202C3B
:1051C00091D1202E17D82024DA06C3D55A051BD436
:1051D000202F01D0202ED5D11F220F9D102D6FD052
:1051E000022DD8D162250C9FBD54D0E75246002A2B
:1051F00079D0202EBDD92024DA06ABD55A0503D4A8
:10520000202FE9D0202EE7D00F9A102AA2D12024F7
:10521000A0E72D220C9D2A5501349BE7BC4200D308
:105220007DE7202C00D05EE7DA06F0D55A05EED4F3
:10523000202F62D0202EEAD134001F22CDE7202C6F
:1052400000D187E722000134CCE7013EB5E7621EBA
:10525000012CC2D10F9A102A00D06AE79A063BD5DA
:1052600058220C9C2270283A6270022468E79A0641
:105270000ED4202CCBD078220C9D2A55013486E701
:105280001A0700D466E720220C9D2A55013461E7F5
:10529000202CBCD058250C9A12191570013476E7D1
:1052A0009A0608D558220C9C227030226270022483
:1052B00046E76032F7E77822F5E7002A83D1B3E7C3
:1052C000A21E013C9D0603D478250C9FBD5460E7C7
:1052D00058250C9FBD545CE778220C9C2270483AFC
:1052E000627002242CE7DA0600D433E75A058BD427
:1052F000202F00D044E71F226FE73C001F226CE7FD
:1053000010B5002800D110BD02F07EFAFBE7C046C0
:10531000F0B557464E464546DE46E0B599B0824662
:10532000894690460893229A239B1000190001F0A9
:105330004AFD002800D0CDE0229823990122D94BC4
:10534000524201F03BFD002800D0C3E0229823998F
:105350000122D54B524201F023FD002800D0B9E0D4
:10536000229823990022002301F01AFD002800D082
:10537000F1E1229E239F8023269ADB001A400D92A2
:10538000269A1A4201D1062324938023269A1B01D0
:105390001A403B0093460996334300D0B3E0002AFD
:1053A00000D0C2E1002300240A930B9400230425BB
:1053B0000993259B0024AB4200D95C1B0223269A4B
:1053C0001A400C92269A134203D06B426B415B4207
:1053D0001C40099B002B07D00A9A0B9B3000390018
:1053E00001F07DFC06000F00229823990022002383
:1053F00001F0D6FC002803D0802109067B181F008D
:10540000269AAA4B009601971340089E0493249B6A
:1054100003940293424633004946504600F0AAF9ED
:105420000400002D67D02020269A49460240130030
:105430005A4253415B42621C18400A9233002200D8
:105440004530D047099A6F1ED317D4185C40D30F4C
:105450009B46002501E0202D13D008AA94461F2367
:10546000200063440A2101355E1901F0EBF9303167
:10547000317020000A2101F0E5F926000400092E10
:10548000E9D805230693002304930A3303935B466C
:10549000089E029310AB0A9A009349463300504687
:1054A00005970195FFF704FE0C9A0400002A22D00C
:1054B0004246851A259AAA421DD9B046574616007B
:1054C00022004346494620200135B8470134AE4208
:1054D000F6D810E0269B42460493259B4946039349
:1054E000249B50460293229B239C00930194089B8B
:1054F00000F040F90400200019B0F0BCBB46B246F1
:10550000A946A046F0BD6A4B78009C46400D604419
:1055100001F06CFC674A684B01F0FFFB674A684B7F
:1055200001F0D4FB674A3B031B0B1A4304000D0038
:1055300009981100644B002201F0BFFB634A644BE1
:1055400001F0EBFB02000B002000290001F0BEFB84
:1055500001F064FC099001F049FC5E4A5E4B0400D6
:105560000D0001F0DAFB00225C4B01F0AFFB01F013
:1055700055FC5B4A5B4B29000C90200001F0CDFBF1
:1055800004000C980D0001F031FC574A574B01F014
:10559000C4FB02000B002000290001F08EFB040078
:1055A0000D0002000B000A940B9501F0B6FB0400FD
:1055B0000D000A980B9902000B0001F087FB0022F6
:1055C0000E900F914A4B2000290001F088FB002229
:1055D000484B01F07BFB02000B002000290001F08A
:1055E0007EFB0022444B01F071FB02000B00200007
:1055F000290001F074FB0A9A0B9B0D008021040026
:10560000C905002001F059FB02000B002000290011
:1056100001F05CFB02000B000E980F9901F05FFB9C
:105620000022284B01F052FB344B0C9C9C466444F6
:105630002305002201F071FB04000D0002000B00A5
:10564000300039000A940B9501F0AAFB00285DD1C7
:1056500023002A00C625099963318D42AD41594680
:105660006D420435002900D1A3E6134363D0300016
:105670003900234A234B01F099FB002807D0002270
:1056800030003900204B01F08BFB002853D1249BC4
:10569000002B00D18DE60D9B5A1E9341249AD31AFC
:1056A000249386E6FFFFEF7FFFFFEFFFFFF7FFFF8B
:1056B00001FCFFFFFB799F501344D33FB3C8608BBD
:1056C000288AC63F0000F03F0000F83F61436F6347
:1056D000A787D23F71A379094F930A400000E03FAA
:1056E0001655B5BBB16B0240EF39FAFE422EE63FCC
:1056F00000002C400000244000001840FF03000080
:105700002D431CEBE2361A3F80842E41099B002278
:10571000013B09932000164B290001F0E0FA0A0032
:10572000010003000A910B9294E7002300240A93DE
:105730000B9400230993249A099B9A4214DDD31AEF
:10574000013B24938023269ADB001A430023002583
:10575000269209932DE6802212069446229B1E0073
:10576000239B63441F0006E600232493EAE7C04618
:1057700000002440F0B54546DE464E465746E0B5AB
:1057800095B08B46904699461E9A1F9B0A90190029
:105790001000209D01F017FB002800D0B0E11E98FA
:1057A0001F990122C74B524201F0FAFA002800D09B
:1057B00037E11E981F990122C34B524201F0FEFAB5
:1057C000002800D0A7E01E981F990022BF4B01F0CF
:1057D000F5FA002800D088E01E981F990022BC4BE3
:1057E00001F0DEFA002800D07FE01E981F99002209
:1057F000002301F0D5FA002800D0FAE000230B9333
:105800008023229C229ADB001C401A4200D102E134
:10581000092D00D87CE106A98C462C001722002314
:105820003021093C62440133D154EF1A202B00D1BE
:1058300032E1A342F7D10022A44B069207931E98AF
:105840001F9901F0EBFA050001F0D0FA02000B00FD
:105850001E981F9901F031FA069A079B01F05DFA34
:105860000890099101F0FEFA060001F0BBFA02006F
:105870000B000898099901F020FA0022954B089036
:10588000099101F09BFA002800D1D2E001363000E6
:1058900001F0A8FA069A079B01F088FA002801D0C7
:1058A00000260135AA46002F00D098E0280001F01C
:1058B0009DFA02000B001E981F9901F0FEF9854B1E
:1058C000002206000F0001F06BFA0CAB9A4600288C
:1058D00045D10022300039007E4B01F06FFA0028DC
:1058E0003DD1EB073BD5013539E0229B424604937D
:1058F000219B594603930A981E9B1F9C0295009377
:1059000001944B46FFF704FD15B0F0BCBB46B24610
:10591000A946A046F0BD229B5B0767D403226E4BCD
:1059200022990192039121990291009342464B469C
:1059300059460A98FFF766FBE6E706AA944617233E
:10594000280063440A2101341E1900F053FF30314E
:10595000280031700A2100F04DFF051E76D0202C62
:10596000EBD10323229A1340012B1DD1219B002B45
:105970001AD00B9B002B00D0BBE0229A0C331342B1
:1059800000D0B6E0219BA34200D887E006AB9C463E
:1059900017223023624404E02199013413558C42CC
:1059A00059D0202CF8D12024229B01940393219BD1
:1059B00002935346B9E706AA944617230A21634483
:1059C000300001341D1900F03DFF303129703000E6
:1059D0000A21013F00F036FF092E46D90600202C8F
:1059E000E9D155460CAB20249A46B8E704223B4B3C
:1059F00096E71E9A1F9B0020002101F05EF901230B
:105A00000B938023229C229ADB001E901F911C4046
:105A10001A4200D0FCE60022314B0627069207937B
:105A20000DE7229B0393219B0293042301932D4BAB
:105A30007BE7002208980999264B01F0B1F900286C
:105A400000D02FE7002E4FD101362BE70323229AF7
:105A50001340012B66D0202CA6D00B9B002B1FD00F
:105A60002D235246135501349EE75546202CB9D0BC
:105A700030233A19002F08D0172006A9013409183D
:105A80000B55202CAED09442F6D10CAB9A462E2367
:105A900052461355013462E72024CCE6202C83D0F3
:105AA000229B5B0708D4229B1B0700D47CE72023A2
:105AB00052461355013477E72B23524613550134D0
:105AC00072E7C046FFFFEFFFFFFFEF7F65CDCD41DF
:105AD00065CDCDC10000E03F1C7C0110147C01109D
