:020000041000EA
:1000000000B5324B212058609868022188439860DF
:10001000D860186158612E4B002199600221596106
:100020000121F02299502B49196001219960352056
:1000300000F044F80222904214D00621196600F024
:1000400034F8196E01211966002018661A6600F04E
:100050002CF8196E196E196E052000F02FF8012189
:100060000842F9D1002199601B49196000215960AB
:100070001A491B48016001219960EB211966A021F2
:10008000196600F012F800219960164914480160C1
:100090000121996001BC002800D000471248134993
:1000A000086003C880F30888084703B5996A0420EC
:1000B0000142FBD001200142F8D103BD02B5186610
:1000C0001866FFF7F2FF186E186E02BD00000240BE
:1000D000000000180000070000035F00212200005C
:1000E000F4000018222000A00001001008ED00E03C
:1000F00000000000000000000000000074B24E7A12
:1001000000200420F7010010C3010010C5010010F9
:10011000C1010010C1010010C1010010C101001097
:10012000C1010010C1010010C1010010C701001081
:10013000C1010010C1010010C9010010CB01001065
:10014000CD010010CD010010CD010010CD01001037
:10015000CD010010CD010010CD010010CD01001027
:10016000CD010010CD010010CD010010CD01001017
:10017000CD010010CD010010CD010010CD01001007
:10018000CD010010CD010010CD010010CD010010F7
:10019000CD010010CD010010CD010010CD010010E7
:1001A000CD010010CD010010CD010010CD010010D7
:1001B000CD010010CD010010CD010010CD010010C7
:1001C00000BE00BE00BE00BE00BE00BEEFF3058054
:1001D000103800BEF2EB8871C4A00110E4A0011039
:1001E0003402001090A31AE700201F49086006C8D7
:1001F00081F3088810471D48006800282FD10DA4FE
:100200000ECC002902D000F012F8F9E71849194A7B
:10021000002000E001C19142FCD1174988471749ED
:1002200088471749884700BEFDE701C901C29A42C5
:10023000FBD37047E4A00110C00000206024002020
:1002400084C40110000004200000042084C40110B4
:10025000001004200010042000000000704709482E
:1002600006F0AEF90047000008ED00E0000000D005
:1002700060240020103A0220A54C0010B91600108E
:10028000D94D00105756000006005250ABB36053D2
:100290002C7A011006005250861C03023C7A011091
:1002A000060052505422A29D487A01100500525077
:1002B000DE65F46884C40110F8B5C04606480749F5
:1002C000091A8B10C90FC91810B5491003D0044B77
:1002D000002B00D0984710BD60240020602400202F
:1002E00000000000054B10B5002B03D00449054861
:1002F00000E000BFFFF7E2FF10BDC04600000000B5
:1003000004360020D877011070B50A4EF469356ABA
:10031000AC4206D02000243409F044FDA542F9D1B6
:10032000F569002D04D0716A2800491B07F036F9E1
:1003300070BDC0469C28002070B50F4E34687568AB
:10034000AC420CD023002068083398420FD0A1683B
:100350001834013107F022F9A542F3D13568002D98
:1003600004D0B1682800491B07F018F970BD183493
:10037000A542E7D1F2E7C046F8280020F0B5C6460E
:1003800000B5070090B0081C90461C000E1C06F03B
:10039000EFFF050006F0CAFF011C301C06F09FFFAE
:1003A000124906F0B6FF06F0E3FF4246631C0190D7
:1003B00006000F49009503A806F0B8F83B199846C7
:1003C0005B79B34202D13B5DAB420AD0094803A935
:1003D00001F00EFA084803A901F00AFA43465E71DB
:1003E0003D5510B080BCB846F0BDC046000020416D
:1003F000D877011000400340008003400368F0B547
:100400004546DE4657464E469A46E0B515005246EA
:10041000436887B09A1AD210019393009B188846BC
:1004200019015B1819025B1819045B185B009B1813
:100430006E4A8346934200D1D4E0414650460C1A9E
:1004400001998A4500D1ADE059008B4200D990E076
:10045000002900D0A9E018230293002399460393B2
:100460004C4420002E686D680830206005950F2DE3
:1004700000D9A3E0012D00D19DE0002D00D0A5E022
:10048000002365604355C24525D0564655464C4627
:10049000474608362000083020602B686A68B3425F
:1004A00000D172E02360AB681835A3606260183633
:1004B0001834BD42EED13A005346B846183AD21A23
:1004C0004B4BD2085343DB00DA089B089B18DB0038
:1004D00030334B440293019B434532D04646454658
:1004E000029C083609E02360AB681835A360019BC5
:1004F000676018361834AB4211D020002B680830E2
:100500006F682060B342EED131007A1C07F038F8F2
:10051000019B1835676018361834AB42EDD142465E
:10052000019B9F1A183F324BFF087B43DB00DB081F
:1005300001335A00D318029ADB0094469C44634668
:1005400002935346002B06D05B46996853465046AB
:10055000C91A07F023F85B464A461A60029A5A60A5
:10056000039A9A6007B0F0BCBB46B246A946A046C3
:10057000F0BD204E300007F009F8330081464B44AF
:10058000039318234B4402936AE73100013206F0CB
:10059000F7FF6B681835636018361834BD4200D019
:1005A00078E788E7591C0133E3D2914215D84E0011
:1005B0007618F600DEE73378237261E70022200028
:1005C00005A90CF059FC059B2060A3602A003100AE
:1005D00006F0D6FF059D206852E711004E00761800
:1005E000F600C7E704480CF02BFBC04655555505EF
:1005F000ABAAAA0AF8FFFF7FE8770110F8B54546D5
:10060000DE4657464E460368E0B5934646682F4A95
:10061000984605000F00F31A934253D04146791AC9
:100620008A46002B44D091465900994243D248460D
:1006300006F0ACFF5B4652461B780400835401234E
:1006400053449B46F61B002A27DC8344002E0DDC16
:1006500043465E44002B19D12C604C446E60AC6064
:10066000F0BCBB46B246A946A046F8BD32003900F0
:10067000584606F085FF43465E44002BECD005E06B
:1006800032003900584606F07BFF5E444346A968B5
:10069000C91A404606F082FFDEE7414615F0E4FD48
:1006A000A344002EECDC4346A9685E44C91AF0E777
:1006B00001239946BBE7802389461B069942B6D39E
:1006C0009146B4E702480CF0BBFAC046FFFFFF7F3B
:1006D000E8770110F8B54546DE4657464E460368B2
:1006E000E0B5934646682F4A984605000F00F31A76
:1006F000934253D04146791A8A46002B44D0914602
:100700005900994243D2484606F040FF5B465246A4
:100710001B7804008354012353449B46F61B002A94
:1007200027DC8344002E0DDC43465E44002B19D1A8
:100730002C604C446E60AC60F0BCBB46B246A9462F
:10074000A046F8BD32003900584606F019FF43466E
:100750005E44002BECD005E032003900584606F02C
:100760000FFF5E444346A968C91A404606F016FFCB
:10077000DEE7414615F078FDA344002EECDC43464D
:10078000A9685E44C91AF0E701239946BBE78023B4
:1007900089461B069942B6D39146B4E702480CF04D
:1007A0004FFAC046FFFFFF7FE8770110F0B54546DE
:1007B000DE464E465746E0B5B3B00AAB9B460CAB9F
:1007C0005A460A9300235360137212AA039110AD84
:1007D00010923D21002280462B726B600CF0CEFB04
:1007E0000600431C17D1109812AB984203D0A96899
:1007F000013106F0D3FE0A980CAB984204D05B4658
:100800009968013106F0CAFE33B0F0BCBB46B2466F
:10081000A946A046F0BD29AB9A46279343461B68DC
:10082000994643465F68874200D907001C970F2FFF
:1008300000D968E2012F00D059E24B461B7827AC63
:100840002372524600236760D355279B0A9853456D
:1008500000D1D7E20CAF2899299AB84200D19EE284
:100860005F460A93BF680B910C92002800D199E271
:100870002790A7600023636003702798504503D03A
:10088000A168013106F08AFE43465B6801369E424C
:1008900000D94CE35246279242461768BF199E1B67
:1008A0001C960F2E00D94AE2012E00D11CE2002E28
:1008B00000D002E35246002366609355279B1098B0
:1008C000534500D18EE212AE2899299AB04200D148
:1008D0005CE2AE68109311911292002800D158E2A8
:1008E0002790A6600023636003702798504503D0CB
:1008F000A168013106F052FEBE4E30000BF09EFFA3
:10090000002800D00FE200230027079308930993E3
:10091000029301933A002C2128000CF02FFB0600D3
:10092000431C37D06B68F21B9F4200D9FAE2514654
:10093000216029688946B944DF1B974200D9170016
:100940001C970F2F00D9FFE0012F00D1F8E0002FF6
:1009500000D0BDE0524600236760D3556768002F82
:1009600000D0C3E0771C3A002C2128000CF006FBD5
:10097000013000D1DBE020685045CBD0A1680131C7
:1009800006F00CFE3A002C2128000CF0F7FA0600C5
:10099000431CC7D16B689F4200D9C3E2109E18AABE
:1009A000F619DF1B169227970F2F00D9D6E1012FDA
:1009B00000D1A2E1002F00D081E218AA00231797EE
:1009C000D355179E002E00D120E100230022169956
:1009D00005E00133DBB21A009E4200D822E28A5CB5
:1009E000303A092AF5D9089B0493019B5A1E93417A
:1009F00003225B421A40931C02937F4E30000BF09F
:100A00001DFF7E4B9946002800D00AE1079E049BFB
:100A100032789F1B4B461B789A4200D115E1029B0E
:100A20002370039B63602BABA36043461B6899460E
:100A300043465B6898461C930F2B00D9C2E1012BFB
:100A400000D1BBE1002B00D03BE22BAA434641463C
:100A5000E36000235354049A23626362A3629642C4
:100A600000D18AE1002F00DA3FE2380006F08EFD67
:100A7000C319984620626062A362012F00D14BE245
:100A80003A00310015F0F0FB4346584621006362FE
:100A900001F0ACFF206A002803D0A16A091A06F011
:100AA0007DFDA0682BAB984203D02169013106F08F
:100AB00075FD099C169818ABA41B984203D0189991
:100AC000013106F06BFD2100300006F067FD8AE67B
:100AD00050463A00494606F053FD00231C9F226809
:100AE0006760D3556768002F00D13BE7002221687B
:100AF00004E00133DBB21A00BB422ED28A5C303AEA
:100B0000092AF6D9019B5A1E934103225B421A40DF
:100B1000931C0293019B771C0133DBB23A002C211A
:100B2000280001930CF02AFA013000D023E727981F
:100B3000504500D12EE7A168013106F02FFD29E7CD
:100B40004B461B78237205E7002220001CA90CF0FD
:100B500093F91C9B2060A360BBE7294B5A68994618
:100B60009B6804929A4200D122E110000830106084
:100B700023681C9705930F2F00D9A4E0012F00D004
:100B8000AAE01B78049A137213005F600023C35518
:100B90004B464A465B68183353602368994615F004
:100BA0003BF80368049315F037F800230A2203602A
:100BB00006A9484614F07EFC069B0700994500D123
:100BC000BDE115F029F80368222B00D1B4E115F03E
:100BD00023F80368002B00D1D3E00899099BFFB2EA
:100BE0001CAA1770994200D163E10F70013108917E
:100BF00090E7C0463C280020382800209C28002090
:100C0000F8280020220007A8FFF764FDCD4E089BBE
:100C1000300004930BF012FECB4B9946002800D114
:100C2000F4E600234A46C948D3611362536215F0C3
:100C3000F5FC30000BF01EFE079E049B32789F1BD4
:100C40004B461B789A4200D0E9E6582206AB9B1827
:100C5000029A68211A70039B06AA1D93012320ACF7
:100C60001F9352182F331E9413800023249325932F
:100C70002693002F00D118E100DA36E1380006F0A3
:100C800085FCC3199846249025902693012F00D106
:100C900045E13A00310015F0E7FA434658461CA9F1
:100CA000259301F0EDFD2498002803D02699091A18
:100CB00006F074FC1E98A04200D1FAE6209901319A
:100CC00006F06CFCF5E6002204981CA90CF0D4F8A0
:100CD000049A1C9B106093603A00059906F050FC42
:100CE000049B1C9F186850E73B782372E2E527AC11
:100CF000002F00D1A5E550460EE04821337806AA22
:100D00005218137059E627AC002220001CA90CF0E1
:100D1000B3F81C9B2790A3603A00494606F030FCCC
:100D20001C9F279A8EE50022894B8A481A605A60D8
:100D30009A6015F073FC30000BF09CFDE3E5002297
:100D400020001CA90CF098F81C9B2790A36032008F
:100D5000390006F015FC1C9E279AACE50022210004
:100D600016A80CF089F8279B169018933A003100CA
:100D700006F006FC279F169A20E698462362A36297
:100D800082E614F049FF049B036026E7109311915B
:100D900012925346279329AB9A461800A2E50A936C
:100DA0000B910C925346279329AB9A46180061E5A4
:100DB000110048462200FFF721FBEEE64B461B7868
:100DC000237442E6002250461CA90CF055F81C9BE7
:100DD000A06023614246494606F0D2FB1C9BA268F4
:100DE000984633E66268002A07D0012A00D189E0DC
:100DF000514606F0C5FB6268109800236A60835470
:100E000027986FE56268002A06D0012A7FD05146F4
:100E100006F0B6FB62680A985B465A60002383546A
:100E2000279827E54A4F7B689946BB68994563D068
:100E300048464B4608301860169B279601930F2EA4
:100E400041D8012E49D14A461B7813724B465E6049
:100E5000002383557B6818337B60169F14F0DCFEFB
:100E60000368994614F0D8FE00230A2203601CA9E7
:100E7000380014F01FFB1C9B06009F425FD014F04B
:100E8000CBFE0368222B57D014F0C6FE0368002B5C
:100E90002DD00899099BF6B22670994200D1B1E68F
:100EA0004B1C0E7004930893A7E598462497269749
:100EB000F3E607A8FFF70EFC2CE6504647E718A814
:100EC00054E72BA886E70022210048460BF0D4FF08
:100ED0004B464A461860279B93603200019906F002
:100EE0004FFB4B46279E1868B0E70BF069FE14F0E5
:100EF00093FE4B460360CCE74946380016AAFFF73D
:100F00007DFAAAE7237A03706268109875E7237A5E
:100F1000037062680A987FE733780370B4E533782A
:100F20000370BAE63A000C490C480BF0B9FE3200E7
:100F300009490A480BF0B4FE09480BF099FE08482D
:100F40000BF066FE382800209C28002009030010C2
:100F5000F828002039030010047801101C780110D3
:100F600054780110F8B54546DE4657464E460368AC
:100F7000E0B5934646682F4A984605000F00F31ADD
:100F8000934253D04146791A8A46002B44D0914669
:100F90005900994243D2484606F0F8FA5B46524659
:100FA0001B7804008354012353449B46F61B002AFC
:100FB00027DC8344002E0DDC43465E44002B19D110
:100FC0002C604C446E60AC60F0BCBB46B246A94697
:100FD000A046F8BD32003900584606F0D1FA434623
:100FE0005E44002BECD005E032003900584606F094
:100FF000C7FA5E444346A968C91A404606F0CEFACD
:10100000DEE7414615F030F9A344002EECDC434600
:10101000A9685E44C91AF0E701239946BBE780231B
:1010200089461B069942B6D39146B4E702480BF0B5
:1010300007FEC046FFFFFF7FE8770110F0B5454689
:1010400057464E46DE469046E0B500221F0000237C
:1010500093B00292039300230A780E001C9D019026
:101060000493002A00D124E1002400218C4265D0A1
:101070000A700131039172780136002AF6D13D22BF
:1010800005AE3270A14200D117E10A70013103911F
:101090002B78002B17D08C4200D11EE10B70013150
:1010A00003916B78002B0ED0A14200D11DE10B7093
:1010B00001310391AB78002B05D0A14200D11BE197
:1010C0000B7001310391002F44D02C2333708C42DC
:1010D00000D1DEE00B70013103917B1E9B460A2399
:1010E0009A462233002599460FE0A14200D1B7E08D
:1010F0000B70013103914B4633708C4216D00B704C
:10110000013103910135BD422CD243465B5D303342
:10111000DBB233705D45E8D1A14200D1B1E00B7084
:1011200001310391534633708C42E8D121003200E3
:1011300002A8FFF717FF0399049CE3E732002100A0
:1011400002A80136FFF75AFA32780399049C002A64
:101150008CD194E70A2333708C4200D1A1E00B704C
:101160000131039100233370A14200D1ADE00B7037
:1011700001310391029D491B4B1C67D0052959D9A8
:101180006B1CF31A022B55D9AB0753D12A680131D6
:101190008B080592012B00D1B5E06A680692022BFC
:1011A00025D0AA680792032B21D0EA680892042B65
:1011B0001DD02A690992052B19D06A690A92062B5B
:1011C00015D0AA690B92072B11D0EA690C92082B53
:1011D0000DD02A6A0D92092B09D06A6A0E920A2B49
:1011E00005D0AA6A0F920B2B01D0EB6A1093032350
:1011F0000B420ED00A009A431300AA5CF2545A1C08
:101200008A4206D2A85C0233B054994201D9EA5C02
:10121000F254019800282BD0310000F0E9FA2800A0
:10122000611B06F0BBF913B0F0BCBB46B246A94641
:10123000A046F0BD02AA0B209446012302316F1E86
:101240006044FA5CC25401338B42FAD1019B002BFB
:101250000ED01800310000F0CBFA002DE3D0DEE70D
:101260002100320002A8FFF77DFE049C039942E7AB
:101270003100274800F0BCFA3100264800F0B8FAE7
:10128000EBE72100320002A8FFF76CFE049C0399F3
:1012900048E72100320002A8FFF764FE0399049C8E
:1012A0001BE72100320002A8FFF75CFE0399049CB3
:1012B00058E73D23002405AE33702100320002A818
:1012C000FFF750FE0399049CE2E62100320002A8D9
:1012D000FFF748FE0399049C4CE721002A0002A86E
:1012E000FFF78CF90399049CDBE66A1C02A8FFF760
:1012F00085F90399049CDDE6AA1C02A8FFF77EF994
:101300000399049CDFE62B7905223371042379E7E6
:10131000008003400040034001707047FA23DB0067
:1013200010B54380074B052243608360064B0121C3
:10133000C3600361C8235B008382163006F01AF98C
:1013400010BDC046D007D0079001900170B50A4E7D
:10135000F469356AAC4206D02000243408F022FD3E
:10136000A542F9D1F569002D04D0716A2800491B06
:1013700006F014F970BDC0469C2800200368F0B543
:101380004E46574645469A46DE46E0B5150052465B
:10139000436883B09A1A92100093D3009B1A0E00F0
:1013A0000C0099015B18DB009B18D903CB1ADB00FA
:1013B0009B18424A8146934200D17CE05146711A03
:1013C000884600998A4565D059008B424DD800293E
:1013D00063D1434607CD07C307CD07C307CD07C376
:1013E00000239B460193B24562D05F465546A04616
:1013F0003B002A0013CA13C313CA13C313CA13C36F
:101400002800243508F0CEFC3B002437B542EFD14C
:10141000483344461D00009BB3420FD01E002B00F2
:10142000220083CA83C383CA83C383CA83C32000C1
:10143000243408F0B7FC2435A642F0D15346002BE3
:1014400006D04B46996853465046C91A06F0A6F88E
:101450004B465A461A60019A5D609A6003B0F0BC30
:10146000BB46B246A946A046F0BD154F380006F06F
:101470008DF83B0083465B44019343465B4407CDB4
:1014800007C307CD07C307CD07C35D462435B24563
:10149000ABD1C0E7591C0133E7D2914203D8CB004E
:1014A0005B189F00E2E71100CB005B189F00DDE7AF
:1014B0002425009EB3E703480BF0C2FBE3388E03FC
:1014C000ECFFFF7FE8770110F0B5C64600B50820B5
:1014D0008AB001F05BFE092001F058FE002001F007
:1014E00055FE012001F052FE0221082001F036FED7
:1014F0000221092001F032FE0221002001F02EFE1F
:101500000221012001F02AFE96212748890103F0DB
:10151000DDF896212548890103F0D8F8244C2000F5
:101520000BF08CF9234E002832D1234D01AC6B1DFA
:10153000984601220023A97A5242200008F05CFB61
:10154000200008F071FB316A736A994214D00B00D5
:10155000220083CA83C383CA83C383CA83C3336A13
:10156000200024330135336208F01CFC4545E0D1EE
:101570000AB080BCB846F0BD300022001C30FFF736
:10158000FDFE0135200008F00DFC4545D1D1EFE707
:1015900000230A48F3613362736215F03FF82000BC
:1015A0000BF068F9C1E7C0460040034000800340EB
:1015B000382800209C280020DC1D00204D1300103E
:1015C000F8B5CE46474680B506F0C0F9284CD0277E
:1015D000A31D99460123250098463F062E78013524
:1015E000300001F0D3FD4346B3407B624D45F5D159
:1015F000FFF76AFF631D99460123D027250098460F
:101600003F06EE7B0135300001F0C0FD4346B3409C
:10161000BB624D45F5D1231D9846164B0727002583
:101620009946A6790134300001F0B0FD0421300064
:1016300001F094FD72083A4093009B180E490F4A3E
:101640009B009A18591815600D600D4959180D60C6
:101650000C498C46494663441960402353603F3B24
:101660001360A045DDD1C0BCB946B046F8BDC04648
:10167000DC1D0020FFFF00000800054000000540C1
:101680000C0005401000054070B50A4EF469356A3B
:10169000AC4206D02000243408F084FBA542F9D1E6
:1016A000F569002D04D0716A2800491B05F076FF0A
:1016B00070BDC0469C28002030B583B0FFF780FF86
:1016C000234D28000BF0BAF8224C002835D1200019
:1016D000FFF724FE00240225802200231E49520029
:1016E0001E48019400950AF0BDF8802200231C4991
:1016F00052001C48019400950AF0B4F8802200239F
:10170000194952001948019400950AF0ABF880225B
:101710000023174952001748019400950AF0A2F8D7
:1017200003238022144900931201002313480194DB
:101730000AF098F80AF0B8F9FEE700231048E361D0
:101740002362636214F06AFF28000BF093F8BEE78F
:10175000382800209C2800205C780110E920001027
:101760006C780110692100107C780110E9210010CB
:1017700088780110F92100109478011011220010CE
:101780008916001070B50A4EF469356AAC4206D06D
:101790002000243408F006FBA542F9D1F569002D9C
:1017A00004D0716A2800491B05F0F8FE70BDC046E0
:1017B0009C28002070B50D4D322283690400002161
:1017C000280005F0D7FE002010221100A36919405F
:1017D0001A42FAD12368DBB22B540A2B02D0013013
:1017E000C0B2F2E72954280070BDC046C4280020CA
:1017F000F0B50C78002C1BD0144D002245196F4217
:101800007D410D272023BC46114E6D00002A10D1CA
:10181000AA5FA24214D082691342FCD104600A7804
:1018200001310D3A544262410C78D2B2002CEDD114
:10183000F0BD82691342F1D082691342F9D1EDE71C
:1018400082691342FCD162460260E4E70080FCBF7B
:10185000FC380020F0B5274C87B020000AF0EEFFDE
:10186000254E00283AD10A22002103A805F082FE65
:101870000822002101A805F07DFE002500241F4F4D
:1018800004E00134E4B22435052C25D0F06901A927
:10189000401908F091FA6B461B79002BF1D0F069E2
:1018A00000230122401901A908F0BEFB390032785B
:1018B000684604F03BFEF0690022401901A908F0D7
:1018C00037FD23000134011C6A4603A8E4B2FEF789
:1018D00055FD2435052CD9D107B0F0BD00230848AB
:1018E000F3613362736214F099FE20000AF0C2FFC4
:1018F000B9E7C046382800209C280020A0780110B5
:101900008517001070B50A4EF469356AAC4206D0EE
:101910002000243408F046FAA542F9D1F569002DDB
:1019200004D0716A2800491B05F038FE70BDC0461E
:101930009C280020D02370B51B06944C5B6822784D
:101940005B0584B0DB0F934223D1D0231B065B6879
:1019500062781B05DB0F934244D1D0231B065B68E2
:10196000A278DB04DB0F934265D1D0231B065B68B2
:10197000E2789B04DB0F934200D086E0D0231B0665
:101980005B6822795B04DB0F934200D0A6E004B0D1
:1019900070BD7F4E30000AF051FF7E4D002800D010
:1019A000BDE0D0231B065B682A785B05DB0F237044
:1019B000492303AD784902AE2800338004F0B6FD18
:1019C00005232200310000200095FFF737FB14208B
:1019D0000AF01EFAD0231B065B6862781B05DB0F3A
:1019E0009342BAD06A4E30000AF028FF694D0028B1
:1019F00000D09FE0D0231B065B682A781B05DB0F15
:101A00006370492303AD644902AE2800338004F0BB
:101A10008DFD05232200310000200095FFF70EFB0D
:101A200014200AF0F5F9D0231B065B68A278DB04CA
:101A3000DB0F934299D0564E30000AF0FFFE554D11
:101A4000002800D081E0D0231B065B682A78DB04E5
:101A5000DB0FA370492303AD4F4902AE280033804A
:101A600004F064FD05232200310000200095FFF7FB
:101A7000E5FA14200AF0CCF9D0231B065B68E27863
:101A80009B04DB0F934200D178E7414E30000AF00F
:101A9000D5FE404D002863D1D0231B065B682A7811
:101AA0009B04DB0FE370492303AD3B4902AE2800E2
:101AB000338004F03BFD0523220031000020009517
:101AC000FFF7BCFA14200AF0A3F9D0231B065B68C9
:101AD00022795B04DB0F934200D158E72C4E300093
:101AE0000AF0ACFE2B4D002845D1D0231B065B68C5
:101AF0002A785B04DB0F2371492303AD02AE280073
:101B00002549338004F012FD052322003100002016
:101B10000095FFF793FA14200AF07AF937E70023CB
:101B20001E48EB612B626B6214F078FD30000AF006
:101B3000A1FE36E700231948EB612B626B6214F0BB
:101B40006DFD30000AF096FE54E700231348EB6168
:101B50002B626B6214F062FD30000AF08BFE72E7BC
:101B600000230E48EB612B626B6214F057FD3000CE
:101B70000AF080FE90E700230848EB612B626B625D
:101B800014F04CFD30000AF075FEAEE7042800208A
:101B9000382800209C280020A0780110051900108A
:101BA000F0B54E464546DE465746E0B5314B87B068
:101BB0000393314B00249946304B314E9846314DBA
:101BC00002E00134062C41D001221700D021305D03
:101BD000090687400B693B40581E8341285D8342BC
:101BE000EFD0086947468008104028700869C0088F
:101BF00010406870086900091040A8700869400921
:101C00001040E8700869800910402871096903983C
:101C1000C9090A406A710AF011FE00281DD104ABFF
:101C20009B464F235A46138005AB9A4649461800F7
:101C30003A7804F07BFC53462A0000935946062369
:101C400000200134FFF7FAF9062CBDD107B0F0BC33
:101C5000BB46B246A946A046F0BD0023074F0A483E
:101C6000FB613B627B6214F0D9FC03980AF002FE30
:101C7000D5E7C04638280020A07801109C28002015
:101C80002C860110092800200519001030B5124CCF
:101C900085B020000AF0D2FD104D002811D1492353
:101CA0002A7803AD02AC28000D49238004F03EFCE5
:101CB0000523210000200B4A0095FFF7BFF905B06E
:101CC00030BD00230848EB612B626B6214F0A6FC68
:101CD00020000AF0CFFDE2E7382800209C280020F1
:101CE000A0780110042800200519001030B5124C0E
:101CF00085B020000AF0A2FD104D002811D14F231D
:101D00002A7803AD02AC28000D49238004F00EFCB4
:101D10000623210000200B4A0095FFF78FF905B03C
:101D200030BD00230848EB612B626B6214F076FC37
:101D300020000AF09FFDE2E7382800209C280020C0
:101D4000A07801100928002005190010F0B5C84C32
:101D500087B020000AF072FDC64D002800D049E18E
:101D6000D023C54C1B065E6823787605F60FB34278
:101D700007D0002E00D11CE1C04B9B6A2677A360E0
:101D80002670FA21BD4BA668986A8900801B04F072
:101D900071FC6B88984205D9237F002B02D0002E5E
:101DA00000D032E1D0231B065E6863783605F60F5B
:101DB000B34207D0002E00D1DAE0B04B9B6A6677C1
:101DC000E3606670FA21AD4BE668986A8900801B73
:101DD00004F050FCAB88984205D9637F002B02D0F9
:101DE000002E00D022E1D0231B065E68A378F60403
:101DF000F60FB34207D0002E00D198E09F4B9B6AAC
:101E0000A6772361A670FA219C4B2669986A8900FF
:101E1000801B04F02FFCEB88984205D9A37F002B90
:101E200002D0002E00D012E1D0231B065E68E378BA
:101E3000B604F60FB34206D0002E58D08F4B9B6AE3
:101E4000E6776361E670FA218C4B6669986A8900CF
:101E5000801B04F00FFC2B89984205D9E37F002BEF
:101E600002D0002E00D017E1D0231B065E68237934
:101E70007604F60FB34207D0002E19D07F4B9B6A31
:101E80002671A3612023E654FA217C4BA669986A47
:101E90008900801B6F8904F0EDFB874206D2202762
:101EA000E35D002B02D0002E00D006E107B0F0BDAC
:101EB0007249A2698B6A72489B1A8342DED9886A8A
:101EC000FA21801A8900AF8A04F0D4FB8742D5D961
:101ED00005232A786B4901A804F028FB01A96A4868
:101EE000FFF786FC694801A9FFF782FCC6E7634952
:101EF00062698B6A62489B1A83429FD9886AFA2179
:101F0000801A890004F0B6FB6B8A984200D395E7EB
:101F100004232A785B4901A804F008FB01A95A4868
:101F2000FFF766FC594801A9FFF762FC86E75349B1
:101F300022698B6A52489B1A834200D85EE7886AFE
:101F4000FA21801A890004F095FB2B8A984200D36D
:101F500054E703232A784B4901A804F0E7FA01A9C2
:101F60004948FFF745FC494801A9FFF741FC45E70F
:101F70004249E2688B6A42489B1A834200D81CE7B8
:101F8000886AFA21801A890004F074FBEB89984270
:101F900000D312E702232A783A4901A804F0C6FACE
:101FA00001A93948FFF724FC384801A9FFF720FCB4
:101FB00003E73249A2688B6A31489B1A834200D8F2
:101FC000DAE6886AFA21801A890004F053FBAB89AB
:101FD000984200D3D0E601232A782A4901A804F0C8
:101FE000A5FA01A92848FFF703FC284801A9FFF733
:101FF000FFFBC1E600232648EB612B626B6214F005
:102000000DFB20000AF036FCAAE601232A782149BC
:1020100001A804F08BFA1C4801A9FFF7E9FB1B4853
:1020200001A9FFF7E5FB00232377BBE602232A780B
:10203000184901A804F07AFA134801A9FFF7D8FB60
:10204000124801A9FFF7D4FB00236377CBE60323F3
:102050002A78104901A804F069FA0B4801A9FFF792
:10206000C7FB0A4801A9FFF7C3FB0023A377DBE600
:10207000382800209C280020E02700200040054050
:1020800017790000A478011000400340008003404D
:1020900005190010B078011004232A780F4901A80F
:1020A00004F044FA0E4801A9FFF7A2FB0D4801A96C
:1020B000FFF79EFB0023E377D6E605232A7807493E
:1020C00001A804F033FA064801A9FFF791FB05487F
:1020D00001A9FFF78DFB0023E355E7E6B078011077
:1020E000004003400080034070B588B004AE1C4837
:1020F000FFF760FB0296051E2ED014F0FBFC0400D7
:10210000030001900F2818D8012812D169462A78B7
:102110000A7431000022039302A8CA541049FEF742
:1021200045FB0298B042E2D00499013105F036FA3D
:10213000DDE70028EDD0300007E0002201A902A869
:102140000AF09AFE019B029004932900220005F0F8
:1021500017FA019B0299DDE702480AF041FDC046EB
:1021600000400340BC78011070B588B004AE1C4834
:10217000FFF720FB0296051E2ED014F0BBFC0400D6
:10218000030001900F2818D8012812D169462A7837
:102190000A7431000022039302A8CA541049FEF7C2
:1021A00005FB0298B042E2D00499013105F0F6F93E
:1021B000DDE70028EDD0300007E0002201A902A8E9
:1021C0000AF05AFE019B029004932900220005F0B8
:1021D000D7F9019B0299DDE702480AF001FDC046EC
:1021E00000800340BC78011010B5FFF7A3FBFFF798
:1021F000ADFDFFF7D5FCF8E710B5FFF777FDFFF76A
:1022000045FD024809F004FEF7E7C04688130000C8
:1022100010B5FFF71FFB024809F0FAFDF9E7C046C9
:102220008813000070B50A4EF469356AAC4206D0D6
:102230002000243407F0B6FDA542F9D1F569002D40
:1022400004D0716A2800491B05F0A8F970BDC0468A
:102250009C280020F0B5C64600B590B06A460378C9
:10226000C668137443680400059308AB98468568F4
:10227000069303960F2E4AD8012E41D16A4620219B
:102280002B78521813704346002500200021079632
:102290009D55626A236A0C900D91D71A0E959A4249
:1022A00032D0002F67DB380005F070F9216A666ACA
:1022B000C7190500761A0C900D900E97012E5CDD63
:1022C000320013F0D1FFAD19FF230022002104A832
:1022D0000D9500F0D9FE05000C98002803D00E994A
:1022E000091A05F05BF90698404503D008990131B9
:1022F00005F054F9002D19D110B080BCB846F0BDDE
:10230000002EC1D018000AE000260E97DBE700225D
:1023100003A906A80AF0B0FD039B069008933200BB
:10232000290005F02DF9039E069BADE7154E300000
:102330000AF084FA144D002812D1144B6A46049313
:10234000002313752A7803AD2800114904F0EEF834
:10235000606800230022009504A9FEF76FFECBE71A
:1023600000230C48EB612B626B6214F057F93000CC
:102370000AF080FAE1E70AF023FC012EA3D10B78E2
:102380000370A0E7382800209C280020504F4E47BB
:10239000A078011025220010F0B5C64600B58EB019
:1023A0006A460378C668137243680400039306AB59
:1023B00098468568049301960F2E00D96EE0012E91
:1023C00065D16A462B78137643460025002000210C
:1023D00005969D55626A236A0A900B91D71A0C954F
:1023E0009A4258D0002F6ADB380005F0CFF8216AF6
:1023F000666AC7190500761A0A900B900C97012E91
:102400005FDD320013F030FFAD196423022200219A
:1024100002A80B9500F038FE05000A98002803D0AA
:102420000C99091A05F0BAF80498404503D00699AA
:10243000013105F0B3F8002D25D0226A234B5178E5
:1024400095785B185E79280233075B0F9C00E418CF
:102450001F4B64219C46401BA400644404F0E2F836
:10246000454328026421401B04F0DCF80004000C02
:10247000F60722D5174A00042368584080235B01E1
:10248000024023431A600EB080BCB846F0BD002E57
:102490009BD018000AE000260C97B5E7002201A99E
:1024A00004A80AF0E9FC019B04900693320029007D
:1024B00005F066F8019E049B87E7074ADCE70AF00F
:1024C0007FFB012EA0D10B7803709DE740860110A1
:1024D0000C0005400000FFFFFFFF0000F0B5C646FE
:1024E00000B58EB06A460378C6681372436804006C
:1024F000039306AB98468568049301960F2E00D986
:1025000080E0012E00D075E06A462B7813764346B2
:1025100000250020002105969D55626A236A0A90D5
:102520000B91D71A0C959A4269D0002F00DAF1E08E
:10253000380005F02BF8216A666AC7190500761A7B
:102540000A900B900C97012E00DCE5E0320013F0AE
:102550008BFEAD1904230622012102A80B9500F081
:1025600093FD05000A98002803D00C99091A05F07C
:1025700015F80498404503D00699013105F00EF88E
:10258000002D33D0226A5378022B00D19BE0032B1D
:1025900000D190E0012B00D178E09378022B00D19C
:1025A0007CE0032B00D17EE0012B63D0D378022B9B
:1025B00067D0032B00D18BE0012B4FD01379022B76
:1025C00053D0032B00D19BE0012B3BD05379022B3E
:1025D0003FD0032B00D18BE0012B27D09379022B26
:1025E0002BD0032B00D17BE0012B1AD00EB080BC86
:1025F000B846F0BD002E00D189E718000AE0002699
:102600000C97A6E7002201A904A80AF035FC019B5B
:10261000049006933200290004F0B2FF019E049B4F
:1026200076E7D02380221B065A61DFE7D0234021C2
:102630001B0659619379022BD3D1D02380221B062C
:102640009A61D3E7D02320211B0659615379022BCD
:10265000BFD1D02340211B069961BFE7D0231021B1
:102660001B0659611379022BABD1D02320211B0605
:102670009961ABE7D02308211B065961D378022B5F
:1026800097D1D02310211B06996197E7D02304210D
:102690001B0659619378022B00D082E7D0230821D2
:1026A0001B06996182E7D02308211B0618690142A5
:1026B000F7D15961E2E7D02304211B0618690142D2
:1026C000E7D0996169E7D02304211B06996164E78B
:1026D000D02310211B0618690142D5D15961C1E7E9
:1026E000D02380221B0619690A4211D15A617DE765
:1026F000D02340211B0618690142ADD1596199E7E9
:10270000D02320211B0618690142B1D159619DE7F0
:102710009A616BE70AF054FA012E00D019E70B78A2
:10272000037016E7F0B5C64600B590B06A46037868
:10273000C668137243680400039306AB9846856825
:10274000049301960F2E61D8012E58D16A462B783A
:102750001376434600250020002105969D55626AA8
:10276000236A0A900B91D71A0C959A424BD0002FEE
:1027700068DB380004F00AFF216A666AC7190500A1
:10278000761A0A900B900C97012E68DD320013F038
:102790006BFDAD19FF230122002102A80B9500F06B
:1027A00073FC05000A98002803D00C99091A04F05C
:1027B000F5FE0498404503D00699013104F0EEFE81
:1027C000002D18D0236A1A785B789A422DD02649BA
:1027D000013202A803F0AAFE244B60689C466044C4
:1027E000431E9841224B40429C46800B800360442C
:1027F00002A9FEF7FDFF10B080BCB846F0BD002E68
:10280000A8D018000AE000260C97C2E7002201A910
:1028100004A80AF031FB019B0490069332002900C2
:1028200004F0AEFE019E049B94E7124E30000AF0C5
:1028300005F8114D002807D1236A28001978FEF702
:102840006BFDD8E70AF0BCF900230C48EB612B6262
:102850006B6213F0E3FE30000AF00CF8ECE7012E97
:1028600097D10B78037094E7F078011000C0FCBF9B
:1028700000800340382800209C28002025220010DA
:10288000F0B54746CE4680B5564F0368BC688946CA
:10289000984646688FB0002C78D0043765693200BE
:1028A0002069AE4200D92A00002A00D173E04146D7
:1028B00013F0B6FC002800D16DE000DA6EE02700CE
:1028C000A468002CEAD1484B9F425FD07D6932005A
:1028D0003969AE4264D8002A04D0404613F0A0FC07
:1028E000002800D1701B002850DB4B466A461B783D
:1028F00006AE13724B465B68BF6A03934B469B68F8
:10290000049698464B46DD6801950F2D53D8012D4E
:102910004DD143466A461B78137633000022059555
:102920005A554B4694465A6A1B6A0020D11A88466B
:1029300000210A900B9161460C919A4233D0434694
:10294000002B47DB404604F021FE4B46196A5D6AC6
:102950004346C31804006D1A0A900B900C93012D86
:102960003ADD2A0013F080FC651902A80B95B847E0
:102970000A98002803D00C99091A04F00FFE049855
:10298000B04203D00699013104F008FE0FB0C0BC7C
:10299000B946B046F0BDA81B00D490E7E46890E7C4
:1029A0002A1E9AD19EE7434600250C93DCE7002DB2
:1029B000B3D0300007E0002201A904A80AF05CFAB5
:1029C000019B049006932A00414604F0D9FD019D25
:1029D000049BA3E70AF0F4F8012DC5D10B7803702E
:1029E000C2E7C0467428002078280020F0B557467A
:1029F0004E464546DE460368E0B59A46BC4B9BB062
:102A00009C688846466802AF002C00D18FE00433F2
:102A10009946656932002069AE4200D92A00002A31
:102A200000D17FE0514613F0FBFB002800D179E094
:102A300000DA7AE0A146A468002CEAD1AD4B9945B2
:102A400000D174E04B465D6932001969AE4200D98D
:102A5000FFE0002A04D0504613F0E2FB002800D12A
:102A6000701B002863DB4B469B6A994643461B78E4
:102A70003B7043465B687B601023FE1843469B68AF
:102A8000BE609A464346DD683D630F2D00D9EDE0F8
:102A9000012D00D0E5E053461B783B743300002243
:102AA000FD605A55434694465A6A1B6A0020D11A63
:102AB0008A460021386279626146B9629A4200D141
:102AC000CBE05346002B00DA05E1504604F05EFDF2
:102AD0004346196A5D6A5346C31804006D1A38628A
:102AE0007862BB62012D00DCF7E02A0013F0BCFB2A
:102AF000651938007D62C847386A002803D0B96A72
:102B0000091A04F04BFDB868B04203D039690131AD
:102B100004F044FDBD4619B0F0BCBB46B246A94620
:102B2000A046F0BDA81B00D484E7E46884E74346D0
:102B3000DC686D4623000833DB08DB00EB1A9D469A
:102B400002AB99464346424640469B681032661C9B
:102B50000830934200D19AE042461269964200D969
:102B60009FE00A221A5543460022DE609B684846D1
:102B70009A5543469C68210013F0FEFC43463022E0
:102B80001B78BA18137043465B687B6340239A46F0
:102B9000BA445346BB634346DE683E600F2E00D9FD
:102BA00089E0012E75D140222378BA18137053465C
:102BB0000024FE639C5543465A6A1B6A0020D11AC2
:102BC0008B460021BC65386579659A4265D05B46C5
:102BD000002B00DA7FE0584604F0D8FC4346196A1F
:102BE0005E6A5B46C3180400761A38657865BB6573
:102BF000012E78DD320013F037FB3020A4190023BA
:102C00000022002138187C6500F03EFA0400386D7F
:102C1000002803D0B96D091A04F0C0FCB86B504508
:102C200003D0396C013104F0B9FC002C0FD04346BD
:102C30005868314B49469C466044431E98412F4B8F
:102C400040429C46800B80036044FEF7D1FDAD46B8
:102C500060E72A1E00D0FEE602E753460025BB626D
:102C600046E7002D00D119E7300009E03023F918BC
:102C7000283BF81800220AF0FFF83B6BB8603B6174
:102C80002A00514604F07CFC3D6BBB6807E70F222D
:102C900064E7002E8BD0504616E05B460026BB65ED
:102CA000ABE7012300220093210000230AF00CF976
:102CB00043469B6855E738230022F81839000AF08C
:102CC000DBF83B68B8633B643200210004F058FC39
:102CD0003E68BB6B6CE709F073FF012D00D007E77E
:102CE0000B78037004E7012E87D10B78037084E71B
:102CF0005C2800206028002000C0FCBF008003404A
:102D0000F0B50700083704000E0083B00760002903
:102D100025D0080013F0EEFE0500030001900F28F7
:102D20000CD8012807D1327822720022200063607B
:102D3000FA5403B0F0BD0028F7D008E000222000CC
:102D400001A90AF099F80700019B2060A3603800F0
:102D50002A00310004F014FC019B2768E5E70148D4
:102D600009F03EFFBC780110F0B5DE4657464E46EE
:102D70004546E0B58C6883B0824693460091002CAE
:102D800042D01368576899462369666998463D00A2
:102D9000B74200D93500002D0DD02A0041464846E3
:102DA00013F03EFA002806D007DBE3680022002B70
:102DB00007D01C00E8E7B81BF7D5A3680122002B59
:102DC000F7D10194002A20D1002D14D02A004946C1
:102DD000404613F025FA00280DD00EDB534652462C
:102DE0001C6000235360504603B0F0BCBB46B246A3
:102DF000A946A046F0BDF01BF0D500235246136053
:102E00005346019A5A60EEE70C1D009BDB68A34213
:102E100014D0200009F0F6FD0369466998465B4628
:102E20001B6899465B465F683D00B74202D8019433
:102E30000400C9E7019435000400C5E752460023A9
:102E400054601360CFE7C046F0B5DE464E464546B7
:102E50005746E0B589B00C000291002101718160F4
:102E60004161D100891A89008B46031DA3440600E5
:102E7000002503920193C3600361A34548D08046B7
:102E8000002D13D043461E696768736930699946FF
:102E90001A002168BB426CD8002A41D013F0C0F957
:102EA000002801D14B46D81B00283CDB22004146BC
:102EB00006A8FFF759FF079E002E25D00122069B8A
:102EC0009146002B2FD02C2004F060FB050003005E
:102ED00022686768183092461033286105970F2FD3
:102EE00038D8012F33D113782B7600236F61C35567
:102EF000A3692900AB623200019B484609F09EFDA0
:102F000043465D6901355D611C345C45B8D1464678
:102F1000300009B0F0BCBB46B246A946A046F0BDA1
:102F20004B46DF1BC2D5019BB34227D0656877694A
:102F30002A00BD421FD8002A05D03169206813F04D
:102F40006FF9002800D1E81BC30F9946BBE7002F9B
:102F5000CBD007E01800002205A909F08DFF059BE2
:102F60002861AB613A00514604F00AFB059F2869CD
:102F7000BBE73A0090E73A1EDFD1E4E70123994628
:102F8000A1E7C046F0B5C64600B5A4B008AD2849D3
:102F900006AA2800FFF7B4FE264B2749AB6106AA14
:102FA0000FA8FFF7ADFE254B25496B6306AA16A8AF
:102FB000FFF7A6FE234B06AA2B65234B1DA819007D
:102FC0009846FFF79DFE0423204F03AEEF6607935C
:102FD000290004221E48009604AB0695FFF734FF33
:102FE00024AC1C3C23002068083398421DD0A16803
:102FF000013104F0D3FAAC42F3D1414604AA2800CF
:10300000FFF77EFE0123059302AB29000122AF6189
:103010001048009333000495FFF716FF280009F0CD
:1030200049FF24B080BCB846F0BDAC42D9D1E4E73A
:1030300004790110DD2400101079011055220010D0
:103040001879011099230010247901102527001008
:10305000742800205C28002070B50A4EF469356A97
:10306000AC4206D02000243406F09CFEA542F9D1E3
:10307000F569002D04D0716A2800491B04F08EFA0E
:1030800070BDC0469C280020F0B5C64600B51E00A5
:103090002A4B04008AB018000F001500984609F06A
:1030A000CDFB00280FD1217800291AD1236A626A4A
:1030B000691CD21A91421ED0002D3AD101200AB0CB
:1030C00080BCB846F0BD00221D4B1E48DA611A6272
:1030D0005A6213F0A3FA404609F0CCFB217800298C
:1030E000E4D0174B184A1B7802A8019100971E21C3
:1030F00003F032FA13E000200133002D04D1DDE7A4
:103100000130C4B2A542D9D91C5CB442F8D90C4BE9
:103110000E4A1B781E21009702A803F01DFA0C48E6
:1031200002A9FEF765FB0B4802A9FEF761FB002030
:10313000C5E7034B084A1B78ECE7C0463828002057
:103140009C2800205930001030790110507901106E
:10315000008003400040034040790110094A10B547
:1031600094464024830063441A68C000624080345F
:1031700014408022520113431C60034B9C46604460
:10318000416010BD04C00140004001400123D02235
:103190008340120693629361094A4021944683005A
:1031A00063441A68C0004A408031114080225201B5
:1031B00013431960034B9C460523604443607047EA
:1031C00004C0014000400140024B18688007C00F56
:1031D0007047C04600C0064070B5EFF3108C72B661
:1031E0000D4D2B68002BFCD0BFF35F8F0724CB085D
:1031F000C618C05C01230C40A3401C0004400342DD
:1032000007D118433070BFF35F8F2C608CF31088A8
:1032100070BD100001F0E4FD2C0100D0F8B5474668
:10322000CE46884680B5EFF3108C72B6214D2C68DF
:10323000002CFCD0BFF35F8F9A422CD8D40807270C
:10324000055D061901241740BC402C421FD0072100
:103250000127894609E0D408055D06194C46390066
:103260001440A1400C00294211D001329342F2D205
:1032700001204042BFF35F8F00220E4B1A608CF397
:10328000108800280FDBC0BCB946B046F8BD254306
:1032900010003570EEE7BFF35F8F00232B608CF3D7
:1032A0001088012040424346002BECD0089801F0E2
:1032B00097FDC0462C0100D00021044B044ABFF307
:1032C0005F8F02C39342FAD17047C046000100D01D
:1032D000800100D0044A1078431CDBB2172B00D9C0
:1032E000102313707047C046F01D002010B5064B28
:1032F000064C82B00100009318221F232000FFF724
:103300008DFF02B010BDC0466079011074310020FD
:1033100001238340002904D0034A1360034A136049
:103320007047034A1360FBE780E200E000E100E041
:1033300080E100E001238340014A13607047C046EA
:1033400000E200E0084B10309B688000C358002B5F
:1033500007D0064A00209B1A2F229A424041C0B251
:1033600070470020FCE7C04600ED00E0F41D00209F
:10337000024B10309B688000C058704700ED00E0A1
:1033800070B50D00EFF3108672B60F4A1368002B6C
:10339000FCD0BFF35F8F0D4B10309B6884001B592E
:1033A0000B4A934203D09D4201D001F037FD074BF9
:1033B0009B681D51BFF35F8FBFF35F8F0022024BED
:1033C0001A6086F3108870BD240100D000ED00E083
:1033D000CD010010F0B557464E46DE464546E0B5F5
:1033E00085B0060000911700EFF3108B72B66A4AA1
:1033F0001368002BFCD0BFF35F8F0025674B5D5730
:103400009A46002D00DAA9E06B00654C01935B1928
:103410009B009846A146C1444B4652469B791036C4
:103420001370604BB6009B6899590B1B2F2B33D937
:103430005D4B994200D0ACE0019B42469C465B4B01
:103440006544AD0063535A4B0232A218043B9B1AE9
:103450001B05584A5B0D651913436B80564B0121C0
:10346000AB80FF23AB71009BEF71AB604B460B430E
:1034700019004C4B9B689951BFF35F8FBFF35F8F6F
:103480000022454B1A608BF3108805B0F0BCBB4698
:10349000B246A946A046F0BD01200A008243D37976
:1034A0008C46BB4231D84546130044491B1B5B4147
:1034B0005943090D3D4B63533D4B02356519043BA0
:1034C0005B1B1B053B4D5B0D2B43AA464D466B809A
:1034D0000425AC465546E044131F44441B1B1B0502
:1034E0005B0D1D434B46997100999D80996049463B
:1034F000DF71334B01431360BBE75800C0188000F5
:103500002018C179B9422FD902000623D356002BC7
:10351000F3DA02932B4B61460393131D9A4604235F
:103520005B429C46E14450464B461B1A1B055B0D13
:103530009C46204B957198466346404603439380D2
:10354000019B5A199200039BA418A380029B1C4A5A
:10355000A371009B2260E771A3608AE701F05EFC23
:10356000002553465D574FE7908802934005131D91
:103570009A46031561469C464046D444634604304F
:103580002018181AE0230005400D1B021843039071
:10359000C5E701F043FC4FE7240100D0093A0220BF
:1035A000F41D002000ED00E0CD01001000A1FFFFA0
:1035B000241E002000E0FFFF01BDFFFFAAAA0000BB
:1035C0000148804701BD0000F0B5DE4657464E4633
:1035D0004546E0B50C0083B0EFF3108872B65D4A43
:1035E0001368002BFCD0BFF35F8F5B4B5B499A687D
:1035F000030010339F00D5598D4239D0A5424AD0DF
:10360000574EAA1B2F2A33D8012292468240914658
:103610004846544A1268104001904846524A106089
:10362000BFF35F8FEFF305829346002A35D09342B4
:1036300001D001F0F3FB2A0053469A43906884427C
:1036400008D175E04B005B189B00F3189868A04206
:1036500034D01A00062151560029F3DA844253D09F
:10366000019B002B26D04A46404B1A603D4B1A6006
:10367000394B9B68DD51BFF35F8FBFF35F8F002233
:10368000344B1A6088F3108803B0F0BCBB46B246D6
:10369000A946A046F0BD0D00EAE72A0053469A432A
:1036A00090688442D6D1062010561300002809DA0B
:1036B0000D0031E04A462C4B1A60D9E70620185617
:1036C000002822DB42001118890074188A46A1687C
:1036D0009960E179D971062161569971002925DB3C
:1036E000A488F11A6405241554440919E024090535
:1036F000490D24022143998013181D4A9B0011781B
:10370000F31899711070ABE713005946002914D1D2
:10371000FF3191711749918015490A789A71164ABB
:103720009B1B5B415A43120D0A7099E71349E2E76C
:103730000620105613000028C4DA114A1149D21A83
:10374000083A5002400D014399800F4952080A433C
:10375000DA8085E7240100D000ED00E0CD01001003
:10376000F41D002000E100E080E100E080E200E0E4
:10377000093A022001BDFFFFAAAA000001BD000016
:103780002E1E002000F0FFFF00F8FFFF032310B5FE
:103790000400074A18409446C0009C43FC33834011
:1037A0006444226881409A4313000B43236010BD98
:1037B00000E400E070B5EFF3058101240443EFF36A
:1037C000108C72B6214A1368002BFCD0BFF35F8FB8
:1037D0001F4B05001F4AED1A6D416A43120D1E4D25
:1037E0008900AE6852B27658A6421CD006215956BE
:1037F00091421CD012215956914222D01E21595675
:10380000914220D02A2159560324914210D0134BC3
:1038100019781A708171BFF35F8F00220B4B1A6009
:103820008CF3108870BDAB680D4C5C50EFE7002442
:103830006100091989005B18FF2199710949998074
:10384000E5E70124F4E70224F2E7C046240100D0B2
:10385000F41D0020AAAA000000ED00E0093A0220B1
:10386000CD01001001BDFFFF054B064A1360064A5B
:10387000136053609360D360136153619361704729
:103880008080808000E400E004E400E010B5084B94
:10389000084C82B001000093002205232000FFF7AE
:1038A000BDFC002801DB1F23181A02B010BDC04662
:1038B0007C7901100E3A0220024B9C46614489003B
:1038C000016070474000003410B50400FFF702FDAE
:1038D00001002000FFF7F0FF01235B426360BFF3AC
:1038E0005F8F10BD10B50400FFF7F4FC010020004D
:1038F000FFF7E2FF01235B42636000232372BFF303
:103900005F8F10BD10B504000120FFF7EFFC034BE3
:10391000C3189B002360BFF35F8F10BD40000034CD
:10392000034B9C46614489000160BFF35F8F704781
:103930004000003483680B4810B5844661446244FB
:103940001201090159189B185C684A6801209442C9
:1039500001D802D00020C0B210BD1A680B689A428C
:10396000F9D8F7E7FFFFFF0F074810B50268EFF33C
:10397000108172B61368002BFCD0BFF35F8F07F085
:1039800011F90020002110BDE0380020F8B557469D
:1039900045464E46DE46E0B598460CAB1C780DAB6E
:1039A0001B78070091469A460568002C59D1AC7BDC
:1039B000002C3BD0660029683619033E89194B78E4
:1039C000AB73002B00D1EB7300238B704B700B702B
:1039D0002D4BE218BB6812019B184A461A604246FA
:1039E0005A600A9A9A600B9ADA6000238B704B70C7
:1039F0000B706B7B9B46002B26D022006B685946D0
:103A0000A86898475B465B005B442A68033B002834
:103A100012D058469619B070D118D35C002B00D044
:103A200073705B460C706B735C450ED0F0BCBB468C
:103A3000B246A946A046F8BDD3189C709119925D74
:103A4000002A1CD15B460B706C734A464346387D96
:103A500000F0E8FB051E0AD10E9B002BE6D01D707E
:103A6000E4E7660029683619033E8919B0E7534632
:103A7000002BF1D12100386800F0ECFDECE75A7022
:103A80005B460B706C73E0E7FFFFFF0FF0B5DE469F
:103A900057464E4645460023E0B58BB00893684B29
:103AA0008200D45800239B46099000F027FB0200B7
:103AB0000B006068EFF3108A72B656460168002961
:103AC000FCD0B246BFF35F8F21684F7B8C46002F3E
:103AD0002ED0A5685B49A946791809018944494651
:103AE0000868496805000E00AD1A9E41002E5FDD92
:103AF00002000B00099800F095FB00230022994674
:103B0000002306920793002398466368BFF35F8FF4
:103B10005A461A608AF310884346002B12D10028B7
:103B2000C3D10BB0F0BCBB46B246A946A046F0BD1F
:103B300000230022994600230692079300230020C9
:103B40009846E2E7089B494618023843C047626836
:103B500005000E00EFF3108A72B61368002BFCD03C
:103B6000BFF35F8F002E41DB2B00334302D023696C
:103B7000002B56D12368D97B002905D01A6848004C
:103B800041185218033A57709A7B002A00D19F734C
:103B9000DF73E268013FD35D0133D3555B46236198
:103BA0006368BFF35F8F5A461A608AF310887CE718
:103BB000002E02D1002D00D09AE70021604600F0CF
:103BC000C7FC4B461A685B68069207934B469B6896
:103BD00098464B46DB689946E368DB19013B1B7846
:103BE00008931B020343236100208EE72369002B07
:103BF000C0D0069A079B8021521BB34109068B4215
:103C000002D30122104B5242002104910131039151
:103C1000494601914146200002970091FFF7B6FE08
:103C2000BCE700F06BFA2A00330012184B418021E8
:103C300009068B42E8D30122034B5242E4E7C04617
:103C400024360020FFFFFF0FFFFFFF7F10B5144C4D
:103C50006368002B04D00A211248FFF72DFE10BD27
:103C60002300114A1021206800F08EFB032000F091
:103C700039FA032000F03EFB03200C4900F08CFAD7
:103C8000FFF728FB0A4B9C4603232375D0231B0612
:103C90001B6860446375074B80006060DC60DAE796
:103CA0003C1E0020E0380020353900108D3A00100D
:103CB0004000003424360020004870473C1E00209D
:103CC000F0B557464E464546DE46E0B585B0019311
:103CD00010AB1B780600039300239A469846009287
:103CE0007268EFF3108B72B61368002BFCD0BFF331
:103CF0005F8F3568AC7B002C00D16EE067002B68CD
:103D00003F19033FDB195A78AA73002A00D1EA73DE
:103D1000484AA118B2680901521800980199106028
:103D200051600E9991600F99D16042469A705A7015
:103D30001A706B7B9946002B00D16BE022006B68F8
:103D40004946A86898474B465B004B442A68033BAA
:103D5000002856D04846D719B870D118D35C002B2C
:103D600000D07B704B460C706B734C4553D0F3689E
:103D70001B19013B18787368BFF35F8F42461A60C6
:103D80008BF310885346002B08D10002204305B066
:103D9000F0BCBB46B246A946A046F0BD039B002B33
:103DA00046D00E9B00200F99984703000B433FD04D
:103DB00004000D1E1ADA009A019B121BAB410092FF
:103DC000019380221206934204D301231A4C5B42D2
:103DD00000930194039B9A4682E77368BFF35F8F59
:103DE0001C608BF3108801204042D0E700F086F978
:103DF0008022001969411206009001919142E9D395
:103E0000E3E7D3189C70D119D25D002A00D05A7014
:103E10004B460B706C73307D009A019B00F002FAE8
:103E200082460028A3D02100306800F013FC9EE7F2
:103E30000020ACE7FFFFFF0FFFFFFF7F407D7047D3
:103E4000F0B54746CE46040080B50D009626764272
:103E5000F71736196F4185B08F4215D812D000F090
:103E60004DF932003B00121A8B41002B16DC002B5F
:103E700039D02000290000F07FF905B0C0BCB94658
:103E8000B046F0BD8642EAD90026002700F036F998
:103E900032003B00121A8B41002BE8DD0023029315
:103EA0000193124B3200009311483B00FFF708FFCB
:103EB0000028DEDBB846B1460E4F0F4E7B6A9845B0
:103EC00004D8BA6A9145D4D99845D2D13268EFF373
:103ED000108172B61368002BFCD0BFF35F8F3000E7
:103EE00006F02CFEEAE7002AC3D0D7E769390010B4
:103EF0003C1E002000400540E038002070B5040062
:103F00000D0000F0FBF88023001969411B0699425F
:103F100002D3012002494042FFF792FF70BDC04624
:103F2000FFFFFF7F70B5060000F0E8F8FA220400FA
:103F30000D00002330000021920003F0B3F980232C
:103F4000001969411B06994202D3012002494042EF
:103F5000FFF776FF70BDC046FFFFFF7FF0B5EFF3C0
:103F60000583CE46474680B505000C0085B0002B82
:103F700012D02A4A0020536AA34203D3926A013026
:103F8000AA4204D305B0C0BCB946B046F0BD1B1B65
:103F90005A1E9341D8B2F5E7214E02930193214B6B
:103FA0000200009330000B00FFF78AFE031EE0DDE5
:103FB00020BF7168EFF3108772B60A68002AFCD040
:103FC000BFF35F8FDAB29446FF2230681A40417B1C
:103FD00061450FD0016889465100884649469044A2
:103FE000414403398978002904D13269934209D1C7
:103FF000316107E0F1681B0A8A18013A1278DBB2D6
:104000009A4207D07368BFF35F8F00221A6087F36C
:104010001088AEE7614600F01DFBF3E70040054065
:104020003C1E002069390010F0B5EFF30582D6463A
:104030004F4646461000C0B51038EFF3108872B6F0
:10404000214C2368002BFCD0BFF35F8F01231900A4
:1040500081401E4D1F006963AA461D4D29601D4DFC
:104060002E78AC463500C5402F402B4215D0534624
:104070005F6A194B8500EB589F4218D36246174B75
:104080008E43EB581670BFF35F8F0022226088F3D7
:104090001088002B06D0984704E0BFF35F8F27609D
:1040A00088F31088E0BCBA46B146A846F0BD0C4B78
:1040B00092009C46624413681360BFF35F8F002335
:1040C000236088F31088EDE7280100D00040054008
:1040D0003C7005400D3A0220EC3800205C30002096
:1040E000D03F054010B5034B01001800024AFFF70E
:1040F00073F810BD083A022098790110034B596AF1
:104100000A00986A596A8A42FAD17047004005400D
:1041100070B504000D00174A536A1900966A536A75
:104120008B42FAD13000190024184D41AB4216D809
:1041300013D0104B2A005B6A9D4203D90D494B6A8C
:104140009342FCD3934207D10A4A02E0516A994252
:1041500002D1916AA142F9D370BDA642E9D9054BBB
:104160005B6A1C005A1CEFD0012201246442E5174F
:104170005242E3E700400540064A536A9942FCD8A0
:1041800007D1044B02E05A6A914202D19A6A8242F4
:10419000F9D370470040054070B504000D00EFF3FF
:1041A000108672B61A4A1368002BFCD0BFF35F8FDB
:1041B000002D1BD02000FFF7DBF8164981420AD002
:1041C0002000FFF7DDF801212000FFF7A1F801230F
:1041D000A340114A1360114BA400E550BFF35F8F59
:1041E00000220B4B1A6086F3108870BD0121A1409C
:1041F0000A4BA200D5500A4B20001A788A43054981
:104200001A70FFF7E1F900212000FFF781F8E5E7D8
:10421000280100D029400010386005405C300020A3
:104220000D3A0220F0B54F46D6464646C0B50700C7
:104230002B4C616A0D00A66A616AA942FAD18B42D1
:1042400008D805D00120E0BCBA46B146A846F0BD6A
:10425000B242F7D9EFF3108A72B6224801680029FA
:10426000FCD0BFF35F8F0125BD401F491C4C884621
:10427000097889462943C9B28C4641466046087090
:10428000391D890065630A511849B8004350216AF5
:104290000020294219D0616A0800A66A616A814239
:1042A000FAD18B4219D801D1B24216D8CC450BD0E5
:1042B0000B4B1F221D625D6301233A4093400C4A61
:1042C000136043464A461A700120BFF35F8F0022F5
:1042D000044B1A608AF31088B5E70020F5E7C04662
:1042E00000400540280100D00D3A0220EC380020A3
:1042F00080E200E0EFF3108C72B60A490B68002BE5
:10430000FCD0BFF35F8F01238340074A0748136245
:1043100002789A430270BFF35F8F00230B608CF327
:1043200010887047280100D0004005400D3A022057
:1043300070B506000D00140000291DD0002A12D00F
:1043400073688068984762006B0012195B193168C6
:10435000033A033B002808D08A189570C818CB5C34
:10436000002B0BD10470280070BDCB189C708818EE
:104370008A5C002A05D105702000F5E753700470AF
:10438000F1E75A700570F7E710B583600023CCB2EF
:1043900043730133426004738373C4730068421C27
:1043A000012C05D90133DBB2137003329C42F9D1E1
:1043B000FF230B405A00D318C01800230338437062
:1043C00010BDC04670B505000C1E07D06300016823
:1043D0001B19033BCB185A78002A01D1200070BD6D
:1043E000500080180338091800204E7848702100CA
:1043F00058702800FFF79CFF310004002800FFF7E9
:10440000E1FF0600002C20D00028E7D03200210078
:104410006B68A86898477200630092191B19296895
:10442000033A033B002808D08A189470C818CB5C64
:10443000002B00D053700670D0E7CB189E70881800
:104440008A5C002A00D05A7004703400C6E7C04667
:10445000F0B557464546DE464E46E0B50D006F00C6
:1044600001687F19033F0400C85D83B00192CA1937
:10447000002850D043001B18033BCB185E78B4468D
:10448000002E1AD1019E002E42D0E67B002E04D0D1
:1044900073009B19CB18033B5D70A37B002B00D1ED
:1044A000A573E57300282FD10023537003B0F0BC2F
:1044B000BB46B246A946A046F0BD72006244033A2C
:1044C0008A18517888460021517089465970320007
:1044D00001002000FFF72CFF43468246002B07D047
:1044E0005B0021684344033BCB185A78002A16D15D
:1044F000424651462000FFF71BFF2168019BCA1965
:10450000002BC2D10028CFD043001B18033BCB188F
:1045100000219970C8E7019B002BB6D1C4E7500079
:104520008018033809184878834648464870587000
:1045300041462000FFF7FCFE594680462000FFF769
:1045400041FF414602002000FFF7F2FE8046CFE720
:10455000F0B557464546DE464E46E0B583B001917C
:10456000457B04006F0000687F19033FC15DC219DD
:10457000002952D04B005B18033BC3185E78B44649
:10458000002E1CD1019E002E44D0E67B002E04D0CC
:1045900073009B19C318033B5D70A37B002B00D1F4
:1045A000A573E573002931D100232800537061738E
:1045B00003B0F0BCBB46B246A946A046F0BD7200AF
:1045C0006244033A82185078804600205070814639
:1045D000587032002000FFF7ABFE43468246002BA6
:1045E00007D05B0021684344033BCB185A78002A6C
:1045F00017D1424651462000FFF79AFE019B010069
:104600002068C219002BC0D10029CDD04B005B1807
:10461000033BC31800209870C6E7019B002BB4D160
:10462000C2E7500080180338091848788346484686
:104630004870587041462000FFF77AFE5946804680
:104640002000FFF7BFFE414602002000FFF770FE8A
:104650008046CEE770B5050000292CD0437B8B4205
:104660002ED04C0000686418033C0419A278002A7C
:1046700021D053009B18033BC25CC6188A4202D16A
:104680001BE0002A08D053009B18033BC3185A783C
:104690008A42F6D162785A70002301222800A37062
:1046A0006370FFF7D5FE697B02002800FFF740FE2C
:1046B0006873012000E0002070BD63783370EBE781
:1046C00001221900FFF7C4FEF2E7C046F8B5CE4656
:1046D0004746040080B506200D0000F021FA061EB2
:1046E00053D0534B5349E3185A1E9341802212046E
:1046F00094465B429B0D504A9B05634413604F4AAE
:10470000136018008A689043FBD1494B4C4AE31868
:1047100059424B4180215B0049000620995200F02C
:10472000FFF92900C00001F0A5FFC30932D14022E2
:10473000012190466162A362266BF30736D42700FD
:104740008025E36A00232C376D013D432B60062052
:10475000266300F0E5F94146800001F08BFF236BF2
:1047600006009846DB073BD46023E26A5A400E33CA
:1047700013402B6043462363802310229B013B435D
:104780001A60304B23630323A3643000C0BCB946D6
:10479000B046F8BD2C4A93423FD900232B492C4AFE
:1047A0006162A362266B9046F307C8D52200C0233E
:1047B00030329B011343234A06201A60656AA36ABC
:1047C000AD01ED1800F0ACF9224901F053FFAD0244
:1047D0000100280001F04EFF0021FFF799FCAEE731
:1047E0002200C02330329B011343164A06201A6070
:1047F000636AA26A9B019946914400F091F94B4685
:1048000014499B02994601F035FF0100484601F02A
:1048100031FF0021FFF77CFCA6E77F229901884643
:1048200002400132520819009044130082E7C0464A
:104830000080FCBF00C0004000E0004000F00040ED
:10484000FC38002001030000FEFF0000FFFF000015
:10485000C0FF3F004E0E000010B50C2082B000F0EB
:10486000B7F9FEF7B1FC002810D08B4B8B488B4971
:104870008B4A186059609860D960186159619861D5
:10488000D961186259625A6202B010BD854CA067A6
:1048900000F0F4F90122844B1A60636C012BFCD107
:1048A0000322824B1A607F4A936B012BFCD10133A8
:1048B00001217F4A7F480093043300F037F9052334
:1048C0007D4A009301217D4800F030F97C4B5A6805
:1048D000FF2A02D8802252005A608022734B6E4C0D
:1048E00012011A602169002907D0606901F0C2FE37
:1048F000013043001B18033BFDD2E022704B71488E
:1049000019680A40026002221968514001320A40C7
:10491000042102609A681142FCD080216A4A090190
:104920001160802252005A60684B2361684B5968BD
:10493000FF2900D85A60032201215B4B1A60644AA8
:1049400093681942FCD0E02310680340614803607B
:10495000126803234A40022113405D4A03609368B2
:104960001942FCD080215C4B0901196080215B4B0E
:104970004900516063615A4B5A68FF2A00D8596058
:104980008022584B12011A60E169002907D0606942
:1049900001F070FE013043001B18033BFDD2E02301
:1049A0004F4A11680B4050490B6080214F4B090161
:1049B00019608021394B49005160E3614C4B5A68C2
:1049C000FF2A00D8596080224A4B12011A60216ADE
:1049D000002907D0606901F04DFE013043001B182B
:1049E000033BFDD2E023424A11680B4042490B6071
:1049F0008021424B0901196080235B0053608022B3
:104A0000264BD20223623E4B5968914200D25A6033
:104A100080223C4B12011A60616A002907D060694C
:104A200001F028FE013043001B18033BFDD2E023B8
:104A3000334A11680B4034490B608021334B090124
:104A400019608023DB025360154B6362304B5A6858
:104A5000FF2A02D8802252005A6080222D4B120178
:104A60001A60A169002907D0606901F003FE0130D6
:104A700043001B18033BFDD2E023254A11680B407D
:104A800025490B608021254B0901196080235B00BB
:104A90005360124BA361F7E660240020006CDC0237
:104AA0001BB70000008000403CB0004030B0004028
:104AB000002F685900800240008C864700C00240E9
:104AC000308000403090004030A00040001BB70014
:104AD0003C8000403C9000403CA00040405973079F
:104AE0005480004054B000405490004054A0004016
:104AF0006080004060B000406090004060A00040D6
:104B00006C8000406CB000406C9000406CA0004095
:104B10004880004048B000404890004048A0004015
:104B2000014B8000C058704760240020F8B5040095
:104B300022481E0017000D0001F09CFD0100380006
:104B400001F098FD069B36041B031E432368002BCF
:104B500022DB1B4B1B49E3185A1E93418022920112
:104B600094465B421B0B184A1B0363441360174AAD
:104B700013601F008A689743FBD1C022231D920156
:104B80001A4321232560A06013602368002BFCDA00
:104B90000823E6601360F8BD3F2322681340AB4250
:104BA000D7D1A3681B051B0D8342D2D1EE22E36847
:104BB000D2021340B342CCD1EDE7C046001BB70090
:104BC0000040FDBF00C0004000E0004000F0004099
:104BD0008023024A9B000343D36270470080054054
:104BE00010B580241C4BE4051C6000281AD001235A
:104BF0001A4C18431A4BDC611A4C44401C6259622F
:104C000098628021144BC90519601748174908603C
:104C1000E021C9041960002A07D18022144B120632
:104C20001A6010BD0E4BD861EBE753019B1A9B0035
:104C30009A18802312015B049A4209D213000D498D
:104C40000B60074B5A608022094BD2051A60E8E7D7
:104C5000094B1A00F3E7C04600B00540D3C007B0C7
:104C6000008005402D3FF84FFCFF01000820014067
:104C700000A00540FC350020FFFFFF00AA23064AE4
:104C80001B0113602F230549D360054B196053683E
:104C9000002BFCDA7047C0460040024000B0FA002A
:104CA000006002402C4B2D4A70B51A602C4A2D4BE7
:104CB0002D491A6014008B689C43FBD12B4D2C4E60
:104CC000B54208D2013E761BB60808CD98472300AE
:104CD0000134B342F9D1FFF7BFFD264A214B1A60D8
:104CE000214A9368DB43DB01DD09002BF9D1402227
:104CF000214B224C224E9A675A671A67DA66B442F1
:104D000008D223682000002B20D00C34FEF7EAFDE7
:104D1000B442F6D31B4C1C4EC022B168200002F0F6
:104D20002FFCB460FEF7C8FAFEF79EFDFEF78EFF7B
:104D3000164C174EB44208D2013E361BB60808CCBA
:104D400098472B0001359E42F9D170BD0834FEF71B
:104D5000BBFDB442D5D3DDE700E00040BFCDFBFE94
:104D6000FE7F3C0000F0004000C0004034240020E2
:104D700044240020FFFFFF0100F001402424002014
:104D8000342400200000002000ED00E04424002036
:104D90006024002000BEFDE7094A030010680028D7
:104DA00005D00849C3188B4207D8136070470648DE
:104DB0000449C31810608B42F7D901204042F5E73F
:104DC000F031002000000420103A0220002070473B
:104DD000012040427047C04610B5FFF7DBFFC046D8
:104DE0000FB400B5084883B002F072FC049B002B9E
:104DF00007D005A91800019101F0C2FB034802F099
:104E000067FC0120FFF7C6FFBC790110CC790110C7
:104E100010B50148FFF7E4FFD079011010B5014843
:104E2000FFF7DEFFE07901109A4200D28854704704
:104E30007047C046F8B55746DE464E464546E0B593
:104E400099460A9B07009A460D9B884693460B9C01
:104E50009B073BD10C9B9C423DD21E1B0B94150023
:104E60000C005E442A004B46013521002020B84743
:104E7000B542F7D1A0460B9C002C20D045463619F0
:104E80005346321B013C185D29004B46B847002CA5
:104E9000F6D12B00350098460D9B9B070FD55B463E
:104EA000EC1A0C9BA3420AD9464698462A004B4668
:104EB000310020200134B84701354445F6D328009D
:104EC000F0BCBB46B246A946A046F8BD1600150088
:104ED000002CD3D1E0E71600002CCFD11500EEE76F
:104EE000F0B54F464646D646C0B584B098460EABA0
:104EF0001B7894469946129B0D9C109F119E9A0711
:104F000025D4002E65D1BC4221D201221A409246FE
:104F1000202C00D1E9E00C9A551E302202E0202C12
:104F200000D17BE001342A55A742F8D85246002A26
:104F30000DD0B4420BD20C9A551E3022202C02D137
:104F400071E0202C2DD001342A55B442F9D1DA0673
:104F50003CD55A052ED4002C28D10F9A102A00D106
:104F6000B6E0022A00D1BCE030220C9C2270012461
:104F70004A46002A65D15A0700D499E02B220C9D9D
:104F80002A55013403930C9B6246009302964346D4
:104F90000194FFF74FFF04B0E0BCBA46B146A84603
:104FA000F0BD2024DA06EDD55A0503D4A74266D019
:104FB000B44264D00F9A102A71D0022A57D0202C04
:104FC000E0D02200013430250C9FBD54202CD9D0D4
:104FD000CEE7012215001D40AA461A4236D04A46A5
:104FE000002A4AD10C321A4247D1BC42A1D2202C0D
:104FF00091D1202E17D82024DA06C3D55A051BD408
:10500000202F01D0202ED5D11F220F9D102D6FD023
:10501000022DD8D162250C9FBD54D0E75246002AFC
:1050200079D0202EBDD92024DA06ABD55A0503D479
:10503000202FE9D0202EE7D00F9A102AA2D12024C9
:10504000A0E72D220C9D2A5501349BE7BC4200D3DA
:105050007DE7202C00D05EE7DA06F0D55A05EED4C5
:10506000202F62D0202EEAD134001F22CDE7202C41
:1050700000D187E722000134CCE7013EB5E7621E8C
:10508000012CC2D10F9A102A00D06AE79A063BD5AC
:1050900058220C9C2270283A6270022468E79A0613
:1050A0000ED4202CCBD078220C9D2A55013486E7D3
:1050B0001A0700D466E720220C9D2A55013461E7C7
:1050C000202CBCD058250C9A12191570013476E7A3
:1050D0009A0608D558220C9C227030226270022455
:1050E00046E76032F7E77822F5E7002A83D1B3E795
:1050F000A21E013C9D0603D478250C9FBD5460E799
:1051000058250C9FBD545CE778220C9C2270483ACD
:10511000627002242CE7DA0600D433E75A058BD4F8
:10512000202F00D044E71F226FE73C001F226CE7CE
:1051300010B5002800D110BD02F07EFAFBE7C04692
:10514000F0B557464E464546DE46E0B599B0824634
:10515000894690460893229A239B1000190001F07B
:105160004AFD002800D0CDE0229823990122D94B96
:10517000524201F03BFD002800D0C3E02298239961
:105180000122D54B524201F023FD002800D0B9E0A6
:10519000229823990022002301F01AFD002800D054
:1051A000F1E1229E239F8023269ADB001A400D9274
:1051B000269A1A4201D1062324938023269A1B01A2
:1051C0001A403B0093460996334300D0B3E0002ACF
:1051D00000D0C2E1002300240A930B94002304258D
:1051E0000993259B0024AB4200D95C1B0223269A1D
:1051F0001A400C92269A134203D06B426B415B42D9
:105200001C40099B002B07D00A9A0B9B30003900E9
:1052100001F07DFC06000F00229823990022002354
:1052200001F0D6FC002803D0802109067B181F005E
:10523000269AAA4B009601971340089E0493249B3C
:1052400003940293424633004946504600F0AAF9BF
:105250000400002D67D02020269A49460240130002
:105260005A4253415B42621C18400A9233002200AA
:105270004530D047099A6F1ED317D4185C40D30F1E
:105280009B46002501E0202D13D008AA94461F2339
:10529000200063440A2101355E1901F0EBF9303139
:1052A000317020000A2101F0E5F926000400092EE2
:1052B000E9D805230693002304930A3303935B463E
:1052C000089E029310AB0A9A009349463300504659
:1052D00005970195FFF704FE0C9A0400002A22D0DE
:1052E0004246851A259AAA421DD9B046574616004D
:1052F00022004346494620200135B8470134AE42DA
:10530000F6D810E0269B42460493259B494603931A
:10531000249B50460293229B239C00930194089B5C
:1053200000F040F90400200019B0F0BCBB46B246C2
:10533000A946A046F0BD6A4B78009C46400D6044EB
:1053400001F06CFC674A684B01F0FFFB674A684B51
:1053500001F0D4FB674A3B031B0B1A4304000D000A
:1053600009981100644B002201F0BFFB634A644BB3
:1053700001F0EBFB02000B002000290001F0BEFB56
:1053800001F064FC099001F049FC5E4A5E4B0400A8
:105390000D0001F0DAFB00225C4B01F0AFFB01F0E5
:1053A00055FC5B4A5B4B29000C90200001F0CDFBC3
:1053B00004000C980D0001F031FC574A574B01F0E6
:1053C000C4FB02000B002000290001F08EFB04004A
:1053D0000D0002000B000A940B9501F0B6FB0400CF
:1053E0000D000A980B9902000B0001F087FB0022C8
:1053F0000E900F914A4B2000290001F088FB0022FB
:10540000484B01F07BFB02000B002000290001F05B
:105410007EFB0022444B01F071FB02000B002000D8
:10542000290001F074FB0A9A0B9B0D0080210400F7
:10543000C905002001F059FB02000B0020002900E3
:1054400001F05CFB02000B000E980F9901F05FFB6E
:105450000022284B01F052FB344B0C9C9C466444C8
:105460002305002201F071FB04000D0002000B0077
:10547000300039000A940B9501F0AAFB00285DD199
:1054800023002A00C625099963318D42AD41594652
:105490006D420435002900D1A3E6134363D03000E8
:1054A0003900234A234B01F099FB002807D0002242
:1054B00030003900204B01F08BFB002853D1249B96
:1054C000002B00D18DE60D9B5A1E9341249AD31ACE
:1054D000249386E6FFFFEF7FFFFFEFFFFFF7FFFF5D
:1054E00001FCFFFFFB799F501344D33FB3C8608B8F
:1054F000288AC63F0000F03F0000F83F61436F6319
:10550000A787D23F71A379094F930A400000E03F7B
:105510001655B5BBB16B0240EF39FAFE422EE63F9D
:1055200000002C400000244000001840FF03000051
:105530002D431CEBE2361A3F80842E41099B00224A
:10554000013B09932000164B290001F0E0FA0A0004
:10555000010003000A910B9294E7002300240A93B0
:105560000B9400230993249A099B9A4214DDD31AC1
:10557000013B24938023269ADB001A430023002555
:10558000269209932DE6802212069446229B1E0045
:10559000239B63441F0006E600232493EAE7C046EA
:1055A00000002440F0B54546DE464E465746E0B57D
:1055B00095B08B46904699461E9A1F9B0A901900FB
:1055C0001000209D01F017FB002800D0B0E11E98CC
:1055D0001F990122C74B524201F0FAFA002800D06D
:1055E00037E11E981F990122C34B524201F0FEFA87
:1055F000002800D0A7E01E981F990022BF4B01F0A1
:10560000F5FA002800D088E01E981F990022BC4BB4
:1056100001F0DEFA002800D07FE01E981F990022DA
:10562000002301F0D5FA002800D0FAE000230B9304
:105630008023229C229ADB001C401A4200D102E106
:10564000092D00D87CE106A98C462C0017220023E6
:105650003021093C62440133D154EF1A202B00D190
:1056600032E1A342F7D10022A44B069207931E9881
:105670001F9901F0EBFA050001F0D0FA02000B00CF
:105680001E981F9901F031FA069A079B01F05DFA06
:105690000890099101F0FEFA060001F0BBFA020041
:1056A0000B000898099901F020FA0022954B089008
:1056B000099101F09BFA002800D1D2E001363000B8
:1056C00001F0A8FA069A079B01F088FA002801D099
:1056D00000260135AA46002F00D098E0280001F0EE
:1056E0009DFA02000B001E981F9901F0FEF9854BF0
:1056F000002206000F0001F06BFA0CAB9A4600285E
:1057000045D10022300039007E4B01F06FFA0028AD
:105710003DD1EB073BD5013539E0229B424604934E
:10572000219B594603930A981E9B1F9C0295009348
:1057300001944B46FFF704FD15B0F0BCBB46B246E2
:10574000A946A046F0BD229B5B0767D403226E4B9F
:1057500022990192039121990291009342464B466E
:1057600059460A98FFF766FBE6E706AA9446172310
:10577000280063440A2101341E1900F053FF303120
:10578000280031700A2100F04DFF051E76D0202C34
:10579000EBD10323229A1340012B1DD1219B002B17
:1057A0001AD00B9B002B00D0BBE0229A0C33134283
:1057B00000D0B6E0219BA34200D887E006AB9C4610
:1057C00017223023624404E02199013413558C429E
:1057D00059D0202CF8D12024229B01940393219BA3
:1057E00002935346B9E706AA944617230A21634455
:1057F000300001341D1900F03DFF303129703000B8
:105800000A21013F00F036FF092E46D90600202C60
:10581000E9D155460CAB20249A46B8E704223B4B0D
:1058200096E71E9A1F9B0020002101F05EF90123DC
:105830000B938023229C229ADB001E901F911C4018
:105840001A4200D0FCE60022314B0627069207934D
:105850000DE7229B0393219B0293042301932D4B7D
:105860007BE7002208980999264B01F0B1F900283E
:1058700000D02FE7002E4FD101362BE70323229AC9
:105880001340012B66D0202CA6D00B9B002B1FD0E1
:105890002D235246135501349EE75546202CB9D08E
:1058A00030233A19002F08D0172006A9013409180F
:1058B0000B55202CAED09442F6D10CAB9A462E2339
:1058C00052461355013462E72024CCE6202C83D0C5
:1058D000229B5B0708D4229B1B0700D47CE7202374
:1058E00052461355013477E72B23524613550134A2
:1058F00072E7C046FFFFEFFFFFFFEF7F65CDCD41B1
:1059000065CDCDC10000E03FF4790110EC790110C4
:1059100080842E41FC790110F30700D4DAE60136C9
:10592000D8E6219B013B2193A34200D946E7AAE791
:10593000229B0393219B029303230193074B0CE7C4
:10594000074BEA009B185C681B682F0006930794BE
:1059500000248CE6219B002B95D022E7F8790110DA
:1059600000880110F0B55746DE464E464546E0B584
:10597000A5B01F002E9B91460D93CA4ACA4B824682
:105980008B461A60002900D129E200233878984616
:10599000002800D12BE2C54B44460C93C44B55461E
:1059A0004E460E930AE0631C984622003300594687
:1059B000A84744463878002800D187E001372528D9
:1059C000F1D108239A46043B9946023B9846013B95
:1059D00000229C460B943878791C0300203BDBB2F4
:1059E000102B03D80C9C9B00E3589F460300303BD0
:1059F0000B9C0B92092B3AD9002398462A2800D1F8
:105A0000DDE000239A462E284BD00300683BDBB232
:105A1000122B1ED80E9A9B00D3589F4663460F0048
:105A20001A43D8E743460F001A43D4E74B460F000A
:105A30001A43D0E710230F001A43CCE753460F0058
:105A40001A43C8E780235B000B9A78781A430B92BD
:105A500001310F0067284FD82428A4D90300253B23
:105A6000DBB2422B9FD893499B00CB589F46002323
:105A700098460B9B47469C4600E00131BB00DB1972
:105A80005B001F180878303F0300303B092BF4D926
:105A900063460B930023B8469A460F0001312E2827
:105AA000B3D180200B9AC00002430B9230225242A5
:105AB000944678780B0084446246092A00D8AAE10B
:105AC0002A2800D1B9E10F0001319EE7A046AA467D
:105AD000B146C84503D301235B424B4498464B462D
